{
	"CCNProjectV4.sol": {
		"CCNCarnival2025": {
			"abi": [
				{
					"anonymous": false,
					"inputs": [
						{
							"indexed": true,
							"internalType": "uint256",
							"name": "stallId",
							"type": "uint256"
						},
						{
							"indexed": true,
							"internalType": "address",
							"name": "owner",
							"type": "address"
						},
						{
							"indexed": false,
							"internalType": "uint256",
							"name": "amount",
							"type": "uint256"
						}
					],
					"name": "FundsWithdrawn",
					"type": "event"
				},
				{
					"anonymous": false,
					"inputs": [
						{
							"indexed": true,
							"internalType": "uint256",
							"name": "stallId",
							"type": "uint256"
						},
						{
							"indexed": true,
							"internalType": "address",
							"name": "payer",
							"type": "address"
						},
						{
							"indexed": false,
							"internalType": "uint256",
							"name": "amount",
							"type": "uint256"
						}
					],
					"name": "PaymentMade",
					"type": "event"
				},
				{
					"anonymous": false,
					"inputs": [
						{
							"indexed": true,
							"internalType": "uint256",
							"name": "stallId",
							"type": "uint256"
						},
						{
							"indexed": true,
							"internalType": "address",
							"name": "to",
							"type": "address"
						},
						{
							"indexed": false,
							"internalType": "uint256",
							"name": "amount",
							"type": "uint256"
						}
					],
					"name": "RefundIssued",
					"type": "event"
				},
				{
					"anonymous": false,
					"inputs": [
						{
							"indexed": true,
							"internalType": "uint256",
							"name": "stallId",
							"type": "uint256"
						},
						{
							"indexed": true,
							"internalType": "address",
							"name": "owner",
							"type": "address"
						},
						{
							"indexed": false,
							"internalType": "uint256",
							"name": "time",
							"type": "uint256"
						},
						{
							"indexed": false,
							"internalType": "string",
							"name": "reason",
							"type": "string"
						}
					],
					"name": "StallClosed",
					"type": "event"
				},
				{
					"anonymous": false,
					"inputs": [
						{
							"indexed": true,
							"internalType": "uint256",
							"name": "stallId",
							"type": "uint256"
						},
						{
							"indexed": true,
							"internalType": "address",
							"name": "rater",
							"type": "address"
						},
						{
							"indexed": false,
							"internalType": "uint8",
							"name": "rating",
							"type": "uint8"
						}
					],
					"name": "StallRated",
					"type": "event"
				},
				{
					"anonymous": false,
					"inputs": [
						{
							"indexed": true,
							"internalType": "uint256",
							"name": "stallId",
							"type": "uint256"
						},
						{
							"indexed": true,
							"internalType": "address",
							"name": "owner",
							"type": "address"
						},
						{
							"indexed": false,
							"internalType": "string",
							"name": "name",
							"type": "string"
						},
						{
							"indexed": false,
							"internalType": "enum CCNCarnival2025.Duration",
							"name": "duration",
							"type": "uint8"
						}
					],
					"name": "StallRegistered",
					"type": "event"
				},
				{
					"inputs": [],
					"name": "carnivalStart",
					"outputs": [
						{
							"internalType": "uint256",
							"name": "",
							"type": "uint256"
						}
					],
					"stateMutability": "view",
					"type": "function"
				},
				{
					"inputs": [
						{
							"internalType": "uint256",
							"name": "stallId",
							"type": "uint256"
						}
					],
					"name": "closeStall",
					"outputs": [],
					"stateMutability": "nonpayable",
					"type": "function"
				},
				{
					"inputs": [
						{
							"internalType": "uint256",
							"name": "stallId",
							"type": "uint256"
						}
					],
					"name": "getAverageRating",
					"outputs": [
						{
							"internalType": "uint256",
							"name": "avgRating",
							"type": "uint256"
						},
						{
							"internalType": "uint256",
							"name": "ratingsCount",
							"type": "uint256"
						}
					],
					"stateMutability": "view",
					"type": "function"
				},
				{
					"inputs": [
						{
							"internalType": "uint256",
							"name": "stallId",
							"type": "uint256"
						}
					],
					"name": "getPayers",
					"outputs": [
						{
							"internalType": "address[]",
							"name": "",
							"type": "address[]"
						}
					],
					"stateMutability": "view",
					"type": "function"
				},
				{
					"inputs": [
						{
							"internalType": "uint256",
							"name": "stallId",
							"type": "uint256"
						},
						{
							"internalType": "address",
							"name": "user",
							"type": "address"
						}
					],
					"name": "getPayment",
					"outputs": [
						{
							"internalType": "uint256",
							"name": "",
							"type": "uint256"
						}
					],
					"stateMutability": "view",
					"type": "function"
				},
				{
					"inputs": [
						{
							"internalType": "uint256",
							"name": "stallId",
							"type": "uint256"
						},
						{
							"internalType": "address",
							"name": "user",
							"type": "address"
						}
					],
					"name": "getRating",
					"outputs": [
						{
							"internalType": "uint8",
							"name": "",
							"type": "uint8"
						}
					],
					"stateMutability": "view",
					"type": "function"
				},
				{
					"inputs": [
						{
							"internalType": "uint256",
							"name": "stallId",
							"type": "uint256"
						}
					],
					"name": "getStall",
					"outputs": [
						{
							"internalType": "address",
							"name": "owner",
							"type": "address"
						},
						{
							"internalType": "string",
							"name": "name",
							"type": "string"
						},
						{
							"internalType": "enum CCNCarnival2025.Duration",
							"name": "duration",
							"type": "uint8"
						},
						{
							"internalType": "uint256",
							"name": "totalFunds",
							"type": "uint256"
						},
						{
							"internalType": "uint256",
							"name": "withdrawTime",
							"type": "uint256"
						},
						{
							"internalType": "enum CCNCarnival2025.Status",
							"name": "status",
							"type": "uint8"
						},
						{
							"internalType": "bool",
							"name": "withdrawn",
							"type": "bool"
						}
					],
					"stateMutability": "view",
					"type": "function"
				},
				{
					"inputs": [],
					"name": "oneDay",
					"outputs": [
						{
							"internalType": "uint256",
							"name": "",
							"type": "uint256"
						}
					],
					"stateMutability": "view",
					"type": "function"
				},
				{
					"inputs": [
						{
							"internalType": "uint256",
							"name": "stallId",
							"type": "uint256"
						}
					],
					"name": "payStall",
					"outputs": [],
					"stateMutability": "payable",
					"type": "function"
				},
				{
					"inputs": [
						{
							"internalType": "uint256",
							"name": "stallId",
							"type": "uint256"
						},
						{
							"internalType": "uint8",
							"name": "rating",
							"type": "uint8"
						}
					],
					"name": "rateStall",
					"outputs": [],
					"stateMutability": "nonpayable",
					"type": "function"
				},
				{
					"inputs": [
						{
							"internalType": "uint256",
							"name": "stallId",
							"type": "uint256"
						},
						{
							"internalType": "address",
							"name": "to",
							"type": "address"
						},
						{
							"internalType": "uint256",
							"name": "amount",
							"type": "uint256"
						}
					],
					"name": "refund",
					"outputs": [],
					"stateMutability": "nonpayable",
					"type": "function"
				},
				{
					"inputs": [
						{
							"internalType": "string",
							"name": "name",
							"type": "string"
						},
						{
							"internalType": "enum CCNCarnival2025.Duration",
							"name": "duration",
							"type": "uint8"
						}
					],
					"name": "registerStall",
					"outputs": [
						{
							"internalType": "uint256",
							"name": "",
							"type": "uint256"
						}
					],
					"stateMutability": "nonpayable",
					"type": "function"
				},
				{
					"inputs": [],
					"name": "stallCount",
					"outputs": [
						{
							"internalType": "uint256",
							"name": "",
							"type": "uint256"
						}
					],
					"stateMutability": "view",
					"type": "function"
				},
				{
					"inputs": [
						{
							"internalType": "uint256",
							"name": "",
							"type": "uint256"
						}
					],
					"name": "stallExists",
					"outputs": [
						{
							"internalType": "bool",
							"name": "",
							"type": "bool"
						}
					],
					"stateMutability": "view",
					"type": "function"
				},
				{
					"inputs": [
						{
							"internalType": "uint256",
							"name": "",
							"type": "uint256"
						}
					],
					"name": "stalls",
					"outputs": [
						{
							"internalType": "address",
							"name": "owner",
							"type": "address"
						},
						{
							"internalType": "string",
							"name": "name",
							"type": "string"
						},
						{
							"internalType": "enum CCNCarnival2025.Duration",
							"name": "duration",
							"type": "uint8"
						},
						{
							"internalType": "uint256",
							"name": "totalFunds",
							"type": "uint256"
						},
						{
							"internalType": "uint256",
							"name": "withdrawTime",
							"type": "uint256"
						},
						{
							"internalType": "enum CCNCarnival2025.Status",
							"name": "status",
							"type": "uint8"
						},
						{
							"internalType": "bool",
							"name": "withdrawn",
							"type": "bool"
						},
						{
							"internalType": "uint256",
							"name": "ratingsSum",
							"type": "uint256"
						},
						{
							"internalType": "uint256",
							"name": "ratingsCount",
							"type": "uint256"
						}
					],
					"stateMutability": "view",
					"type": "function"
				},
				{
					"inputs": [
						{
							"internalType": "uint256",
							"name": "stallId",
							"type": "uint256"
						}
					],
					"name": "withdraw",
					"outputs": [],
					"stateMutability": "nonpayable",
					"type": "function"
				}
			],
			"devdoc": {
				"kind": "dev",
				"methods": {},
				"version": 1
			},
			"evm": {
				"assembly": "    /* \"CCNProjectV4.sol\":61:6943  contract CCNCarnival2025 {... */\n  mstore(0x40, 0x80)\n  callvalue\n  dup1\n  iszero\n  tag_1\n  jumpi\n  revert(0x00, 0x00)\ntag_1:\n  pop\n  dataSize(sub_0)\n  dup1\n  dataOffset(sub_0)\n  0x00\n  codecopy\n  0x00\n  return\nstop\n\nsub_0: assembly {\n        /* \"CCNProjectV4.sol\":61:6943  contract CCNCarnival2025 {... */\n      mstore(0x40, 0x80)\n      jumpi(tag_1, lt(calldatasize, 0x04))\n      shr(0xe0, calldataload(0x00))\n      dup1\n      0x5c8ed0f7\n      gt\n      tag_18\n      jumpi\n      dup1\n      0x764af2a9\n      gt\n      tag_19\n      jumpi\n      dup1\n      0x764af2a9\n      eq\n      tag_14\n      jumpi\n      dup1\n      0x9649bf90\n      eq\n      tag_15\n      jumpi\n      dup1\n      0x99cb043a\n      eq\n      tag_16\n      jumpi\n      dup1\n      0xe796a6eb\n      eq\n      tag_17\n      jumpi\n      jump(tag_1)\n    tag_19:\n      dup1\n      0x5c8ed0f7\n      eq\n      tag_10\n      jumpi\n      dup1\n      0x64fbc7cf\n      eq\n      tag_11\n      jumpi\n      dup1\n      0x68209707\n      eq\n      tag_12\n      jumpi\n      dup1\n      0x6d0f9408\n      eq\n      tag_13\n      jumpi\n      jump(tag_1)\n    tag_18:\n      dup1\n      0x43b80d39\n      gt\n      tag_20\n      jumpi\n      dup1\n      0x43b80d39\n      eq\n      tag_6\n      jumpi\n      dup1\n      0x4bd9351b\n      eq\n      tag_7\n      jumpi\n      dup1\n      0x4ea4066b\n      eq\n      tag_8\n      jumpi\n      dup1\n      0x55fa37d7\n      eq\n      tag_9\n      jumpi\n      jump(tag_1)\n    tag_20:\n      dup1\n      0x0e376dea\n      eq\n      tag_2\n      jumpi\n      dup1\n      0x154d2b76\n      eq\n      tag_3\n      jumpi\n      dup1\n      0x17b7e03e\n      eq\n      tag_4\n      jumpi\n      dup1\n      0x2e1a7d4d\n      eq\n      tag_5\n      jumpi\n    tag_1:\n      revert(0x00, 0x00)\n        /* \"CCNProjectV4.sol\":6801:6940  function getPayment(uint256 stallId, address user) external view returns (uint256) {... */\n    tag_2:\n      callvalue\n      dup1\n      iszero\n      tag_21\n      jumpi\n      revert(0x00, 0x00)\n    tag_21:\n      pop\n      tag_22\n      0x04\n      dup1\n      calldatasize\n      sub\n      dup2\n      add\n      swap1\n      tag_23\n      swap2\n      swap1\n      tag_24\n      jump\t// in\n    tag_23:\n      tag_25\n      jump\t// in\n    tag_22:\n      mload(0x40)\n      tag_26\n      swap2\n      swap1\n      tag_27\n      jump\t// in\n    tag_26:\n      mload(0x40)\n      dup1\n      swap2\n      sub\n      swap1\n      return\n        /* \"CCNProjectV4.sol\":809:852  mapping(uint256 => bool) public stallExists */\n    tag_3:\n      callvalue\n      dup1\n      iszero\n      tag_28\n      jumpi\n      revert(0x00, 0x00)\n    tag_28:\n      pop\n      tag_29\n      0x04\n      dup1\n      calldatasize\n      sub\n      dup2\n      add\n      swap1\n      tag_30\n      swap2\n      swap1\n      tag_31\n      jump\t// in\n    tag_30:\n      tag_32\n      jump\t// in\n    tag_29:\n      mload(0x40)\n      tag_33\n      swap2\n      swap1\n      tag_34\n      jump\t// in\n    tag_33:\n      mload(0x40)\n      dup1\n      swap2\n      sub\n      swap1\n      return\n        /* \"CCNProjectV4.sol\":5955:6254  function getAverageRating(uint256 stallId) external view returns (uint256 avgRating, uint256 ratingsCount) {... */\n    tag_4:\n      callvalue\n      dup1\n      iszero\n      tag_35\n      jumpi\n      revert(0x00, 0x00)\n    tag_35:\n      pop\n      tag_36\n      0x04\n      dup1\n      calldatasize\n      sub\n      dup2\n      add\n      swap1\n      tag_37\n      swap2\n      swap1\n      tag_31\n      jump\t// in\n    tag_37:\n      tag_38\n      jump\t// in\n    tag_36:\n      mload(0x40)\n      tag_39\n      swap3\n      swap2\n      swap1\n      tag_40\n      jump\t// in\n    tag_39:\n      mload(0x40)\n      dup1\n      swap2\n      sub\n      swap1\n      return\n        /* \"CCNProjectV4.sol\":4199:4808  function withdraw(uint256 stallId) external onlyStallOwner(stallId) {... */\n    tag_5:\n      callvalue\n      dup1\n      iszero\n      tag_41\n      jumpi\n      revert(0x00, 0x00)\n    tag_41:\n      pop\n      tag_42\n      0x04\n      dup1\n      calldatasize\n      sub\n      dup2\n      add\n      swap1\n      tag_43\n      swap2\n      swap1\n      tag_31\n      jump\t// in\n    tag_43:\n      tag_44\n      jump\t// in\n    tag_42:\n      stop\n        /* \"CCNProjectV4.sol\":2255:3233  function registerStall(string calldata name, Duration duration) external returns (uint256) {... */\n    tag_6:\n      callvalue\n      dup1\n      iszero\n      tag_45\n      jumpi\n      revert(0x00, 0x00)\n    tag_45:\n      pop\n      tag_46\n      0x04\n      dup1\n      calldatasize\n      sub\n      dup2\n      add\n      swap1\n      tag_47\n      swap2\n      swap1\n      tag_48\n      jump\t// in\n    tag_47:\n      tag_49\n      jump\t// in\n    tag_46:\n      mload(0x40)\n      tag_50\n      swap2\n      swap1\n      tag_27\n      jump\t// in\n    tag_50:\n      mload(0x40)\n      dup1\n      swap2\n      sub\n      swap1\n      return\n        /* \"CCNProjectV4.sol\":2207:2246  uint256 public constant oneDay = 1 days */\n    tag_7:\n      callvalue\n      dup1\n      iszero\n      tag_51\n      jumpi\n      revert(0x00, 0x00)\n    tag_51:\n      pop\n      tag_52\n      tag_53\n      jump\t// in\n    tag_52:\n      mload(0x40)\n      tag_54\n      swap2\n      swap1\n      tag_27\n      jump\t// in\n    tag_54:\n      mload(0x40)\n      dup1\n      swap2\n      sub\n      swap1\n      return\n        /* \"CCNProjectV4.sol\":5170:5804  function rateStall(uint256 stallId, uint8 rating) external {... */\n    tag_8:\n      callvalue\n      dup1\n      iszero\n      tag_55\n      jumpi\n      revert(0x00, 0x00)\n    tag_55:\n      pop\n      tag_56\n      0x04\n      dup1\n      calldatasize\n      sub\n      dup2\n      add\n      swap1\n      tag_57\n      swap2\n      swap1\n      tag_58\n      jump\t// in\n    tag_57:\n      tag_59\n      jump\t// in\n    tag_56:\n      stop\n        /* \"CCNProjectV4.sol\":2114:2164  uint256 public constant carnivalStart = 1752019200 */\n    tag_9:\n      callvalue\n      dup1\n      iszero\n      tag_60\n      jumpi\n      revert(0x00, 0x00)\n    tag_60:\n      pop\n      tag_61\n      tag_62\n      jump\t// in\n    tag_61:\n      mload(0x40)\n      tag_63\n      swap2\n      swap1\n      tag_27\n      jump\t// in\n    tag_63:\n      mload(0x40)\n      dup1\n      swap2\n      sub\n      swap1\n      return\n        /* \"CCNProjectV4.sol\":3241:3720  function payStall(uint256 stallId) external payable stallOpen(stallId) {... */\n    tag_10:\n      tag_64\n      0x04\n      dup1\n      calldatasize\n      sub\n      dup2\n      add\n      swap1\n      tag_65\n      swap2\n      swap1\n      tag_31\n      jump\t// in\n    tag_65:\n      tag_66\n      jump\t// in\n    tag_64:\n      stop\n        /* \"CCNProjectV4.sol\":5812:5947  function getRating(uint256 stallId, address user) external view returns (uint8) {... */\n    tag_11:\n      callvalue\n      dup1\n      iszero\n      tag_67\n      jumpi\n      revert(0x00, 0x00)\n    tag_67:\n      pop\n      tag_68\n      0x04\n      dup1\n      calldatasize\n      sub\n      dup2\n      add\n      swap1\n      tag_69\n      swap2\n      swap1\n      tag_24\n      jump\t// in\n    tag_69:\n      tag_70\n      jump\t// in\n    tag_68:\n      mload(0x40)\n      tag_71\n      swap2\n      swap1\n      tag_72\n      jump\t// in\n    tag_71:\n      mload(0x40)\n      dup1\n      swap2\n      sub\n      swap1\n      return\n        /* \"CCNProjectV4.sol\":6668:6793  function getPayers(uint256 stallId) external view returns (address[] memory) {... */\n    tag_12:\n      callvalue\n      dup1\n      iszero\n      tag_73\n      jumpi\n      revert(0x00, 0x00)\n    tag_73:\n      pop\n      tag_74\n      0x04\n      dup1\n      calldatasize\n      sub\n      dup2\n      add\n      swap1\n      tag_75\n      swap2\n      swap1\n      tag_31\n      jump\t// in\n    tag_75:\n      tag_76\n      jump\t// in\n    tag_74:\n      mload(0x40)\n      tag_77\n      swap2\n      swap1\n      tag_78\n      jump\t// in\n    tag_77:\n      mload(0x40)\n      dup1\n      swap2\n      sub\n      swap1\n      return\n        /* \"CCNProjectV4.sol\":763:802  mapping(uint256 => Stall) public stalls */\n    tag_13:\n      callvalue\n      dup1\n      iszero\n      tag_79\n      jumpi\n      revert(0x00, 0x00)\n    tag_79:\n      pop\n      tag_80\n      0x04\n      dup1\n      calldatasize\n      sub\n      dup2\n      add\n      swap1\n      tag_81\n      swap2\n      swap1\n      tag_31\n      jump\t// in\n    tag_81:\n      tag_82\n      jump\t// in\n    tag_80:\n      mload(0x40)\n      tag_83\n      swap10\n      swap9\n      swap8\n      swap7\n      swap6\n      swap5\n      swap4\n      swap3\n      swap2\n      swap1\n      tag_84\n      jump\t// in\n    tag_83:\n      mload(0x40)\n      dup1\n      swap2\n      sub\n      swap1\n      return\n        /* \"CCNProjectV4.sol\":6307:6660  function getStall(uint256 stallId) external view returns (... */\n    tag_14:\n      callvalue\n      dup1\n      iszero\n      tag_85\n      jumpi\n      revert(0x00, 0x00)\n    tag_85:\n      pop\n      tag_86\n      0x04\n      dup1\n      calldatasize\n      sub\n      dup2\n      add\n      swap1\n      tag_87\n      swap2\n      swap1\n      tag_31\n      jump\t// in\n    tag_87:\n      tag_88\n      jump\t// in\n    tag_86:\n      mload(0x40)\n      tag_89\n      swap8\n      swap7\n      swap6\n      swap5\n      swap4\n      swap3\n      swap2\n      swap1\n      tag_90\n      jump\t// in\n    tag_89:\n      mload(0x40)\n      dup1\n      swap2\n      sub\n      swap1\n      return\n        /* \"CCNProjectV4.sol\":4816:5122  function closeStall(uint256 stallId) external onlyStallOwner(stallId) {... */\n    tag_15:\n      callvalue\n      dup1\n      iszero\n      tag_91\n      jumpi\n      revert(0x00, 0x00)\n    tag_91:\n      pop\n      tag_92\n      0x04\n      dup1\n      calldatasize\n      sub\n      dup2\n      add\n      swap1\n      tag_93\n      swap2\n      swap1\n      tag_31\n      jump\t// in\n    tag_93:\n      tag_94\n      jump\t// in\n    tag_92:\n      stop\n        /* \"CCNProjectV4.sol\":731:756  uint256 public stallCount */\n    tag_16:\n      callvalue\n      dup1\n      iszero\n      tag_95\n      jumpi\n      revert(0x00, 0x00)\n    tag_95:\n      pop\n      tag_96\n      tag_97\n      jump\t// in\n    tag_96:\n      mload(0x40)\n      tag_98\n      swap2\n      swap1\n      tag_27\n      jump\t// in\n    tag_98:\n      mload(0x40)\n      dup1\n      swap2\n      sub\n      swap1\n      return\n        /* \"CCNProjectV4.sol\":3728:4191  function refund(uint256 stallId, address to, uint256 amount) external onlyStallOwner(stallId) stallOpen(stallId) {... */\n    tag_17:\n      callvalue\n      dup1\n      iszero\n      tag_99\n      jumpi\n      revert(0x00, 0x00)\n    tag_99:\n      pop\n      tag_100\n      0x04\n      dup1\n      calldatasize\n      sub\n      dup2\n      add\n      swap1\n      tag_101\n      swap2\n      swap1\n      tag_102\n      jump\t// in\n    tag_101:\n      tag_103\n      jump\t// in\n    tag_100:\n      stop\n        /* \"CCNProjectV4.sol\":6801:6940  function getPayment(uint256 stallId, address user) external view returns (uint256) {... */\n    tag_25:\n        /* \"CCNProjectV4.sol\":6875:6882  uint256 */\n      0x00\n        /* \"CCNProjectV4.sol\":6902:6908  stalls */\n      0x01\n        /* \"CCNProjectV4.sol\":6902:6917  stalls[stallId] */\n      0x00\n        /* \"CCNProjectV4.sol\":6909:6916  stallId */\n      dup5\n        /* \"CCNProjectV4.sol\":6902:6917  stalls[stallId] */\n      dup2\n      mstore\n      0x20\n      add\n      swap1\n      dup2\n      mstore\n      0x20\n      add\n      0x00\n      keccak256\n        /* \"CCNProjectV4.sol\":6902:6926  stalls[stallId].payments */\n      0x06\n      add\n        /* \"CCNProjectV4.sol\":6902:6932  stalls[stallId].payments[user] */\n      0x00\n        /* \"CCNProjectV4.sol\":6927:6931  user */\n      dup4\n        /* \"CCNProjectV4.sol\":6902:6932  stalls[stallId].payments[user] */\n      0xffffffffffffffffffffffffffffffffffffffff\n      and\n      0xffffffffffffffffffffffffffffffffffffffff\n      and\n      dup2\n      mstore\n      0x20\n      add\n      swap1\n      dup2\n      mstore\n      0x20\n      add\n      0x00\n      keccak256\n      sload\n        /* \"CCNProjectV4.sol\":6895:6932  return stalls[stallId].payments[user] */\n      swap1\n      pop\n        /* \"CCNProjectV4.sol\":6801:6940  function getPayment(uint256 stallId, address user) external view returns (uint256) {... */\n      swap3\n      swap2\n      pop\n      pop\n      jump\t// out\n        /* \"CCNProjectV4.sol\":809:852  mapping(uint256 => bool) public stallExists */\n    tag_32:\n      mstore(0x20, 0x02)\n      dup1\n      0x00\n      mstore\n      keccak256(0x00, 0x40)\n      0x00\n      swap2\n      pop\n      sload\n      swap1\n      0x0100\n      exp\n      swap1\n      div\n      0xff\n      and\n      dup2\n      jump\t// out\n        /* \"CCNProjectV4.sol\":5955:6254  function getAverageRating(uint256 stallId) external view returns (uint256 avgRating, uint256 ratingsCount) {... */\n    tag_38:\n        /* \"CCNProjectV4.sol\":6021:6038  uint256 avgRating */\n      0x00\n        /* \"CCNProjectV4.sol\":6040:6060  uint256 ratingsCount */\n      0x00\n        /* \"CCNProjectV4.sol\":6073:6088  Stall storage s */\n      0x00\n        /* \"CCNProjectV4.sol\":6091:6097  stalls */\n      0x01\n        /* \"CCNProjectV4.sol\":6091:6106  stalls[stallId] */\n      0x00\n        /* \"CCNProjectV4.sol\":6098:6105  stallId */\n      dup6\n        /* \"CCNProjectV4.sol\":6091:6106  stalls[stallId] */\n      dup2\n      mstore\n      0x20\n      add\n      swap1\n      dup2\n      mstore\n      0x20\n      add\n      0x00\n      keccak256\n        /* \"CCNProjectV4.sol\":6073:6106  Stall storage s = stalls[stallId] */\n      swap1\n      pop\n        /* \"CCNProjectV4.sol\":6139:6140  0 */\n      0x00\n        /* \"CCNProjectV4.sol\":6121:6122  s */\n      dup2\n        /* \"CCNProjectV4.sol\":6121:6135  s.ratingsCount */\n      0x0a\n      add\n      sload\n        /* \"CCNProjectV4.sol\":6121:6140  s.ratingsCount == 0 */\n      sub\n        /* \"CCNProjectV4.sol\":6117:6182  if (s.ratingsCount == 0) {... */\n      tag_106\n      jumpi\n        /* \"CCNProjectV4.sol\":6165:6166  0 */\n      0x00\n        /* \"CCNProjectV4.sol\":6168:6169  0 */\n      0x00\n        /* \"CCNProjectV4.sol\":6157:6170  return (0, 0) */\n      swap3\n      pop\n      swap3\n      pop\n      pop\n      jump(tag_105)\n        /* \"CCNProjectV4.sol\":6117:6182  if (s.ratingsCount == 0) {... */\n    tag_106:\n        /* \"CCNProjectV4.sol\":6215:6216  s */\n      dup1\n        /* \"CCNProjectV4.sol\":6215:6229  s.ratingsCount */\n      0x0a\n      add\n      sload\n        /* \"CCNProjectV4.sol\":6200:6201  s */\n      dup2\n        /* \"CCNProjectV4.sol\":6200:6212  s.ratingsSum */\n      0x09\n      add\n      sload\n        /* \"CCNProjectV4.sol\":6200:6229  s.ratingsSum / s.ratingsCount */\n      tag_107\n      swap2\n      swap1\n      tag_108\n      jump\t// in\n    tag_107:\n        /* \"CCNProjectV4.sol\":6231:6232  s */\n      dup2\n        /* \"CCNProjectV4.sol\":6231:6245  s.ratingsCount */\n      0x0a\n      add\n      sload\n        /* \"CCNProjectV4.sol\":6192:6246  return (s.ratingsSum / s.ratingsCount, s.ratingsCount) */\n      swap3\n      pop\n      swap3\n      pop\n      pop\n        /* \"CCNProjectV4.sol\":5955:6254  function getAverageRating(uint256 stallId) external view returns (uint256 avgRating, uint256 ratingsCount) {... */\n    tag_105:\n      swap2\n      pop\n      swap2\n      jump\t// out\n        /* \"CCNProjectV4.sol\":4199:4808  function withdraw(uint256 stallId) external onlyStallOwner(stallId) {... */\n    tag_44:\n        /* \"CCNProjectV4.sol\":4258:4265  stallId */\n      dup1\n        /* \"CCNProjectV4.sol\":1482:1493  stallExists */\n      0x02\n        /* \"CCNProjectV4.sol\":1482:1502  stallExists[stallId] */\n      0x00\n        /* \"CCNProjectV4.sol\":1494:1501  stallId */\n      dup3\n        /* \"CCNProjectV4.sol\":1482:1502  stallExists[stallId] */\n      dup2\n      mstore\n      0x20\n      add\n      swap1\n      dup2\n      mstore\n      0x20\n      add\n      0x00\n      keccak256\n      0x00\n      swap1\n      sload\n      swap1\n      0x0100\n      exp\n      swap1\n      div\n      0xff\n      and\n        /* \"CCNProjectV4.sol\":1474:1527  require(stallExists[stallId], \"Stall does not exist\") */\n      tag_110\n      jumpi\n      mload(0x40)\n      0x08c379a000000000000000000000000000000000000000000000000000000000\n      dup2\n      mstore\n      0x04\n      add\n      tag_111\n      swap1\n      tag_112\n      jump\t// in\n    tag_111:\n      mload(0x40)\n      dup1\n      swap2\n      sub\n      swap1\n      revert\n    tag_110:\n        /* \"CCNProjectV4.sol\":1571:1581  msg.sender */\n      caller\n        /* \"CCNProjectV4.sol\":1546:1581  stalls[stallId].owner == msg.sender */\n      0xffffffffffffffffffffffffffffffffffffffff\n      and\n        /* \"CCNProjectV4.sol\":1546:1552  stalls */\n      0x01\n        /* \"CCNProjectV4.sol\":1546:1561  stalls[stallId] */\n      0x00\n        /* \"CCNProjectV4.sol\":1553:1560  stallId */\n      dup4\n        /* \"CCNProjectV4.sol\":1546:1561  stalls[stallId] */\n      dup2\n      mstore\n      0x20\n      add\n      swap1\n      dup2\n      mstore\n      0x20\n      add\n      0x00\n      keccak256\n        /* \"CCNProjectV4.sol\":1546:1567  stalls[stallId].owner */\n      0x00\n      add\n      0x00\n      swap1\n      sload\n      swap1\n      0x0100\n      exp\n      swap1\n      div\n      0xffffffffffffffffffffffffffffffffffffffff\n      and\n        /* \"CCNProjectV4.sol\":1546:1581  stalls[stallId].owner == msg.sender */\n      0xffffffffffffffffffffffffffffffffffffffff\n      and\n      eq\n        /* \"CCNProjectV4.sol\":1538:1601  require(stalls[stallId].owner == msg.sender, \"Not stall owner\") */\n      tag_113\n      jumpi\n      mload(0x40)\n      0x08c379a000000000000000000000000000000000000000000000000000000000\n      dup2\n      mstore\n      0x04\n      add\n      tag_114\n      swap1\n      tag_115\n      jump\t// in\n    tag_114:\n      mload(0x40)\n      dup1\n      swap2\n      sub\n      swap1\n      revert\n    tag_113:\n        /* \"CCNProjectV4.sol\":4278:4293  Stall storage s */\n      0x00\n        /* \"CCNProjectV4.sol\":4296:4302  stalls */\n      0x01\n        /* \"CCNProjectV4.sol\":4296:4311  stalls[stallId] */\n      0x00\n        /* \"CCNProjectV4.sol\":4303:4310  stallId */\n      dup5\n        /* \"CCNProjectV4.sol\":4296:4311  stalls[stallId] */\n      dup2\n      mstore\n      0x20\n      add\n      swap1\n      dup2\n      mstore\n      0x20\n      add\n      0x00\n      keccak256\n        /* \"CCNProjectV4.sol\":4278:4311  Stall storage s = stalls[stallId] */\n      swap1\n      pop\n        /* \"CCNProjectV4.sol\":4356:4376  Status.ClosedByOwner */\n      0x01\n        /* \"CCNProjectV4.sol\":4344:4376  s.status == Status.ClosedByOwner */\n      0x03\n      dup2\n      gt\n      iszero\n      tag_117\n      jumpi\n      tag_118\n      tag_119\n      jump\t// in\n    tag_118:\n    tag_117:\n        /* \"CCNProjectV4.sol\":4344:4345  s */\n      dup2\n        /* \"CCNProjectV4.sol\":4344:4352  s.status */\n      0x05\n      add\n      0x00\n      swap1\n      sload\n      swap1\n      0x0100\n      exp\n      swap1\n      div\n      0xff\n      and\n        /* \"CCNProjectV4.sol\":4344:4376  s.status == Status.ClosedByOwner */\n      0x03\n      dup2\n      gt\n      iszero\n      tag_120\n      jumpi\n      tag_121\n      tag_119\n      jump\t// in\n    tag_121:\n    tag_120:\n      eq\n        /* \"CCNProjectV4.sol\":4344:4411  s.status == Status.ClosedByOwner || s.status == Status.ClosedByTime */\n      dup1\n      tag_122\n      jumpi\n      pop\n        /* \"CCNProjectV4.sol\":4392:4411  Status.ClosedByTime */\n      0x02\n        /* \"CCNProjectV4.sol\":4380:4411  s.status == Status.ClosedByTime */\n      0x03\n      dup2\n      gt\n      iszero\n      tag_123\n      jumpi\n      tag_124\n      tag_119\n      jump\t// in\n    tag_124:\n    tag_123:\n        /* \"CCNProjectV4.sol\":4380:4381  s */\n      dup2\n        /* \"CCNProjectV4.sol\":4380:4388  s.status */\n      0x05\n      add\n      0x00\n      swap1\n      sload\n      swap1\n      0x0100\n      exp\n      swap1\n      div\n      0xff\n      and\n        /* \"CCNProjectV4.sol\":4380:4411  s.status == Status.ClosedByTime */\n      0x03\n      dup2\n      gt\n      iszero\n      tag_125\n      jumpi\n      tag_126\n      tag_119\n      jump\t// in\n    tag_126:\n    tag_125:\n      eq\n        /* \"CCNProjectV4.sol\":4344:4411  s.status == Status.ClosedByOwner || s.status == Status.ClosedByTime */\n    tag_122:\n        /* \"CCNProjectV4.sol\":4322:4459  require(... */\n      tag_127\n      jumpi\n      mload(0x40)\n      0x08c379a000000000000000000000000000000000000000000000000000000000\n      dup2\n      mstore\n      0x04\n      add\n      tag_128\n      swap1\n      tag_129\n      jump\t// in\n    tag_128:\n      mload(0x40)\n      dup1\n      swap2\n      sub\n      swap1\n      revert\n    tag_127:\n        /* \"CCNProjectV4.sol\":4479:4480  s */\n      dup1\n        /* \"CCNProjectV4.sol\":4479:4490  s.withdrawn */\n      0x05\n      add\n      0x01\n      swap1\n      sload\n      swap1\n      0x0100\n      exp\n      swap1\n      div\n      0xff\n      and\n        /* \"CCNProjectV4.sol\":4478:4490  !s.withdrawn */\n      iszero\n        /* \"CCNProjectV4.sol\":4470:4512  require(!s.withdrawn, \"Already withdrawn\") */\n      tag_130\n      jumpi\n      mload(0x40)\n      0x08c379a000000000000000000000000000000000000000000000000000000000\n      dup2\n      mstore\n      0x04\n      add\n      tag_131\n      swap1\n      tag_132\n      jump\t// in\n    tag_131:\n      mload(0x40)\n      dup1\n      swap2\n      sub\n      swap1\n      revert\n    tag_130:\n        /* \"CCNProjectV4.sol\":4523:4537  uint256 amount */\n      0x00\n        /* \"CCNProjectV4.sol\":4540:4541  s */\n      dup2\n        /* \"CCNProjectV4.sol\":4540:4552  s.totalFunds */\n      0x03\n      add\n      sload\n        /* \"CCNProjectV4.sol\":4523:4552  uint256 amount = s.totalFunds */\n      swap1\n      pop\n        /* \"CCNProjectV4.sol\":4580:4581  0 */\n      0x00\n        /* \"CCNProjectV4.sol\":4571:4577  amount */\n      dup2\n        /* \"CCNProjectV4.sol\":4571:4581  amount > 0 */\n      gt\n        /* \"CCNProjectV4.sol\":4563:4606  require(amount > 0, \"No funds to withdraw\") */\n      tag_133\n      jumpi\n      mload(0x40)\n      0x08c379a000000000000000000000000000000000000000000000000000000000\n      dup2\n      mstore\n      0x04\n      add\n      tag_134\n      swap1\n      tag_135\n      jump\t// in\n    tag_134:\n      mload(0x40)\n      dup1\n      swap2\n      sub\n      swap1\n      revert\n    tag_133:\n        /* \"CCNProjectV4.sol\":4631:4635  true */\n      0x01\n        /* \"CCNProjectV4.sol\":4617:4618  s */\n      dup3\n        /* \"CCNProjectV4.sol\":4617:4628  s.withdrawn */\n      0x05\n      add\n      0x01\n        /* \"CCNProjectV4.sol\":4617:4635  s.withdrawn = true */\n      0x0100\n      exp\n      dup2\n      sload\n      dup2\n      0xff\n      mul\n      not\n      and\n      swap1\n      dup4\n      iszero\n      iszero\n      mul\n      or\n      swap1\n      sstore\n      pop\n        /* \"CCNProjectV4.sol\":4661:4662  0 */\n      0x00\n        /* \"CCNProjectV4.sol\":4646:4647  s */\n      dup3\n        /* \"CCNProjectV4.sol\":4646:4658  s.totalFunds */\n      0x03\n      add\n        /* \"CCNProjectV4.sol\":4646:4662  s.totalFunds = 0 */\n      dup2\n      swap1\n      sstore\n      pop\n        /* \"CCNProjectV4.sol\":4684:4700  Status.Withdrawn */\n      0x03\n        /* \"CCNProjectV4.sol\":4673:4674  s */\n      dup3\n        /* \"CCNProjectV4.sol\":4673:4681  s.status */\n      0x05\n      add\n      0x00\n        /* \"CCNProjectV4.sol\":4673:4700  s.status = Status.Withdrawn */\n      0x0100\n      exp\n      dup2\n      sload\n      dup2\n      0xff\n      mul\n      not\n      and\n      swap1\n      dup4\n      0x03\n      dup2\n      gt\n      iszero\n      tag_136\n      jumpi\n      tag_137\n      tag_119\n      jump\t// in\n    tag_137:\n    tag_136:\n      mul\n      or\n      swap1\n      sstore\n      pop\n        /* \"CCNProjectV4.sol\":4719:4720  s */\n      dup2\n        /* \"CCNProjectV4.sol\":4719:4726  s.owner */\n      0x00\n      add\n      0x00\n      swap1\n      sload\n      swap1\n      0x0100\n      exp\n      swap1\n      div\n      0xffffffffffffffffffffffffffffffffffffffff\n      and\n        /* \"CCNProjectV4.sol\":4711:4736  payable(s.owner).transfer */\n      0xffffffffffffffffffffffffffffffffffffffff\n      and\n        /* \"CCNProjectV4.sol\":4711:4744  payable(s.owner).transfer(amount) */\n      0x08fc\n        /* \"CCNProjectV4.sol\":4737:4743  amount */\n      dup3\n        /* \"CCNProjectV4.sol\":4711:4744  payable(s.owner).transfer(amount) */\n      swap1\n      dup2\n      iszero\n      mul\n      swap1\n      mload(0x40)\n      0x00\n      mload(0x40)\n      dup1\n      dup4\n      sub\n      dup2\n      dup6\n      dup9\n      dup9\n      call\n      swap4\n      pop\n      pop\n      pop\n      pop\n      iszero\n      dup1\n      iszero\n      tag_139\n      jumpi\n      returndatacopy(0x00, 0x00, returndatasize)\n      revert(0x00, returndatasize)\n    tag_139:\n      pop\n        /* \"CCNProjectV4.sol\":4784:4785  s */\n      dup2\n        /* \"CCNProjectV4.sol\":4784:4791  s.owner */\n      0x00\n      add\n      0x00\n      swap1\n      sload\n      swap1\n      0x0100\n      exp\n      swap1\n      div\n      0xffffffffffffffffffffffffffffffffffffffff\n      and\n        /* \"CCNProjectV4.sol\":4760:4800  FundsWithdrawn(stallId, s.owner, amount) */\n      0xffffffffffffffffffffffffffffffffffffffff\n      and\n        /* \"CCNProjectV4.sol\":4775:4782  stallId */\n      dup5\n        /* \"CCNProjectV4.sol\":4760:4800  FundsWithdrawn(stallId, s.owner, amount) */\n      0xf440aec6b52895984d061d622e6edeba6210f7c3e059be920663140c084560d7\n        /* \"CCNProjectV4.sol\":4793:4799  amount */\n      dup4\n        /* \"CCNProjectV4.sol\":4760:4800  FundsWithdrawn(stallId, s.owner, amount) */\n      mload(0x40)\n      tag_140\n      swap2\n      swap1\n      tag_27\n      jump\t// in\n    tag_140:\n      mload(0x40)\n      dup1\n      swap2\n      sub\n      swap1\n      log3\n        /* \"CCNProjectV4.sol\":4267:4808  {... */\n      pop\n      pop\n        /* \"CCNProjectV4.sol\":4199:4808  function withdraw(uint256 stallId) external onlyStallOwner(stallId) {... */\n      pop\n      pop\n      jump\t// out\n        /* \"CCNProjectV4.sol\":2255:3233  function registerStall(string calldata name, Duration duration) external returns (uint256) {... */\n    tag_49:\n        /* \"CCNProjectV4.sol\":2337:2344  uint256 */\n      0x00\n        /* \"CCNProjectV4.sol\":2357:2367  stallCount */\n      0x00\n      0x00\n        /* \"CCNProjectV4.sol\":2357:2369  stallCount++ */\n      dup2\n      sload\n      dup1\n      swap3\n      swap2\n      swap1\n      tag_142\n      swap1\n      tag_143\n      jump\t// in\n    tag_142:\n      swap2\n      swap1\n      pop\n      sstore\n      pop\n        /* \"CCNProjectV4.sol\":2380:2395  uint256 stallId */\n      0x00\n        /* \"CCNProjectV4.sol\":2398:2408  stallCount */\n      sload(0x00)\n        /* \"CCNProjectV4.sol\":2380:2408  uint256 stallId = stallCount */\n      swap1\n      pop\n        /* \"CCNProjectV4.sol\":2419:2434  Stall storage s */\n      0x00\n        /* \"CCNProjectV4.sol\":2437:2443  stalls */\n      0x01\n        /* \"CCNProjectV4.sol\":2437:2452  stalls[stallId] */\n      0x00\n        /* \"CCNProjectV4.sol\":2444:2451  stallId */\n      dup4\n        /* \"CCNProjectV4.sol\":2437:2452  stalls[stallId] */\n      dup2\n      mstore\n      0x20\n      add\n      swap1\n      dup2\n      mstore\n      0x20\n      add\n      0x00\n      keccak256\n        /* \"CCNProjectV4.sol\":2419:2452  Stall storage s = stalls[stallId] */\n      swap1\n      pop\n        /* \"CCNProjectV4.sol\":2473:2483  msg.sender */\n      caller\n        /* \"CCNProjectV4.sol\":2463:2464  s */\n      dup2\n        /* \"CCNProjectV4.sol\":2463:2470  s.owner */\n      0x00\n      add\n      0x00\n        /* \"CCNProjectV4.sol\":2463:2483  s.owner = msg.sender */\n      0x0100\n      exp\n      dup2\n      sload\n      dup2\n      0xffffffffffffffffffffffffffffffffffffffff\n      mul\n      not\n      and\n      swap1\n      dup4\n      0xffffffffffffffffffffffffffffffffffffffff\n      and\n      mul\n      or\n      swap1\n      sstore\n      pop\n        /* \"CCNProjectV4.sol\":2503:2507  name */\n      dup6\n      dup6\n        /* \"CCNProjectV4.sol\":2494:2495  s */\n      dup3\n        /* \"CCNProjectV4.sol\":2494:2500  s.name */\n      0x01\n      add\n        /* \"CCNProjectV4.sol\":2494:2507  s.name = name */\n      swap2\n      dup3\n      tag_144\n      swap3\n      swap2\n      swap1\n      tag_145\n      jump\t// in\n    tag_144:\n      pop\n        /* \"CCNProjectV4.sol\":2531:2539  duration */\n      dup4\n        /* \"CCNProjectV4.sol\":2518:2519  s */\n      dup2\n        /* \"CCNProjectV4.sol\":2518:2528  s.duration */\n      0x02\n      add\n      0x00\n        /* \"CCNProjectV4.sol\":2518:2539  s.duration = duration */\n      0x0100\n      exp\n      dup2\n      sload\n      dup2\n      0xff\n      mul\n      not\n      and\n      swap1\n      dup4\n      0x02\n      dup2\n      gt\n      iszero\n      tag_146\n      jumpi\n      tag_147\n      tag_119\n      jump\t// in\n    tag_147:\n    tag_146:\n      mul\n      or\n      swap1\n      sstore\n      pop\n        /* \"CCNProjectV4.sol\":2565:2566  0 */\n      0x00\n        /* \"CCNProjectV4.sol\":2550:2551  s */\n      dup2\n        /* \"CCNProjectV4.sol\":2550:2562  s.totalFunds */\n      0x03\n      add\n        /* \"CCNProjectV4.sol\":2550:2566  s.totalFunds = 0 */\n      dup2\n      swap1\n      sstore\n      pop\n        /* \"CCNProjectV4.sol\":2591:2596  false */\n      0x00\n        /* \"CCNProjectV4.sol\":2577:2578  s */\n      dup2\n        /* \"CCNProjectV4.sol\":2577:2588  s.withdrawn */\n      0x05\n      add\n      0x01\n        /* \"CCNProjectV4.sol\":2577:2596  s.withdrawn = false */\n      0x0100\n      exp\n      dup2\n      sload\n      dup2\n      0xff\n      mul\n      not\n      and\n      swap1\n      dup4\n      iszero\n      iszero\n      mul\n      or\n      swap1\n      sstore\n      pop\n        /* \"CCNProjectV4.sol\":2618:2629  Status.Open */\n      0x00\n        /* \"CCNProjectV4.sol\":2607:2608  s */\n      dup2\n        /* \"CCNProjectV4.sol\":2607:2615  s.status */\n      0x05\n      add\n      0x00\n        /* \"CCNProjectV4.sol\":2607:2629  s.status = Status.Open */\n      0x0100\n      exp\n      dup2\n      sload\n      dup2\n      0xff\n      mul\n      not\n      and\n      swap1\n      dup4\n      0x03\n      dup2\n      gt\n      iszero\n      tag_148\n      jumpi\n      tag_149\n      tag_119\n      jump\t// in\n    tag_149:\n    tag_148:\n      mul\n      or\n      swap1\n      sstore\n      pop\n        /* \"CCNProjectV4.sol\":2655:2656  0 */\n      0x00\n        /* \"CCNProjectV4.sol\":2640:2641  s */\n      dup2\n        /* \"CCNProjectV4.sol\":2640:2652  s.ratingsSum */\n      0x09\n      add\n        /* \"CCNProjectV4.sol\":2640:2656  s.ratingsSum = 0 */\n      dup2\n      swap1\n      sstore\n      pop\n        /* \"CCNProjectV4.sol\":2684:2685  0 */\n      0x00\n        /* \"CCNProjectV4.sol\":2667:2668  s */\n      dup2\n        /* \"CCNProjectV4.sol\":2667:2681  s.ratingsCount */\n      0x0a\n      add\n        /* \"CCNProjectV4.sol\":2667:2685  s.ratingsCount = 0 */\n      dup2\n      swap1\n      sstore\n      pop\n        /* \"CCNProjectV4.sol\":2764:2779  Duration.Friday */\n      0x00\n        /* \"CCNProjectV4.sol\":2752:2779  duration == Duration.Friday */\n      0x02\n      dup2\n      gt\n      iszero\n      tag_150\n      jumpi\n      tag_151\n      tag_119\n      jump\t// in\n    tag_151:\n    tag_150:\n        /* \"CCNProjectV4.sol\":2752:2760  duration */\n      dup5\n        /* \"CCNProjectV4.sol\":2752:2779  duration == Duration.Friday */\n      0x02\n      dup2\n      gt\n      iszero\n      tag_152\n      jumpi\n      tag_153\n      tag_119\n      jump\t// in\n    tag_153:\n    tag_152:\n      sub\n        /* \"CCNProjectV4.sol\":2748:3093  if (duration == Duration.Friday) {... */\n      tag_154\n      jumpi\n        /* \"CCNProjectV4.sol\":2240:2246  1 days */\n      0x015180\n        /* \"CCNProjectV4.sol\":2154:2164  1752019200 */\n      0x686db100\n        /* \"CCNProjectV4.sol\":2813:2835  carnivalStart + oneDay */\n      tag_155\n      swap2\n      swap1\n      tag_156\n      jump\t// in\n    tag_155:\n        /* \"CCNProjectV4.sol\":2796:2797  s */\n      dup2\n        /* \"CCNProjectV4.sol\":2796:2810  s.withdrawTime */\n      0x04\n      add\n        /* \"CCNProjectV4.sol\":2796:2835  s.withdrawTime = carnivalStart + oneDay */\n      dup2\n      swap1\n      sstore\n      pop\n        /* \"CCNProjectV4.sol\":2748:3093  if (duration == Duration.Friday) {... */\n      jump(tag_157)\n    tag_154:\n        /* \"CCNProjectV4.sol\":2886:2909  Duration.FridaySaturday */\n      0x01\n        /* \"CCNProjectV4.sol\":2874:2909  duration == Duration.FridaySaturday */\n      0x02\n      dup2\n      gt\n      iszero\n      tag_158\n      jumpi\n      tag_159\n      tag_119\n      jump\t// in\n    tag_159:\n    tag_158:\n        /* \"CCNProjectV4.sol\":2874:2882  duration */\n      dup5\n        /* \"CCNProjectV4.sol\":2874:2909  duration == Duration.FridaySaturday */\n      0x02\n      dup2\n      gt\n      iszero\n      tag_160\n      jumpi\n      tag_161\n      tag_119\n      jump\t// in\n    tag_161:\n    tag_160:\n      sub\n        /* \"CCNProjectV4.sol\":2870:3093  if (duration == Duration.FridaySaturday) {... */\n      tag_162\n      jumpi\n        /* \"CCNProjectV4.sol\":2240:2246  1 days */\n      0x015180\n        /* \"CCNProjectV4.sol\":2959:2960  2 */\n      0x02\n        /* \"CCNProjectV4.sol\":2959:2969  2 * oneDay */\n      tag_163\n      swap2\n      swap1\n      tag_164\n      jump\t// in\n    tag_163:\n        /* \"CCNProjectV4.sol\":2154:2164  1752019200 */\n      0x686db100\n        /* \"CCNProjectV4.sol\":2943:2969  carnivalStart + 2 * oneDay */\n      tag_165\n      swap2\n      swap1\n      tag_156\n      jump\t// in\n    tag_165:\n        /* \"CCNProjectV4.sol\":2926:2927  s */\n      dup2\n        /* \"CCNProjectV4.sol\":2926:2940  s.withdrawTime */\n      0x04\n      add\n        /* \"CCNProjectV4.sol\":2926:2969  s.withdrawTime = carnivalStart + 2 * oneDay */\n      dup2\n      swap1\n      sstore\n      pop\n        /* \"CCNProjectV4.sol\":2870:3093  if (duration == Duration.FridaySaturday) {... */\n      jump(tag_166)\n    tag_162:\n        /* \"CCNProjectV4.sol\":2240:2246  1 days */\n      0x015180\n        /* \"CCNProjectV4.sol\":3054:3055  3 */\n      0x03\n        /* \"CCNProjectV4.sol\":3054:3064  3 * oneDay */\n      tag_167\n      swap2\n      swap1\n      tag_164\n      jump\t// in\n    tag_167:\n        /* \"CCNProjectV4.sol\":2154:2164  1752019200 */\n      0x686db100\n        /* \"CCNProjectV4.sol\":3038:3064  carnivalStart + 3 * oneDay */\n      tag_168\n      swap2\n      swap1\n      tag_156\n      jump\t// in\n    tag_168:\n        /* \"CCNProjectV4.sol\":3021:3022  s */\n      dup2\n        /* \"CCNProjectV4.sol\":3021:3035  s.withdrawTime */\n      0x04\n      add\n        /* \"CCNProjectV4.sol\":3021:3064  s.withdrawTime = carnivalStart + 3 * oneDay */\n      dup2\n      swap1\n      sstore\n      pop\n        /* \"CCNProjectV4.sol\":2870:3093  if (duration == Duration.FridaySaturday) {... */\n    tag_166:\n        /* \"CCNProjectV4.sol\":2748:3093  if (duration == Duration.Friday) {... */\n    tag_157:\n        /* \"CCNProjectV4.sol\":3128:3132  true */\n      0x01\n        /* \"CCNProjectV4.sol\":3105:3116  stallExists */\n      0x02\n        /* \"CCNProjectV4.sol\":3105:3125  stallExists[stallId] */\n      0x00\n        /* \"CCNProjectV4.sol\":3117:3124  stallId */\n      dup5\n        /* \"CCNProjectV4.sol\":3105:3125  stallExists[stallId] */\n      dup2\n      mstore\n      0x20\n      add\n      swap1\n      dup2\n      mstore\n      0x20\n      add\n      0x00\n      keccak256\n      0x00\n        /* \"CCNProjectV4.sol\":3105:3132  stallExists[stallId] = true */\n      0x0100\n      exp\n      dup2\n      sload\n      dup2\n      0xff\n      mul\n      not\n      and\n      swap1\n      dup4\n      iszero\n      iszero\n      mul\n      or\n      swap1\n      sstore\n      pop\n        /* \"CCNProjectV4.sol\":3173:3183  msg.sender */\n      caller\n        /* \"CCNProjectV4.sol\":3148:3200  StallRegistered(stallId, msg.sender, name, duration) */\n      0xffffffffffffffffffffffffffffffffffffffff\n      and\n        /* \"CCNProjectV4.sol\":3164:3171  stallId */\n      dup3\n        /* \"CCNProjectV4.sol\":3148:3200  StallRegistered(stallId, msg.sender, name, duration) */\n      0x21b2db1a1ada48172b5b2612d06d7ebce476ca96c837ced65a1e306d75921edd\n        /* \"CCNProjectV4.sol\":3185:3189  name */\n      dup9\n      dup9\n        /* \"CCNProjectV4.sol\":3191:3199  duration */\n      dup9\n        /* \"CCNProjectV4.sol\":3148:3200  StallRegistered(stallId, msg.sender, name, duration) */\n      mload(0x40)\n      tag_169\n      swap4\n      swap3\n      swap2\n      swap1\n      tag_170\n      jump\t// in\n    tag_169:\n      mload(0x40)\n      dup1\n      swap2\n      sub\n      swap1\n      log3\n        /* \"CCNProjectV4.sol\":3218:3225  stallId */\n      dup2\n        /* \"CCNProjectV4.sol\":3211:3225  return stallId */\n      swap3\n      pop\n      pop\n      pop\n        /* \"CCNProjectV4.sol\":2255:3233  function registerStall(string calldata name, Duration duration) external returns (uint256) {... */\n      swap4\n      swap3\n      pop\n      pop\n      pop\n      jump\t// out\n        /* \"CCNProjectV4.sol\":2207:2246  uint256 public constant oneDay = 1 days */\n    tag_53:\n        /* \"CCNProjectV4.sol\":2240:2246  1 days */\n      0x015180\n        /* \"CCNProjectV4.sol\":2207:2246  uint256 public constant oneDay = 1 days */\n      dup2\n      jump\t// out\n        /* \"CCNProjectV4.sol\":5170:5804  function rateStall(uint256 stallId, uint8 rating) external {... */\n    tag_59:\n        /* \"CCNProjectV4.sol\":5248:5259  stallExists */\n      0x02\n        /* \"CCNProjectV4.sol\":5248:5268  stallExists[stallId] */\n      0x00\n        /* \"CCNProjectV4.sol\":5260:5267  stallId */\n      dup4\n        /* \"CCNProjectV4.sol\":5248:5268  stallExists[stallId] */\n      dup2\n      mstore\n      0x20\n      add\n      swap1\n      dup2\n      mstore\n      0x20\n      add\n      0x00\n      keccak256\n      0x00\n      swap1\n      sload\n      swap1\n      0x0100\n      exp\n      swap1\n      div\n      0xff\n      and\n        /* \"CCNProjectV4.sol\":5240:5293  require(stallExists[stallId], \"Stall does not exist\") */\n      tag_172\n      jumpi\n      mload(0x40)\n      0x08c379a000000000000000000000000000000000000000000000000000000000\n      dup2\n      mstore\n      0x04\n      add\n      tag_173\n      swap1\n      tag_112\n      jump\t// in\n    tag_173:\n      mload(0x40)\n      dup1\n      swap2\n      sub\n      swap1\n      revert\n    tag_172:\n        /* \"CCNProjectV4.sol\":5322:5323  1 */\n      0x01\n        /* \"CCNProjectV4.sol\":5312:5318  rating */\n      dup2\n        /* \"CCNProjectV4.sol\":5312:5323  rating >= 1 */\n      0xff\n      and\n      lt\n      iszero\n        /* \"CCNProjectV4.sol\":5312:5338  rating >= 1 && rating <= 5 */\n      dup1\n      iszero\n      tag_174\n      jumpi\n      pop\n        /* \"CCNProjectV4.sol\":5337:5338  5 */\n      0x05\n        /* \"CCNProjectV4.sol\":5327:5333  rating */\n      dup2\n        /* \"CCNProjectV4.sol\":5327:5338  rating <= 5 */\n      0xff\n      and\n      gt\n      iszero\n        /* \"CCNProjectV4.sol\":5312:5338  rating >= 1 && rating <= 5 */\n    tag_174:\n        /* \"CCNProjectV4.sol\":5304:5361  require(rating >= 1 && rating <= 5, \"Rating must be 1-5\") */\n      tag_175\n      jumpi\n      mload(0x40)\n      0x08c379a000000000000000000000000000000000000000000000000000000000\n      dup2\n      mstore\n      0x04\n      add\n      tag_176\n      swap1\n      tag_177\n      jump\t// in\n    tag_176:\n      mload(0x40)\n      dup1\n      swap2\n      sub\n      swap1\n      revert\n    tag_175:\n        /* \"CCNProjectV4.sol\":5372:5387  Stall storage s */\n      0x00\n        /* \"CCNProjectV4.sol\":5390:5396  stalls */\n      0x01\n        /* \"CCNProjectV4.sol\":5390:5405  stalls[stallId] */\n      0x00\n        /* \"CCNProjectV4.sol\":5397:5404  stallId */\n      dup5\n        /* \"CCNProjectV4.sol\":5390:5405  stalls[stallId] */\n      dup2\n      mstore\n      0x20\n      add\n      swap1\n      dup2\n      mstore\n      0x20\n      add\n      0x00\n      keccak256\n        /* \"CCNProjectV4.sol\":5372:5405  Stall storage s = stalls[stallId] */\n      swap1\n      pop\n        /* \"CCNProjectV4.sol\":5416:5430  uint8 previous */\n      0x00\n        /* \"CCNProjectV4.sol\":5433:5434  s */\n      dup2\n        /* \"CCNProjectV4.sol\":5433:5442  s.ratings */\n      0x08\n      add\n        /* \"CCNProjectV4.sol\":5433:5454  s.ratings[msg.sender] */\n      0x00\n        /* \"CCNProjectV4.sol\":5443:5453  msg.sender */\n      caller\n        /* \"CCNProjectV4.sol\":5433:5454  s.ratings[msg.sender] */\n      0xffffffffffffffffffffffffffffffffffffffff\n      and\n      0xffffffffffffffffffffffffffffffffffffffff\n      and\n      dup2\n      mstore\n      0x20\n      add\n      swap1\n      dup2\n      mstore\n      0x20\n      add\n      0x00\n      keccak256\n      0x00\n      swap1\n      sload\n      swap1\n      0x0100\n      exp\n      swap1\n      div\n      0xff\n      and\n        /* \"CCNProjectV4.sol\":5416:5454  uint8 previous = s.ratings[msg.sender] */\n      swap1\n      pop\n        /* \"CCNProjectV4.sol\":5481:5482  0 */\n      0x00\n        /* \"CCNProjectV4.sol\":5469:5477  previous */\n      dup2\n        /* \"CCNProjectV4.sol\":5469:5482  previous == 0 */\n      0xff\n      and\n      sub\n        /* \"CCNProjectV4.sol\":5465:5701  if (previous == 0) {... */\n      tag_178\n      jumpi\n        /* \"CCNProjectV4.sol\":5526:5527  s */\n      dup2\n        /* \"CCNProjectV4.sol\":5526:5540  s.ratingsCount */\n      0x0a\n      add\n      0x00\n        /* \"CCNProjectV4.sol\":5526:5542  s.ratingsCount++ */\n      dup2\n      sload\n      dup1\n      swap3\n      swap2\n      swap1\n      tag_179\n      swap1\n      tag_143\n      jump\t// in\n    tag_179:\n      swap2\n      swap1\n      pop\n      sstore\n      pop\n        /* \"CCNProjectV4.sol\":5573:5579  rating */\n      dup3\n        /* \"CCNProjectV4.sol\":5557:5579  s.ratingsSum += rating */\n      0xff\n      and\n        /* \"CCNProjectV4.sol\":5557:5558  s */\n      dup3\n        /* \"CCNProjectV4.sol\":5557:5569  s.ratingsSum */\n      0x09\n      add\n      0x00\n        /* \"CCNProjectV4.sol\":5557:5579  s.ratingsSum += rating */\n      dup3\n      dup3\n      sload\n      tag_180\n      swap2\n      swap1\n      tag_156\n      jump\t// in\n    tag_180:\n      swap3\n      pop\n      pop\n      dup2\n      swap1\n      sstore\n      pop\n        /* \"CCNProjectV4.sol\":5465:5701  if (previous == 0) {... */\n      jump(tag_181)\n    tag_178:\n        /* \"CCNProjectV4.sol\":5683:5689  rating */\n      dup3\n        /* \"CCNProjectV4.sol\":5657:5689  s.ratingsSum - previous + rating */\n      0xff\n      and\n        /* \"CCNProjectV4.sol\":5672:5680  previous */\n      dup2\n        /* \"CCNProjectV4.sol\":5657:5680  s.ratingsSum - previous */\n      0xff\n      and\n        /* \"CCNProjectV4.sol\":5657:5658  s */\n      dup4\n        /* \"CCNProjectV4.sol\":5657:5669  s.ratingsSum */\n      0x09\n      add\n      sload\n        /* \"CCNProjectV4.sol\":5657:5680  s.ratingsSum - previous */\n      tag_182\n      swap2\n      swap1\n      tag_183\n      jump\t// in\n    tag_182:\n        /* \"CCNProjectV4.sol\":5657:5689  s.ratingsSum - previous + rating */\n      tag_184\n      swap2\n      swap1\n      tag_156\n      jump\t// in\n    tag_184:\n        /* \"CCNProjectV4.sol\":5642:5643  s */\n      dup3\n        /* \"CCNProjectV4.sol\":5642:5654  s.ratingsSum */\n      0x09\n      add\n        /* \"CCNProjectV4.sol\":5642:5689  s.ratingsSum = s.ratingsSum - previous + rating */\n      dup2\n      swap1\n      sstore\n      pop\n        /* \"CCNProjectV4.sol\":5465:5701  if (previous == 0) {... */\n    tag_181:\n        /* \"CCNProjectV4.sol\":5735:5741  rating */\n      dup3\n        /* \"CCNProjectV4.sol\":5711:5712  s */\n      dup3\n        /* \"CCNProjectV4.sol\":5711:5720  s.ratings */\n      0x08\n      add\n        /* \"CCNProjectV4.sol\":5711:5732  s.ratings[msg.sender] */\n      0x00\n        /* \"CCNProjectV4.sol\":5721:5731  msg.sender */\n      caller\n        /* \"CCNProjectV4.sol\":5711:5732  s.ratings[msg.sender] */\n      0xffffffffffffffffffffffffffffffffffffffff\n      and\n      0xffffffffffffffffffffffffffffffffffffffff\n      and\n      dup2\n      mstore\n      0x20\n      add\n      swap1\n      dup2\n      mstore\n      0x20\n      add\n      0x00\n      keccak256\n      0x00\n        /* \"CCNProjectV4.sol\":5711:5741  s.ratings[msg.sender] = rating */\n      0x0100\n      exp\n      dup2\n      sload\n      dup2\n      0xff\n      mul\n      not\n      and\n      swap1\n      dup4\n      0xff\n      and\n      mul\n      or\n      swap1\n      sstore\n      pop\n        /* \"CCNProjectV4.sol\":5777:5787  msg.sender */\n      caller\n        /* \"CCNProjectV4.sol\":5757:5796  StallRated(stallId, msg.sender, rating) */\n      0xffffffffffffffffffffffffffffffffffffffff\n      and\n        /* \"CCNProjectV4.sol\":5768:5775  stallId */\n      dup5\n        /* \"CCNProjectV4.sol\":5757:5796  StallRated(stallId, msg.sender, rating) */\n      0xb45d1f179ffc2d7f3406f141d275944e0d1517ebad9f2fd087203b88edafacc2\n        /* \"CCNProjectV4.sol\":5789:5795  rating */\n      dup6\n        /* \"CCNProjectV4.sol\":5757:5796  StallRated(stallId, msg.sender, rating) */\n      mload(0x40)\n      tag_185\n      swap2\n      swap1\n      tag_72\n      jump\t// in\n    tag_185:\n      mload(0x40)\n      dup1\n      swap2\n      sub\n      swap1\n      log3\n        /* \"CCNProjectV4.sol\":5229:5804  {... */\n      pop\n      pop\n        /* \"CCNProjectV4.sol\":5170:5804  function rateStall(uint256 stallId, uint8 rating) external {... */\n      pop\n      pop\n      jump\t// out\n        /* \"CCNProjectV4.sol\":2114:2164  uint256 public constant carnivalStart = 1752019200 */\n    tag_62:\n        /* \"CCNProjectV4.sol\":2154:2164  1752019200 */\n      0x686db100\n        /* \"CCNProjectV4.sol\":2114:2164  uint256 public constant carnivalStart = 1752019200 */\n      dup2\n      jump\t// out\n        /* \"CCNProjectV4.sol\":3241:3720  function payStall(uint256 stallId) external payable stallOpen(stallId) {... */\n    tag_66:\n        /* \"CCNProjectV4.sol\":3303:3310  stallId */\n      dup1\n        /* \"CCNProjectV4.sol\":1676:1691  Stall storage s */\n      0x00\n        /* \"CCNProjectV4.sol\":1694:1700  stalls */\n      0x01\n        /* \"CCNProjectV4.sol\":1694:1709  stalls[stallId] */\n      0x00\n        /* \"CCNProjectV4.sol\":1701:1708  stallId */\n      dup4\n        /* \"CCNProjectV4.sol\":1694:1709  stalls[stallId] */\n      dup2\n      mstore\n      0x20\n      add\n      swap1\n      dup2\n      mstore\n      0x20\n      add\n      0x00\n      keccak256\n        /* \"CCNProjectV4.sol\":1676:1709  Stall storage s = stalls[stallId] */\n      swap1\n      pop\n        /* \"CCNProjectV4.sol\":1736:1747  Status.Open */\n      0x00\n        /* \"CCNProjectV4.sol\":1724:1747  s.status == Status.Open */\n      0x03\n      dup2\n      gt\n      iszero\n      tag_187\n      jumpi\n      tag_188\n      tag_119\n      jump\t// in\n    tag_188:\n    tag_187:\n        /* \"CCNProjectV4.sol\":1724:1725  s */\n      dup2\n        /* \"CCNProjectV4.sol\":1724:1732  s.status */\n      0x05\n      add\n      0x00\n      swap1\n      sload\n      swap1\n      0x0100\n      exp\n      swap1\n      div\n      0xff\n      and\n        /* \"CCNProjectV4.sol\":1724:1747  s.status == Status.Open */\n      0x03\n      dup2\n      gt\n      iszero\n      tag_189\n      jumpi\n      tag_190\n      tag_119\n      jump\t// in\n    tag_190:\n    tag_189:\n      eq\n        /* \"CCNProjectV4.sol\":1724:1784  s.status == Status.Open && block.timestamp >= s.withdrawTime */\n      dup1\n      iszero\n      tag_191\n      jumpi\n      pop\n        /* \"CCNProjectV4.sol\":1770:1771  s */\n      dup1\n        /* \"CCNProjectV4.sol\":1770:1784  s.withdrawTime */\n      0x04\n      add\n      sload\n        /* \"CCNProjectV4.sol\":1751:1766  block.timestamp */\n      timestamp\n        /* \"CCNProjectV4.sol\":1751:1784  block.timestamp >= s.withdrawTime */\n      lt\n      iszero\n        /* \"CCNProjectV4.sol\":1724:1784  s.status == Status.Open && block.timestamp >= s.withdrawTime */\n    tag_191:\n        /* \"CCNProjectV4.sol\":1720:1939  if (s.status == Status.Open && block.timestamp >= s.withdrawTime) {... */\n      iszero\n      tag_192\n      jumpi\n        /* \"CCNProjectV4.sol\":1812:1831  Status.ClosedByTime */\n      0x02\n        /* \"CCNProjectV4.sol\":1801:1802  s */\n      dup2\n        /* \"CCNProjectV4.sol\":1801:1809  s.status */\n      0x05\n      add\n      0x00\n        /* \"CCNProjectV4.sol\":1801:1831  s.status = Status.ClosedByTime */\n      0x0100\n      exp\n      dup2\n      sload\n      dup2\n      0xff\n      mul\n      not\n      and\n      swap1\n      dup4\n      0x03\n      dup2\n      gt\n      iszero\n      tag_193\n      jumpi\n      tag_194\n      tag_119\n      jump\t// in\n    tag_194:\n    tag_193:\n      mul\n      or\n      swap1\n      sstore\n      pop\n        /* \"CCNProjectV4.sol\":1872:1873  s */\n      dup1\n        /* \"CCNProjectV4.sol\":1872:1879  s.owner */\n      0x00\n      add\n      0x00\n      swap1\n      sload\n      swap1\n      0x0100\n      exp\n      swap1\n      div\n      0xffffffffffffffffffffffffffffffffffffffff\n      and\n        /* \"CCNProjectV4.sol\":1851:1927  StallClosed(stallId, s.owner, block.timestamp, \"Closed due to duration end\") */\n      0xffffffffffffffffffffffffffffffffffffffff\n      and\n        /* \"CCNProjectV4.sol\":1863:1870  stallId */\n      dup3\n        /* \"CCNProjectV4.sol\":1851:1927  StallClosed(stallId, s.owner, block.timestamp, \"Closed due to duration end\") */\n      0x60d094b126b3b199bd9cd997bd0b8c7692ac53890c5fd278c4d1c74901c5b1b0\n        /* \"CCNProjectV4.sol\":1881:1896  block.timestamp */\n      timestamp\n        /* \"CCNProjectV4.sol\":1851:1927  StallClosed(stallId, s.owner, block.timestamp, \"Closed due to duration end\") */\n      mload(0x40)\n      tag_195\n      swap2\n      swap1\n      tag_196\n      jump\t// in\n    tag_195:\n      mload(0x40)\n      dup1\n      swap2\n      sub\n      swap1\n      log3\n        /* \"CCNProjectV4.sol\":1720:1939  if (s.status == Status.Open && block.timestamp >= s.withdrawTime) {... */\n    tag_192:\n        /* \"CCNProjectV4.sol\":1969:1980  Status.Open */\n      0x00\n        /* \"CCNProjectV4.sol\":1957:1980  s.status == Status.Open */\n      0x03\n      dup2\n      gt\n      iszero\n      tag_197\n      jumpi\n      tag_198\n      tag_119\n      jump\t// in\n    tag_198:\n    tag_197:\n        /* \"CCNProjectV4.sol\":1957:1958  s */\n      dup2\n        /* \"CCNProjectV4.sol\":1957:1965  s.status */\n      0x05\n      add\n      0x00\n      swap1\n      sload\n      swap1\n      0x0100\n      exp\n      swap1\n      div\n      0xff\n      and\n        /* \"CCNProjectV4.sol\":1957:1980  s.status == Status.Open */\n      0x03\n      dup2\n      gt\n      iszero\n      tag_199\n      jumpi\n      tag_200\n      tag_119\n      jump\t// in\n    tag_200:\n    tag_199:\n      eq\n        /* \"CCNProjectV4.sol\":1949:2002  require(s.status == Status.Open, \"Stall is not open\") */\n      tag_201\n      jumpi\n      mload(0x40)\n      0x08c379a000000000000000000000000000000000000000000000000000000000\n      dup2\n      mstore\n      0x04\n      add\n      tag_202\n      swap1\n      tag_203\n      jump\t// in\n    tag_202:\n      mload(0x40)\n      dup1\n      swap2\n      sub\n      swap1\n      revert\n    tag_201:\n        /* \"CCNProjectV4.sol\":3331:3342  stallExists */\n      0x02\n        /* \"CCNProjectV4.sol\":3331:3351  stallExists[stallId] */\n      0x00\n        /* \"CCNProjectV4.sol\":3343:3350  stallId */\n      dup5\n        /* \"CCNProjectV4.sol\":3331:3351  stallExists[stallId] */\n      dup2\n      mstore\n      0x20\n      add\n      swap1\n      dup2\n      mstore\n      0x20\n      add\n      0x00\n      keccak256\n      0x00\n      swap1\n      sload\n      swap1\n      0x0100\n      exp\n      swap1\n      div\n      0xff\n      and\n        /* \"CCNProjectV4.sol\":3323:3376  require(stallExists[stallId], \"Stall does not exist\") */\n      tag_205\n      jumpi\n      mload(0x40)\n      0x08c379a000000000000000000000000000000000000000000000000000000000\n      dup2\n      mstore\n      0x04\n      add\n      tag_206\n      swap1\n      tag_112\n      jump\t// in\n    tag_206:\n      mload(0x40)\n      dup1\n      swap2\n      sub\n      swap1\n      revert\n    tag_205:\n        /* \"CCNProjectV4.sol\":3407:3408  0 */\n      0x00\n        /* \"CCNProjectV4.sol\":3395:3404  msg.value */\n      callvalue\n        /* \"CCNProjectV4.sol\":3395:3408  msg.value > 0 */\n      gt\n        /* \"CCNProjectV4.sol\":3387:3432  require(msg.value > 0, \"Payment must be > 0\") */\n      tag_207\n      jumpi\n      mload(0x40)\n      0x08c379a000000000000000000000000000000000000000000000000000000000\n      dup2\n      mstore\n      0x04\n      add\n      tag_208\n      swap1\n      tag_209\n      jump\t// in\n    tag_208:\n      mload(0x40)\n      dup1\n      swap2\n      sub\n      swap1\n      revert\n    tag_207:\n        /* \"CCNProjectV4.sol\":3443:3458  Stall storage s */\n      0x00\n        /* \"CCNProjectV4.sol\":3461:3467  stalls */\n      0x01\n        /* \"CCNProjectV4.sol\":3461:3476  stalls[stallId] */\n      0x00\n        /* \"CCNProjectV4.sol\":3468:3475  stallId */\n      dup6\n        /* \"CCNProjectV4.sol\":3461:3476  stalls[stallId] */\n      dup2\n      mstore\n      0x20\n      add\n      swap1\n      dup2\n      mstore\n      0x20\n      add\n      0x00\n      keccak256\n        /* \"CCNProjectV4.sol\":3443:3476  Stall storage s = stalls[stallId] */\n      swap1\n      pop\n        /* \"CCNProjectV4.sol\":3517:3518  0 */\n      0x00\n        /* \"CCNProjectV4.sol\":3491:3492  s */\n      dup2\n        /* \"CCNProjectV4.sol\":3491:3501  s.payments */\n      0x06\n      add\n        /* \"CCNProjectV4.sol\":3491:3513  s.payments[msg.sender] */\n      0x00\n        /* \"CCNProjectV4.sol\":3502:3512  msg.sender */\n      caller\n        /* \"CCNProjectV4.sol\":3491:3513  s.payments[msg.sender] */\n      0xffffffffffffffffffffffffffffffffffffffff\n      and\n      0xffffffffffffffffffffffffffffffffffffffff\n      and\n      dup2\n      mstore\n      0x20\n      add\n      swap1\n      dup2\n      mstore\n      0x20\n      add\n      0x00\n      keccak256\n      sload\n        /* \"CCNProjectV4.sol\":3491:3518  s.payments[msg.sender] == 0 */\n      sub\n        /* \"CCNProjectV4.sol\":3487:3572  if (s.payments[msg.sender] == 0) {... */\n      tag_210\n      jumpi\n        /* \"CCNProjectV4.sol\":3535:3536  s */\n      dup1\n        /* \"CCNProjectV4.sol\":3535:3543  s.payers */\n      0x07\n      add\n        /* \"CCNProjectV4.sol\":3549:3559  msg.sender */\n      caller\n        /* \"CCNProjectV4.sol\":3535:3560  s.payers.push(msg.sender) */\n      swap1\n      dup1\n      0x01\n      dup2\n      sload\n      add\n      dup1\n      dup3\n      sstore\n      dup1\n      swap2\n      pop\n      pop\n      0x01\n      swap1\n      sub\n      swap1\n      0x00\n      mstore\n      keccak256(0x00, 0x20)\n      add\n      0x00\n      swap1\n      swap2\n      swap1\n      swap2\n      swap1\n      swap2\n      0x0100\n      exp\n      dup2\n      sload\n      dup2\n      0xffffffffffffffffffffffffffffffffffffffff\n      mul\n      not\n      and\n      swap1\n      dup4\n      0xffffffffffffffffffffffffffffffffffffffff\n      and\n      mul\n      or\n      swap1\n      sstore\n      pop\n        /* \"CCNProjectV4.sol\":3487:3572  if (s.payments[msg.sender] == 0) {... */\n    tag_210:\n        /* \"CCNProjectV4.sol\":3608:3617  msg.value */\n      callvalue\n        /* \"CCNProjectV4.sol\":3582:3583  s */\n      dup2\n        /* \"CCNProjectV4.sol\":3582:3592  s.payments */\n      0x06\n      add\n        /* \"CCNProjectV4.sol\":3582:3604  s.payments[msg.sender] */\n      0x00\n        /* \"CCNProjectV4.sol\":3593:3603  msg.sender */\n      caller\n        /* \"CCNProjectV4.sol\":3582:3604  s.payments[msg.sender] */\n      0xffffffffffffffffffffffffffffffffffffffff\n      and\n      0xffffffffffffffffffffffffffffffffffffffff\n      and\n      dup2\n      mstore\n      0x20\n      add\n      swap1\n      dup2\n      mstore\n      0x20\n      add\n      0x00\n      keccak256\n      0x00\n        /* \"CCNProjectV4.sol\":3582:3617  s.payments[msg.sender] += msg.value */\n      dup3\n      dup3\n      sload\n      tag_212\n      swap2\n      swap1\n      tag_156\n      jump\t// in\n    tag_212:\n      swap3\n      pop\n      pop\n      dup2\n      swap1\n      sstore\n      pop\n        /* \"CCNProjectV4.sol\":3644:3653  msg.value */\n      callvalue\n        /* \"CCNProjectV4.sol\":3628:3629  s */\n      dup2\n        /* \"CCNProjectV4.sol\":3628:3640  s.totalFunds */\n      0x03\n      add\n      0x00\n        /* \"CCNProjectV4.sol\":3628:3653  s.totalFunds += msg.value */\n      dup3\n      dup3\n      sload\n      tag_213\n      swap2\n      swap1\n      tag_156\n      jump\t// in\n    tag_213:\n      swap3\n      pop\n      pop\n      dup2\n      swap1\n      sstore\n      pop\n        /* \"CCNProjectV4.sol\":3690:3700  msg.sender */\n      caller\n        /* \"CCNProjectV4.sol\":3669:3712  PaymentMade(stallId, msg.sender, msg.value) */\n      0xffffffffffffffffffffffffffffffffffffffff\n      and\n        /* \"CCNProjectV4.sol\":3681:3688  stallId */\n      dup5\n        /* \"CCNProjectV4.sol\":3669:3712  PaymentMade(stallId, msg.sender, msg.value) */\n      0x61ac8e9b735e72d1382cbf7d35f2ff3764dae09d7faf7d90787bf7f9ae76e4c8\n        /* \"CCNProjectV4.sol\":3702:3711  msg.value */\n      callvalue\n        /* \"CCNProjectV4.sol\":3669:3712  PaymentMade(stallId, msg.sender, msg.value) */\n      mload(0x40)\n      tag_214\n      swap2\n      swap1\n      tag_27\n      jump\t// in\n    tag_214:\n      mload(0x40)\n      dup1\n      swap2\n      sub\n      swap1\n      log3\n        /* \"CCNProjectV4.sol\":3312:3720  {... */\n      pop\n        /* \"CCNProjectV4.sol\":1665:2022  {... */\n      pop\n        /* \"CCNProjectV4.sol\":3241:3720  function payStall(uint256 stallId) external payable stallOpen(stallId) {... */\n      pop\n      pop\n      jump\t// out\n        /* \"CCNProjectV4.sol\":5812:5947  function getRating(uint256 stallId, address user) external view returns (uint8) {... */\n    tag_70:\n        /* \"CCNProjectV4.sol\":5885:5890  uint8 */\n      0x00\n        /* \"CCNProjectV4.sol\":5910:5916  stalls */\n      0x01\n        /* \"CCNProjectV4.sol\":5910:5925  stalls[stallId] */\n      0x00\n        /* \"CCNProjectV4.sol\":5917:5924  stallId */\n      dup5\n        /* \"CCNProjectV4.sol\":5910:5925  stalls[stallId] */\n      dup2\n      mstore\n      0x20\n      add\n      swap1\n      dup2\n      mstore\n      0x20\n      add\n      0x00\n      keccak256\n        /* \"CCNProjectV4.sol\":5910:5933  stalls[stallId].ratings */\n      0x08\n      add\n        /* \"CCNProjectV4.sol\":5910:5939  stalls[stallId].ratings[user] */\n      0x00\n        /* \"CCNProjectV4.sol\":5934:5938  user */\n      dup4\n        /* \"CCNProjectV4.sol\":5910:5939  stalls[stallId].ratings[user] */\n      0xffffffffffffffffffffffffffffffffffffffff\n      and\n      0xffffffffffffffffffffffffffffffffffffffff\n      and\n      dup2\n      mstore\n      0x20\n      add\n      swap1\n      dup2\n      mstore\n      0x20\n      add\n      0x00\n      keccak256\n      0x00\n      swap1\n      sload\n      swap1\n      0x0100\n      exp\n      swap1\n      div\n      0xff\n      and\n        /* \"CCNProjectV4.sol\":5903:5939  return stalls[stallId].ratings[user] */\n      swap1\n      pop\n        /* \"CCNProjectV4.sol\":5812:5947  function getRating(uint256 stallId, address user) external view returns (uint8) {... */\n      swap3\n      swap2\n      pop\n      pop\n      jump\t// out\n        /* \"CCNProjectV4.sol\":6668:6793  function getPayers(uint256 stallId) external view returns (address[] memory) {... */\n    tag_76:\n        /* \"CCNProjectV4.sol\":6727:6743  address[] memory */\n      0x60\n        /* \"CCNProjectV4.sol\":6763:6769  stalls */\n      0x01\n        /* \"CCNProjectV4.sol\":6763:6778  stalls[stallId] */\n      0x00\n        /* \"CCNProjectV4.sol\":6770:6777  stallId */\n      dup4\n        /* \"CCNProjectV4.sol\":6763:6778  stalls[stallId] */\n      dup2\n      mstore\n      0x20\n      add\n      swap1\n      dup2\n      mstore\n      0x20\n      add\n      0x00\n      keccak256\n        /* \"CCNProjectV4.sol\":6763:6785  stalls[stallId].payers */\n      0x07\n      add\n        /* \"CCNProjectV4.sol\":6756:6785  return stalls[stallId].payers */\n      dup1\n      sload\n      dup1\n      0x20\n      mul\n      0x20\n      add\n      mload(0x40)\n      swap1\n      dup2\n      add\n      0x40\n      mstore\n      dup1\n      swap3\n      swap2\n      swap1\n      dup2\n      dup2\n      mstore\n      0x20\n      add\n      dup3\n      dup1\n      sload\n      dup1\n      iszero\n      tag_217\n      jumpi\n      0x20\n      mul\n      dup3\n      add\n      swap2\n      swap1\n      0x00\n      mstore\n      keccak256(0x00, 0x20)\n      swap1\n    tag_218:\n      dup2\n      0x00\n      swap1\n      sload\n      swap1\n      0x0100\n      exp\n      swap1\n      div\n      0xffffffffffffffffffffffffffffffffffffffff\n      and\n      0xffffffffffffffffffffffffffffffffffffffff\n      and\n      dup2\n      mstore\n      0x20\n      add\n      swap1\n      0x01\n      add\n      swap1\n      dup1\n      dup4\n      gt\n      tag_218\n      jumpi\n    tag_217:\n      pop\n      pop\n      pop\n      pop\n      pop\n      swap1\n      pop\n        /* \"CCNProjectV4.sol\":6668:6793  function getPayers(uint256 stallId) external view returns (address[] memory) {... */\n      swap2\n      swap1\n      pop\n      jump\t// out\n        /* \"CCNProjectV4.sol\":763:802  mapping(uint256 => Stall) public stalls */\n    tag_82:\n      mstore(0x20, 0x01)\n      dup1\n      0x00\n      mstore\n      keccak256(0x00, 0x40)\n      0x00\n      swap2\n      pop\n      swap1\n      pop\n      dup1\n      0x00\n      add\n      0x00\n      swap1\n      sload\n      swap1\n      0x0100\n      exp\n      swap1\n      div\n      0xffffffffffffffffffffffffffffffffffffffff\n      and\n      swap1\n      dup1\n      0x01\n      add\n      dup1\n      sload\n      tag_219\n      swap1\n      tag_220\n      jump\t// in\n    tag_219:\n      dup1\n      0x1f\n      add\n      0x20\n      dup1\n      swap2\n      div\n      mul\n      0x20\n      add\n      mload(0x40)\n      swap1\n      dup2\n      add\n      0x40\n      mstore\n      dup1\n      swap3\n      swap2\n      swap1\n      dup2\n      dup2\n      mstore\n      0x20\n      add\n      dup3\n      dup1\n      sload\n      tag_221\n      swap1\n      tag_220\n      jump\t// in\n    tag_221:\n      dup1\n      iszero\n      tag_222\n      jumpi\n      dup1\n      0x1f\n      lt\n      tag_223\n      jumpi\n      0x0100\n      dup1\n      dup4\n      sload\n      div\n      mul\n      dup4\n      mstore\n      swap2\n      0x20\n      add\n      swap2\n      jump(tag_222)\n    tag_223:\n      dup3\n      add\n      swap2\n      swap1\n      0x00\n      mstore\n      keccak256(0x00, 0x20)\n      swap1\n    tag_224:\n      dup2\n      sload\n      dup2\n      mstore\n      swap1\n      0x01\n      add\n      swap1\n      0x20\n      add\n      dup1\n      dup4\n      gt\n      tag_224\n      jumpi\n      dup3\n      swap1\n      sub\n      0x1f\n      and\n      dup3\n      add\n      swap2\n    tag_222:\n      pop\n      pop\n      pop\n      pop\n      pop\n      swap1\n      dup1\n      0x02\n      add\n      0x00\n      swap1\n      sload\n      swap1\n      0x0100\n      exp\n      swap1\n      div\n      0xff\n      and\n      swap1\n      dup1\n      0x03\n      add\n      sload\n      swap1\n      dup1\n      0x04\n      add\n      sload\n      swap1\n      dup1\n      0x05\n      add\n      0x00\n      swap1\n      sload\n      swap1\n      0x0100\n      exp\n      swap1\n      div\n      0xff\n      and\n      swap1\n      dup1\n      0x05\n      add\n      0x01\n      swap1\n      sload\n      swap1\n      0x0100\n      exp\n      swap1\n      div\n      0xff\n      and\n      swap1\n      dup1\n      0x09\n      add\n      sload\n      swap1\n      dup1\n      0x0a\n      add\n      sload\n      swap1\n      pop\n      dup10\n      jump\t// out\n        /* \"CCNProjectV4.sol\":6307:6660  function getStall(uint256 stallId) external view returns (... */\n    tag_88:\n        /* \"CCNProjectV4.sol\":6375:6388  address owner */\n      0x00\n        /* \"CCNProjectV4.sol\":6390:6408  string memory name */\n      0x60\n        /* \"CCNProjectV4.sol\":6410:6427  Duration duration */\n      0x00\n        /* \"CCNProjectV4.sol\":6429:6447  uint256 totalFunds */\n      0x00\n        /* \"CCNProjectV4.sol\":6449:6469  uint256 withdrawTime */\n      0x00\n        /* \"CCNProjectV4.sol\":6471:6484  Status status */\n      0x00\n        /* \"CCNProjectV4.sol\":6486:6500  bool withdrawn */\n      0x00\n        /* \"CCNProjectV4.sol\":6519:6534  Stall storage s */\n      0x00\n        /* \"CCNProjectV4.sol\":6537:6543  stalls */\n      0x01\n        /* \"CCNProjectV4.sol\":6537:6552  stalls[stallId] */\n      0x00\n        /* \"CCNProjectV4.sol\":6544:6551  stallId */\n      dup11\n        /* \"CCNProjectV4.sol\":6537:6552  stalls[stallId] */\n      dup2\n      mstore\n      0x20\n      add\n      swap1\n      dup2\n      mstore\n      0x20\n      add\n      0x00\n      keccak256\n        /* \"CCNProjectV4.sol\":6519:6552  Stall storage s = stalls[stallId] */\n      swap1\n      pop\n        /* \"CCNProjectV4.sol\":6571:6572  s */\n      dup1\n        /* \"CCNProjectV4.sol\":6571:6578  s.owner */\n      0x00\n      add\n      0x00\n      swap1\n      sload\n      swap1\n      0x0100\n      exp\n      swap1\n      div\n      0xffffffffffffffffffffffffffffffffffffffff\n      and\n        /* \"CCNProjectV4.sol\":6580:6581  s */\n      dup2\n        /* \"CCNProjectV4.sol\":6580:6586  s.name */\n      0x01\n      add\n        /* \"CCNProjectV4.sol\":6588:6589  s */\n      dup3\n        /* \"CCNProjectV4.sol\":6588:6598  s.duration */\n      0x02\n      add\n      0x00\n      swap1\n      sload\n      swap1\n      0x0100\n      exp\n      swap1\n      div\n      0xff\n      and\n        /* \"CCNProjectV4.sol\":6600:6601  s */\n      dup4\n        /* \"CCNProjectV4.sol\":6600:6612  s.totalFunds */\n      0x03\n      add\n      sload\n        /* \"CCNProjectV4.sol\":6614:6615  s */\n      dup5\n        /* \"CCNProjectV4.sol\":6614:6628  s.withdrawTime */\n      0x04\n      add\n      sload\n        /* \"CCNProjectV4.sol\":6630:6631  s */\n      dup6\n        /* \"CCNProjectV4.sol\":6630:6638  s.status */\n      0x05\n      add\n      0x00\n      swap1\n      sload\n      swap1\n      0x0100\n      exp\n      swap1\n      div\n      0xff\n      and\n        /* \"CCNProjectV4.sol\":6640:6641  s */\n      dup7\n        /* \"CCNProjectV4.sol\":6640:6651  s.withdrawn */\n      0x05\n      add\n      0x01\n      swap1\n      sload\n      swap1\n      0x0100\n      exp\n      swap1\n      div\n      0xff\n      and\n        /* \"CCNProjectV4.sol\":6563:6652  return (s.owner, s.name, s.duration, s.totalFunds, s.withdrawTime, s.status, s.withdrawn) */\n      dup6\n      dup1\n      sload\n      tag_226\n      swap1\n      tag_220\n      jump\t// in\n    tag_226:\n      dup1\n      0x1f\n      add\n      0x20\n      dup1\n      swap2\n      div\n      mul\n      0x20\n      add\n      mload(0x40)\n      swap1\n      dup2\n      add\n      0x40\n      mstore\n      dup1\n      swap3\n      swap2\n      swap1\n      dup2\n      dup2\n      mstore\n      0x20\n      add\n      dup3\n      dup1\n      sload\n      tag_227\n      swap1\n      tag_220\n      jump\t// in\n    tag_227:\n      dup1\n      iszero\n      tag_228\n      jumpi\n      dup1\n      0x1f\n      lt\n      tag_229\n      jumpi\n      0x0100\n      dup1\n      dup4\n      sload\n      div\n      mul\n      dup4\n      mstore\n      swap2\n      0x20\n      add\n      swap2\n      jump(tag_228)\n    tag_229:\n      dup3\n      add\n      swap2\n      swap1\n      0x00\n      mstore\n      keccak256(0x00, 0x20)\n      swap1\n    tag_230:\n      dup2\n      sload\n      dup2\n      mstore\n      swap1\n      0x01\n      add\n      swap1\n      0x20\n      add\n      dup1\n      dup4\n      gt\n      tag_230\n      jumpi\n      dup3\n      swap1\n      sub\n      0x1f\n      and\n      dup3\n      add\n      swap2\n    tag_228:\n      pop\n      pop\n      pop\n      pop\n      pop\n      swap6\n      pop\n      swap8\n      pop\n      swap8\n      pop\n      swap8\n      pop\n      swap8\n      pop\n      swap8\n      pop\n      swap8\n      pop\n      swap8\n      pop\n      pop\n        /* \"CCNProjectV4.sol\":6307:6660  function getStall(uint256 stallId) external view returns (... */\n      swap2\n      swap4\n      swap6\n      swap8\n      swap1\n      swap3\n      swap5\n      swap7\n      pop\n      jump\t// out\n        /* \"CCNProjectV4.sol\":4816:5122  function closeStall(uint256 stallId) external onlyStallOwner(stallId) {... */\n    tag_94:\n        /* \"CCNProjectV4.sol\":4877:4884  stallId */\n      dup1\n        /* \"CCNProjectV4.sol\":1482:1493  stallExists */\n      0x02\n        /* \"CCNProjectV4.sol\":1482:1502  stallExists[stallId] */\n      0x00\n        /* \"CCNProjectV4.sol\":1494:1501  stallId */\n      dup3\n        /* \"CCNProjectV4.sol\":1482:1502  stallExists[stallId] */\n      dup2\n      mstore\n      0x20\n      add\n      swap1\n      dup2\n      mstore\n      0x20\n      add\n      0x00\n      keccak256\n      0x00\n      swap1\n      sload\n      swap1\n      0x0100\n      exp\n      swap1\n      div\n      0xff\n      and\n        /* \"CCNProjectV4.sol\":1474:1527  require(stallExists[stallId], \"Stall does not exist\") */\n      tag_232\n      jumpi\n      mload(0x40)\n      0x08c379a000000000000000000000000000000000000000000000000000000000\n      dup2\n      mstore\n      0x04\n      add\n      tag_233\n      swap1\n      tag_112\n      jump\t// in\n    tag_233:\n      mload(0x40)\n      dup1\n      swap2\n      sub\n      swap1\n      revert\n    tag_232:\n        /* \"CCNProjectV4.sol\":1571:1581  msg.sender */\n      caller\n        /* \"CCNProjectV4.sol\":1546:1581  stalls[stallId].owner == msg.sender */\n      0xffffffffffffffffffffffffffffffffffffffff\n      and\n        /* \"CCNProjectV4.sol\":1546:1552  stalls */\n      0x01\n        /* \"CCNProjectV4.sol\":1546:1561  stalls[stallId] */\n      0x00\n        /* \"CCNProjectV4.sol\":1553:1560  stallId */\n      dup4\n        /* \"CCNProjectV4.sol\":1546:1561  stalls[stallId] */\n      dup2\n      mstore\n      0x20\n      add\n      swap1\n      dup2\n      mstore\n      0x20\n      add\n      0x00\n      keccak256\n        /* \"CCNProjectV4.sol\":1546:1567  stalls[stallId].owner */\n      0x00\n      add\n      0x00\n      swap1\n      sload\n      swap1\n      0x0100\n      exp\n      swap1\n      div\n      0xffffffffffffffffffffffffffffffffffffffff\n      and\n        /* \"CCNProjectV4.sol\":1546:1581  stalls[stallId].owner == msg.sender */\n      0xffffffffffffffffffffffffffffffffffffffff\n      and\n      eq\n        /* \"CCNProjectV4.sol\":1538:1601  require(stalls[stallId].owner == msg.sender, \"Not stall owner\") */\n      tag_234\n      jumpi\n      mload(0x40)\n      0x08c379a000000000000000000000000000000000000000000000000000000000\n      dup2\n      mstore\n      0x04\n      add\n      tag_235\n      swap1\n      tag_115\n      jump\t// in\n    tag_235:\n      mload(0x40)\n      dup1\n      swap2\n      sub\n      swap1\n      revert\n    tag_234:\n        /* \"CCNProjectV4.sol\":4897:4912  Stall storage s */\n      0x00\n        /* \"CCNProjectV4.sol\":4915:4921  stalls */\n      0x01\n        /* \"CCNProjectV4.sol\":4915:4930  stalls[stallId] */\n      0x00\n        /* \"CCNProjectV4.sol\":4922:4929  stallId */\n      dup5\n        /* \"CCNProjectV4.sol\":4915:4930  stalls[stallId] */\n      dup2\n      mstore\n      0x20\n      add\n      swap1\n      dup2\n      mstore\n      0x20\n      add\n      0x00\n      keccak256\n        /* \"CCNProjectV4.sol\":4897:4930  Stall storage s = stalls[stallId] */\n      swap1\n      pop\n        /* \"CCNProjectV4.sol\":4961:4972  Status.Open */\n      0x00\n        /* \"CCNProjectV4.sol\":4949:4972  s.status == Status.Open */\n      0x03\n      dup2\n      gt\n      iszero\n      tag_237\n      jumpi\n      tag_238\n      tag_119\n      jump\t// in\n    tag_238:\n    tag_237:\n        /* \"CCNProjectV4.sol\":4949:4950  s */\n      dup2\n        /* \"CCNProjectV4.sol\":4949:4957  s.status */\n      0x05\n      add\n      0x00\n      swap1\n      sload\n      swap1\n      0x0100\n      exp\n      swap1\n      div\n      0xff\n      and\n        /* \"CCNProjectV4.sol\":4949:4972  s.status == Status.Open */\n      0x03\n      dup2\n      gt\n      iszero\n      tag_239\n      jumpi\n      tag_240\n      tag_119\n      jump\t// in\n    tag_240:\n    tag_239:\n      eq\n        /* \"CCNProjectV4.sol\":4941:4991  require(s.status == Status.Open, \"Stall not open\") */\n      tag_241\n      jumpi\n      mload(0x40)\n      0x08c379a000000000000000000000000000000000000000000000000000000000\n      dup2\n      mstore\n      0x04\n      add\n      tag_242\n      swap1\n      tag_243\n      jump\t// in\n    tag_242:\n      mload(0x40)\n      dup1\n      swap2\n      sub\n      swap1\n      revert\n    tag_241:\n        /* \"CCNProjectV4.sol\":5013:5033  Status.ClosedByOwner */\n      0x01\n        /* \"CCNProjectV4.sol\":5002:5003  s */\n      dup2\n        /* \"CCNProjectV4.sol\":5002:5010  s.status */\n      0x05\n      add\n      0x00\n        /* \"CCNProjectV4.sol\":5002:5033  s.status = Status.ClosedByOwner */\n      0x0100\n      exp\n      dup2\n      sload\n      dup2\n      0xff\n      mul\n      not\n      and\n      swap1\n      dup4\n      0x03\n      dup2\n      gt\n      iszero\n      tag_244\n      jumpi\n      tag_245\n      tag_119\n      jump\t// in\n    tag_245:\n    tag_244:\n      mul\n      or\n      swap1\n      sstore\n      pop\n        /* \"CCNProjectV4.sol\":5070:5071  s */\n      dup1\n        /* \"CCNProjectV4.sol\":5070:5077  s.owner */\n      0x00\n      add\n      0x00\n      swap1\n      sload\n      swap1\n      0x0100\n      exp\n      swap1\n      div\n      0xffffffffffffffffffffffffffffffffffffffff\n      and\n        /* \"CCNProjectV4.sol\":5049:5114  StallClosed(stallId, s.owner, block.timestamp, \"Closed by owner\") */\n      0xffffffffffffffffffffffffffffffffffffffff\n      and\n        /* \"CCNProjectV4.sol\":5061:5068  stallId */\n      dup4\n        /* \"CCNProjectV4.sol\":5049:5114  StallClosed(stallId, s.owner, block.timestamp, \"Closed by owner\") */\n      0x60d094b126b3b199bd9cd997bd0b8c7692ac53890c5fd278c4d1c74901c5b1b0\n        /* \"CCNProjectV4.sol\":5079:5094  block.timestamp */\n      timestamp\n        /* \"CCNProjectV4.sol\":5049:5114  StallClosed(stallId, s.owner, block.timestamp, \"Closed by owner\") */\n      mload(0x40)\n      tag_246\n      swap2\n      swap1\n      tag_247\n      jump\t// in\n    tag_246:\n      mload(0x40)\n      dup1\n      swap2\n      sub\n      swap1\n      log3\n        /* \"CCNProjectV4.sol\":4886:5122  {... */\n      pop\n        /* \"CCNProjectV4.sol\":4816:5122  function closeStall(uint256 stallId) external onlyStallOwner(stallId) {... */\n      pop\n      pop\n      jump\t// out\n        /* \"CCNProjectV4.sol\":731:756  uint256 public stallCount */\n    tag_97:\n      sload(0x00)\n      dup2\n      jump\t// out\n        /* \"CCNProjectV4.sol\":3728:4191  function refund(uint256 stallId, address to, uint256 amount) external onlyStallOwner(stallId) stallOpen(stallId) {... */\n    tag_103:\n        /* \"CCNProjectV4.sol\":3813:3820  stallId */\n      dup3\n        /* \"CCNProjectV4.sol\":1482:1493  stallExists */\n      0x02\n        /* \"CCNProjectV4.sol\":1482:1502  stallExists[stallId] */\n      0x00\n        /* \"CCNProjectV4.sol\":1494:1501  stallId */\n      dup3\n        /* \"CCNProjectV4.sol\":1482:1502  stallExists[stallId] */\n      dup2\n      mstore\n      0x20\n      add\n      swap1\n      dup2\n      mstore\n      0x20\n      add\n      0x00\n      keccak256\n      0x00\n      swap1\n      sload\n      swap1\n      0x0100\n      exp\n      swap1\n      div\n      0xff\n      and\n        /* \"CCNProjectV4.sol\":1474:1527  require(stallExists[stallId], \"Stall does not exist\") */\n      tag_249\n      jumpi\n      mload(0x40)\n      0x08c379a000000000000000000000000000000000000000000000000000000000\n      dup2\n      mstore\n      0x04\n      add\n      tag_250\n      swap1\n      tag_112\n      jump\t// in\n    tag_250:\n      mload(0x40)\n      dup1\n      swap2\n      sub\n      swap1\n      revert\n    tag_249:\n        /* \"CCNProjectV4.sol\":1571:1581  msg.sender */\n      caller\n        /* \"CCNProjectV4.sol\":1546:1581  stalls[stallId].owner == msg.sender */\n      0xffffffffffffffffffffffffffffffffffffffff\n      and\n        /* \"CCNProjectV4.sol\":1546:1552  stalls */\n      0x01\n        /* \"CCNProjectV4.sol\":1546:1561  stalls[stallId] */\n      0x00\n        /* \"CCNProjectV4.sol\":1553:1560  stallId */\n      dup4\n        /* \"CCNProjectV4.sol\":1546:1561  stalls[stallId] */\n      dup2\n      mstore\n      0x20\n      add\n      swap1\n      dup2\n      mstore\n      0x20\n      add\n      0x00\n      keccak256\n        /* \"CCNProjectV4.sol\":1546:1567  stalls[stallId].owner */\n      0x00\n      add\n      0x00\n      swap1\n      sload\n      swap1\n      0x0100\n      exp\n      swap1\n      div\n      0xffffffffffffffffffffffffffffffffffffffff\n      and\n        /* \"CCNProjectV4.sol\":1546:1581  stalls[stallId].owner == msg.sender */\n      0xffffffffffffffffffffffffffffffffffffffff\n      and\n      eq\n        /* \"CCNProjectV4.sol\":1538:1601  require(stalls[stallId].owner == msg.sender, \"Not stall owner\") */\n      tag_251\n      jumpi\n      mload(0x40)\n      0x08c379a000000000000000000000000000000000000000000000000000000000\n      dup2\n      mstore\n      0x04\n      add\n      tag_252\n      swap1\n      tag_115\n      jump\t// in\n    tag_252:\n      mload(0x40)\n      dup1\n      swap2\n      sub\n      swap1\n      revert\n    tag_251:\n        /* \"CCNProjectV4.sol\":3832:3839  stallId */\n      dup4\n        /* \"CCNProjectV4.sol\":1676:1691  Stall storage s */\n      0x00\n        /* \"CCNProjectV4.sol\":1694:1700  stalls */\n      0x01\n        /* \"CCNProjectV4.sol\":1694:1709  stalls[stallId] */\n      0x00\n        /* \"CCNProjectV4.sol\":1701:1708  stallId */\n      dup4\n        /* \"CCNProjectV4.sol\":1694:1709  stalls[stallId] */\n      dup2\n      mstore\n      0x20\n      add\n      swap1\n      dup2\n      mstore\n      0x20\n      add\n      0x00\n      keccak256\n        /* \"CCNProjectV4.sol\":1676:1709  Stall storage s = stalls[stallId] */\n      swap1\n      pop\n        /* \"CCNProjectV4.sol\":1736:1747  Status.Open */\n      0x00\n        /* \"CCNProjectV4.sol\":1724:1747  s.status == Status.Open */\n      0x03\n      dup2\n      gt\n      iszero\n      tag_254\n      jumpi\n      tag_255\n      tag_119\n      jump\t// in\n    tag_255:\n    tag_254:\n        /* \"CCNProjectV4.sol\":1724:1725  s */\n      dup2\n        /* \"CCNProjectV4.sol\":1724:1732  s.status */\n      0x05\n      add\n      0x00\n      swap1\n      sload\n      swap1\n      0x0100\n      exp\n      swap1\n      div\n      0xff\n      and\n        /* \"CCNProjectV4.sol\":1724:1747  s.status == Status.Open */\n      0x03\n      dup2\n      gt\n      iszero\n      tag_256\n      jumpi\n      tag_257\n      tag_119\n      jump\t// in\n    tag_257:\n    tag_256:\n      eq\n        /* \"CCNProjectV4.sol\":1724:1784  s.status == Status.Open && block.timestamp >= s.withdrawTime */\n      dup1\n      iszero\n      tag_258\n      jumpi\n      pop\n        /* \"CCNProjectV4.sol\":1770:1771  s */\n      dup1\n        /* \"CCNProjectV4.sol\":1770:1784  s.withdrawTime */\n      0x04\n      add\n      sload\n        /* \"CCNProjectV4.sol\":1751:1766  block.timestamp */\n      timestamp\n        /* \"CCNProjectV4.sol\":1751:1784  block.timestamp >= s.withdrawTime */\n      lt\n      iszero\n        /* \"CCNProjectV4.sol\":1724:1784  s.status == Status.Open && block.timestamp >= s.withdrawTime */\n    tag_258:\n        /* \"CCNProjectV4.sol\":1720:1939  if (s.status == Status.Open && block.timestamp >= s.withdrawTime) {... */\n      iszero\n      tag_259\n      jumpi\n        /* \"CCNProjectV4.sol\":1812:1831  Status.ClosedByTime */\n      0x02\n        /* \"CCNProjectV4.sol\":1801:1802  s */\n      dup2\n        /* \"CCNProjectV4.sol\":1801:1809  s.status */\n      0x05\n      add\n      0x00\n        /* \"CCNProjectV4.sol\":1801:1831  s.status = Status.ClosedByTime */\n      0x0100\n      exp\n      dup2\n      sload\n      dup2\n      0xff\n      mul\n      not\n      and\n      swap1\n      dup4\n      0x03\n      dup2\n      gt\n      iszero\n      tag_260\n      jumpi\n      tag_261\n      tag_119\n      jump\t// in\n    tag_261:\n    tag_260:\n      mul\n      or\n      swap1\n      sstore\n      pop\n        /* \"CCNProjectV4.sol\":1872:1873  s */\n      dup1\n        /* \"CCNProjectV4.sol\":1872:1879  s.owner */\n      0x00\n      add\n      0x00\n      swap1\n      sload\n      swap1\n      0x0100\n      exp\n      swap1\n      div\n      0xffffffffffffffffffffffffffffffffffffffff\n      and\n        /* \"CCNProjectV4.sol\":1851:1927  StallClosed(stallId, s.owner, block.timestamp, \"Closed due to duration end\") */\n      0xffffffffffffffffffffffffffffffffffffffff\n      and\n        /* \"CCNProjectV4.sol\":1863:1870  stallId */\n      dup3\n        /* \"CCNProjectV4.sol\":1851:1927  StallClosed(stallId, s.owner, block.timestamp, \"Closed due to duration end\") */\n      0x60d094b126b3b199bd9cd997bd0b8c7692ac53890c5fd278c4d1c74901c5b1b0\n        /* \"CCNProjectV4.sol\":1881:1896  block.timestamp */\n      timestamp\n        /* \"CCNProjectV4.sol\":1851:1927  StallClosed(stallId, s.owner, block.timestamp, \"Closed due to duration end\") */\n      mload(0x40)\n      tag_262\n      swap2\n      swap1\n      tag_196\n      jump\t// in\n    tag_262:\n      mload(0x40)\n      dup1\n      swap2\n      sub\n      swap1\n      log3\n        /* \"CCNProjectV4.sol\":1720:1939  if (s.status == Status.Open && block.timestamp >= s.withdrawTime) {... */\n    tag_259:\n        /* \"CCNProjectV4.sol\":1969:1980  Status.Open */\n      0x00\n        /* \"CCNProjectV4.sol\":1957:1980  s.status == Status.Open */\n      0x03\n      dup2\n      gt\n      iszero\n      tag_263\n      jumpi\n      tag_264\n      tag_119\n      jump\t// in\n    tag_264:\n    tag_263:\n        /* \"CCNProjectV4.sol\":1957:1958  s */\n      dup2\n        /* \"CCNProjectV4.sol\":1957:1965  s.status */\n      0x05\n      add\n      0x00\n      swap1\n      sload\n      swap1\n      0x0100\n      exp\n      swap1\n      div\n      0xff\n      and\n        /* \"CCNProjectV4.sol\":1957:1980  s.status == Status.Open */\n      0x03\n      dup2\n      gt\n      iszero\n      tag_265\n      jumpi\n      tag_266\n      tag_119\n      jump\t// in\n    tag_266:\n    tag_265:\n      eq\n        /* \"CCNProjectV4.sol\":1949:2002  require(s.status == Status.Open, \"Stall is not open\") */\n      tag_267\n      jumpi\n      mload(0x40)\n      0x08c379a000000000000000000000000000000000000000000000000000000000\n      dup2\n      mstore\n      0x04\n      add\n      tag_268\n      swap1\n      tag_203\n      jump\t// in\n    tag_268:\n      mload(0x40)\n      dup1\n      swap2\n      sub\n      swap1\n      revert\n    tag_267:\n        /* \"CCNProjectV4.sol\":3852:3867  Stall storage s */\n      0x00\n        /* \"CCNProjectV4.sol\":3870:3876  stalls */\n      0x01\n        /* \"CCNProjectV4.sol\":3870:3885  stalls[stallId] */\n      0x00\n        /* \"CCNProjectV4.sol\":3877:3884  stallId */\n      dup9\n        /* \"CCNProjectV4.sol\":3870:3885  stalls[stallId] */\n      dup2\n      mstore\n      0x20\n      add\n      swap1\n      dup2\n      mstore\n      0x20\n      add\n      0x00\n      keccak256\n        /* \"CCNProjectV4.sol\":3852:3885  Stall storage s = stalls[stallId] */\n      swap1\n      pop\n        /* \"CCNProjectV4.sol\":3922:3928  amount */\n      dup5\n        /* \"CCNProjectV4.sol\":3904:3905  s */\n      dup2\n        /* \"CCNProjectV4.sol\":3904:3914  s.payments */\n      0x06\n      add\n        /* \"CCNProjectV4.sol\":3904:3918  s.payments[to] */\n      0x00\n        /* \"CCNProjectV4.sol\":3915:3917  to */\n      dup9\n        /* \"CCNProjectV4.sol\":3904:3918  s.payments[to] */\n      0xffffffffffffffffffffffffffffffffffffffff\n      and\n      0xffffffffffffffffffffffffffffffffffffffff\n      and\n      dup2\n      mstore\n      0x20\n      add\n      swap1\n      dup2\n      mstore\n      0x20\n      add\n      0x00\n      keccak256\n      sload\n        /* \"CCNProjectV4.sol\":3904:3928  s.payments[to] >= amount */\n      lt\n      iszero\n        /* \"CCNProjectV4.sol\":3896:3956  require(s.payments[to] >= amount, \"Not enough paid by user\") */\n      tag_270\n      jumpi\n      mload(0x40)\n      0x08c379a000000000000000000000000000000000000000000000000000000000\n      dup2\n      mstore\n      0x04\n      add\n      tag_271\n      swap1\n      tag_272\n      jump\t// in\n    tag_271:\n      mload(0x40)\n      dup1\n      swap2\n      sub\n      swap1\n      revert\n    tag_270:\n        /* \"CCNProjectV4.sol\":3991:3997  amount */\n      dup5\n        /* \"CCNProjectV4.sol\":3975:3976  s */\n      dup2\n        /* \"CCNProjectV4.sol\":3975:3987  s.totalFunds */\n      0x03\n      add\n      sload\n        /* \"CCNProjectV4.sol\":3975:3997  s.totalFunds >= amount */\n      lt\n      iszero\n        /* \"CCNProjectV4.sol\":3967:4027  require(s.totalFunds >= amount, \"Not enough funds in stall\") */\n      tag_273\n      jumpi\n      mload(0x40)\n      0x08c379a000000000000000000000000000000000000000000000000000000000\n      dup2\n      mstore\n      0x04\n      add\n      tag_274\n      swap1\n      tag_275\n      jump\t// in\n    tag_274:\n      mload(0x40)\n      dup1\n      swap2\n      sub\n      swap1\n      revert\n    tag_273:\n        /* \"CCNProjectV4.sol\":4056:4062  amount */\n      dup5\n        /* \"CCNProjectV4.sol\":4038:4039  s */\n      dup2\n        /* \"CCNProjectV4.sol\":4038:4048  s.payments */\n      0x06\n      add\n        /* \"CCNProjectV4.sol\":4038:4052  s.payments[to] */\n      0x00\n        /* \"CCNProjectV4.sol\":4049:4051  to */\n      dup9\n        /* \"CCNProjectV4.sol\":4038:4052  s.payments[to] */\n      0xffffffffffffffffffffffffffffffffffffffff\n      and\n      0xffffffffffffffffffffffffffffffffffffffff\n      and\n      dup2\n      mstore\n      0x20\n      add\n      swap1\n      dup2\n      mstore\n      0x20\n      add\n      0x00\n      keccak256\n      0x00\n        /* \"CCNProjectV4.sol\":4038:4062  s.payments[to] -= amount */\n      dup3\n      dup3\n      sload\n      tag_276\n      swap2\n      swap1\n      tag_183\n      jump\t// in\n    tag_276:\n      swap3\n      pop\n      pop\n      dup2\n      swap1\n      sstore\n      pop\n        /* \"CCNProjectV4.sol\":4089:4095  amount */\n      dup5\n        /* \"CCNProjectV4.sol\":4073:4074  s */\n      dup2\n        /* \"CCNProjectV4.sol\":4073:4085  s.totalFunds */\n      0x03\n      add\n      0x00\n        /* \"CCNProjectV4.sol\":4073:4095  s.totalFunds -= amount */\n      dup3\n      dup3\n      sload\n      tag_277\n      swap2\n      swap1\n      tag_183\n      jump\t// in\n    tag_277:\n      swap3\n      pop\n      pop\n      dup2\n      swap1\n      sstore\n      pop\n        /* \"CCNProjectV4.sol\":4114:4116  to */\n      dup6\n        /* \"CCNProjectV4.sol\":4106:4126  payable(to).transfer */\n      0xffffffffffffffffffffffffffffffffffffffff\n      and\n        /* \"CCNProjectV4.sol\":4106:4134  payable(to).transfer(amount) */\n      0x08fc\n        /* \"CCNProjectV4.sol\":4127:4133  amount */\n      dup7\n        /* \"CCNProjectV4.sol\":4106:4134  payable(to).transfer(amount) */\n      swap1\n      dup2\n      iszero\n      mul\n      swap1\n      mload(0x40)\n      0x00\n      mload(0x40)\n      dup1\n      dup4\n      sub\n      dup2\n      dup6\n      dup9\n      dup9\n      call\n      swap4\n      pop\n      pop\n      pop\n      pop\n      iszero\n      dup1\n      iszero\n      tag_279\n      jumpi\n      returndatacopy(0x00, 0x00, returndatasize)\n      revert(0x00, returndatasize)\n    tag_279:\n      pop\n        /* \"CCNProjectV4.sol\":4172:4174  to */\n      dup6\n        /* \"CCNProjectV4.sol\":4150:4183  RefundIssued(stallId, to, amount) */\n      0xffffffffffffffffffffffffffffffffffffffff\n      and\n        /* \"CCNProjectV4.sol\":4163:4170  stallId */\n      dup8\n        /* \"CCNProjectV4.sol\":4150:4183  RefundIssued(stallId, to, amount) */\n      0x7a482fdeb6bc9a1376f597068a214a7a39472bb2eff1b8cad21ba04f49ddca1b\n        /* \"CCNProjectV4.sol\":4176:4182  amount */\n      dup8\n        /* \"CCNProjectV4.sol\":4150:4183  RefundIssued(stallId, to, amount) */\n      mload(0x40)\n      tag_280\n      swap2\n      swap1\n      tag_27\n      jump\t// in\n    tag_280:\n      mload(0x40)\n      dup1\n      swap2\n      sub\n      swap1\n      log3\n        /* \"CCNProjectV4.sol\":3841:4191  {... */\n      pop\n        /* \"CCNProjectV4.sol\":1665:2022  {... */\n      pop\n        /* \"CCNProjectV4.sol\":1612:1613  _ */\n      pop\n        /* \"CCNProjectV4.sol\":3728:4191  function refund(uint256 stallId, address to, uint256 amount) external onlyStallOwner(stallId) stallOpen(stallId) {... */\n      pop\n      pop\n      pop\n      pop\n      jump\t// out\n        /* \"#utility.yul\":88:205   */\n    tag_282:\n        /* \"#utility.yul\":197:198   */\n      0x00\n        /* \"#utility.yul\":194:195   */\n      0x00\n        /* \"#utility.yul\":187:199   */\n      revert\n        /* \"#utility.yul\":211:328   */\n    tag_283:\n        /* \"#utility.yul\":320:321   */\n      0x00\n        /* \"#utility.yul\":317:318   */\n      0x00\n        /* \"#utility.yul\":310:322   */\n      revert\n        /* \"#utility.yul\":334:411   */\n    tag_284:\n        /* \"#utility.yul\":371:378   */\n      0x00\n        /* \"#utility.yul\":400:405   */\n      dup2\n        /* \"#utility.yul\":389:405   */\n      swap1\n      pop\n        /* \"#utility.yul\":334:411   */\n      swap2\n      swap1\n      pop\n      jump\t// out\n        /* \"#utility.yul\":417:539   */\n    tag_285:\n        /* \"#utility.yul\":490:514   */\n      tag_379\n        /* \"#utility.yul\":508:513   */\n      dup2\n        /* \"#utility.yul\":490:514   */\n      tag_284\n      jump\t// in\n    tag_379:\n        /* \"#utility.yul\":483:488   */\n      dup2\n        /* \"#utility.yul\":480:515   */\n      eq\n        /* \"#utility.yul\":470:533   */\n      tag_380\n      jumpi\n        /* \"#utility.yul\":529:530   */\n      0x00\n        /* \"#utility.yul\":526:527   */\n      0x00\n        /* \"#utility.yul\":519:531   */\n      revert\n        /* \"#utility.yul\":470:533   */\n    tag_380:\n        /* \"#utility.yul\":417:539   */\n      pop\n      jump\t// out\n        /* \"#utility.yul\":545:684   */\n    tag_286:\n        /* \"#utility.yul\":591:596   */\n      0x00\n        /* \"#utility.yul\":629:635   */\n      dup2\n        /* \"#utility.yul\":616:636   */\n      calldataload\n        /* \"#utility.yul\":607:636   */\n      swap1\n      pop\n        /* \"#utility.yul\":645:678   */\n      tag_382\n        /* \"#utility.yul\":672:677   */\n      dup2\n        /* \"#utility.yul\":645:678   */\n      tag_285\n      jump\t// in\n    tag_382:\n        /* \"#utility.yul\":545:684   */\n      swap3\n      swap2\n      pop\n      pop\n      jump\t// out\n        /* \"#utility.yul\":690:816   */\n    tag_287:\n        /* \"#utility.yul\":727:734   */\n      0x00\n        /* \"#utility.yul\":767:809   */\n      0xffffffffffffffffffffffffffffffffffffffff\n        /* \"#utility.yul\":760:765   */\n      dup3\n        /* \"#utility.yul\":756:810   */\n      and\n        /* \"#utility.yul\":745:810   */\n      swap1\n      pop\n        /* \"#utility.yul\":690:816   */\n      swap2\n      swap1\n      pop\n      jump\t// out\n        /* \"#utility.yul\":822:918   */\n    tag_288:\n        /* \"#utility.yul\":859:866   */\n      0x00\n        /* \"#utility.yul\":888:912   */\n      tag_385\n        /* \"#utility.yul\":906:911   */\n      dup3\n        /* \"#utility.yul\":888:912   */\n      tag_287\n      jump\t// in\n    tag_385:\n        /* \"#utility.yul\":877:912   */\n      swap1\n      pop\n        /* \"#utility.yul\":822:918   */\n      swap2\n      swap1\n      pop\n      jump\t// out\n        /* \"#utility.yul\":924:1046   */\n    tag_289:\n        /* \"#utility.yul\":997:1021   */\n      tag_387\n        /* \"#utility.yul\":1015:1020   */\n      dup2\n        /* \"#utility.yul\":997:1021   */\n      tag_288\n      jump\t// in\n    tag_387:\n        /* \"#utility.yul\":990:995   */\n      dup2\n        /* \"#utility.yul\":987:1022   */\n      eq\n        /* \"#utility.yul\":977:1040   */\n      tag_388\n      jumpi\n        /* \"#utility.yul\":1036:1037   */\n      0x00\n        /* \"#utility.yul\":1033:1034   */\n      0x00\n        /* \"#utility.yul\":1026:1038   */\n      revert\n        /* \"#utility.yul\":977:1040   */\n    tag_388:\n        /* \"#utility.yul\":924:1046   */\n      pop\n      jump\t// out\n        /* \"#utility.yul\":1052:1191   */\n    tag_290:\n        /* \"#utility.yul\":1098:1103   */\n      0x00\n        /* \"#utility.yul\":1136:1142   */\n      dup2\n        /* \"#utility.yul\":1123:1143   */\n      calldataload\n        /* \"#utility.yul\":1114:1143   */\n      swap1\n      pop\n        /* \"#utility.yul\":1152:1185   */\n      tag_390\n        /* \"#utility.yul\":1179:1184   */\n      dup2\n        /* \"#utility.yul\":1152:1185   */\n      tag_289\n      jump\t// in\n    tag_390:\n        /* \"#utility.yul\":1052:1191   */\n      swap3\n      swap2\n      pop\n      pop\n      jump\t// out\n        /* \"#utility.yul\":1197:1671   */\n    tag_24:\n        /* \"#utility.yul\":1265:1271   */\n      0x00\n        /* \"#utility.yul\":1273:1279   */\n      0x00\n        /* \"#utility.yul\":1322:1324   */\n      0x40\n        /* \"#utility.yul\":1310:1319   */\n      dup4\n        /* \"#utility.yul\":1301:1308   */\n      dup6\n        /* \"#utility.yul\":1297:1320   */\n      sub\n        /* \"#utility.yul\":1293:1325   */\n      slt\n        /* \"#utility.yul\":1290:1409   */\n      iszero\n      tag_392\n      jumpi\n        /* \"#utility.yul\":1328:1407   */\n      tag_393\n      tag_282\n      jump\t// in\n    tag_393:\n        /* \"#utility.yul\":1290:1409   */\n    tag_392:\n        /* \"#utility.yul\":1448:1449   */\n      0x00\n        /* \"#utility.yul\":1473:1526   */\n      tag_394\n        /* \"#utility.yul\":1518:1525   */\n      dup6\n        /* \"#utility.yul\":1509:1515   */\n      dup3\n        /* \"#utility.yul\":1498:1507   */\n      dup7\n        /* \"#utility.yul\":1494:1516   */\n      add\n        /* \"#utility.yul\":1473:1526   */\n      tag_286\n      jump\t// in\n    tag_394:\n        /* \"#utility.yul\":1463:1526   */\n      swap3\n      pop\n        /* \"#utility.yul\":1419:1536   */\n      pop\n        /* \"#utility.yul\":1575:1577   */\n      0x20\n        /* \"#utility.yul\":1601:1654   */\n      tag_395\n        /* \"#utility.yul\":1646:1653   */\n      dup6\n        /* \"#utility.yul\":1637:1643   */\n      dup3\n        /* \"#utility.yul\":1626:1635   */\n      dup7\n        /* \"#utility.yul\":1622:1644   */\n      add\n        /* \"#utility.yul\":1601:1654   */\n      tag_290\n      jump\t// in\n    tag_395:\n        /* \"#utility.yul\":1591:1654   */\n      swap2\n      pop\n        /* \"#utility.yul\":1546:1664   */\n      pop\n        /* \"#utility.yul\":1197:1671   */\n      swap3\n      pop\n      swap3\n      swap1\n      pop\n      jump\t// out\n        /* \"#utility.yul\":1677:1795   */\n    tag_291:\n        /* \"#utility.yul\":1764:1788   */\n      tag_397\n        /* \"#utility.yul\":1782:1787   */\n      dup2\n        /* \"#utility.yul\":1764:1788   */\n      tag_284\n      jump\t// in\n    tag_397:\n        /* \"#utility.yul\":1759:1762   */\n      dup3\n        /* \"#utility.yul\":1752:1789   */\n      mstore\n        /* \"#utility.yul\":1677:1795   */\n      pop\n      pop\n      jump\t// out\n        /* \"#utility.yul\":1801:2023   */\n    tag_27:\n        /* \"#utility.yul\":1894:1898   */\n      0x00\n        /* \"#utility.yul\":1932:1934   */\n      0x20\n        /* \"#utility.yul\":1921:1930   */\n      dup3\n        /* \"#utility.yul\":1917:1935   */\n      add\n        /* \"#utility.yul\":1909:1935   */\n      swap1\n      pop\n        /* \"#utility.yul\":1945:2016   */\n      tag_399\n        /* \"#utility.yul\":2013:2014   */\n      0x00\n        /* \"#utility.yul\":2002:2011   */\n      dup4\n        /* \"#utility.yul\":1998:2015   */\n      add\n        /* \"#utility.yul\":1989:1995   */\n      dup5\n        /* \"#utility.yul\":1945:2016   */\n      tag_291\n      jump\t// in\n    tag_399:\n        /* \"#utility.yul\":1801:2023   */\n      swap3\n      swap2\n      pop\n      pop\n      jump\t// out\n        /* \"#utility.yul\":2029:2358   */\n    tag_31:\n        /* \"#utility.yul\":2088:2094   */\n      0x00\n        /* \"#utility.yul\":2137:2139   */\n      0x20\n        /* \"#utility.yul\":2125:2134   */\n      dup3\n        /* \"#utility.yul\":2116:2123   */\n      dup5\n        /* \"#utility.yul\":2112:2135   */\n      sub\n        /* \"#utility.yul\":2108:2140   */\n      slt\n        /* \"#utility.yul\":2105:2224   */\n      iszero\n      tag_401\n      jumpi\n        /* \"#utility.yul\":2143:2222   */\n      tag_402\n      tag_282\n      jump\t// in\n    tag_402:\n        /* \"#utility.yul\":2105:2224   */\n    tag_401:\n        /* \"#utility.yul\":2263:2264   */\n      0x00\n        /* \"#utility.yul\":2288:2341   */\n      tag_403\n        /* \"#utility.yul\":2333:2340   */\n      dup5\n        /* \"#utility.yul\":2324:2330   */\n      dup3\n        /* \"#utility.yul\":2313:2322   */\n      dup6\n        /* \"#utility.yul\":2309:2331   */\n      add\n        /* \"#utility.yul\":2288:2341   */\n      tag_286\n      jump\t// in\n    tag_403:\n        /* \"#utility.yul\":2278:2341   */\n      swap2\n      pop\n        /* \"#utility.yul\":2234:2351   */\n      pop\n        /* \"#utility.yul\":2029:2358   */\n      swap3\n      swap2\n      pop\n      pop\n      jump\t// out\n        /* \"#utility.yul\":2364:2454   */\n    tag_292:\n        /* \"#utility.yul\":2398:2405   */\n      0x00\n        /* \"#utility.yul\":2441:2446   */\n      dup2\n        /* \"#utility.yul\":2434:2447   */\n      iszero\n        /* \"#utility.yul\":2427:2448   */\n      iszero\n        /* \"#utility.yul\":2416:2448   */\n      swap1\n      pop\n        /* \"#utility.yul\":2364:2454   */\n      swap2\n      swap1\n      pop\n      jump\t// out\n        /* \"#utility.yul\":2460:2569   */\n    tag_293:\n        /* \"#utility.yul\":2541:2562   */\n      tag_406\n        /* \"#utility.yul\":2556:2561   */\n      dup2\n        /* \"#utility.yul\":2541:2562   */\n      tag_292\n      jump\t// in\n    tag_406:\n        /* \"#utility.yul\":2536:2539   */\n      dup3\n        /* \"#utility.yul\":2529:2563   */\n      mstore\n        /* \"#utility.yul\":2460:2569   */\n      pop\n      pop\n      jump\t// out\n        /* \"#utility.yul\":2575:2785   */\n    tag_34:\n        /* \"#utility.yul\":2662:2666   */\n      0x00\n        /* \"#utility.yul\":2700:2702   */\n      0x20\n        /* \"#utility.yul\":2689:2698   */\n      dup3\n        /* \"#utility.yul\":2685:2703   */\n      add\n        /* \"#utility.yul\":2677:2703   */\n      swap1\n      pop\n        /* \"#utility.yul\":2713:2778   */\n      tag_408\n        /* \"#utility.yul\":2775:2776   */\n      0x00\n        /* \"#utility.yul\":2764:2773   */\n      dup4\n        /* \"#utility.yul\":2760:2777   */\n      add\n        /* \"#utility.yul\":2751:2757   */\n      dup5\n        /* \"#utility.yul\":2713:2778   */\n      tag_293\n      jump\t// in\n    tag_408:\n        /* \"#utility.yul\":2575:2785   */\n      swap3\n      swap2\n      pop\n      pop\n      jump\t// out\n        /* \"#utility.yul\":2791:3123   */\n    tag_40:\n        /* \"#utility.yul\":2912:2916   */\n      0x00\n        /* \"#utility.yul\":2950:2952   */\n      0x40\n        /* \"#utility.yul\":2939:2948   */\n      dup3\n        /* \"#utility.yul\":2935:2953   */\n      add\n        /* \"#utility.yul\":2927:2953   */\n      swap1\n      pop\n        /* \"#utility.yul\":2963:3034   */\n      tag_410\n        /* \"#utility.yul\":3031:3032   */\n      0x00\n        /* \"#utility.yul\":3020:3029   */\n      dup4\n        /* \"#utility.yul\":3016:3033   */\n      add\n        /* \"#utility.yul\":3007:3013   */\n      dup6\n        /* \"#utility.yul\":2963:3034   */\n      tag_291\n      jump\t// in\n    tag_410:\n        /* \"#utility.yul\":3044:3116   */\n      tag_411\n        /* \"#utility.yul\":3112:3114   */\n      0x20\n        /* \"#utility.yul\":3101:3110   */\n      dup4\n        /* \"#utility.yul\":3097:3115   */\n      add\n        /* \"#utility.yul\":3088:3094   */\n      dup5\n        /* \"#utility.yul\":3044:3116   */\n      tag_291\n      jump\t// in\n    tag_411:\n        /* \"#utility.yul\":2791:3123   */\n      swap4\n      swap3\n      pop\n      pop\n      pop\n      jump\t// out\n        /* \"#utility.yul\":3129:3246   */\n    tag_294:\n        /* \"#utility.yul\":3238:3239   */\n      0x00\n        /* \"#utility.yul\":3235:3236   */\n      0x00\n        /* \"#utility.yul\":3228:3240   */\n      revert\n        /* \"#utility.yul\":3252:3369   */\n    tag_295:\n        /* \"#utility.yul\":3361:3362   */\n      0x00\n        /* \"#utility.yul\":3358:3359   */\n      0x00\n        /* \"#utility.yul\":3351:3363   */\n      revert\n        /* \"#utility.yul\":3375:3492   */\n    tag_296:\n        /* \"#utility.yul\":3484:3485   */\n      0x00\n        /* \"#utility.yul\":3481:3482   */\n      0x00\n        /* \"#utility.yul\":3474:3486   */\n      revert\n        /* \"#utility.yul\":3512:4065   */\n    tag_297:\n        /* \"#utility.yul\":3570:3578   */\n      0x00\n        /* \"#utility.yul\":3580:3586   */\n      0x00\n        /* \"#utility.yul\":3630:3633   */\n      dup4\n        /* \"#utility.yul\":3623:3627   */\n      0x1f\n        /* \"#utility.yul\":3615:3621   */\n      dup5\n        /* \"#utility.yul\":3611:3628   */\n      add\n        /* \"#utility.yul\":3607:3634   */\n      slt\n        /* \"#utility.yul\":3597:3719   */\n      tag_416\n      jumpi\n        /* \"#utility.yul\":3638:3717   */\n      tag_417\n      tag_294\n      jump\t// in\n    tag_417:\n        /* \"#utility.yul\":3597:3719   */\n    tag_416:\n        /* \"#utility.yul\":3751:3757   */\n      dup3\n        /* \"#utility.yul\":3738:3758   */\n      calldataload\n        /* \"#utility.yul\":3728:3758   */\n      swap1\n      pop\n        /* \"#utility.yul\":3781:3799   */\n      0xffffffffffffffff\n        /* \"#utility.yul\":3773:3779   */\n      dup2\n        /* \"#utility.yul\":3770:3800   */\n      gt\n        /* \"#utility.yul\":3767:3884   */\n      iszero\n      tag_418\n      jumpi\n        /* \"#utility.yul\":3803:3882   */\n      tag_419\n      tag_295\n      jump\t// in\n    tag_419:\n        /* \"#utility.yul\":3767:3884   */\n    tag_418:\n        /* \"#utility.yul\":3917:3921   */\n      0x20\n        /* \"#utility.yul\":3909:3915   */\n      dup4\n        /* \"#utility.yul\":3905:3922   */\n      add\n        /* \"#utility.yul\":3893:3922   */\n      swap2\n      pop\n        /* \"#utility.yul\":3971:3974   */\n      dup4\n        /* \"#utility.yul\":3963:3967   */\n      0x01\n        /* \"#utility.yul\":3955:3961   */\n      dup3\n        /* \"#utility.yul\":3951:3968   */\n      mul\n        /* \"#utility.yul\":3941:3949   */\n      dup4\n        /* \"#utility.yul\":3937:3969   */\n      add\n        /* \"#utility.yul\":3934:3975   */\n      gt\n        /* \"#utility.yul\":3931:4059   */\n      iszero\n      tag_420\n      jumpi\n        /* \"#utility.yul\":3978:4057   */\n      tag_421\n      tag_296\n      jump\t// in\n    tag_421:\n        /* \"#utility.yul\":3931:4059   */\n    tag_420:\n        /* \"#utility.yul\":3512:4065   */\n      swap3\n      pop\n      swap3\n      swap1\n      pop\n      jump\t// out\n        /* \"#utility.yul\":4071:4180   */\n    tag_298:\n        /* \"#utility.yul\":4154:4155   */\n      0x03\n        /* \"#utility.yul\":4147:4152   */\n      dup2\n        /* \"#utility.yul\":4144:4156   */\n      lt\n        /* \"#utility.yul\":4134:4174   */\n      tag_423\n      jumpi\n        /* \"#utility.yul\":4170:4171   */\n      0x00\n        /* \"#utility.yul\":4167:4168   */\n      0x00\n        /* \"#utility.yul\":4160:4172   */\n      revert\n        /* \"#utility.yul\":4134:4174   */\n    tag_423:\n        /* \"#utility.yul\":4071:4180   */\n      pop\n      jump\t// out\n        /* \"#utility.yul\":4186:4345   */\n    tag_299:\n        /* \"#utility.yul\":4242:4247   */\n      0x00\n        /* \"#utility.yul\":4280:4286   */\n      dup2\n        /* \"#utility.yul\":4267:4287   */\n      calldataload\n        /* \"#utility.yul\":4258:4287   */\n      swap1\n      pop\n        /* \"#utility.yul\":4296:4339   */\n      tag_425\n        /* \"#utility.yul\":4333:4338   */\n      dup2\n        /* \"#utility.yul\":4296:4339   */\n      tag_298\n      jump\t// in\n    tag_425:\n        /* \"#utility.yul\":4186:4345   */\n      swap3\n      swap2\n      pop\n      pop\n      jump\t// out\n        /* \"#utility.yul\":4351:5045   */\n    tag_48:\n        /* \"#utility.yul\":4441:4447   */\n      0x00\n        /* \"#utility.yul\":4449:4455   */\n      0x00\n        /* \"#utility.yul\":4457:4463   */\n      0x00\n        /* \"#utility.yul\":4506:4508   */\n      0x40\n        /* \"#utility.yul\":4494:4503   */\n      dup5\n        /* \"#utility.yul\":4485:4492   */\n      dup7\n        /* \"#utility.yul\":4481:4504   */\n      sub\n        /* \"#utility.yul\":4477:4509   */\n      slt\n        /* \"#utility.yul\":4474:4593   */\n      iszero\n      tag_427\n      jumpi\n        /* \"#utility.yul\":4512:4591   */\n      tag_428\n      tag_282\n      jump\t// in\n    tag_428:\n        /* \"#utility.yul\":4474:4593   */\n    tag_427:\n        /* \"#utility.yul\":4660:4661   */\n      0x00\n        /* \"#utility.yul\":4649:4658   */\n      dup5\n        /* \"#utility.yul\":4645:4662   */\n      add\n        /* \"#utility.yul\":4632:4663   */\n      calldataload\n        /* \"#utility.yul\":4690:4708   */\n      0xffffffffffffffff\n        /* \"#utility.yul\":4682:4688   */\n      dup2\n        /* \"#utility.yul\":4679:4709   */\n      gt\n        /* \"#utility.yul\":4676:4793   */\n      iszero\n      tag_429\n      jumpi\n        /* \"#utility.yul\":4712:4791   */\n      tag_430\n      tag_283\n      jump\t// in\n    tag_430:\n        /* \"#utility.yul\":4676:4793   */\n    tag_429:\n        /* \"#utility.yul\":4825:4890   */\n      tag_431\n        /* \"#utility.yul\":4882:4889   */\n      dup7\n        /* \"#utility.yul\":4873:4879   */\n      dup3\n        /* \"#utility.yul\":4862:4871   */\n      dup8\n        /* \"#utility.yul\":4858:4880   */\n      add\n        /* \"#utility.yul\":4825:4890   */\n      tag_297\n      jump\t// in\n    tag_431:\n        /* \"#utility.yul\":4807:4890   */\n      swap4\n      pop\n      swap4\n      pop\n        /* \"#utility.yul\":4603:4900   */\n      pop\n        /* \"#utility.yul\":4939:4941   */\n      0x20\n        /* \"#utility.yul\":4965:5028   */\n      tag_432\n        /* \"#utility.yul\":5020:5027   */\n      dup7\n        /* \"#utility.yul\":5011:5017   */\n      dup3\n        /* \"#utility.yul\":5000:5009   */\n      dup8\n        /* \"#utility.yul\":4996:5018   */\n      add\n        /* \"#utility.yul\":4965:5028   */\n      tag_299\n      jump\t// in\n    tag_432:\n        /* \"#utility.yul\":4955:5028   */\n      swap2\n      pop\n        /* \"#utility.yul\":4910:5038   */\n      pop\n        /* \"#utility.yul\":4351:5045   */\n      swap3\n      pop\n      swap3\n      pop\n      swap3\n      jump\t// out\n        /* \"#utility.yul\":5051:5137   */\n    tag_300:\n        /* \"#utility.yul\":5086:5093   */\n      0x00\n        /* \"#utility.yul\":5126:5130   */\n      0xff\n        /* \"#utility.yul\":5119:5124   */\n      dup3\n        /* \"#utility.yul\":5115:5131   */\n      and\n        /* \"#utility.yul\":5104:5131   */\n      swap1\n      pop\n        /* \"#utility.yul\":5051:5137   */\n      swap2\n      swap1\n      pop\n      jump\t// out\n        /* \"#utility.yul\":5143:5261   */\n    tag_301:\n        /* \"#utility.yul\":5214:5236   */\n      tag_435\n        /* \"#utility.yul\":5230:5235   */\n      dup2\n        /* \"#utility.yul\":5214:5236   */\n      tag_300\n      jump\t// in\n    tag_435:\n        /* \"#utility.yul\":5207:5212   */\n      dup2\n        /* \"#utility.yul\":5204:5237   */\n      eq\n        /* \"#utility.yul\":5194:5255   */\n      tag_436\n      jumpi\n        /* \"#utility.yul\":5251:5252   */\n      0x00\n        /* \"#utility.yul\":5248:5249   */\n      0x00\n        /* \"#utility.yul\":5241:5253   */\n      revert\n        /* \"#utility.yul\":5194:5255   */\n    tag_436:\n        /* \"#utility.yul\":5143:5261   */\n      pop\n      jump\t// out\n        /* \"#utility.yul\":5267:5402   */\n    tag_302:\n        /* \"#utility.yul\":5311:5316   */\n      0x00\n        /* \"#utility.yul\":5349:5355   */\n      dup2\n        /* \"#utility.yul\":5336:5356   */\n      calldataload\n        /* \"#utility.yul\":5327:5356   */\n      swap1\n      pop\n        /* \"#utility.yul\":5365:5396   */\n      tag_438\n        /* \"#utility.yul\":5390:5395   */\n      dup2\n        /* \"#utility.yul\":5365:5396   */\n      tag_301\n      jump\t// in\n    tag_438:\n        /* \"#utility.yul\":5267:5402   */\n      swap3\n      swap2\n      pop\n      pop\n      jump\t// out\n        /* \"#utility.yul\":5408:5878   */\n    tag_58:\n        /* \"#utility.yul\":5474:5480   */\n      0x00\n        /* \"#utility.yul\":5482:5488   */\n      0x00\n        /* \"#utility.yul\":5531:5533   */\n      0x40\n        /* \"#utility.yul\":5519:5528   */\n      dup4\n        /* \"#utility.yul\":5510:5517   */\n      dup6\n        /* \"#utility.yul\":5506:5529   */\n      sub\n        /* \"#utility.yul\":5502:5534   */\n      slt\n        /* \"#utility.yul\":5499:5618   */\n      iszero\n      tag_440\n      jumpi\n        /* \"#utility.yul\":5537:5616   */\n      tag_441\n      tag_282\n      jump\t// in\n    tag_441:\n        /* \"#utility.yul\":5499:5618   */\n    tag_440:\n        /* \"#utility.yul\":5657:5658   */\n      0x00\n        /* \"#utility.yul\":5682:5735   */\n      tag_442\n        /* \"#utility.yul\":5727:5734   */\n      dup6\n        /* \"#utility.yul\":5718:5724   */\n      dup3\n        /* \"#utility.yul\":5707:5716   */\n      dup7\n        /* \"#utility.yul\":5703:5725   */\n      add\n        /* \"#utility.yul\":5682:5735   */\n      tag_286\n      jump\t// in\n    tag_442:\n        /* \"#utility.yul\":5672:5735   */\n      swap3\n      pop\n        /* \"#utility.yul\":5628:5745   */\n      pop\n        /* \"#utility.yul\":5784:5786   */\n      0x20\n        /* \"#utility.yul\":5810:5861   */\n      tag_443\n        /* \"#utility.yul\":5853:5860   */\n      dup6\n        /* \"#utility.yul\":5844:5850   */\n      dup3\n        /* \"#utility.yul\":5833:5842   */\n      dup7\n        /* \"#utility.yul\":5829:5851   */\n      add\n        /* \"#utility.yul\":5810:5861   */\n      tag_302\n      jump\t// in\n    tag_443:\n        /* \"#utility.yul\":5800:5861   */\n      swap2\n      pop\n        /* \"#utility.yul\":5755:5871   */\n      pop\n        /* \"#utility.yul\":5408:5878   */\n      swap3\n      pop\n      swap3\n      swap1\n      pop\n      jump\t// out\n        /* \"#utility.yul\":5884:5996   */\n    tag_303:\n        /* \"#utility.yul\":5967:5989   */\n      tag_445\n        /* \"#utility.yul\":5983:5988   */\n      dup2\n        /* \"#utility.yul\":5967:5989   */\n      tag_300\n      jump\t// in\n    tag_445:\n        /* \"#utility.yul\":5962:5965   */\n      dup3\n        /* \"#utility.yul\":5955:5990   */\n      mstore\n        /* \"#utility.yul\":5884:5996   */\n      pop\n      pop\n      jump\t// out\n        /* \"#utility.yul\":6002:6216   */\n    tag_72:\n        /* \"#utility.yul\":6091:6095   */\n      0x00\n        /* \"#utility.yul\":6129:6131   */\n      0x20\n        /* \"#utility.yul\":6118:6127   */\n      dup3\n        /* \"#utility.yul\":6114:6132   */\n      add\n        /* \"#utility.yul\":6106:6132   */\n      swap1\n      pop\n        /* \"#utility.yul\":6142:6209   */\n      tag_447\n        /* \"#utility.yul\":6206:6207   */\n      0x00\n        /* \"#utility.yul\":6195:6204   */\n      dup4\n        /* \"#utility.yul\":6191:6208   */\n      add\n        /* \"#utility.yul\":6182:6188   */\n      dup5\n        /* \"#utility.yul\":6142:6209   */\n      tag_303\n      jump\t// in\n    tag_447:\n        /* \"#utility.yul\":6002:6216   */\n      swap3\n      swap2\n      pop\n      pop\n      jump\t// out\n        /* \"#utility.yul\":6222:6336   */\n    tag_304:\n        /* \"#utility.yul\":6289:6295   */\n      0x00\n        /* \"#utility.yul\":6323:6328   */\n      dup2\n        /* \"#utility.yul\":6317:6329   */\n      mload\n        /* \"#utility.yul\":6307:6329   */\n      swap1\n      pop\n        /* \"#utility.yul\":6222:6336   */\n      swap2\n      swap1\n      pop\n      jump\t// out\n        /* \"#utility.yul\":6342:6526   */\n    tag_305:\n        /* \"#utility.yul\":6441:6452   */\n      0x00\n        /* \"#utility.yul\":6475:6481   */\n      dup3\n        /* \"#utility.yul\":6470:6473   */\n      dup3\n        /* \"#utility.yul\":6463:6482   */\n      mstore\n        /* \"#utility.yul\":6515:6519   */\n      0x20\n        /* \"#utility.yul\":6510:6513   */\n      dup3\n        /* \"#utility.yul\":6506:6520   */\n      add\n        /* \"#utility.yul\":6491:6520   */\n      swap1\n      pop\n        /* \"#utility.yul\":6342:6526   */\n      swap3\n      swap2\n      pop\n      pop\n      jump\t// out\n        /* \"#utility.yul\":6532:6664   */\n    tag_306:\n        /* \"#utility.yul\":6599:6603   */\n      0x00\n        /* \"#utility.yul\":6622:6625   */\n      dup2\n        /* \"#utility.yul\":6614:6625   */\n      swap1\n      pop\n        /* \"#utility.yul\":6652:6656   */\n      0x20\n        /* \"#utility.yul\":6647:6650   */\n      dup3\n        /* \"#utility.yul\":6643:6657   */\n      add\n        /* \"#utility.yul\":6635:6657   */\n      swap1\n      pop\n        /* \"#utility.yul\":6532:6664   */\n      swap2\n      swap1\n      pop\n      jump\t// out\n        /* \"#utility.yul\":6670:6778   */\n    tag_307:\n        /* \"#utility.yul\":6747:6771   */\n      tag_452\n        /* \"#utility.yul\":6765:6770   */\n      dup2\n        /* \"#utility.yul\":6747:6771   */\n      tag_288\n      jump\t// in\n    tag_452:\n        /* \"#utility.yul\":6742:6745   */\n      dup3\n        /* \"#utility.yul\":6735:6772   */\n      mstore\n        /* \"#utility.yul\":6670:6778   */\n      pop\n      pop\n      jump\t// out\n        /* \"#utility.yul\":6784:6963   */\n    tag_308:\n        /* \"#utility.yul\":6853:6863   */\n      0x00\n        /* \"#utility.yul\":6874:6920   */\n      tag_454\n        /* \"#utility.yul\":6916:6919   */\n      dup4\n        /* \"#utility.yul\":6908:6914   */\n      dup4\n        /* \"#utility.yul\":6874:6920   */\n      tag_307\n      jump\t// in\n    tag_454:\n        /* \"#utility.yul\":6952:6956   */\n      0x20\n        /* \"#utility.yul\":6947:6950   */\n      dup4\n        /* \"#utility.yul\":6943:6957   */\n      add\n        /* \"#utility.yul\":6929:6957   */\n      swap1\n      pop\n        /* \"#utility.yul\":6784:6963   */\n      swap3\n      swap2\n      pop\n      pop\n      jump\t// out\n        /* \"#utility.yul\":6969:7082   */\n    tag_309:\n        /* \"#utility.yul\":7039:7043   */\n      0x00\n        /* \"#utility.yul\":7071:7075   */\n      0x20\n        /* \"#utility.yul\":7066:7069   */\n      dup3\n        /* \"#utility.yul\":7062:7076   */\n      add\n        /* \"#utility.yul\":7054:7076   */\n      swap1\n      pop\n        /* \"#utility.yul\":6969:7082   */\n      swap2\n      swap1\n      pop\n      jump\t// out\n        /* \"#utility.yul\":7118:7850   */\n    tag_310:\n        /* \"#utility.yul\":7237:7240   */\n      0x00\n        /* \"#utility.yul\":7266:7320   */\n      tag_457\n        /* \"#utility.yul\":7314:7319   */\n      dup3\n        /* \"#utility.yul\":7266:7320   */\n      tag_304\n      jump\t// in\n    tag_457:\n        /* \"#utility.yul\":7336:7422   */\n      tag_458\n        /* \"#utility.yul\":7415:7421   */\n      dup2\n        /* \"#utility.yul\":7410:7413   */\n      dup6\n        /* \"#utility.yul\":7336:7422   */\n      tag_305\n      jump\t// in\n    tag_458:\n        /* \"#utility.yul\":7329:7422   */\n      swap4\n      pop\n        /* \"#utility.yul\":7446:7502   */\n      tag_459\n        /* \"#utility.yul\":7496:7501   */\n      dup4\n        /* \"#utility.yul\":7446:7502   */\n      tag_306\n      jump\t// in\n    tag_459:\n        /* \"#utility.yul\":7525:7532   */\n      dup1\n        /* \"#utility.yul\":7556:7557   */\n      0x00\n        /* \"#utility.yul\":7541:7825   */\n    tag_460:\n        /* \"#utility.yul\":7566:7572   */\n      dup4\n        /* \"#utility.yul\":7563:7564   */\n      dup2\n        /* \"#utility.yul\":7560:7573   */\n      lt\n        /* \"#utility.yul\":7541:7825   */\n      iszero\n      tag_462\n      jumpi\n        /* \"#utility.yul\":7642:7648   */\n      dup2\n        /* \"#utility.yul\":7636:7649   */\n      mload\n        /* \"#utility.yul\":7669:7732   */\n      tag_463\n        /* \"#utility.yul\":7728:7731   */\n      dup9\n        /* \"#utility.yul\":7713:7726   */\n      dup3\n        /* \"#utility.yul\":7669:7732   */\n      tag_308\n      jump\t// in\n    tag_463:\n        /* \"#utility.yul\":7662:7732   */\n      swap8\n      pop\n        /* \"#utility.yul\":7755:7815   */\n      tag_464\n        /* \"#utility.yul\":7808:7814   */\n      dup4\n        /* \"#utility.yul\":7755:7815   */\n      tag_309\n      jump\t// in\n    tag_464:\n        /* \"#utility.yul\":7745:7815   */\n      swap3\n      pop\n        /* \"#utility.yul\":7601:7825   */\n      pop\n        /* \"#utility.yul\":7588:7589   */\n      0x01\n        /* \"#utility.yul\":7585:7586   */\n      dup2\n        /* \"#utility.yul\":7581:7590   */\n      add\n        /* \"#utility.yul\":7576:7590   */\n      swap1\n      pop\n        /* \"#utility.yul\":7541:7825   */\n      jump(tag_460)\n    tag_462:\n        /* \"#utility.yul\":7545:7559   */\n      pop\n        /* \"#utility.yul\":7841:7844   */\n      dup6\n        /* \"#utility.yul\":7834:7844   */\n      swap4\n      pop\n        /* \"#utility.yul\":7242:7850   */\n      pop\n      pop\n      pop\n        /* \"#utility.yul\":7118:7850   */\n      swap3\n      swap2\n      pop\n      pop\n      jump\t// out\n        /* \"#utility.yul\":7856:8229   */\n    tag_78:\n        /* \"#utility.yul\":7999:8003   */\n      0x00\n        /* \"#utility.yul\":8037:8039   */\n      0x20\n        /* \"#utility.yul\":8026:8035   */\n      dup3\n        /* \"#utility.yul\":8022:8040   */\n      add\n        /* \"#utility.yul\":8014:8040   */\n      swap1\n      pop\n        /* \"#utility.yul\":8086:8095   */\n      dup2\n        /* \"#utility.yul\":8080:8084   */\n      dup2\n        /* \"#utility.yul\":8076:8096   */\n      sub\n        /* \"#utility.yul\":8072:8073   */\n      0x00\n        /* \"#utility.yul\":8061:8070   */\n      dup4\n        /* \"#utility.yul\":8057:8074   */\n      add\n        /* \"#utility.yul\":8050:8097   */\n      mstore\n        /* \"#utility.yul\":8114:8222   */\n      tag_466\n        /* \"#utility.yul\":8217:8221   */\n      dup2\n        /* \"#utility.yul\":8208:8214   */\n      dup5\n        /* \"#utility.yul\":8114:8222   */\n      tag_310\n      jump\t// in\n    tag_466:\n        /* \"#utility.yul\":8106:8222   */\n      swap1\n      pop\n        /* \"#utility.yul\":7856:8229   */\n      swap3\n      swap2\n      pop\n      pop\n      jump\t// out\n        /* \"#utility.yul\":8235:8353   */\n    tag_311:\n        /* \"#utility.yul\":8322:8346   */\n      tag_468\n        /* \"#utility.yul\":8340:8345   */\n      dup2\n        /* \"#utility.yul\":8322:8346   */\n      tag_288\n      jump\t// in\n    tag_468:\n        /* \"#utility.yul\":8317:8320   */\n      dup3\n        /* \"#utility.yul\":8310:8347   */\n      mstore\n        /* \"#utility.yul\":8235:8353   */\n      pop\n      pop\n      jump\t// out\n        /* \"#utility.yul\":8359:8458   */\n    tag_312:\n        /* \"#utility.yul\":8411:8417   */\n      0x00\n        /* \"#utility.yul\":8445:8450   */\n      dup2\n        /* \"#utility.yul\":8439:8451   */\n      mload\n        /* \"#utility.yul\":8429:8451   */\n      swap1\n      pop\n        /* \"#utility.yul\":8359:8458   */\n      swap2\n      swap1\n      pop\n      jump\t// out\n        /* \"#utility.yul\":8464:8633   */\n    tag_313:\n        /* \"#utility.yul\":8548:8559   */\n      0x00\n        /* \"#utility.yul\":8582:8588   */\n      dup3\n        /* \"#utility.yul\":8577:8580   */\n      dup3\n        /* \"#utility.yul\":8570:8589   */\n      mstore\n        /* \"#utility.yul\":8622:8626   */\n      0x20\n        /* \"#utility.yul\":8617:8620   */\n      dup3\n        /* \"#utility.yul\":8613:8627   */\n      add\n        /* \"#utility.yul\":8598:8627   */\n      swap1\n      pop\n        /* \"#utility.yul\":8464:8633   */\n      swap3\n      swap2\n      pop\n      pop\n      jump\t// out\n        /* \"#utility.yul\":8639:8778   */\n    tag_314:\n        /* \"#utility.yul\":8728:8734   */\n      dup3\n        /* \"#utility.yul\":8723:8726   */\n      dup2\n        /* \"#utility.yul\":8718:8721   */\n      dup4\n        /* \"#utility.yul\":8712:8735   */\n      mcopy\n        /* \"#utility.yul\":8769:8770   */\n      0x00\n        /* \"#utility.yul\":8760:8766   */\n      dup4\n        /* \"#utility.yul\":8755:8758   */\n      dup4\n        /* \"#utility.yul\":8751:8767   */\n      add\n        /* \"#utility.yul\":8744:8771   */\n      mstore\n        /* \"#utility.yul\":8639:8778   */\n      pop\n      pop\n      pop\n      jump\t// out\n        /* \"#utility.yul\":8784:8886   */\n    tag_315:\n        /* \"#utility.yul\":8825:8831   */\n      0x00\n        /* \"#utility.yul\":8876:8878   */\n      0x1f\n        /* \"#utility.yul\":8872:8879   */\n      not\n        /* \"#utility.yul\":8867:8869   */\n      0x1f\n        /* \"#utility.yul\":8860:8865   */\n      dup4\n        /* \"#utility.yul\":8856:8870   */\n      add\n        /* \"#utility.yul\":8852:8880   */\n      and\n        /* \"#utility.yul\":8842:8880   */\n      swap1\n      pop\n        /* \"#utility.yul\":8784:8886   */\n      swap2\n      swap1\n      pop\n      jump\t// out\n        /* \"#utility.yul\":8892:9269   */\n    tag_316:\n        /* \"#utility.yul\":8980:8983   */\n      0x00\n        /* \"#utility.yul\":9008:9047   */\n      tag_474\n        /* \"#utility.yul\":9041:9046   */\n      dup3\n        /* \"#utility.yul\":9008:9047   */\n      tag_312\n      jump\t// in\n    tag_474:\n        /* \"#utility.yul\":9063:9134   */\n      tag_475\n        /* \"#utility.yul\":9127:9133   */\n      dup2\n        /* \"#utility.yul\":9122:9125   */\n      dup6\n        /* \"#utility.yul\":9063:9134   */\n      tag_313\n      jump\t// in\n    tag_475:\n        /* \"#utility.yul\":9056:9134   */\n      swap4\n      pop\n        /* \"#utility.yul\":9143:9208   */\n      tag_476\n        /* \"#utility.yul\":9201:9207   */\n      dup2\n        /* \"#utility.yul\":9196:9199   */\n      dup6\n        /* \"#utility.yul\":9189:9193   */\n      0x20\n        /* \"#utility.yul\":9182:9187   */\n      dup7\n        /* \"#utility.yul\":9178:9194   */\n      add\n        /* \"#utility.yul\":9143:9208   */\n      tag_314\n      jump\t// in\n    tag_476:\n        /* \"#utility.yul\":9233:9262   */\n      tag_477\n        /* \"#utility.yul\":9255:9261   */\n      dup2\n        /* \"#utility.yul\":9233:9262   */\n      tag_315\n      jump\t// in\n    tag_477:\n        /* \"#utility.yul\":9228:9231   */\n      dup5\n        /* \"#utility.yul\":9224:9263   */\n      add\n        /* \"#utility.yul\":9217:9263   */\n      swap2\n      pop\n        /* \"#utility.yul\":8984:9269   */\n      pop\n        /* \"#utility.yul\":8892:9269   */\n      swap3\n      swap2\n      pop\n      pop\n      jump\t// out\n        /* \"#utility.yul\":9275:9455   */\n    tag_119:\n        /* \"#utility.yul\":9323:9400   */\n      0x4e487b7100000000000000000000000000000000000000000000000000000000\n        /* \"#utility.yul\":9320:9321   */\n      0x00\n        /* \"#utility.yul\":9313:9401   */\n      mstore\n        /* \"#utility.yul\":9420:9424   */\n      0x21\n        /* \"#utility.yul\":9417:9418   */\n      0x04\n        /* \"#utility.yul\":9410:9425   */\n      mstore\n        /* \"#utility.yul\":9444:9448   */\n      0x24\n        /* \"#utility.yul\":9441:9442   */\n      0x00\n        /* \"#utility.yul\":9434:9449   */\n      revert\n        /* \"#utility.yul\":9461:9576   */\n    tag_317:\n        /* \"#utility.yul\":9544:9545   */\n      0x03\n        /* \"#utility.yul\":9537:9542   */\n      dup2\n        /* \"#utility.yul\":9534:9546   */\n      lt\n        /* \"#utility.yul\":9524:9570   */\n      tag_480\n      jumpi\n        /* \"#utility.yul\":9550:9568   */\n      tag_481\n      tag_119\n      jump\t// in\n    tag_481:\n        /* \"#utility.yul\":9524:9570   */\n    tag_480:\n        /* \"#utility.yul\":9461:9576   */\n      pop\n      jump\t// out\n        /* \"#utility.yul\":9582:9713   */\n    tag_318:\n        /* \"#utility.yul\":9629:9636   */\n      0x00\n        /* \"#utility.yul\":9658:9663   */\n      dup2\n        /* \"#utility.yul\":9647:9663   */\n      swap1\n      pop\n        /* \"#utility.yul\":9664:9707   */\n      tag_483\n        /* \"#utility.yul\":9701:9706   */\n      dup3\n        /* \"#utility.yul\":9664:9707   */\n      tag_317\n      jump\t// in\n    tag_483:\n        /* \"#utility.yul\":9582:9713   */\n      swap2\n      swap1\n      pop\n      jump\t// out\n        /* \"#utility.yul\":9719:9850   */\n    tag_319:\n        /* \"#utility.yul\":9777:9786   */\n      0x00\n        /* \"#utility.yul\":9810:9844   */\n      tag_485\n        /* \"#utility.yul\":9838:9843   */\n      dup3\n        /* \"#utility.yul\":9810:9844   */\n      tag_318\n      jump\t// in\n    tag_485:\n        /* \"#utility.yul\":9797:9844   */\n      swap1\n      pop\n        /* \"#utility.yul\":9719:9850   */\n      swap2\n      swap1\n      pop\n      jump\t// out\n        /* \"#utility.yul\":9856:10003   */\n    tag_320:\n        /* \"#utility.yul\":9951:9996   */\n      tag_487\n        /* \"#utility.yul\":9990:9995   */\n      dup2\n        /* \"#utility.yul\":9951:9996   */\n      tag_319\n      jump\t// in\n    tag_487:\n        /* \"#utility.yul\":9946:9949   */\n      dup3\n        /* \"#utility.yul\":9939:9997   */\n      mstore\n        /* \"#utility.yul\":9856:10003   */\n      pop\n      pop\n      jump\t// out\n        /* \"#utility.yul\":10009:10123   */\n    tag_321:\n        /* \"#utility.yul\":10091:10092   */\n      0x04\n        /* \"#utility.yul\":10084:10089   */\n      dup2\n        /* \"#utility.yul\":10081:10093   */\n      lt\n        /* \"#utility.yul\":10071:10117   */\n      tag_489\n      jumpi\n        /* \"#utility.yul\":10097:10115   */\n      tag_490\n      tag_119\n      jump\t// in\n    tag_490:\n        /* \"#utility.yul\":10071:10117   */\n    tag_489:\n        /* \"#utility.yul\":10009:10123   */\n      pop\n      jump\t// out\n        /* \"#utility.yul\":10129:10258   */\n    tag_322:\n        /* \"#utility.yul\":10175:10182   */\n      0x00\n        /* \"#utility.yul\":10204:10209   */\n      dup2\n        /* \"#utility.yul\":10193:10209   */\n      swap1\n      pop\n        /* \"#utility.yul\":10210:10252   */\n      tag_492\n        /* \"#utility.yul\":10246:10251   */\n      dup3\n        /* \"#utility.yul\":10210:10252   */\n      tag_321\n      jump\t// in\n    tag_492:\n        /* \"#utility.yul\":10129:10258   */\n      swap2\n      swap1\n      pop\n      jump\t// out\n        /* \"#utility.yul\":10264:10393   */\n    tag_323:\n        /* \"#utility.yul\":10321:10330   */\n      0x00\n        /* \"#utility.yul\":10354:10387   */\n      tag_494\n        /* \"#utility.yul\":10381:10386   */\n      dup3\n        /* \"#utility.yul\":10354:10387   */\n      tag_322\n      jump\t// in\n    tag_494:\n        /* \"#utility.yul\":10341:10387   */\n      swap1\n      pop\n        /* \"#utility.yul\":10264:10393   */\n      swap2\n      swap1\n      pop\n      jump\t// out\n        /* \"#utility.yul\":10399:10544   */\n    tag_324:\n        /* \"#utility.yul\":10493:10537   */\n      tag_496\n        /* \"#utility.yul\":10531:10536   */\n      dup2\n        /* \"#utility.yul\":10493:10537   */\n      tag_323\n      jump\t// in\n    tag_496:\n        /* \"#utility.yul\":10488:10491   */\n      dup3\n        /* \"#utility.yul\":10481:10538   */\n      mstore\n        /* \"#utility.yul\":10399:10544   */\n      pop\n      pop\n      jump\t// out\n        /* \"#utility.yul\":10550:11767   */\n    tag_84:\n        /* \"#utility.yul\":10896:10900   */\n      0x00\n        /* \"#utility.yul\":10934:10937   */\n      0x0120\n        /* \"#utility.yul\":10923:10932   */\n      dup3\n        /* \"#utility.yul\":10919:10938   */\n      add\n        /* \"#utility.yul\":10911:10938   */\n      swap1\n      pop\n        /* \"#utility.yul\":10948:11019   */\n      tag_498\n        /* \"#utility.yul\":11016:11017   */\n      0x00\n        /* \"#utility.yul\":11005:11014   */\n      dup4\n        /* \"#utility.yul\":11001:11018   */\n      add\n        /* \"#utility.yul\":10992:10998   */\n      dup13\n        /* \"#utility.yul\":10948:11019   */\n      tag_311\n      jump\t// in\n    tag_498:\n        /* \"#utility.yul\":11066:11075   */\n      dup2\n        /* \"#utility.yul\":11060:11064   */\n      dup2\n        /* \"#utility.yul\":11056:11076   */\n      sub\n        /* \"#utility.yul\":11051:11053   */\n      0x20\n        /* \"#utility.yul\":11040:11049   */\n      dup4\n        /* \"#utility.yul\":11036:11054   */\n      add\n        /* \"#utility.yul\":11029:11077   */\n      mstore\n        /* \"#utility.yul\":11094:11172   */\n      tag_499\n        /* \"#utility.yul\":11167:11171   */\n      dup2\n        /* \"#utility.yul\":11158:11164   */\n      dup12\n        /* \"#utility.yul\":11094:11172   */\n      tag_316\n      jump\t// in\n    tag_499:\n        /* \"#utility.yul\":11086:11172   */\n      swap1\n      pop\n        /* \"#utility.yul\":11182:11262   */\n      tag_500\n        /* \"#utility.yul\":11258:11260   */\n      0x40\n        /* \"#utility.yul\":11247:11256   */\n      dup4\n        /* \"#utility.yul\":11243:11261   */\n      add\n        /* \"#utility.yul\":11234:11240   */\n      dup11\n        /* \"#utility.yul\":11182:11262   */\n      tag_320\n      jump\t// in\n    tag_500:\n        /* \"#utility.yul\":11272:11344   */\n      tag_501\n        /* \"#utility.yul\":11340:11342   */\n      0x60\n        /* \"#utility.yul\":11329:11338   */\n      dup4\n        /* \"#utility.yul\":11325:11343   */\n      add\n        /* \"#utility.yul\":11316:11322   */\n      dup10\n        /* \"#utility.yul\":11272:11344   */\n      tag_291\n      jump\t// in\n    tag_501:\n        /* \"#utility.yul\":11354:11427   */\n      tag_502\n        /* \"#utility.yul\":11422:11425   */\n      0x80\n        /* \"#utility.yul\":11411:11420   */\n      dup4\n        /* \"#utility.yul\":11407:11426   */\n      add\n        /* \"#utility.yul\":11398:11404   */\n      dup9\n        /* \"#utility.yul\":11354:11427   */\n      tag_291\n      jump\t// in\n    tag_502:\n        /* \"#utility.yul\":11437:11517   */\n      tag_503\n        /* \"#utility.yul\":11512:11515   */\n      0xa0\n        /* \"#utility.yul\":11501:11510   */\n      dup4\n        /* \"#utility.yul\":11497:11516   */\n      add\n        /* \"#utility.yul\":11488:11494   */\n      dup8\n        /* \"#utility.yul\":11437:11517   */\n      tag_324\n      jump\t// in\n    tag_503:\n        /* \"#utility.yul\":11527:11594   */\n      tag_504\n        /* \"#utility.yul\":11589:11592   */\n      0xc0\n        /* \"#utility.yul\":11578:11587   */\n      dup4\n        /* \"#utility.yul\":11574:11593   */\n      add\n        /* \"#utility.yul\":11565:11571   */\n      dup7\n        /* \"#utility.yul\":11527:11594   */\n      tag_293\n      jump\t// in\n    tag_504:\n        /* \"#utility.yul\":11604:11677   */\n      tag_505\n        /* \"#utility.yul\":11672:11675   */\n      0xe0\n        /* \"#utility.yul\":11661:11670   */\n      dup4\n        /* \"#utility.yul\":11657:11676   */\n      add\n        /* \"#utility.yul\":11648:11654   */\n      dup6\n        /* \"#utility.yul\":11604:11677   */\n      tag_291\n      jump\t// in\n    tag_505:\n        /* \"#utility.yul\":11687:11760   */\n      tag_506\n        /* \"#utility.yul\":11755:11758   */\n      0x0100\n        /* \"#utility.yul\":11744:11753   */\n      dup4\n        /* \"#utility.yul\":11740:11759   */\n      add\n        /* \"#utility.yul\":11731:11737   */\n      dup5\n        /* \"#utility.yul\":11687:11760   */\n      tag_291\n      jump\t// in\n    tag_506:\n        /* \"#utility.yul\":10550:11767   */\n      swap11\n      swap10\n      pop\n      pop\n      pop\n      pop\n      pop\n      pop\n      pop\n      pop\n      pop\n      pop\n      jump\t// out\n        /* \"#utility.yul\":11773:12768   */\n    tag_90:\n        /* \"#utility.yul\":12063:12067   */\n      0x00\n        /* \"#utility.yul\":12101:12104   */\n      0xe0\n        /* \"#utility.yul\":12090:12099   */\n      dup3\n        /* \"#utility.yul\":12086:12105   */\n      add\n        /* \"#utility.yul\":12078:12105   */\n      swap1\n      pop\n        /* \"#utility.yul\":12115:12186   */\n      tag_508\n        /* \"#utility.yul\":12183:12184   */\n      0x00\n        /* \"#utility.yul\":12172:12181   */\n      dup4\n        /* \"#utility.yul\":12168:12185   */\n      add\n        /* \"#utility.yul\":12159:12165   */\n      dup11\n        /* \"#utility.yul\":12115:12186   */\n      tag_311\n      jump\t// in\n    tag_508:\n        /* \"#utility.yul\":12233:12242   */\n      dup2\n        /* \"#utility.yul\":12227:12231   */\n      dup2\n        /* \"#utility.yul\":12223:12243   */\n      sub\n        /* \"#utility.yul\":12218:12220   */\n      0x20\n        /* \"#utility.yul\":12207:12216   */\n      dup4\n        /* \"#utility.yul\":12203:12221   */\n      add\n        /* \"#utility.yul\":12196:12244   */\n      mstore\n        /* \"#utility.yul\":12261:12339   */\n      tag_509\n        /* \"#utility.yul\":12334:12338   */\n      dup2\n        /* \"#utility.yul\":12325:12331   */\n      dup10\n        /* \"#utility.yul\":12261:12339   */\n      tag_316\n      jump\t// in\n    tag_509:\n        /* \"#utility.yul\":12253:12339   */\n      swap1\n      pop\n        /* \"#utility.yul\":12349:12429   */\n      tag_510\n        /* \"#utility.yul\":12425:12427   */\n      0x40\n        /* \"#utility.yul\":12414:12423   */\n      dup4\n        /* \"#utility.yul\":12410:12428   */\n      add\n        /* \"#utility.yul\":12401:12407   */\n      dup9\n        /* \"#utility.yul\":12349:12429   */\n      tag_320\n      jump\t// in\n    tag_510:\n        /* \"#utility.yul\":12439:12511   */\n      tag_511\n        /* \"#utility.yul\":12507:12509   */\n      0x60\n        /* \"#utility.yul\":12496:12505   */\n      dup4\n        /* \"#utility.yul\":12492:12510   */\n      add\n        /* \"#utility.yul\":12483:12489   */\n      dup8\n        /* \"#utility.yul\":12439:12511   */\n      tag_291\n      jump\t// in\n    tag_511:\n        /* \"#utility.yul\":12521:12594   */\n      tag_512\n        /* \"#utility.yul\":12589:12592   */\n      0x80\n        /* \"#utility.yul\":12578:12587   */\n      dup4\n        /* \"#utility.yul\":12574:12593   */\n      add\n        /* \"#utility.yul\":12565:12571   */\n      dup7\n        /* \"#utility.yul\":12521:12594   */\n      tag_291\n      jump\t// in\n    tag_512:\n        /* \"#utility.yul\":12604:12684   */\n      tag_513\n        /* \"#utility.yul\":12679:12682   */\n      0xa0\n        /* \"#utility.yul\":12668:12677   */\n      dup4\n        /* \"#utility.yul\":12664:12683   */\n      add\n        /* \"#utility.yul\":12655:12661   */\n      dup6\n        /* \"#utility.yul\":12604:12684   */\n      tag_324\n      jump\t// in\n    tag_513:\n        /* \"#utility.yul\":12694:12761   */\n      tag_514\n        /* \"#utility.yul\":12756:12759   */\n      0xc0\n        /* \"#utility.yul\":12745:12754   */\n      dup4\n        /* \"#utility.yul\":12741:12760   */\n      add\n        /* \"#utility.yul\":12732:12738   */\n      dup5\n        /* \"#utility.yul\":12694:12761   */\n      tag_293\n      jump\t// in\n    tag_514:\n        /* \"#utility.yul\":11773:12768   */\n      swap9\n      swap8\n      pop\n      pop\n      pop\n      pop\n      pop\n      pop\n      pop\n      pop\n      jump\t// out\n        /* \"#utility.yul\":12774:13393   */\n    tag_102:\n        /* \"#utility.yul\":12851:12857   */\n      0x00\n        /* \"#utility.yul\":12859:12865   */\n      0x00\n        /* \"#utility.yul\":12867:12873   */\n      0x00\n        /* \"#utility.yul\":12916:12918   */\n      0x60\n        /* \"#utility.yul\":12904:12913   */\n      dup5\n        /* \"#utility.yul\":12895:12902   */\n      dup7\n        /* \"#utility.yul\":12891:12914   */\n      sub\n        /* \"#utility.yul\":12887:12919   */\n      slt\n        /* \"#utility.yul\":12884:13003   */\n      iszero\n      tag_516\n      jumpi\n        /* \"#utility.yul\":12922:13001   */\n      tag_517\n      tag_282\n      jump\t// in\n    tag_517:\n        /* \"#utility.yul\":12884:13003   */\n    tag_516:\n        /* \"#utility.yul\":13042:13043   */\n      0x00\n        /* \"#utility.yul\":13067:13120   */\n      tag_518\n        /* \"#utility.yul\":13112:13119   */\n      dup7\n        /* \"#utility.yul\":13103:13109   */\n      dup3\n        /* \"#utility.yul\":13092:13101   */\n      dup8\n        /* \"#utility.yul\":13088:13110   */\n      add\n        /* \"#utility.yul\":13067:13120   */\n      tag_286\n      jump\t// in\n    tag_518:\n        /* \"#utility.yul\":13057:13120   */\n      swap4\n      pop\n        /* \"#utility.yul\":13013:13130   */\n      pop\n        /* \"#utility.yul\":13169:13171   */\n      0x20\n        /* \"#utility.yul\":13195:13248   */\n      tag_519\n        /* \"#utility.yul\":13240:13247   */\n      dup7\n        /* \"#utility.yul\":13231:13237   */\n      dup3\n        /* \"#utility.yul\":13220:13229   */\n      dup8\n        /* \"#utility.yul\":13216:13238   */\n      add\n        /* \"#utility.yul\":13195:13248   */\n      tag_290\n      jump\t// in\n    tag_519:\n        /* \"#utility.yul\":13185:13248   */\n      swap3\n      pop\n        /* \"#utility.yul\":13140:13258   */\n      pop\n        /* \"#utility.yul\":13297:13299   */\n      0x40\n        /* \"#utility.yul\":13323:13376   */\n      tag_520\n        /* \"#utility.yul\":13368:13375   */\n      dup7\n        /* \"#utility.yul\":13359:13365   */\n      dup3\n        /* \"#utility.yul\":13348:13357   */\n      dup8\n        /* \"#utility.yul\":13344:13366   */\n      add\n        /* \"#utility.yul\":13323:13376   */\n      tag_286\n      jump\t// in\n    tag_520:\n        /* \"#utility.yul\":13313:13376   */\n      swap2\n      pop\n        /* \"#utility.yul\":13268:13386   */\n      pop\n        /* \"#utility.yul\":12774:13393   */\n      swap3\n      pop\n      swap3\n      pop\n      swap3\n      jump\t// out\n        /* \"#utility.yul\":13399:13579   */\n    tag_325:\n        /* \"#utility.yul\":13447:13524   */\n      0x4e487b7100000000000000000000000000000000000000000000000000000000\n        /* \"#utility.yul\":13444:13445   */\n      0x00\n        /* \"#utility.yul\":13437:13525   */\n      mstore\n        /* \"#utility.yul\":13544:13548   */\n      0x12\n        /* \"#utility.yul\":13541:13542   */\n      0x04\n        /* \"#utility.yul\":13534:13549   */\n      mstore\n        /* \"#utility.yul\":13568:13572   */\n      0x24\n        /* \"#utility.yul\":13565:13566   */\n      0x00\n        /* \"#utility.yul\":13558:13573   */\n      revert\n        /* \"#utility.yul\":13585:13765   */\n    tag_326:\n        /* \"#utility.yul\":13633:13710   */\n      0x4e487b7100000000000000000000000000000000000000000000000000000000\n        /* \"#utility.yul\":13630:13631   */\n      0x00\n        /* \"#utility.yul\":13623:13711   */\n      mstore\n        /* \"#utility.yul\":13730:13734   */\n      0x11\n        /* \"#utility.yul\":13727:13728   */\n      0x04\n        /* \"#utility.yul\":13720:13735   */\n      mstore\n        /* \"#utility.yul\":13754:13758   */\n      0x24\n        /* \"#utility.yul\":13751:13752   */\n      0x00\n        /* \"#utility.yul\":13744:13759   */\n      revert\n        /* \"#utility.yul\":13771:13956   */\n    tag_108:\n        /* \"#utility.yul\":13811:13812   */\n      0x00\n        /* \"#utility.yul\":13828:13848   */\n      tag_524\n        /* \"#utility.yul\":13846:13847   */\n      dup3\n        /* \"#utility.yul\":13828:13848   */\n      tag_284\n      jump\t// in\n    tag_524:\n        /* \"#utility.yul\":13823:13848   */\n      swap2\n      pop\n        /* \"#utility.yul\":13862:13882   */\n      tag_525\n        /* \"#utility.yul\":13880:13881   */\n      dup4\n        /* \"#utility.yul\":13862:13882   */\n      tag_284\n      jump\t// in\n    tag_525:\n        /* \"#utility.yul\":13857:13882   */\n      swap3\n      pop\n        /* \"#utility.yul\":13901:13902   */\n      dup3\n        /* \"#utility.yul\":13891:13926   */\n      tag_526\n      jumpi\n        /* \"#utility.yul\":13906:13924   */\n      tag_527\n      tag_325\n      jump\t// in\n    tag_527:\n        /* \"#utility.yul\":13891:13926   */\n    tag_526:\n        /* \"#utility.yul\":13948:13949   */\n      dup3\n        /* \"#utility.yul\":13945:13946   */\n      dup3\n        /* \"#utility.yul\":13941:13950   */\n      div\n        /* \"#utility.yul\":13936:13950   */\n      swap1\n      pop\n        /* \"#utility.yul\":13771:13956   */\n      swap3\n      swap2\n      pop\n      pop\n      jump\t// out\n        /* \"#utility.yul\":13962:14132   */\n    tag_327:\n        /* \"#utility.yul\":14102:14124   */\n      0x5374616c6c20646f6573206e6f74206578697374000000000000000000000000\n        /* \"#utility.yul\":14098:14099   */\n      0x00\n        /* \"#utility.yul\":14090:14096   */\n      dup3\n        /* \"#utility.yul\":14086:14100   */\n      add\n        /* \"#utility.yul\":14079:14125   */\n      mstore\n        /* \"#utility.yul\":13962:14132   */\n      pop\n      jump\t// out\n        /* \"#utility.yul\":14138:14504   */\n    tag_328:\n        /* \"#utility.yul\":14280:14283   */\n      0x00\n        /* \"#utility.yul\":14301:14368   */\n      tag_530\n        /* \"#utility.yul\":14365:14367   */\n      0x14\n        /* \"#utility.yul\":14360:14363   */\n      dup4\n        /* \"#utility.yul\":14301:14368   */\n      tag_313\n      jump\t// in\n    tag_530:\n        /* \"#utility.yul\":14294:14368   */\n      swap2\n      pop\n        /* \"#utility.yul\":14377:14470   */\n      tag_531\n        /* \"#utility.yul\":14466:14469   */\n      dup3\n        /* \"#utility.yul\":14377:14470   */\n      tag_327\n      jump\t// in\n    tag_531:\n        /* \"#utility.yul\":14495:14497   */\n      0x20\n        /* \"#utility.yul\":14490:14493   */\n      dup3\n        /* \"#utility.yul\":14486:14498   */\n      add\n        /* \"#utility.yul\":14479:14498   */\n      swap1\n      pop\n        /* \"#utility.yul\":14138:14504   */\n      swap2\n      swap1\n      pop\n      jump\t// out\n        /* \"#utility.yul\":14510:14929   */\n    tag_112:\n        /* \"#utility.yul\":14676:14680   */\n      0x00\n        /* \"#utility.yul\":14714:14716   */\n      0x20\n        /* \"#utility.yul\":14703:14712   */\n      dup3\n        /* \"#utility.yul\":14699:14717   */\n      add\n        /* \"#utility.yul\":14691:14717   */\n      swap1\n      pop\n        /* \"#utility.yul\":14763:14772   */\n      dup2\n        /* \"#utility.yul\":14757:14761   */\n      dup2\n        /* \"#utility.yul\":14753:14773   */\n      sub\n        /* \"#utility.yul\":14749:14750   */\n      0x00\n        /* \"#utility.yul\":14738:14747   */\n      dup4\n        /* \"#utility.yul\":14734:14751   */\n      add\n        /* \"#utility.yul\":14727:14774   */\n      mstore\n        /* \"#utility.yul\":14791:14922   */\n      tag_533\n        /* \"#utility.yul\":14917:14921   */\n      dup2\n        /* \"#utility.yul\":14791:14922   */\n      tag_328\n      jump\t// in\n    tag_533:\n        /* \"#utility.yul\":14783:14922   */\n      swap1\n      pop\n        /* \"#utility.yul\":14510:14929   */\n      swap2\n      swap1\n      pop\n      jump\t// out\n        /* \"#utility.yul\":14935:15100   */\n    tag_329:\n        /* \"#utility.yul\":15075:15092   */\n      0x4e6f74207374616c6c206f776e65720000000000000000000000000000000000\n        /* \"#utility.yul\":15071:15072   */\n      0x00\n        /* \"#utility.yul\":15063:15069   */\n      dup3\n        /* \"#utility.yul\":15059:15073   */\n      add\n        /* \"#utility.yul\":15052:15093   */\n      mstore\n        /* \"#utility.yul\":14935:15100   */\n      pop\n      jump\t// out\n        /* \"#utility.yul\":15106:15472   */\n    tag_330:\n        /* \"#utility.yul\":15248:15251   */\n      0x00\n        /* \"#utility.yul\":15269:15336   */\n      tag_536\n        /* \"#utility.yul\":15333:15335   */\n      0x0f\n        /* \"#utility.yul\":15328:15331   */\n      dup4\n        /* \"#utility.yul\":15269:15336   */\n      tag_313\n      jump\t// in\n    tag_536:\n        /* \"#utility.yul\":15262:15336   */\n      swap2\n      pop\n        /* \"#utility.yul\":15345:15438   */\n      tag_537\n        /* \"#utility.yul\":15434:15437   */\n      dup3\n        /* \"#utility.yul\":15345:15438   */\n      tag_329\n      jump\t// in\n    tag_537:\n        /* \"#utility.yul\":15463:15465   */\n      0x20\n        /* \"#utility.yul\":15458:15461   */\n      dup3\n        /* \"#utility.yul\":15454:15466   */\n      add\n        /* \"#utility.yul\":15447:15466   */\n      swap1\n      pop\n        /* \"#utility.yul\":15106:15472   */\n      swap2\n      swap1\n      pop\n      jump\t// out\n        /* \"#utility.yul\":15478:15897   */\n    tag_115:\n        /* \"#utility.yul\":15644:15648   */\n      0x00\n        /* \"#utility.yul\":15682:15684   */\n      0x20\n        /* \"#utility.yul\":15671:15680   */\n      dup3\n        /* \"#utility.yul\":15667:15685   */\n      add\n        /* \"#utility.yul\":15659:15685   */\n      swap1\n      pop\n        /* \"#utility.yul\":15731:15740   */\n      dup2\n        /* \"#utility.yul\":15725:15729   */\n      dup2\n        /* \"#utility.yul\":15721:15741   */\n      sub\n        /* \"#utility.yul\":15717:15718   */\n      0x00\n        /* \"#utility.yul\":15706:15715   */\n      dup4\n        /* \"#utility.yul\":15702:15719   */\n      add\n        /* \"#utility.yul\":15695:15742   */\n      mstore\n        /* \"#utility.yul\":15759:15890   */\n      tag_539\n        /* \"#utility.yul\":15885:15889   */\n      dup2\n        /* \"#utility.yul\":15759:15890   */\n      tag_330\n      jump\t// in\n    tag_539:\n        /* \"#utility.yul\":15751:15890   */\n      swap1\n      pop\n        /* \"#utility.yul\":15478:15897   */\n      swap2\n      swap1\n      pop\n      jump\t// out\n        /* \"#utility.yul\":15903:16073   */\n    tag_331:\n        /* \"#utility.yul\":16043:16065   */\n      0x5374616c6c206d75737420626520636c6f736564000000000000000000000000\n        /* \"#utility.yul\":16039:16040   */\n      0x00\n        /* \"#utility.yul\":16031:16037   */\n      dup3\n        /* \"#utility.yul\":16027:16041   */\n      add\n        /* \"#utility.yul\":16020:16066   */\n      mstore\n        /* \"#utility.yul\":15903:16073   */\n      pop\n      jump\t// out\n        /* \"#utility.yul\":16079:16445   */\n    tag_332:\n        /* \"#utility.yul\":16221:16224   */\n      0x00\n        /* \"#utility.yul\":16242:16309   */\n      tag_542\n        /* \"#utility.yul\":16306:16308   */\n      0x14\n        /* \"#utility.yul\":16301:16304   */\n      dup4\n        /* \"#utility.yul\":16242:16309   */\n      tag_313\n      jump\t// in\n    tag_542:\n        /* \"#utility.yul\":16235:16309   */\n      swap2\n      pop\n        /* \"#utility.yul\":16318:16411   */\n      tag_543\n        /* \"#utility.yul\":16407:16410   */\n      dup3\n        /* \"#utility.yul\":16318:16411   */\n      tag_331\n      jump\t// in\n    tag_543:\n        /* \"#utility.yul\":16436:16438   */\n      0x20\n        /* \"#utility.yul\":16431:16434   */\n      dup3\n        /* \"#utility.yul\":16427:16439   */\n      add\n        /* \"#utility.yul\":16420:16439   */\n      swap1\n      pop\n        /* \"#utility.yul\":16079:16445   */\n      swap2\n      swap1\n      pop\n      jump\t// out\n        /* \"#utility.yul\":16451:16870   */\n    tag_129:\n        /* \"#utility.yul\":16617:16621   */\n      0x00\n        /* \"#utility.yul\":16655:16657   */\n      0x20\n        /* \"#utility.yul\":16644:16653   */\n      dup3\n        /* \"#utility.yul\":16640:16658   */\n      add\n        /* \"#utility.yul\":16632:16658   */\n      swap1\n      pop\n        /* \"#utility.yul\":16704:16713   */\n      dup2\n        /* \"#utility.yul\":16698:16702   */\n      dup2\n        /* \"#utility.yul\":16694:16714   */\n      sub\n        /* \"#utility.yul\":16690:16691   */\n      0x00\n        /* \"#utility.yul\":16679:16688   */\n      dup4\n        /* \"#utility.yul\":16675:16692   */\n      add\n        /* \"#utility.yul\":16668:16715   */\n      mstore\n        /* \"#utility.yul\":16732:16863   */\n      tag_545\n        /* \"#utility.yul\":16858:16862   */\n      dup2\n        /* \"#utility.yul\":16732:16863   */\n      tag_332\n      jump\t// in\n    tag_545:\n        /* \"#utility.yul\":16724:16863   */\n      swap1\n      pop\n        /* \"#utility.yul\":16451:16870   */\n      swap2\n      swap1\n      pop\n      jump\t// out\n        /* \"#utility.yul\":16876:17043   */\n    tag_333:\n        /* \"#utility.yul\":17016:17035   */\n      0x416c72656164792077697468647261776e000000000000000000000000000000\n        /* \"#utility.yul\":17012:17013   */\n      0x00\n        /* \"#utility.yul\":17004:17010   */\n      dup3\n        /* \"#utility.yul\":17000:17014   */\n      add\n        /* \"#utility.yul\":16993:17036   */\n      mstore\n        /* \"#utility.yul\":16876:17043   */\n      pop\n      jump\t// out\n        /* \"#utility.yul\":17049:17415   */\n    tag_334:\n        /* \"#utility.yul\":17191:17194   */\n      0x00\n        /* \"#utility.yul\":17212:17279   */\n      tag_548\n        /* \"#utility.yul\":17276:17278   */\n      0x11\n        /* \"#utility.yul\":17271:17274   */\n      dup4\n        /* \"#utility.yul\":17212:17279   */\n      tag_313\n      jump\t// in\n    tag_548:\n        /* \"#utility.yul\":17205:17279   */\n      swap2\n      pop\n        /* \"#utility.yul\":17288:17381   */\n      tag_549\n        /* \"#utility.yul\":17377:17380   */\n      dup3\n        /* \"#utility.yul\":17288:17381   */\n      tag_333\n      jump\t// in\n    tag_549:\n        /* \"#utility.yul\":17406:17408   */\n      0x20\n        /* \"#utility.yul\":17401:17404   */\n      dup3\n        /* \"#utility.yul\":17397:17409   */\n      add\n        /* \"#utility.yul\":17390:17409   */\n      swap1\n      pop\n        /* \"#utility.yul\":17049:17415   */\n      swap2\n      swap1\n      pop\n      jump\t// out\n        /* \"#utility.yul\":17421:17840   */\n    tag_132:\n        /* \"#utility.yul\":17587:17591   */\n      0x00\n        /* \"#utility.yul\":17625:17627   */\n      0x20\n        /* \"#utility.yul\":17614:17623   */\n      dup3\n        /* \"#utility.yul\":17610:17628   */\n      add\n        /* \"#utility.yul\":17602:17628   */\n      swap1\n      pop\n        /* \"#utility.yul\":17674:17683   */\n      dup2\n        /* \"#utility.yul\":17668:17672   */\n      dup2\n        /* \"#utility.yul\":17664:17684   */\n      sub\n        /* \"#utility.yul\":17660:17661   */\n      0x00\n        /* \"#utility.yul\":17649:17658   */\n      dup4\n        /* \"#utility.yul\":17645:17662   */\n      add\n        /* \"#utility.yul\":17638:17685   */\n      mstore\n        /* \"#utility.yul\":17702:17833   */\n      tag_551\n        /* \"#utility.yul\":17828:17832   */\n      dup2\n        /* \"#utility.yul\":17702:17833   */\n      tag_334\n      jump\t// in\n    tag_551:\n        /* \"#utility.yul\":17694:17833   */\n      swap1\n      pop\n        /* \"#utility.yul\":17421:17840   */\n      swap2\n      swap1\n      pop\n      jump\t// out\n        /* \"#utility.yul\":17846:18016   */\n    tag_335:\n        /* \"#utility.yul\":17986:18008   */\n      0x4e6f2066756e647320746f207769746864726177000000000000000000000000\n        /* \"#utility.yul\":17982:17983   */\n      0x00\n        /* \"#utility.yul\":17974:17980   */\n      dup3\n        /* \"#utility.yul\":17970:17984   */\n      add\n        /* \"#utility.yul\":17963:18009   */\n      mstore\n        /* \"#utility.yul\":17846:18016   */\n      pop\n      jump\t// out\n        /* \"#utility.yul\":18022:18388   */\n    tag_336:\n        /* \"#utility.yul\":18164:18167   */\n      0x00\n        /* \"#utility.yul\":18185:18252   */\n      tag_554\n        /* \"#utility.yul\":18249:18251   */\n      0x14\n        /* \"#utility.yul\":18244:18247   */\n      dup4\n        /* \"#utility.yul\":18185:18252   */\n      tag_313\n      jump\t// in\n    tag_554:\n        /* \"#utility.yul\":18178:18252   */\n      swap2\n      pop\n        /* \"#utility.yul\":18261:18354   */\n      tag_555\n        /* \"#utility.yul\":18350:18353   */\n      dup3\n        /* \"#utility.yul\":18261:18354   */\n      tag_335\n      jump\t// in\n    tag_555:\n        /* \"#utility.yul\":18379:18381   */\n      0x20\n        /* \"#utility.yul\":18374:18377   */\n      dup3\n        /* \"#utility.yul\":18370:18382   */\n      add\n        /* \"#utility.yul\":18363:18382   */\n      swap1\n      pop\n        /* \"#utility.yul\":18022:18388   */\n      swap2\n      swap1\n      pop\n      jump\t// out\n        /* \"#utility.yul\":18394:18813   */\n    tag_135:\n        /* \"#utility.yul\":18560:18564   */\n      0x00\n        /* \"#utility.yul\":18598:18600   */\n      0x20\n        /* \"#utility.yul\":18587:18596   */\n      dup3\n        /* \"#utility.yul\":18583:18601   */\n      add\n        /* \"#utility.yul\":18575:18601   */\n      swap1\n      pop\n        /* \"#utility.yul\":18647:18656   */\n      dup2\n        /* \"#utility.yul\":18641:18645   */\n      dup2\n        /* \"#utility.yul\":18637:18657   */\n      sub\n        /* \"#utility.yul\":18633:18634   */\n      0x00\n        /* \"#utility.yul\":18622:18631   */\n      dup4\n        /* \"#utility.yul\":18618:18635   */\n      add\n        /* \"#utility.yul\":18611:18658   */\n      mstore\n        /* \"#utility.yul\":18675:18806   */\n      tag_557\n        /* \"#utility.yul\":18801:18805   */\n      dup2\n        /* \"#utility.yul\":18675:18806   */\n      tag_336\n      jump\t// in\n    tag_557:\n        /* \"#utility.yul\":18667:18806   */\n      swap1\n      pop\n        /* \"#utility.yul\":18394:18813   */\n      swap2\n      swap1\n      pop\n      jump\t// out\n        /* \"#utility.yul\":18819:19052   */\n    tag_143:\n        /* \"#utility.yul\":18858:18861   */\n      0x00\n        /* \"#utility.yul\":18881:18905   */\n      tag_559\n        /* \"#utility.yul\":18899:18904   */\n      dup3\n        /* \"#utility.yul\":18881:18905   */\n      tag_284\n      jump\t// in\n    tag_559:\n        /* \"#utility.yul\":18872:18905   */\n      swap2\n      pop\n        /* \"#utility.yul\":18927:18993   */\n      0xffffffffffffffffffffffffffffffffffffffffffffffffffffffffffffffff\n        /* \"#utility.yul\":18920:18925   */\n      dup3\n        /* \"#utility.yul\":18917:18994   */\n      sub\n        /* \"#utility.yul\":18914:19017   */\n      tag_560\n      jumpi\n        /* \"#utility.yul\":18997:19015   */\n      tag_561\n      tag_326\n      jump\t// in\n    tag_561:\n        /* \"#utility.yul\":18914:19017   */\n    tag_560:\n        /* \"#utility.yul\":19044:19045   */\n      0x01\n        /* \"#utility.yul\":19037:19042   */\n      dup3\n        /* \"#utility.yul\":19033:19046   */\n      add\n        /* \"#utility.yul\":19026:19046   */\n      swap1\n      pop\n        /* \"#utility.yul\":18819:19052   */\n      swap2\n      swap1\n      pop\n      jump\t// out\n        /* \"#utility.yul\":19058:19155   */\n    tag_337:\n        /* \"#utility.yul\":19117:19123   */\n      0x00\n        /* \"#utility.yul\":19145:19148   */\n      dup3\n        /* \"#utility.yul\":19135:19148   */\n      swap1\n      pop\n        /* \"#utility.yul\":19058:19155   */\n      swap3\n      swap2\n      pop\n      pop\n      jump\t// out\n        /* \"#utility.yul\":19161:19341   */\n    tag_338:\n        /* \"#utility.yul\":19209:19286   */\n      0x4e487b7100000000000000000000000000000000000000000000000000000000\n        /* \"#utility.yul\":19206:19207   */\n      0x00\n        /* \"#utility.yul\":19199:19287   */\n      mstore\n        /* \"#utility.yul\":19306:19310   */\n      0x41\n        /* \"#utility.yul\":19303:19304   */\n      0x04\n        /* \"#utility.yul\":19296:19311   */\n      mstore\n        /* \"#utility.yul\":19330:19334   */\n      0x24\n        /* \"#utility.yul\":19327:19328   */\n      0x00\n        /* \"#utility.yul\":19320:19335   */\n      revert\n        /* \"#utility.yul\":19347:19527   */\n    tag_339:\n        /* \"#utility.yul\":19395:19472   */\n      0x4e487b7100000000000000000000000000000000000000000000000000000000\n        /* \"#utility.yul\":19392:19393   */\n      0x00\n        /* \"#utility.yul\":19385:19473   */\n      mstore\n        /* \"#utility.yul\":19492:19496   */\n      0x22\n        /* \"#utility.yul\":19489:19490   */\n      0x04\n        /* \"#utility.yul\":19482:19497   */\n      mstore\n        /* \"#utility.yul\":19516:19520   */\n      0x24\n        /* \"#utility.yul\":19513:19514   */\n      0x00\n        /* \"#utility.yul\":19506:19521   */\n      revert\n        /* \"#utility.yul\":19533:19853   */\n    tag_220:\n        /* \"#utility.yul\":19577:19583   */\n      0x00\n        /* \"#utility.yul\":19614:19615   */\n      0x02\n        /* \"#utility.yul\":19608:19612   */\n      dup3\n        /* \"#utility.yul\":19604:19616   */\n      div\n        /* \"#utility.yul\":19594:19616   */\n      swap1\n      pop\n        /* \"#utility.yul\":19661:19662   */\n      0x01\n        /* \"#utility.yul\":19655:19659   */\n      dup3\n        /* \"#utility.yul\":19651:19663   */\n      and\n        /* \"#utility.yul\":19682:19700   */\n      dup1\n        /* \"#utility.yul\":19672:19753   */\n      tag_566\n      jumpi\n        /* \"#utility.yul\":19738:19742   */\n      0x7f\n        /* \"#utility.yul\":19730:19736   */\n      dup3\n        /* \"#utility.yul\":19726:19743   */\n      and\n        /* \"#utility.yul\":19716:19743   */\n      swap2\n      pop\n        /* \"#utility.yul\":19672:19753   */\n    tag_566:\n        /* \"#utility.yul\":19800:19802   */\n      0x20\n        /* \"#utility.yul\":19792:19798   */\n      dup3\n        /* \"#utility.yul\":19789:19803   */\n      lt\n        /* \"#utility.yul\":19769:19787   */\n      dup2\n        /* \"#utility.yul\":19766:19804   */\n      sub\n        /* \"#utility.yul\":19763:19847   */\n      tag_567\n      jumpi\n        /* \"#utility.yul\":19819:19837   */\n      tag_568\n      tag_339\n      jump\t// in\n    tag_568:\n        /* \"#utility.yul\":19763:19847   */\n    tag_567:\n        /* \"#utility.yul\":19584:19853   */\n      pop\n        /* \"#utility.yul\":19533:19853   */\n      swap2\n      swap1\n      pop\n      jump\t// out\n        /* \"#utility.yul\":19859:20000   */\n    tag_340:\n        /* \"#utility.yul\":19908:19912   */\n      0x00\n        /* \"#utility.yul\":19931:19934   */\n      dup2\n        /* \"#utility.yul\":19923:19934   */\n      swap1\n      pop\n        /* \"#utility.yul\":19954:19957   */\n      dup2\n        /* \"#utility.yul\":19951:19952   */\n      0x00\n        /* \"#utility.yul\":19944:19958   */\n      mstore\n        /* \"#utility.yul\":19988:19992   */\n      0x20\n        /* \"#utility.yul\":19985:19986   */\n      0x00\n        /* \"#utility.yul\":19975:19993   */\n      keccak256\n        /* \"#utility.yul\":19967:19993   */\n      swap1\n      pop\n        /* \"#utility.yul\":19859:20000   */\n      swap2\n      swap1\n      pop\n      jump\t// out\n        /* \"#utility.yul\":20006:20099   */\n    tag_341:\n        /* \"#utility.yul\":20043:20049   */\n      0x00\n        /* \"#utility.yul\":20090:20092   */\n      0x20\n        /* \"#utility.yul\":20085:20087   */\n      0x1f\n        /* \"#utility.yul\":20078:20083   */\n      dup4\n        /* \"#utility.yul\":20074:20088   */\n      add\n        /* \"#utility.yul\":20070:20093   */\n      div\n        /* \"#utility.yul\":20060:20093   */\n      swap1\n      pop\n        /* \"#utility.yul\":20006:20099   */\n      swap2\n      swap1\n      pop\n      jump\t// out\n        /* \"#utility.yul\":20105:20212   */\n    tag_342:\n        /* \"#utility.yul\":20149:20157   */\n      0x00\n        /* \"#utility.yul\":20199:20204   */\n      dup3\n        /* \"#utility.yul\":20193:20197   */\n      dup3\n        /* \"#utility.yul\":20189:20205   */\n      shl\n        /* \"#utility.yul\":20168:20205   */\n      swap1\n      pop\n        /* \"#utility.yul\":20105:20212   */\n      swap3\n      swap2\n      pop\n      pop\n      jump\t// out\n        /* \"#utility.yul\":20218:20611   */\n    tag_343:\n        /* \"#utility.yul\":20287:20293   */\n      0x00\n        /* \"#utility.yul\":20337:20338   */\n      0x08\n        /* \"#utility.yul\":20325:20335   */\n      dup4\n        /* \"#utility.yul\":20321:20339   */\n      mul\n        /* \"#utility.yul\":20360:20457   */\n      tag_573\n        /* \"#utility.yul\":20390:20456   */\n      0xffffffffffffffffffffffffffffffffffffffffffffffffffffffffffffffff\n        /* \"#utility.yul\":20379:20388   */\n      dup3\n        /* \"#utility.yul\":20360:20457   */\n      tag_342\n      jump\t// in\n    tag_573:\n        /* \"#utility.yul\":20478:20517   */\n      tag_574\n        /* \"#utility.yul\":20508:20516   */\n      dup7\n        /* \"#utility.yul\":20497:20506   */\n      dup4\n        /* \"#utility.yul\":20478:20517   */\n      tag_342\n      jump\t// in\n    tag_574:\n        /* \"#utility.yul\":20466:20517   */\n      swap6\n      pop\n        /* \"#utility.yul\":20550:20554   */\n      dup1\n        /* \"#utility.yul\":20546:20555   */\n      not\n        /* \"#utility.yul\":20539:20544   */\n      dup5\n        /* \"#utility.yul\":20535:20556   */\n      and\n        /* \"#utility.yul\":20526:20556   */\n      swap4\n      pop\n        /* \"#utility.yul\":20599:20603   */\n      dup1\n        /* \"#utility.yul\":20589:20597   */\n      dup7\n        /* \"#utility.yul\":20585:20604   */\n      and\n        /* \"#utility.yul\":20578:20583   */\n      dup5\n        /* \"#utility.yul\":20575:20605   */\n      or\n        /* \"#utility.yul\":20565:20605   */\n      swap3\n      pop\n        /* \"#utility.yul\":20294:20611   */\n      pop\n      pop\n        /* \"#utility.yul\":20218:20611   */\n      swap4\n      swap3\n      pop\n      pop\n      pop\n      jump\t// out\n        /* \"#utility.yul\":20617:20677   */\n    tag_344:\n        /* \"#utility.yul\":20645:20648   */\n      0x00\n        /* \"#utility.yul\":20666:20671   */\n      dup2\n        /* \"#utility.yul\":20659:20671   */\n      swap1\n      pop\n        /* \"#utility.yul\":20617:20677   */\n      swap2\n      swap1\n      pop\n      jump\t// out\n        /* \"#utility.yul\":20683:20825   */\n    tag_345:\n        /* \"#utility.yul\":20733:20742   */\n      0x00\n        /* \"#utility.yul\":20766:20819   */\n      tag_577\n        /* \"#utility.yul\":20784:20818   */\n      tag_578\n        /* \"#utility.yul\":20793:20817   */\n      tag_579\n        /* \"#utility.yul\":20811:20816   */\n      dup5\n        /* \"#utility.yul\":20793:20817   */\n      tag_284\n      jump\t// in\n    tag_579:\n        /* \"#utility.yul\":20784:20818   */\n      tag_344\n      jump\t// in\n    tag_578:\n        /* \"#utility.yul\":20766:20819   */\n      tag_284\n      jump\t// in\n    tag_577:\n        /* \"#utility.yul\":20753:20819   */\n      swap1\n      pop\n        /* \"#utility.yul\":20683:20825   */\n      swap2\n      swap1\n      pop\n      jump\t// out\n        /* \"#utility.yul\":20831:20906   */\n    tag_346:\n        /* \"#utility.yul\":20874:20877   */\n      0x00\n        /* \"#utility.yul\":20895:20900   */\n      dup2\n        /* \"#utility.yul\":20888:20900   */\n      swap1\n      pop\n        /* \"#utility.yul\":20831:20906   */\n      swap2\n      swap1\n      pop\n      jump\t// out\n        /* \"#utility.yul\":20912:21181   */\n    tag_347:\n        /* \"#utility.yul\":21022:21061   */\n      tag_582\n        /* \"#utility.yul\":21053:21060   */\n      dup4\n        /* \"#utility.yul\":21022:21061   */\n      tag_345\n      jump\t// in\n    tag_582:\n        /* \"#utility.yul\":21083:21174   */\n      tag_583\n        /* \"#utility.yul\":21132:21173   */\n      tag_584\n        /* \"#utility.yul\":21156:21172   */\n      dup3\n        /* \"#utility.yul\":21132:21173   */\n      tag_346\n      jump\t// in\n    tag_584:\n        /* \"#utility.yul\":21124:21130   */\n      dup5\n        /* \"#utility.yul\":21117:21121   */\n      dup5\n        /* \"#utility.yul\":21111:21122   */\n      sload\n        /* \"#utility.yul\":21083:21174   */\n      tag_343\n      jump\t// in\n    tag_583:\n        /* \"#utility.yul\":21077:21081   */\n      dup3\n        /* \"#utility.yul\":21070:21175   */\n      sstore\n        /* \"#utility.yul\":20988:21181   */\n      pop\n        /* \"#utility.yul\":20912:21181   */\n      pop\n      pop\n      pop\n      jump\t// out\n        /* \"#utility.yul\":21187:21260   */\n    tag_348:\n        /* \"#utility.yul\":21232:21235   */\n      0x00\n        /* \"#utility.yul\":21253:21254   */\n      0x00\n        /* \"#utility.yul\":21246:21254   */\n      swap1\n      pop\n        /* \"#utility.yul\":21187:21260   */\n      swap1\n      jump\t// out\n        /* \"#utility.yul\":21266:21455   */\n    tag_349:\n        /* \"#utility.yul\":21343:21375   */\n      tag_587\n      tag_348\n      jump\t// in\n    tag_587:\n        /* \"#utility.yul\":21384:21449   */\n      tag_588\n        /* \"#utility.yul\":21442:21448   */\n      dup2\n        /* \"#utility.yul\":21434:21440   */\n      dup5\n        /* \"#utility.yul\":21428:21432   */\n      dup5\n        /* \"#utility.yul\":21384:21449   */\n      tag_347\n      jump\t// in\n    tag_588:\n        /* \"#utility.yul\":21319:21455   */\n      pop\n        /* \"#utility.yul\":21266:21455   */\n      pop\n      pop\n      jump\t// out\n        /* \"#utility.yul\":21461:21647   */\n    tag_350:\n        /* \"#utility.yul\":21521:21641   */\n    tag_590:\n        /* \"#utility.yul\":21538:21541   */\n      dup2\n        /* \"#utility.yul\":21531:21536   */\n      dup2\n        /* \"#utility.yul\":21528:21542   */\n      lt\n        /* \"#utility.yul\":21521:21641   */\n      iszero\n      tag_592\n      jumpi\n        /* \"#utility.yul\":21592:21631   */\n      tag_593\n        /* \"#utility.yul\":21629:21630   */\n      0x00\n        /* \"#utility.yul\":21622:21627   */\n      dup3\n        /* \"#utility.yul\":21592:21631   */\n      tag_349\n      jump\t// in\n    tag_593:\n        /* \"#utility.yul\":21565:21566   */\n      0x01\n        /* \"#utility.yul\":21558:21563   */\n      dup2\n        /* \"#utility.yul\":21554:21567   */\n      add\n        /* \"#utility.yul\":21545:21567   */\n      swap1\n      pop\n        /* \"#utility.yul\":21521:21641   */\n      jump(tag_590)\n    tag_592:\n        /* \"#utility.yul\":21461:21647   */\n      pop\n      pop\n      jump\t// out\n        /* \"#utility.yul\":21653:22196   */\n    tag_351:\n        /* \"#utility.yul\":21754:21756   */\n      0x1f\n        /* \"#utility.yul\":21749:21752   */\n      dup3\n        /* \"#utility.yul\":21746:21757   */\n      gt\n        /* \"#utility.yul\":21743:22189   */\n      iszero\n      tag_595\n      jumpi\n        /* \"#utility.yul\":21788:21826   */\n      tag_596\n        /* \"#utility.yul\":21820:21825   */\n      dup2\n        /* \"#utility.yul\":21788:21826   */\n      tag_340\n      jump\t// in\n    tag_596:\n        /* \"#utility.yul\":21872:21901   */\n      tag_597\n        /* \"#utility.yul\":21890:21900   */\n      dup5\n        /* \"#utility.yul\":21872:21901   */\n      tag_341\n      jump\t// in\n    tag_597:\n        /* \"#utility.yul\":21862:21870   */\n      dup2\n        /* \"#utility.yul\":21858:21902   */\n      add\n        /* \"#utility.yul\":22055:22057   */\n      0x20\n        /* \"#utility.yul\":22043:22053   */\n      dup6\n        /* \"#utility.yul\":22040:22058   */\n      lt\n        /* \"#utility.yul\":22037:22086   */\n      iszero\n      tag_598\n      jumpi\n        /* \"#utility.yul\":22076:22084   */\n      dup2\n        /* \"#utility.yul\":22061:22084   */\n      swap1\n      pop\n        /* \"#utility.yul\":22037:22086   */\n    tag_598:\n        /* \"#utility.yul\":22099:22179   */\n      tag_599\n        /* \"#utility.yul\":22155:22177   */\n      tag_600\n        /* \"#utility.yul\":22173:22176   */\n      dup6\n        /* \"#utility.yul\":22155:22177   */\n      tag_341\n      jump\t// in\n    tag_600:\n        /* \"#utility.yul\":22145:22153   */\n      dup4\n        /* \"#utility.yul\":22141:22178   */\n      add\n        /* \"#utility.yul\":22128:22139   */\n      dup3\n        /* \"#utility.yul\":22099:22179   */\n      tag_350\n      jump\t// in\n    tag_599:\n        /* \"#utility.yul\":21758:22189   */\n      pop\n      pop\n        /* \"#utility.yul\":21743:22189   */\n    tag_595:\n        /* \"#utility.yul\":21653:22196   */\n      pop\n      pop\n      pop\n      jump\t// out\n        /* \"#utility.yul\":22202:22319   */\n    tag_352:\n        /* \"#utility.yul\":22256:22264   */\n      0x00\n        /* \"#utility.yul\":22306:22311   */\n      dup3\n        /* \"#utility.yul\":22300:22304   */\n      dup3\n        /* \"#utility.yul\":22296:22312   */\n      shr\n        /* \"#utility.yul\":22275:22312   */\n      swap1\n      pop\n        /* \"#utility.yul\":22202:22319   */\n      swap3\n      swap2\n      pop\n      pop\n      jump\t// out\n        /* \"#utility.yul\":22325:22494   */\n    tag_353:\n        /* \"#utility.yul\":22369:22375   */\n      0x00\n        /* \"#utility.yul\":22402:22453   */\n      tag_603\n        /* \"#utility.yul\":22450:22451   */\n      0x00\n        /* \"#utility.yul\":22446:22452   */\n      not\n        /* \"#utility.yul\":22438:22443   */\n      dup5\n        /* \"#utility.yul\":22435:22436   */\n      0x08\n        /* \"#utility.yul\":22431:22444   */\n      mul\n        /* \"#utility.yul\":22402:22453   */\n      tag_352\n      jump\t// in\n    tag_603:\n        /* \"#utility.yul\":22398:22454   */\n      not\n        /* \"#utility.yul\":22483:22487   */\n      dup1\n        /* \"#utility.yul\":22477:22481   */\n      dup4\n        /* \"#utility.yul\":22473:22488   */\n      and\n        /* \"#utility.yul\":22463:22488   */\n      swap2\n      pop\n        /* \"#utility.yul\":22376:22494   */\n      pop\n        /* \"#utility.yul\":22325:22494   */\n      swap3\n      swap2\n      pop\n      pop\n      jump\t// out\n        /* \"#utility.yul\":22499:22794   */\n    tag_354:\n        /* \"#utility.yul\":22575:22579   */\n      0x00\n        /* \"#utility.yul\":22721:22750   */\n      tag_605\n        /* \"#utility.yul\":22746:22749   */\n      dup4\n        /* \"#utility.yul\":22740:22744   */\n      dup4\n        /* \"#utility.yul\":22721:22750   */\n      tag_353\n      jump\t// in\n    tag_605:\n        /* \"#utility.yul\":22713:22750   */\n      swap2\n      pop\n        /* \"#utility.yul\":22783:22786   */\n      dup3\n        /* \"#utility.yul\":22780:22781   */\n      0x02\n        /* \"#utility.yul\":22776:22787   */\n      mul\n        /* \"#utility.yul\":22770:22774   */\n      dup3\n        /* \"#utility.yul\":22767:22788   */\n      or\n        /* \"#utility.yul\":22759:22788   */\n      swap1\n      pop\n        /* \"#utility.yul\":22499:22794   */\n      swap3\n      swap2\n      pop\n      pop\n      jump\t// out\n        /* \"#utility.yul\":22799:24202   */\n    tag_145:\n        /* \"#utility.yul\":22923:22967   */\n      tag_607\n        /* \"#utility.yul\":22963:22966   */\n      dup4\n        /* \"#utility.yul\":22958:22961   */\n      dup4\n        /* \"#utility.yul\":22923:22967   */\n      tag_337\n      jump\t// in\n    tag_607:\n        /* \"#utility.yul\":23032:23050   */\n      0xffffffffffffffff\n        /* \"#utility.yul\":23024:23030   */\n      dup2\n        /* \"#utility.yul\":23021:23051   */\n      gt\n        /* \"#utility.yul\":23018:23074   */\n      iszero\n      tag_608\n      jumpi\n        /* \"#utility.yul\":23054:23072   */\n      tag_609\n      tag_338\n      jump\t// in\n    tag_609:\n        /* \"#utility.yul\":23018:23074   */\n    tag_608:\n        /* \"#utility.yul\":23098:23136   */\n      tag_610\n        /* \"#utility.yul\":23130:23134   */\n      dup3\n        /* \"#utility.yul\":23124:23135   */\n      sload\n        /* \"#utility.yul\":23098:23136   */\n      tag_220\n      jump\t// in\n    tag_610:\n        /* \"#utility.yul\":23183:23250   */\n      tag_611\n        /* \"#utility.yul\":23243:23249   */\n      dup3\n        /* \"#utility.yul\":23235:23241   */\n      dup3\n        /* \"#utility.yul\":23229:23233   */\n      dup6\n        /* \"#utility.yul\":23183:23250   */\n      tag_351\n      jump\t// in\n    tag_611:\n        /* \"#utility.yul\":23277:23278   */\n      0x00\n        /* \"#utility.yul\":23306:23308   */\n      0x1f\n        /* \"#utility.yul\":23298:23304   */\n      dup4\n        /* \"#utility.yul\":23295:23309   */\n      gt\n        /* \"#utility.yul\":23323:23324   */\n      0x01\n        /* \"#utility.yul\":23318:23950   */\n      dup2\n      eq\n      tag_613\n      jumpi\n        /* \"#utility.yul\":23994:23995   */\n      0x00\n        /* \"#utility.yul\":24011:24017   */\n      dup5\n        /* \"#utility.yul\":24008:24092   */\n      iszero\n      tag_614\n      jumpi\n        /* \"#utility.yul\":24067:24076   */\n      dup3\n        /* \"#utility.yul\":24062:24065   */\n      dup8\n        /* \"#utility.yul\":24058:24077   */\n      add\n        /* \"#utility.yul\":24045:24078   */\n      calldataload\n        /* \"#utility.yul\":24036:24078   */\n      swap1\n      pop\n        /* \"#utility.yul\":24008:24092   */\n    tag_614:\n        /* \"#utility.yul\":24118:24185   */\n      tag_615\n        /* \"#utility.yul\":24178:24184   */\n      dup6\n        /* \"#utility.yul\":24171:24176   */\n      dup3\n        /* \"#utility.yul\":24118:24185   */\n      tag_354\n      jump\t// in\n    tag_615:\n        /* \"#utility.yul\":24112:24116   */\n      dup7\n        /* \"#utility.yul\":24105:24186   */\n      sstore\n        /* \"#utility.yul\":23967:24196   */\n      pop\n        /* \"#utility.yul\":23288:24196   */\n      jump(tag_612)\n        /* \"#utility.yul\":23318:23950   */\n    tag_613:\n        /* \"#utility.yul\":23370:23374   */\n      0x1f\n        /* \"#utility.yul\":23366:23375   */\n      not\n        /* \"#utility.yul\":23358:23364   */\n      dup5\n        /* \"#utility.yul\":23354:23376   */\n      and\n        /* \"#utility.yul\":23404:23441   */\n      tag_616\n        /* \"#utility.yul\":23436:23440   */\n      dup7\n        /* \"#utility.yul\":23404:23441   */\n      tag_340\n      jump\t// in\n    tag_616:\n        /* \"#utility.yul\":23463:23464   */\n      0x00\n        /* \"#utility.yul\":23477:23692   */\n    tag_617:\n        /* \"#utility.yul\":23491:23498   */\n      dup3\n        /* \"#utility.yul\":23488:23489   */\n      dup2\n        /* \"#utility.yul\":23485:23499   */\n      lt\n        /* \"#utility.yul\":23477:23692   */\n      iszero\n      tag_619\n      jumpi\n        /* \"#utility.yul\":23577:23586   */\n      dup5\n        /* \"#utility.yul\":23572:23575   */\n      dup10\n        /* \"#utility.yul\":23568:23587   */\n      add\n        /* \"#utility.yul\":23555:23588   */\n      calldataload\n        /* \"#utility.yul\":23547:23553   */\n      dup3\n        /* \"#utility.yul\":23540:23589   */\n      sstore\n        /* \"#utility.yul\":23628:23629   */\n      0x01\n        /* \"#utility.yul\":23620:23626   */\n      dup3\n        /* \"#utility.yul\":23616:23630   */\n      add\n        /* \"#utility.yul\":23606:23630   */\n      swap2\n      pop\n        /* \"#utility.yul\":23675:23677   */\n      0x20\n        /* \"#utility.yul\":23664:23673   */\n      dup6\n        /* \"#utility.yul\":23660:23678   */\n      add\n        /* \"#utility.yul\":23647:23678   */\n      swap5\n      pop\n        /* \"#utility.yul\":23514:23518   */\n      0x20\n        /* \"#utility.yul\":23511:23512   */\n      dup2\n        /* \"#utility.yul\":23507:23519   */\n      add\n        /* \"#utility.yul\":23502:23519   */\n      swap1\n      pop\n        /* \"#utility.yul\":23477:23692   */\n      jump(tag_617)\n    tag_619:\n        /* \"#utility.yul\":23720:23726   */\n      dup7\n        /* \"#utility.yul\":23711:23718   */\n      dup4\n        /* \"#utility.yul\":23708:23727   */\n      lt\n        /* \"#utility.yul\":23705:23891   */\n      iszero\n      tag_620\n      jumpi\n        /* \"#utility.yul\":23785:23794   */\n      dup5\n        /* \"#utility.yul\":23780:23783   */\n      dup10\n        /* \"#utility.yul\":23776:23795   */\n      add\n        /* \"#utility.yul\":23763:23796   */\n      calldataload\n        /* \"#utility.yul\":23828:23876   */\n      tag_621\n        /* \"#utility.yul\":23870:23874   */\n      0x1f\n        /* \"#utility.yul\":23862:23868   */\n      dup10\n        /* \"#utility.yul\":23858:23875   */\n      and\n        /* \"#utility.yul\":23847:23856   */\n      dup3\n        /* \"#utility.yul\":23828:23876   */\n      tag_353\n      jump\t// in\n    tag_621:\n        /* \"#utility.yul\":23820:23826   */\n      dup4\n        /* \"#utility.yul\":23813:23877   */\n      sstore\n        /* \"#utility.yul\":23728:23891   */\n      pop\n        /* \"#utility.yul\":23705:23891   */\n    tag_620:\n        /* \"#utility.yul\":23937:23938   */\n      0x01\n        /* \"#utility.yul\":23933:23934   */\n      0x02\n        /* \"#utility.yul\":23925:23931   */\n      dup9\n        /* \"#utility.yul\":23921:23935   */\n      mul\n        /* \"#utility.yul\":23917:23939   */\n      add\n        /* \"#utility.yul\":23911:23915   */\n      dup9\n        /* \"#utility.yul\":23904:23940   */\n      sstore\n        /* \"#utility.yul\":23325:23950   */\n      pop\n      pop\n      pop\n        /* \"#utility.yul\":23288:24196   */\n    tag_612:\n      pop\n        /* \"#utility.yul\":22898:24202   */\n      pop\n      pop\n      pop\n        /* \"#utility.yul\":22799:24202   */\n      pop\n      pop\n      pop\n      jump\t// out\n        /* \"#utility.yul\":24208:24399   */\n    tag_156:\n        /* \"#utility.yul\":24248:24251   */\n      0x00\n        /* \"#utility.yul\":24267:24287   */\n      tag_623\n        /* \"#utility.yul\":24285:24286   */\n      dup3\n        /* \"#utility.yul\":24267:24287   */\n      tag_284\n      jump\t// in\n    tag_623:\n        /* \"#utility.yul\":24262:24287   */\n      swap2\n      pop\n        /* \"#utility.yul\":24301:24321   */\n      tag_624\n        /* \"#utility.yul\":24319:24320   */\n      dup4\n        /* \"#utility.yul\":24301:24321   */\n      tag_284\n      jump\t// in\n    tag_624:\n        /* \"#utility.yul\":24296:24321   */\n      swap3\n      pop\n        /* \"#utility.yul\":24344:24345   */\n      dup3\n        /* \"#utility.yul\":24341:24342   */\n      dup3\n        /* \"#utility.yul\":24337:24346   */\n      add\n        /* \"#utility.yul\":24330:24346   */\n      swap1\n      pop\n        /* \"#utility.yul\":24365:24368   */\n      dup1\n        /* \"#utility.yul\":24362:24363   */\n      dup3\n        /* \"#utility.yul\":24359:24369   */\n      gt\n        /* \"#utility.yul\":24356:24392   */\n      iszero\n      tag_625\n      jumpi\n        /* \"#utility.yul\":24372:24390   */\n      tag_626\n      tag_326\n      jump\t// in\n    tag_626:\n        /* \"#utility.yul\":24356:24392   */\n    tag_625:\n        /* \"#utility.yul\":24208:24399   */\n      swap3\n      swap2\n      pop\n      pop\n      jump\t// out\n        /* \"#utility.yul\":24405:24815   */\n    tag_164:\n        /* \"#utility.yul\":24445:24452   */\n      0x00\n        /* \"#utility.yul\":24468:24488   */\n      tag_628\n        /* \"#utility.yul\":24486:24487   */\n      dup3\n        /* \"#utility.yul\":24468:24488   */\n      tag_284\n      jump\t// in\n    tag_628:\n        /* \"#utility.yul\":24463:24488   */\n      swap2\n      pop\n        /* \"#utility.yul\":24502:24522   */\n      tag_629\n        /* \"#utility.yul\":24520:24521   */\n      dup4\n        /* \"#utility.yul\":24502:24522   */\n      tag_284\n      jump\t// in\n    tag_629:\n        /* \"#utility.yul\":24497:24522   */\n      swap3\n      pop\n        /* \"#utility.yul\":24557:24558   */\n      dup3\n        /* \"#utility.yul\":24554:24555   */\n      dup3\n        /* \"#utility.yul\":24550:24559   */\n      mul\n        /* \"#utility.yul\":24579:24609   */\n      tag_630\n        /* \"#utility.yul\":24597:24608   */\n      dup2\n        /* \"#utility.yul\":24579:24609   */\n      tag_284\n      jump\t// in\n    tag_630:\n        /* \"#utility.yul\":24568:24609   */\n      swap2\n      pop\n        /* \"#utility.yul\":24758:24759   */\n      dup3\n        /* \"#utility.yul\":24749:24756   */\n      dup3\n        /* \"#utility.yul\":24745:24760   */\n      div\n        /* \"#utility.yul\":24742:24743   */\n      dup5\n        /* \"#utility.yul\":24739:24761   */\n      eq\n        /* \"#utility.yul\":24719:24720   */\n      dup4\n        /* \"#utility.yul\":24712:24721   */\n      iszero\n        /* \"#utility.yul\":24692:24775   */\n      or\n        /* \"#utility.yul\":24669:24808   */\n      tag_631\n      jumpi\n        /* \"#utility.yul\":24788:24806   */\n      tag_632\n      tag_326\n      jump\t// in\n    tag_632:\n        /* \"#utility.yul\":24669:24808   */\n    tag_631:\n        /* \"#utility.yul\":24453:24815   */\n      pop\n        /* \"#utility.yul\":24405:24815   */\n      swap3\n      swap2\n      pop\n      pop\n      jump\t// out\n        /* \"#utility.yul\":24821:24969   */\n    tag_355:\n        /* \"#utility.yul\":24919:24925   */\n      dup3\n        /* \"#utility.yul\":24914:24917   */\n      dup2\n        /* \"#utility.yul\":24909:24912   */\n      dup4\n        /* \"#utility.yul\":24896:24926   */\n      calldatacopy\n        /* \"#utility.yul\":24960:24961   */\n      0x00\n        /* \"#utility.yul\":24951:24957   */\n      dup4\n        /* \"#utility.yul\":24946:24949   */\n      dup4\n        /* \"#utility.yul\":24942:24958   */\n      add\n        /* \"#utility.yul\":24935:24962   */\n      mstore\n        /* \"#utility.yul\":24821:24969   */\n      pop\n      pop\n      pop\n      jump\t// out\n        /* \"#utility.yul\":24999:25316   */\n    tag_356:\n        /* \"#utility.yul\":25097:25100   */\n      0x00\n        /* \"#utility.yul\":25118:25189   */\n      tag_635\n        /* \"#utility.yul\":25182:25188   */\n      dup4\n        /* \"#utility.yul\":25177:25180   */\n      dup6\n        /* \"#utility.yul\":25118:25189   */\n      tag_313\n      jump\t// in\n    tag_635:\n        /* \"#utility.yul\":25111:25189   */\n      swap4\n      pop\n        /* \"#utility.yul\":25199:25255   */\n      tag_636\n        /* \"#utility.yul\":25248:25254   */\n      dup4\n        /* \"#utility.yul\":25243:25246   */\n      dup6\n        /* \"#utility.yul\":25236:25241   */\n      dup5\n        /* \"#utility.yul\":25199:25255   */\n      tag_355\n      jump\t// in\n    tag_636:\n        /* \"#utility.yul\":25280:25309   */\n      tag_637\n        /* \"#utility.yul\":25302:25308   */\n      dup4\n        /* \"#utility.yul\":25280:25309   */\n      tag_315\n      jump\t// in\n    tag_637:\n        /* \"#utility.yul\":25275:25278   */\n      dup5\n        /* \"#utility.yul\":25271:25310   */\n      add\n        /* \"#utility.yul\":25264:25310   */\n      swap1\n      pop\n        /* \"#utility.yul\":24999:25316   */\n      swap4\n      swap3\n      pop\n      pop\n      pop\n      jump\t// out\n        /* \"#utility.yul\":25322:25781   */\n    tag_170:\n        /* \"#utility.yul\":25481:25485   */\n      0x00\n        /* \"#utility.yul\":25519:25521   */\n      0x40\n        /* \"#utility.yul\":25508:25517   */\n      dup3\n        /* \"#utility.yul\":25504:25522   */\n      add\n        /* \"#utility.yul\":25496:25522   */\n      swap1\n      pop\n        /* \"#utility.yul\":25568:25577   */\n      dup2\n        /* \"#utility.yul\":25562:25566   */\n      dup2\n        /* \"#utility.yul\":25558:25578   */\n      sub\n        /* \"#utility.yul\":25554:25555   */\n      0x00\n        /* \"#utility.yul\":25543:25552   */\n      dup4\n        /* \"#utility.yul\":25539:25556   */\n      add\n        /* \"#utility.yul\":25532:25579   */\n      mstore\n        /* \"#utility.yul\":25596:25684   */\n      tag_639\n        /* \"#utility.yul\":25679:25683   */\n      dup2\n        /* \"#utility.yul\":25670:25676   */\n      dup6\n        /* \"#utility.yul\":25662:25668   */\n      dup8\n        /* \"#utility.yul\":25596:25684   */\n      tag_356\n      jump\t// in\n    tag_639:\n        /* \"#utility.yul\":25588:25684   */\n      swap1\n      pop\n        /* \"#utility.yul\":25694:25774   */\n      tag_640\n        /* \"#utility.yul\":25770:25772   */\n      0x20\n        /* \"#utility.yul\":25759:25768   */\n      dup4\n        /* \"#utility.yul\":25755:25773   */\n      add\n        /* \"#utility.yul\":25746:25752   */\n      dup5\n        /* \"#utility.yul\":25694:25774   */\n      tag_320\n      jump\t// in\n    tag_640:\n        /* \"#utility.yul\":25322:25781   */\n      swap5\n      swap4\n      pop\n      pop\n      pop\n      pop\n      jump\t// out\n        /* \"#utility.yul\":25787:25955   */\n    tag_357:\n        /* \"#utility.yul\":25927:25947   */\n      0x526174696e67206d75737420626520312d350000000000000000000000000000\n        /* \"#utility.yul\":25923:25924   */\n      0x00\n        /* \"#utility.yul\":25915:25921   */\n      dup3\n        /* \"#utility.yul\":25911:25925   */\n      add\n        /* \"#utility.yul\":25904:25948   */\n      mstore\n        /* \"#utility.yul\":25787:25955   */\n      pop\n      jump\t// out\n        /* \"#utility.yul\":25961:26327   */\n    tag_358:\n        /* \"#utility.yul\":26103:26106   */\n      0x00\n        /* \"#utility.yul\":26124:26191   */\n      tag_643\n        /* \"#utility.yul\":26188:26190   */\n      0x12\n        /* \"#utility.yul\":26183:26186   */\n      dup4\n        /* \"#utility.yul\":26124:26191   */\n      tag_313\n      jump\t// in\n    tag_643:\n        /* \"#utility.yul\":26117:26191   */\n      swap2\n      pop\n        /* \"#utility.yul\":26200:26293   */\n      tag_644\n        /* \"#utility.yul\":26289:26292   */\n      dup3\n        /* \"#utility.yul\":26200:26293   */\n      tag_357\n      jump\t// in\n    tag_644:\n        /* \"#utility.yul\":26318:26320   */\n      0x20\n        /* \"#utility.yul\":26313:26316   */\n      dup3\n        /* \"#utility.yul\":26309:26321   */\n      add\n        /* \"#utility.yul\":26302:26321   */\n      swap1\n      pop\n        /* \"#utility.yul\":25961:26327   */\n      swap2\n      swap1\n      pop\n      jump\t// out\n        /* \"#utility.yul\":26333:26752   */\n    tag_177:\n        /* \"#utility.yul\":26499:26503   */\n      0x00\n        /* \"#utility.yul\":26537:26539   */\n      0x20\n        /* \"#utility.yul\":26526:26535   */\n      dup3\n        /* \"#utility.yul\":26522:26540   */\n      add\n        /* \"#utility.yul\":26514:26540   */\n      swap1\n      pop\n        /* \"#utility.yul\":26586:26595   */\n      dup2\n        /* \"#utility.yul\":26580:26584   */\n      dup2\n        /* \"#utility.yul\":26576:26596   */\n      sub\n        /* \"#utility.yul\":26572:26573   */\n      0x00\n        /* \"#utility.yul\":26561:26570   */\n      dup4\n        /* \"#utility.yul\":26557:26574   */\n      add\n        /* \"#utility.yul\":26550:26597   */\n      mstore\n        /* \"#utility.yul\":26614:26745   */\n      tag_646\n        /* \"#utility.yul\":26740:26744   */\n      dup2\n        /* \"#utility.yul\":26614:26745   */\n      tag_358\n      jump\t// in\n    tag_646:\n        /* \"#utility.yul\":26606:26745   */\n      swap1\n      pop\n        /* \"#utility.yul\":26333:26752   */\n      swap2\n      swap1\n      pop\n      jump\t// out\n        /* \"#utility.yul\":26758:26952   */\n    tag_183:\n        /* \"#utility.yul\":26798:26802   */\n      0x00\n        /* \"#utility.yul\":26818:26838   */\n      tag_648\n        /* \"#utility.yul\":26836:26837   */\n      dup3\n        /* \"#utility.yul\":26818:26838   */\n      tag_284\n      jump\t// in\n    tag_648:\n        /* \"#utility.yul\":26813:26838   */\n      swap2\n      pop\n        /* \"#utility.yul\":26852:26872   */\n      tag_649\n        /* \"#utility.yul\":26870:26871   */\n      dup4\n        /* \"#utility.yul\":26852:26872   */\n      tag_284\n      jump\t// in\n    tag_649:\n        /* \"#utility.yul\":26847:26872   */\n      swap3\n      pop\n        /* \"#utility.yul\":26896:26897   */\n      dup3\n        /* \"#utility.yul\":26893:26894   */\n      dup3\n        /* \"#utility.yul\":26889:26898   */\n      sub\n        /* \"#utility.yul\":26881:26898   */\n      swap1\n      pop\n        /* \"#utility.yul\":26920:26921   */\n      dup2\n        /* \"#utility.yul\":26914:26918   */\n      dup2\n        /* \"#utility.yul\":26911:26922   */\n      gt\n        /* \"#utility.yul\":26908:26945   */\n      iszero\n      tag_650\n      jumpi\n        /* \"#utility.yul\":26925:26943   */\n      tag_651\n      tag_326\n      jump\t// in\n    tag_651:\n        /* \"#utility.yul\":26908:26945   */\n    tag_650:\n        /* \"#utility.yul\":26758:26952   */\n      swap3\n      swap2\n      pop\n      pop\n      jump\t// out\n        /* \"#utility.yul\":26958:27134   */\n    tag_359:\n        /* \"#utility.yul\":27098:27126   */\n      0x436c6f7365642064756520746f206475726174696f6e20656e64000000000000\n        /* \"#utility.yul\":27094:27095   */\n      0x00\n        /* \"#utility.yul\":27086:27092   */\n      dup3\n        /* \"#utility.yul\":27082:27096   */\n      add\n        /* \"#utility.yul\":27075:27127   */\n      mstore\n        /* \"#utility.yul\":26958:27134   */\n      pop\n      jump\t// out\n        /* \"#utility.yul\":27140:27506   */\n    tag_360:\n        /* \"#utility.yul\":27282:27285   */\n      0x00\n        /* \"#utility.yul\":27303:27370   */\n      tag_654\n        /* \"#utility.yul\":27367:27369   */\n      0x1a\n        /* \"#utility.yul\":27362:27365   */\n      dup4\n        /* \"#utility.yul\":27303:27370   */\n      tag_313\n      jump\t// in\n    tag_654:\n        /* \"#utility.yul\":27296:27370   */\n      swap2\n      pop\n        /* \"#utility.yul\":27379:27472   */\n      tag_655\n        /* \"#utility.yul\":27468:27471   */\n      dup3\n        /* \"#utility.yul\":27379:27472   */\n      tag_359\n      jump\t// in\n    tag_655:\n        /* \"#utility.yul\":27497:27499   */\n      0x20\n        /* \"#utility.yul\":27492:27495   */\n      dup3\n        /* \"#utility.yul\":27488:27500   */\n      add\n        /* \"#utility.yul\":27481:27500   */\n      swap1\n      pop\n        /* \"#utility.yul\":27140:27506   */\n      swap2\n      swap1\n      pop\n      jump\t// out\n        /* \"#utility.yul\":27512:28041   */\n    tag_196:\n        /* \"#utility.yul\":27706:27710   */\n      0x00\n        /* \"#utility.yul\":27744:27746   */\n      0x40\n        /* \"#utility.yul\":27733:27742   */\n      dup3\n        /* \"#utility.yul\":27729:27747   */\n      add\n        /* \"#utility.yul\":27721:27747   */\n      swap1\n      pop\n        /* \"#utility.yul\":27757:27828   */\n      tag_657\n        /* \"#utility.yul\":27825:27826   */\n      0x00\n        /* \"#utility.yul\":27814:27823   */\n      dup4\n        /* \"#utility.yul\":27810:27827   */\n      add\n        /* \"#utility.yul\":27801:27807   */\n      dup5\n        /* \"#utility.yul\":27757:27828   */\n      tag_291\n      jump\t// in\n    tag_657:\n        /* \"#utility.yul\":27875:27884   */\n      dup2\n        /* \"#utility.yul\":27869:27873   */\n      dup2\n        /* \"#utility.yul\":27865:27885   */\n      sub\n        /* \"#utility.yul\":27860:27862   */\n      0x20\n        /* \"#utility.yul\":27849:27858   */\n      dup4\n        /* \"#utility.yul\":27845:27863   */\n      add\n        /* \"#utility.yul\":27838:27886   */\n      mstore\n        /* \"#utility.yul\":27903:28034   */\n      tag_658\n        /* \"#utility.yul\":28029:28033   */\n      dup2\n        /* \"#utility.yul\":27903:28034   */\n      tag_360\n      jump\t// in\n    tag_658:\n        /* \"#utility.yul\":27895:28034   */\n      swap1\n      pop\n        /* \"#utility.yul\":27512:28041   */\n      swap3\n      swap2\n      pop\n      pop\n      jump\t// out\n        /* \"#utility.yul\":28047:28214   */\n    tag_361:\n        /* \"#utility.yul\":28187:28206   */\n      0x5374616c6c206973206e6f74206f70656e000000000000000000000000000000\n        /* \"#utility.yul\":28183:28184   */\n      0x00\n        /* \"#utility.yul\":28175:28181   */\n      dup3\n        /* \"#utility.yul\":28171:28185   */\n      add\n        /* \"#utility.yul\":28164:28207   */\n      mstore\n        /* \"#utility.yul\":28047:28214   */\n      pop\n      jump\t// out\n        /* \"#utility.yul\":28220:28586   */\n    tag_362:\n        /* \"#utility.yul\":28362:28365   */\n      0x00\n        /* \"#utility.yul\":28383:28450   */\n      tag_661\n        /* \"#utility.yul\":28447:28449   */\n      0x11\n        /* \"#utility.yul\":28442:28445   */\n      dup4\n        /* \"#utility.yul\":28383:28450   */\n      tag_313\n      jump\t// in\n    tag_661:\n        /* \"#utility.yul\":28376:28450   */\n      swap2\n      pop\n        /* \"#utility.yul\":28459:28552   */\n      tag_662\n        /* \"#utility.yul\":28548:28551   */\n      dup3\n        /* \"#utility.yul\":28459:28552   */\n      tag_361\n      jump\t// in\n    tag_662:\n        /* \"#utility.yul\":28577:28579   */\n      0x20\n        /* \"#utility.yul\":28572:28575   */\n      dup3\n        /* \"#utility.yul\":28568:28580   */\n      add\n        /* \"#utility.yul\":28561:28580   */\n      swap1\n      pop\n        /* \"#utility.yul\":28220:28586   */\n      swap2\n      swap1\n      pop\n      jump\t// out\n        /* \"#utility.yul\":28592:29011   */\n    tag_203:\n        /* \"#utility.yul\":28758:28762   */\n      0x00\n        /* \"#utility.yul\":28796:28798   */\n      0x20\n        /* \"#utility.yul\":28785:28794   */\n      dup3\n        /* \"#utility.yul\":28781:28799   */\n      add\n        /* \"#utility.yul\":28773:28799   */\n      swap1\n      pop\n        /* \"#utility.yul\":28845:28854   */\n      dup2\n        /* \"#utility.yul\":28839:28843   */\n      dup2\n        /* \"#utility.yul\":28835:28855   */\n      sub\n        /* \"#utility.yul\":28831:28832   */\n      0x00\n        /* \"#utility.yul\":28820:28829   */\n      dup4\n        /* \"#utility.yul\":28816:28833   */\n      add\n        /* \"#utility.yul\":28809:28856   */\n      mstore\n        /* \"#utility.yul\":28873:29004   */\n      tag_664\n        /* \"#utility.yul\":28999:29003   */\n      dup2\n        /* \"#utility.yul\":28873:29004   */\n      tag_362\n      jump\t// in\n    tag_664:\n        /* \"#utility.yul\":28865:29004   */\n      swap1\n      pop\n        /* \"#utility.yul\":28592:29011   */\n      swap2\n      swap1\n      pop\n      jump\t// out\n        /* \"#utility.yul\":29017:29186   */\n    tag_363:\n        /* \"#utility.yul\":29157:29178   */\n      0x5061796d656e74206d757374206265203e203000000000000000000000000000\n        /* \"#utility.yul\":29153:29154   */\n      0x00\n        /* \"#utility.yul\":29145:29151   */\n      dup3\n        /* \"#utility.yul\":29141:29155   */\n      add\n        /* \"#utility.yul\":29134:29179   */\n      mstore\n        /* \"#utility.yul\":29017:29186   */\n      pop\n      jump\t// out\n        /* \"#utility.yul\":29192:29558   */\n    tag_364:\n        /* \"#utility.yul\":29334:29337   */\n      0x00\n        /* \"#utility.yul\":29355:29422   */\n      tag_667\n        /* \"#utility.yul\":29419:29421   */\n      0x13\n        /* \"#utility.yul\":29414:29417   */\n      dup4\n        /* \"#utility.yul\":29355:29422   */\n      tag_313\n      jump\t// in\n    tag_667:\n        /* \"#utility.yul\":29348:29422   */\n      swap2\n      pop\n        /* \"#utility.yul\":29431:29524   */\n      tag_668\n        /* \"#utility.yul\":29520:29523   */\n      dup3\n        /* \"#utility.yul\":29431:29524   */\n      tag_363\n      jump\t// in\n    tag_668:\n        /* \"#utility.yul\":29549:29551   */\n      0x20\n        /* \"#utility.yul\":29544:29547   */\n      dup3\n        /* \"#utility.yul\":29540:29552   */\n      add\n        /* \"#utility.yul\":29533:29552   */\n      swap1\n      pop\n        /* \"#utility.yul\":29192:29558   */\n      swap2\n      swap1\n      pop\n      jump\t// out\n        /* \"#utility.yul\":29564:29983   */\n    tag_209:\n        /* \"#utility.yul\":29730:29734   */\n      0x00\n        /* \"#utility.yul\":29768:29770   */\n      0x20\n        /* \"#utility.yul\":29757:29766   */\n      dup3\n        /* \"#utility.yul\":29753:29771   */\n      add\n        /* \"#utility.yul\":29745:29771   */\n      swap1\n      pop\n        /* \"#utility.yul\":29817:29826   */\n      dup2\n        /* \"#utility.yul\":29811:29815   */\n      dup2\n        /* \"#utility.yul\":29807:29827   */\n      sub\n        /* \"#utility.yul\":29803:29804   */\n      0x00\n        /* \"#utility.yul\":29792:29801   */\n      dup4\n        /* \"#utility.yul\":29788:29805   */\n      add\n        /* \"#utility.yul\":29781:29828   */\n      mstore\n        /* \"#utility.yul\":29845:29976   */\n      tag_670\n        /* \"#utility.yul\":29971:29975   */\n      dup2\n        /* \"#utility.yul\":29845:29976   */\n      tag_364\n      jump\t// in\n    tag_670:\n        /* \"#utility.yul\":29837:29976   */\n      swap1\n      pop\n        /* \"#utility.yul\":29564:29983   */\n      swap2\n      swap1\n      pop\n      jump\t// out\n        /* \"#utility.yul\":29989:30153   */\n    tag_365:\n        /* \"#utility.yul\":30129:30145   */\n      0x5374616c6c206e6f74206f70656e000000000000000000000000000000000000\n        /* \"#utility.yul\":30125:30126   */\n      0x00\n        /* \"#utility.yul\":30117:30123   */\n      dup3\n        /* \"#utility.yul\":30113:30127   */\n      add\n        /* \"#utility.yul\":30106:30146   */\n      mstore\n        /* \"#utility.yul\":29989:30153   */\n      pop\n      jump\t// out\n        /* \"#utility.yul\":30159:30525   */\n    tag_366:\n        /* \"#utility.yul\":30301:30304   */\n      0x00\n        /* \"#utility.yul\":30322:30389   */\n      tag_673\n        /* \"#utility.yul\":30386:30388   */\n      0x0e\n        /* \"#utility.yul\":30381:30384   */\n      dup4\n        /* \"#utility.yul\":30322:30389   */\n      tag_313\n      jump\t// in\n    tag_673:\n        /* \"#utility.yul\":30315:30389   */\n      swap2\n      pop\n        /* \"#utility.yul\":30398:30491   */\n      tag_674\n        /* \"#utility.yul\":30487:30490   */\n      dup3\n        /* \"#utility.yul\":30398:30491   */\n      tag_365\n      jump\t// in\n    tag_674:\n        /* \"#utility.yul\":30516:30518   */\n      0x20\n        /* \"#utility.yul\":30511:30514   */\n      dup3\n        /* \"#utility.yul\":30507:30519   */\n      add\n        /* \"#utility.yul\":30500:30519   */\n      swap1\n      pop\n        /* \"#utility.yul\":30159:30525   */\n      swap2\n      swap1\n      pop\n      jump\t// out\n        /* \"#utility.yul\":30531:30950   */\n    tag_243:\n        /* \"#utility.yul\":30697:30701   */\n      0x00\n        /* \"#utility.yul\":30735:30737   */\n      0x20\n        /* \"#utility.yul\":30724:30733   */\n      dup3\n        /* \"#utility.yul\":30720:30738   */\n      add\n        /* \"#utility.yul\":30712:30738   */\n      swap1\n      pop\n        /* \"#utility.yul\":30784:30793   */\n      dup2\n        /* \"#utility.yul\":30778:30782   */\n      dup2\n        /* \"#utility.yul\":30774:30794   */\n      sub\n        /* \"#utility.yul\":30770:30771   */\n      0x00\n        /* \"#utility.yul\":30759:30768   */\n      dup4\n        /* \"#utility.yul\":30755:30772   */\n      add\n        /* \"#utility.yul\":30748:30795   */\n      mstore\n        /* \"#utility.yul\":30812:30943   */\n      tag_676\n        /* \"#utility.yul\":30938:30942   */\n      dup2\n        /* \"#utility.yul\":30812:30943   */\n      tag_366\n      jump\t// in\n    tag_676:\n        /* \"#utility.yul\":30804:30943   */\n      swap1\n      pop\n        /* \"#utility.yul\":30531:30950   */\n      swap2\n      swap1\n      pop\n      jump\t// out\n        /* \"#utility.yul\":30956:31121   */\n    tag_367:\n        /* \"#utility.yul\":31096:31113   */\n      0x436c6f736564206279206f776e65720000000000000000000000000000000000\n        /* \"#utility.yul\":31092:31093   */\n      0x00\n        /* \"#utility.yul\":31084:31090   */\n      dup3\n        /* \"#utility.yul\":31080:31094   */\n      add\n        /* \"#utility.yul\":31073:31114   */\n      mstore\n        /* \"#utility.yul\":30956:31121   */\n      pop\n      jump\t// out\n        /* \"#utility.yul\":31127:31493   */\n    tag_368:\n        /* \"#utility.yul\":31269:31272   */\n      0x00\n        /* \"#utility.yul\":31290:31357   */\n      tag_679\n        /* \"#utility.yul\":31354:31356   */\n      0x0f\n        /* \"#utility.yul\":31349:31352   */\n      dup4\n        /* \"#utility.yul\":31290:31357   */\n      tag_313\n      jump\t// in\n    tag_679:\n        /* \"#utility.yul\":31283:31357   */\n      swap2\n      pop\n        /* \"#utility.yul\":31366:31459   */\n      tag_680\n        /* \"#utility.yul\":31455:31458   */\n      dup3\n        /* \"#utility.yul\":31366:31459   */\n      tag_367\n      jump\t// in\n    tag_680:\n        /* \"#utility.yul\":31484:31486   */\n      0x20\n        /* \"#utility.yul\":31479:31482   */\n      dup3\n        /* \"#utility.yul\":31475:31487   */\n      add\n        /* \"#utility.yul\":31468:31487   */\n      swap1\n      pop\n        /* \"#utility.yul\":31127:31493   */\n      swap2\n      swap1\n      pop\n      jump\t// out\n        /* \"#utility.yul\":31499:32028   */\n    tag_247:\n        /* \"#utility.yul\":31693:31697   */\n      0x00\n        /* \"#utility.yul\":31731:31733   */\n      0x40\n        /* \"#utility.yul\":31720:31729   */\n      dup3\n        /* \"#utility.yul\":31716:31734   */\n      add\n        /* \"#utility.yul\":31708:31734   */\n      swap1\n      pop\n        /* \"#utility.yul\":31744:31815   */\n      tag_682\n        /* \"#utility.yul\":31812:31813   */\n      0x00\n        /* \"#utility.yul\":31801:31810   */\n      dup4\n        /* \"#utility.yul\":31797:31814   */\n      add\n        /* \"#utility.yul\":31788:31794   */\n      dup5\n        /* \"#utility.yul\":31744:31815   */\n      tag_291\n      jump\t// in\n    tag_682:\n        /* \"#utility.yul\":31862:31871   */\n      dup2\n        /* \"#utility.yul\":31856:31860   */\n      dup2\n        /* \"#utility.yul\":31852:31872   */\n      sub\n        /* \"#utility.yul\":31847:31849   */\n      0x20\n        /* \"#utility.yul\":31836:31845   */\n      dup4\n        /* \"#utility.yul\":31832:31850   */\n      add\n        /* \"#utility.yul\":31825:31873   */\n      mstore\n        /* \"#utility.yul\":31890:32021   */\n      tag_683\n        /* \"#utility.yul\":32016:32020   */\n      dup2\n        /* \"#utility.yul\":31890:32021   */\n      tag_368\n      jump\t// in\n    tag_683:\n        /* \"#utility.yul\":31882:32021   */\n      swap1\n      pop\n        /* \"#utility.yul\":31499:32028   */\n      swap3\n      swap2\n      pop\n      pop\n      jump\t// out\n        /* \"#utility.yul\":32034:32207   */\n    tag_369:\n        /* \"#utility.yul\":32174:32199   */\n      0x4e6f7420656e6f75676820706169642062792075736572000000000000000000\n        /* \"#utility.yul\":32170:32171   */\n      0x00\n        /* \"#utility.yul\":32162:32168   */\n      dup3\n        /* \"#utility.yul\":32158:32172   */\n      add\n        /* \"#utility.yul\":32151:32200   */\n      mstore\n        /* \"#utility.yul\":32034:32207   */\n      pop\n      jump\t// out\n        /* \"#utility.yul\":32213:32579   */\n    tag_370:\n        /* \"#utility.yul\":32355:32358   */\n      0x00\n        /* \"#utility.yul\":32376:32443   */\n      tag_686\n        /* \"#utility.yul\":32440:32442   */\n      0x17\n        /* \"#utility.yul\":32435:32438   */\n      dup4\n        /* \"#utility.yul\":32376:32443   */\n      tag_313\n      jump\t// in\n    tag_686:\n        /* \"#utility.yul\":32369:32443   */\n      swap2\n      pop\n        /* \"#utility.yul\":32452:32545   */\n      tag_687\n        /* \"#utility.yul\":32541:32544   */\n      dup3\n        /* \"#utility.yul\":32452:32545   */\n      tag_369\n      jump\t// in\n    tag_687:\n        /* \"#utility.yul\":32570:32572   */\n      0x20\n        /* \"#utility.yul\":32565:32568   */\n      dup3\n        /* \"#utility.yul\":32561:32573   */\n      add\n        /* \"#utility.yul\":32554:32573   */\n      swap1\n      pop\n        /* \"#utility.yul\":32213:32579   */\n      swap2\n      swap1\n      pop\n      jump\t// out\n        /* \"#utility.yul\":32585:33004   */\n    tag_272:\n        /* \"#utility.yul\":32751:32755   */\n      0x00\n        /* \"#utility.yul\":32789:32791   */\n      0x20\n        /* \"#utility.yul\":32778:32787   */\n      dup3\n        /* \"#utility.yul\":32774:32792   */\n      add\n        /* \"#utility.yul\":32766:32792   */\n      swap1\n      pop\n        /* \"#utility.yul\":32838:32847   */\n      dup2\n        /* \"#utility.yul\":32832:32836   */\n      dup2\n        /* \"#utility.yul\":32828:32848   */\n      sub\n        /* \"#utility.yul\":32824:32825   */\n      0x00\n        /* \"#utility.yul\":32813:32822   */\n      dup4\n        /* \"#utility.yul\":32809:32826   */\n      add\n        /* \"#utility.yul\":32802:32849   */\n      mstore\n        /* \"#utility.yul\":32866:32997   */\n      tag_689\n        /* \"#utility.yul\":32992:32996   */\n      dup2\n        /* \"#utility.yul\":32866:32997   */\n      tag_370\n      jump\t// in\n    tag_689:\n        /* \"#utility.yul\":32858:32997   */\n      swap1\n      pop\n        /* \"#utility.yul\":32585:33004   */\n      swap2\n      swap1\n      pop\n      jump\t// out\n        /* \"#utility.yul\":33010:33185   */\n    tag_371:\n        /* \"#utility.yul\":33150:33177   */\n      0x4e6f7420656e6f7567682066756e647320696e207374616c6c00000000000000\n        /* \"#utility.yul\":33146:33147   */\n      0x00\n        /* \"#utility.yul\":33138:33144   */\n      dup3\n        /* \"#utility.yul\":33134:33148   */\n      add\n        /* \"#utility.yul\":33127:33178   */\n      mstore\n        /* \"#utility.yul\":33010:33185   */\n      pop\n      jump\t// out\n        /* \"#utility.yul\":33191:33557   */\n    tag_372:\n        /* \"#utility.yul\":33333:33336   */\n      0x00\n        /* \"#utility.yul\":33354:33421   */\n      tag_692\n        /* \"#utility.yul\":33418:33420   */\n      0x19\n        /* \"#utility.yul\":33413:33416   */\n      dup4\n        /* \"#utility.yul\":33354:33421   */\n      tag_313\n      jump\t// in\n    tag_692:\n        /* \"#utility.yul\":33347:33421   */\n      swap2\n      pop\n        /* \"#utility.yul\":33430:33523   */\n      tag_693\n        /* \"#utility.yul\":33519:33522   */\n      dup3\n        /* \"#utility.yul\":33430:33523   */\n      tag_371\n      jump\t// in\n    tag_693:\n        /* \"#utility.yul\":33548:33550   */\n      0x20\n        /* \"#utility.yul\":33543:33546   */\n      dup3\n        /* \"#utility.yul\":33539:33551   */\n      add\n        /* \"#utility.yul\":33532:33551   */\n      swap1\n      pop\n        /* \"#utility.yul\":33191:33557   */\n      swap2\n      swap1\n      pop\n      jump\t// out\n        /* \"#utility.yul\":33563:33982   */\n    tag_275:\n        /* \"#utility.yul\":33729:33733   */\n      0x00\n        /* \"#utility.yul\":33767:33769   */\n      0x20\n        /* \"#utility.yul\":33756:33765   */\n      dup3\n        /* \"#utility.yul\":33752:33770   */\n      add\n        /* \"#utility.yul\":33744:33770   */\n      swap1\n      pop\n        /* \"#utility.yul\":33816:33825   */\n      dup2\n        /* \"#utility.yul\":33810:33814   */\n      dup2\n        /* \"#utility.yul\":33806:33826   */\n      sub\n        /* \"#utility.yul\":33802:33803   */\n      0x00\n        /* \"#utility.yul\":33791:33800   */\n      dup4\n        /* \"#utility.yul\":33787:33804   */\n      add\n        /* \"#utility.yul\":33780:33827   */\n      mstore\n        /* \"#utility.yul\":33844:33975   */\n      tag_695\n        /* \"#utility.yul\":33970:33974   */\n      dup2\n        /* \"#utility.yul\":33844:33975   */\n      tag_372\n      jump\t// in\n    tag_695:\n        /* \"#utility.yul\":33836:33975   */\n      swap1\n      pop\n        /* \"#utility.yul\":33563:33982   */\n      swap2\n      swap1\n      pop\n      jump\t// out\n\n    auxdata: 0xa26469706673582212208398638db29c98993e79106e6aaf1feb68d9970e7a76f8d63dce11c546b4da3464736f6c634300081e0033\n}\n",
				"bytecode": {
					"linkReferences": {},
					"object": "6080604052348015600e575f5ffd5b50612b5b8061001c5f395ff3fe6080604052600436106100f2575f3560e01c80635c8ed0f711610089578063764af2a911610058578063764af2a9146103635780639649bf90146103a557806399cb043a146103cd578063e796a6eb146103f7576100f2565b80635c8ed0f71461028b57806364fbc7cf146102a757806368209707146102e35780636d0f94081461031f576100f2565b806343b80d39116100c557806343b80d39146101d35780634bd9351b1461020f5780634ea4066b1461023957806355fa37d714610261576100f2565b80630e376dea146100f6578063154d2b761461013257806317b7e03e1461016e5780632e1a7d4d146101ab575b5f5ffd5b348015610101575f5ffd5b5061011c60048036038101906101179190611b11565b61041f565b6040516101299190611b5e565b60405180910390f35b34801561013d575f5ffd5b5061015860048036038101906101539190611b77565b610478565b6040516101659190611bbc565b60405180910390f35b348015610179575f5ffd5b50610194600480360381019061018f9190611b77565b610495565b6040516101a2929190611bd5565b60405180910390f35b3480156101b6575f5ffd5b506101d160048036038101906101cc9190611b77565b6104e6565b005b3480156101de575f5ffd5b506101f960048036038101906101f49190611c80565b610879565b6040516102069190611b5e565b60405180910390f35b34801561021a575f5ffd5b50610223610adf565b6040516102309190611b5e565b60405180910390f35b348015610244575f5ffd5b5061025f600480360381019061025a9190611d13565b610ae6565b005b34801561026c575f5ffd5b50610275610d18565b6040516102829190611b5e565b60405180910390f35b6102a560048036038101906102a09190611b77565b610d20565b005b3480156102b2575f5ffd5b506102cd60048036038101906102c89190611b11565b6110b5565b6040516102da9190611d60565b60405180910390f35b3480156102ee575f5ffd5b5061030960048036038101906103049190611b77565b61111a565b6040516103169190611e30565b60405180910390f35b34801561032a575f5ffd5b5061034560048036038101906103409190611b77565b6111b9565b60405161035a99989796959493929190611f88565b60405180910390f35b34801561036e575f5ffd5b5061038960048036038101906103849190611b77565b6112cd565b60405161039c979695949392919061201a565b60405180910390f35b3480156103b0575f5ffd5b506103cb60048036038101906103c69190611b77565b6113f2565b005b3480156103d8575f5ffd5b506103e161161c565b6040516103ee9190611b5e565b60405180910390f35b348015610402575f5ffd5b5061041d6004803603810190610418919061208e565b611621565b005b5f60015f8481526020019081526020015f206006015f8373ffffffffffffffffffffffffffffffffffffffff1673ffffffffffffffffffffffffffffffffffffffff1681526020019081526020015f2054905092915050565b6002602052805f5260405f205f915054906101000a900460ff1681565b5f5f5f60015f8581526020019081526020015f2090505f81600a0154036104c2575f5f92509250506104e1565b80600a015481600901546104d69190612138565b81600a015492509250505b915091565b8060025f8281526020019081526020015f205f9054906101000a900460ff16610544576040517f08c379a000000000000000000000000000000000000000000000000000000000815260040161053b906121b2565b60405180910390fd5b3373ffffffffffffffffffffffffffffffffffffffff1660015f8381526020019081526020015f205f015f9054906101000a900473ffffffffffffffffffffffffffffffffffffffff1673ffffffffffffffffffffffffffffffffffffffff16146105e4576040517f08c379a00000000000000000000000000000000000000000000000000000000081526004016105db9061221a565b60405180910390fd5b5f60015f8481526020019081526020015f2090506001600381111561060c5761060b611ecf565b5b816005015f9054906101000a900460ff16600381111561062f5761062e611ecf565b5b148061066f57506002600381111561064a57610649611ecf565b5b816005015f9054906101000a900460ff16600381111561066d5761066c611ecf565b5b145b6106ae576040517f08c379a00000000000000000000000000000000000000000000000000000000081526004016106a590612282565b60405180910390fd5b8060050160019054906101000a900460ff1615610700576040517f08c379a00000000000000000000000000000000000000000000000000000000081526004016106f7906122ea565b60405180910390fd5b5f816003015490505f811161074a576040517f08c379a000000000000000000000000000000000000000000000000000000000815260040161074190612352565b60405180910390fd5b60018260050160016101000a81548160ff0219169083151502179055505f82600301819055506003826005015f6101000a81548160ff0219169083600381111561079757610796611ecf565b5b0217905550815f015f9054906101000a900473ffffffffffffffffffffffffffffffffffffffff1673ffffffffffffffffffffffffffffffffffffffff166108fc8290811502906040515f60405180830381858888f19350505050158015610801573d5f5f3e3d5ffd5b50815f015f9054906101000a900473ffffffffffffffffffffffffffffffffffffffff1673ffffffffffffffffffffffffffffffffffffffff16847ff440aec6b52895984d061d622e6edeba6210f7c3e059be920663140c084560d78360405161086b9190611b5e565b60405180910390a350505050565b5f5f5f81548092919061088b90612370565b91905055505f5f5490505f60015f8381526020019081526020015f20905033815f015f6101000a81548173ffffffffffffffffffffffffffffffffffffffff021916908373ffffffffffffffffffffffffffffffffffffffff16021790555085858260010191826108fd9291906125eb565b5083816002015f6101000a81548160ff0219169083600281111561092457610923611ecf565b5b02179055505f81600301819055505f8160050160016101000a81548160ff0219169083151502179055505f816005015f6101000a81548160ff0219169083600381111561097457610973611ecf565b5b02179055505f81600901819055505f81600a01819055505f600281111561099e5761099d611ecf565b5b8460028111156109b1576109b0611ecf565b5b036109d6576201518063686db1006109c991906126b8565b8160040181905550610a57565b600160028111156109ea576109e9611ecf565b5b8460028111156109fd576109fc611ecf565b5b03610a2e57620151806002610a1291906126eb565b63686db100610a2191906126b8565b8160040181905550610a56565b620151806003610a3e91906126eb565b63686db100610a4d91906126b8565b81600401819055505b5b600160025f8481526020019081526020015f205f6101000a81548160ff0219169083151502179055503373ffffffffffffffffffffffffffffffffffffffff16827f21b2db1a1ada48172b5b2612d06d7ebce476ca96c837ced65a1e306d75921edd888888604051610acb93929190612766565b60405180910390a381925050509392505050565b6201518081565b60025f8381526020019081526020015f205f9054906101000a900460ff16610b43576040517f08c379a0000000000000000000000000000000000000000000000000000000008152600401610b3a906121b2565b60405180910390fd5b60018160ff1610158015610b5b575060058160ff1611155b610b9a576040517f08c379a0000000000000000000000000000000000000000000000000000000008152600401610b91906127e0565b60405180910390fd5b5f60015f8481526020019081526020015f2090505f816008015f3373ffffffffffffffffffffffffffffffffffffffff1673ffffffffffffffffffffffffffffffffffffffff1681526020019081526020015f205f9054906101000a900460ff1690505f8160ff1603610c425781600a015f815480929190610c1b90612370565b91905055508260ff16826009015f828254610c3691906126b8565b92505081905550610c6c565b8260ff168160ff168360090154610c5991906127fe565b610c6391906126b8565b82600901819055505b82826008015f3373ffffffffffffffffffffffffffffffffffffffff1673ffffffffffffffffffffffffffffffffffffffff1681526020019081526020015f205f6101000a81548160ff021916908360ff1602179055503373ffffffffffffffffffffffffffffffffffffffff16847fb45d1f179ffc2d7f3406f141d275944e0d1517ebad9f2fd087203b88edafacc285604051610d0a9190611d60565b60405180910390a350505050565b63686db10081565b805f60015f8381526020019081526020015f2090505f6003811115610d4857610d47611ecf565b5b816005015f9054906101000a900460ff166003811115610d6b57610d6a611ecf565b5b148015610d7c575080600401544210155b15610e1f576002816005015f6101000a81548160ff02191690836003811115610da857610da7611ecf565b5b0217905550805f015f9054906101000a900473ffffffffffffffffffffffffffffffffffffffff1673ffffffffffffffffffffffffffffffffffffffff16827f60d094b126b3b199bd9cd997bd0b8c7692ac53890c5fd278c4d1c74901c5b1b042604051610e16919061287b565b60405180910390a35b5f6003811115610e3257610e31611ecf565b5b816005015f9054906101000a900460ff166003811115610e5557610e54611ecf565b5b14610e95576040517f08c379a0000000000000000000000000000000000000000000000000000000008152600401610e8c906128f1565b60405180910390fd5b60025f8481526020019081526020015f205f9054906101000a900460ff16610ef2576040517f08c379a0000000000000000000000000000000000000000000000000000000008152600401610ee9906121b2565b60405180910390fd5b5f3411610f34576040517f08c379a0000000000000000000000000000000000000000000000000000000008152600401610f2b90612959565b60405180910390fd5b5f60015f8581526020019081526020015f2090505f816006015f3373ffffffffffffffffffffffffffffffffffffffff1673ffffffffffffffffffffffffffffffffffffffff1681526020019081526020015f205403610ff1578060070133908060018154018082558091505060019003905f5260205f20015f9091909190916101000a81548173ffffffffffffffffffffffffffffffffffffffff021916908373ffffffffffffffffffffffffffffffffffffffff1602179055505b34816006015f3373ffffffffffffffffffffffffffffffffffffffff1673ffffffffffffffffffffffffffffffffffffffff1681526020019081526020015f205f82825461103f91906126b8565b9250508190555034816003015f82825461105991906126b8565b925050819055503373ffffffffffffffffffffffffffffffffffffffff16847f61ac8e9b735e72d1382cbf7d35f2ff3764dae09d7faf7d90787bf7f9ae76e4c8346040516110a79190611b5e565b60405180910390a350505050565b5f60015f8481526020019081526020015f206008015f8373ffffffffffffffffffffffffffffffffffffffff1673ffffffffffffffffffffffffffffffffffffffff1681526020019081526020015f205f9054906101000a900460ff16905092915050565b606060015f8381526020019081526020015f206007018054806020026020016040519081016040528092919081815260200182805480156111ad57602002820191905f5260205f20905b815f9054906101000a900473ffffffffffffffffffffffffffffffffffffffff1673ffffffffffffffffffffffffffffffffffffffff1681526020019060010190808311611164575b50505050509050919050565b6001602052805f5260405f205f91509050805f015f9054906101000a900473ffffffffffffffffffffffffffffffffffffffff16908060010180546111fd9061241b565b80601f01602080910402602001604051908101604052809291908181526020018280546112299061241b565b80156112745780601f1061124b57610100808354040283529160200191611274565b820191905f5260205f20905b81548152906001019060200180831161125757829003601f168201915b505050505090806002015f9054906101000a900460ff1690806003015490806004015490806005015f9054906101000a900460ff16908060050160019054906101000a900460ff169080600901549080600a0154905089565b5f60605f5f5f5f5f5f60015f8a81526020019081526020015f209050805f015f9054906101000a900473ffffffffffffffffffffffffffffffffffffffff1681600101826002015f9054906101000a900460ff1683600301548460040154856005015f9054906101000a900460ff168660050160019054906101000a900460ff1685805461135a9061241b565b80601f01602080910402602001604051908101604052809291908181526020018280546113869061241b565b80156113d15780601f106113a8576101008083540402835291602001916113d1565b820191905f5260205f20905b8154815290600101906020018083116113b457829003601f168201915b50505050509550975097509750975097509750975050919395979092949650565b8060025f8281526020019081526020015f205f9054906101000a900460ff16611450576040517f08c379a0000000000000000000000000000000000000000000000000000000008152600401611447906121b2565b60405180910390fd5b3373ffffffffffffffffffffffffffffffffffffffff1660015f8381526020019081526020015f205f015f9054906101000a900473ffffffffffffffffffffffffffffffffffffffff1673ffffffffffffffffffffffffffffffffffffffff16146114f0576040517f08c379a00000000000000000000000000000000000000000000000000000000081526004016114e79061221a565b60405180910390fd5b5f60015f8481526020019081526020015f2090505f600381111561151757611516611ecf565b5b816005015f9054906101000a900460ff16600381111561153a57611539611ecf565b5b1461157a576040517f08c379a0000000000000000000000000000000000000000000000000000000008152600401611571906129c1565b60405180910390fd5b6001816005015f6101000a81548160ff021916908360038111156115a1576115a0611ecf565b5b0217905550805f015f9054906101000a900473ffffffffffffffffffffffffffffffffffffffff1673ffffffffffffffffffffffffffffffffffffffff16837f60d094b126b3b199bd9cd997bd0b8c7692ac53890c5fd278c4d1c74901c5b1b04260405161160f9190612a29565b60405180910390a3505050565b5f5481565b8260025f8281526020019081526020015f205f9054906101000a900460ff1661167f576040517f08c379a0000000000000000000000000000000000000000000000000000000008152600401611676906121b2565b60405180910390fd5b3373ffffffffffffffffffffffffffffffffffffffff1660015f8381526020019081526020015f205f015f9054906101000a900473ffffffffffffffffffffffffffffffffffffffff1673ffffffffffffffffffffffffffffffffffffffff161461171f576040517f08c379a00000000000000000000000000000000000000000000000000000000081526004016117169061221a565b60405180910390fd5b835f60015f8381526020019081526020015f2090505f600381111561174757611746611ecf565b5b816005015f9054906101000a900460ff16600381111561176a57611769611ecf565b5b14801561177b575080600401544210155b1561181e576002816005015f6101000a81548160ff021916908360038111156117a7576117a6611ecf565b5b0217905550805f015f9054906101000a900473ffffffffffffffffffffffffffffffffffffffff1673ffffffffffffffffffffffffffffffffffffffff16827f60d094b126b3b199bd9cd997bd0b8c7692ac53890c5fd278c4d1c74901c5b1b042604051611815919061287b565b60405180910390a35b5f600381111561183157611830611ecf565b5b816005015f9054906101000a900460ff16600381111561185457611853611ecf565b5b14611894576040517f08c379a000000000000000000000000000000000000000000000000000000000815260040161188b906128f1565b60405180910390fd5b5f60015f8881526020019081526020015f20905084816006015f8873ffffffffffffffffffffffffffffffffffffffff1673ffffffffffffffffffffffffffffffffffffffff1681526020019081526020015f2054101561192a576040517f08c379a000000000000000000000000000000000000000000000000000000000815260040161192190612a9f565b60405180910390fd5b8481600301541015611971576040517f08c379a000000000000000000000000000000000000000000000000000000000815260040161196890612b07565b60405180910390fd5b84816006015f8873ffffffffffffffffffffffffffffffffffffffff1673ffffffffffffffffffffffffffffffffffffffff1681526020019081526020015f205f8282546119bf91906127fe565b9250508190555084816003015f8282546119d991906127fe565b925050819055508573ffffffffffffffffffffffffffffffffffffffff166108fc8690811502906040515f60405180830381858888f19350505050158015611a23573d5f5f3e3d5ffd5b508573ffffffffffffffffffffffffffffffffffffffff16877f7a482fdeb6bc9a1376f597068a214a7a39472bb2eff1b8cad21ba04f49ddca1b87604051611a6b9190611b5e565b60405180910390a350505050505050565b5f5ffd5b5f5ffd5b5f819050919050565b611a9681611a84565b8114611aa0575f5ffd5b50565b5f81359050611ab181611a8d565b92915050565b5f73ffffffffffffffffffffffffffffffffffffffff82169050919050565b5f611ae082611ab7565b9050919050565b611af081611ad6565b8114611afa575f5ffd5b50565b5f81359050611b0b81611ae7565b92915050565b5f5f60408385031215611b2757611b26611a7c565b5b5f611b3485828601611aa3565b9250506020611b4585828601611afd565b9150509250929050565b611b5881611a84565b82525050565b5f602082019050611b715f830184611b4f565b92915050565b5f60208284031215611b8c57611b8b611a7c565b5b5f611b9984828501611aa3565b91505092915050565b5f8115159050919050565b611bb681611ba2565b82525050565b5f602082019050611bcf5f830184611bad565b92915050565b5f604082019050611be85f830185611b4f565b611bf56020830184611b4f565b9392505050565b5f5ffd5b5f5ffd5b5f5ffd5b5f5f83601f840112611c1d57611c1c611bfc565b5b8235905067ffffffffffffffff811115611c3a57611c39611c00565b5b602083019150836001820283011115611c5657611c55611c04565b5b9250929050565b60038110611c69575f5ffd5b50565b5f81359050611c7a81611c5d565b92915050565b5f5f5f60408486031215611c9757611c96611a7c565b5b5f84013567ffffffffffffffff811115611cb457611cb3611a80565b5b611cc086828701611c08565b93509350506020611cd386828701611c6c565b9150509250925092565b5f60ff82169050919050565b611cf281611cdd565b8114611cfc575f5ffd5b50565b5f81359050611d0d81611ce9565b92915050565b5f5f60408385031215611d2957611d28611a7c565b5b5f611d3685828601611aa3565b9250506020611d4785828601611cff565b9150509250929050565b611d5a81611cdd565b82525050565b5f602082019050611d735f830184611d51565b92915050565b5f81519050919050565b5f82825260208201905092915050565b5f819050602082019050919050565b611dab81611ad6565b82525050565b5f611dbc8383611da2565b60208301905092915050565b5f602082019050919050565b5f611dde82611d79565b611de88185611d83565b9350611df383611d93565b805f5b83811015611e23578151611e0a8882611db1565b9750611e1583611dc8565b925050600181019050611df6565b5085935050505092915050565b5f6020820190508181035f830152611e488184611dd4565b905092915050565b611e5981611ad6565b82525050565b5f81519050919050565b5f82825260208201905092915050565b8281835e5f83830152505050565b5f601f19601f8301169050919050565b5f611ea182611e5f565b611eab8185611e69565b9350611ebb818560208601611e79565b611ec481611e87565b840191505092915050565b7f4e487b71000000000000000000000000000000000000000000000000000000005f52602160045260245ffd5b60038110611f0d57611f0c611ecf565b5b50565b5f819050611f1d82611efc565b919050565b5f611f2c82611f10565b9050919050565b611f3c81611f22565b82525050565b60048110611f5357611f52611ecf565b5b50565b5f819050611f6382611f42565b919050565b5f611f7282611f56565b9050919050565b611f8281611f68565b82525050565b5f61012082019050611f9c5f83018c611e50565b8181036020830152611fae818b611e97565b9050611fbd604083018a611f33565b611fca6060830189611b4f565b611fd76080830188611b4f565b611fe460a0830187611f79565b611ff160c0830186611bad565b611ffe60e0830185611b4f565b61200c610100830184611b4f565b9a9950505050505050505050565b5f60e08201905061202d5f83018a611e50565b818103602083015261203f8189611e97565b905061204e6040830188611f33565b61205b6060830187611b4f565b6120686080830186611b4f565b61207560a0830185611f79565b61208260c0830184611bad565b98975050505050505050565b5f5f5f606084860312156120a5576120a4611a7c565b5b5f6120b286828701611aa3565b93505060206120c386828701611afd565b92505060406120d486828701611aa3565b9150509250925092565b7f4e487b71000000000000000000000000000000000000000000000000000000005f52601260045260245ffd5b7f4e487b71000000000000000000000000000000000000000000000000000000005f52601160045260245ffd5b5f61214282611a84565b915061214d83611a84565b92508261215d5761215c6120de565b5b828204905092915050565b7f5374616c6c20646f6573206e6f742065786973740000000000000000000000005f82015250565b5f61219c601483611e69565b91506121a782612168565b602082019050919050565b5f6020820190508181035f8301526121c981612190565b9050919050565b7f4e6f74207374616c6c206f776e657200000000000000000000000000000000005f82015250565b5f612204600f83611e69565b915061220f826121d0565b602082019050919050565b5f6020820190508181035f830152612231816121f8565b9050919050565b7f5374616c6c206d75737420626520636c6f7365640000000000000000000000005f82015250565b5f61226c601483611e69565b915061227782612238565b602082019050919050565b5f6020820190508181035f83015261229981612260565b9050919050565b7f416c72656164792077697468647261776e0000000000000000000000000000005f82015250565b5f6122d4601183611e69565b91506122df826122a0565b602082019050919050565b5f6020820190508181035f830152612301816122c8565b9050919050565b7f4e6f2066756e647320746f2077697468647261770000000000000000000000005f82015250565b5f61233c601483611e69565b915061234782612308565b602082019050919050565b5f6020820190508181035f83015261236981612330565b9050919050565b5f61237a82611a84565b91507fffffffffffffffffffffffffffffffffffffffffffffffffffffffffffffffff82036123ac576123ab61210b565b5b600182019050919050565b5f82905092915050565b7f4e487b71000000000000000000000000000000000000000000000000000000005f52604160045260245ffd5b7f4e487b71000000000000000000000000000000000000000000000000000000005f52602260045260245ffd5b5f600282049050600182168061243257607f821691505b602082108103612445576124446123ee565b5b50919050565b5f819050815f5260205f209050919050565b5f6020601f8301049050919050565b5f82821b905092915050565b5f600883026124a77fffffffffffffffffffffffffffffffffffffffffffffffffffffffffffffffff8261246c565b6124b1868361246c565b95508019841693508086168417925050509392505050565b5f819050919050565b5f6124ec6124e76124e284611a84565b6124c9565b611a84565b9050919050565b5f819050919050565b612505836124d2565b612519612511826124f3565b848454612478565b825550505050565b5f5f905090565b612530612521565b61253b8184846124fc565b505050565b5b8181101561255e576125535f82612528565b600181019050612541565b5050565b601f8211156125a3576125748161244b565b61257d8461245d565b8101602085101561258c578190505b6125a06125988561245d565b830182612540565b50505b505050565b5f82821c905092915050565b5f6125c35f19846008026125a8565b1980831691505092915050565b5f6125db83836125b4565b9150826002028217905092915050565b6125f583836123b7565b67ffffffffffffffff81111561260e5761260d6123c1565b5b612618825461241b565b612623828285612562565b5f601f831160018114612650575f841561263e578287013590505b61264885826125d0565b8655506126af565b601f19841661265e8661244b565b5f5b8281101561268557848901358255600182019150602085019450602081019050612660565b868310156126a2578489013561269e601f8916826125b4565b8355505b6001600288020188555050505b50505050505050565b5f6126c282611a84565b91506126cd83611a84565b92508282019050808211156126e5576126e461210b565b5b92915050565b5f6126f582611a84565b915061270083611a84565b925082820261270e81611a84565b915082820484148315176127255761272461210b565b5b5092915050565b828183375f83830152505050565b5f6127458385611e69565b935061275283858461272c565b61275b83611e87565b840190509392505050565b5f6040820190508181035f83015261277f81858761273a565b905061278e6020830184611f33565b949350505050565b7f526174696e67206d75737420626520312d3500000000000000000000000000005f82015250565b5f6127ca601283611e69565b91506127d582612796565b602082019050919050565b5f6020820190508181035f8301526127f7816127be565b9050919050565b5f61280882611a84565b915061281383611a84565b925082820390508181111561282b5761282a61210b565b5b92915050565b7f436c6f7365642064756520746f206475726174696f6e20656e640000000000005f82015250565b5f612865601a83611e69565b915061287082612831565b602082019050919050565b5f60408201905061288e5f830184611b4f565b818103602083015261289f81612859565b905092915050565b7f5374616c6c206973206e6f74206f70656e0000000000000000000000000000005f82015250565b5f6128db601183611e69565b91506128e6826128a7565b602082019050919050565b5f6020820190508181035f830152612908816128cf565b9050919050565b7f5061796d656e74206d757374206265203e2030000000000000000000000000005f82015250565b5f612943601383611e69565b915061294e8261290f565b602082019050919050565b5f6020820190508181035f83015261297081612937565b9050919050565b7f5374616c6c206e6f74206f70656e0000000000000000000000000000000000005f82015250565b5f6129ab600e83611e69565b91506129b682612977565b602082019050919050565b5f6020820190508181035f8301526129d88161299f565b9050919050565b7f436c6f736564206279206f776e657200000000000000000000000000000000005f82015250565b5f612a13600f83611e69565b9150612a1e826129df565b602082019050919050565b5f604082019050612a3c5f830184611b4f565b8181036020830152612a4d81612a07565b905092915050565b7f4e6f7420656e6f756768207061696420627920757365720000000000000000005f82015250565b5f612a89601783611e69565b9150612a9482612a55565b602082019050919050565b5f6020820190508181035f830152612ab681612a7d565b9050919050565b7f4e6f7420656e6f7567682066756e647320696e207374616c6c000000000000005f82015250565b5f612af1601983611e69565b9150612afc82612abd565b602082019050919050565b5f6020820190508181035f830152612b1e81612ae5565b905091905056fea26469706673582212208398638db29c98993e79106e6aaf1feb68d9970e7a76f8d63dce11c546b4da3464736f6c634300081e0033",
					"opcodes": "PUSH1 0x80 PUSH1 0x40 MSTORE CALLVALUE DUP1 ISZERO PUSH1 0xE JUMPI PUSH0 PUSH0 REVERT JUMPDEST POP PUSH2 0x2B5B DUP1 PUSH2 0x1C PUSH0 CODECOPY PUSH0 RETURN INVALID PUSH1 0x80 PUSH1 0x40 MSTORE PUSH1 0x4 CALLDATASIZE LT PUSH2 0xF2 JUMPI PUSH0 CALLDATALOAD PUSH1 0xE0 SHR DUP1 PUSH4 0x5C8ED0F7 GT PUSH2 0x89 JUMPI DUP1 PUSH4 0x764AF2A9 GT PUSH2 0x58 JUMPI DUP1 PUSH4 0x764AF2A9 EQ PUSH2 0x363 JUMPI DUP1 PUSH4 0x9649BF90 EQ PUSH2 0x3A5 JUMPI DUP1 PUSH4 0x99CB043A EQ PUSH2 0x3CD JUMPI DUP1 PUSH4 0xE796A6EB EQ PUSH2 0x3F7 JUMPI PUSH2 0xF2 JUMP JUMPDEST DUP1 PUSH4 0x5C8ED0F7 EQ PUSH2 0x28B JUMPI DUP1 PUSH4 0x64FBC7CF EQ PUSH2 0x2A7 JUMPI DUP1 PUSH4 0x68209707 EQ PUSH2 0x2E3 JUMPI DUP1 PUSH4 0x6D0F9408 EQ PUSH2 0x31F JUMPI PUSH2 0xF2 JUMP JUMPDEST DUP1 PUSH4 0x43B80D39 GT PUSH2 0xC5 JUMPI DUP1 PUSH4 0x43B80D39 EQ PUSH2 0x1D3 JUMPI DUP1 PUSH4 0x4BD9351B EQ PUSH2 0x20F JUMPI DUP1 PUSH4 0x4EA4066B EQ PUSH2 0x239 JUMPI DUP1 PUSH4 0x55FA37D7 EQ PUSH2 0x261 JUMPI PUSH2 0xF2 JUMP JUMPDEST DUP1 PUSH4 0xE376DEA EQ PUSH2 0xF6 JUMPI DUP1 PUSH4 0x154D2B76 EQ PUSH2 0x132 JUMPI DUP1 PUSH4 0x17B7E03E EQ PUSH2 0x16E JUMPI DUP1 PUSH4 0x2E1A7D4D EQ PUSH2 0x1AB JUMPI JUMPDEST PUSH0 PUSH0 REVERT JUMPDEST CALLVALUE DUP1 ISZERO PUSH2 0x101 JUMPI PUSH0 PUSH0 REVERT JUMPDEST POP PUSH2 0x11C PUSH1 0x4 DUP1 CALLDATASIZE SUB DUP2 ADD SWAP1 PUSH2 0x117 SWAP2 SWAP1 PUSH2 0x1B11 JUMP JUMPDEST PUSH2 0x41F JUMP JUMPDEST PUSH1 0x40 MLOAD PUSH2 0x129 SWAP2 SWAP1 PUSH2 0x1B5E JUMP JUMPDEST PUSH1 0x40 MLOAD DUP1 SWAP2 SUB SWAP1 RETURN JUMPDEST CALLVALUE DUP1 ISZERO PUSH2 0x13D JUMPI PUSH0 PUSH0 REVERT JUMPDEST POP PUSH2 0x158 PUSH1 0x4 DUP1 CALLDATASIZE SUB DUP2 ADD SWAP1 PUSH2 0x153 SWAP2 SWAP1 PUSH2 0x1B77 JUMP JUMPDEST PUSH2 0x478 JUMP JUMPDEST PUSH1 0x40 MLOAD PUSH2 0x165 SWAP2 SWAP1 PUSH2 0x1BBC JUMP JUMPDEST PUSH1 0x40 MLOAD DUP1 SWAP2 SUB SWAP1 RETURN JUMPDEST CALLVALUE DUP1 ISZERO PUSH2 0x179 JUMPI PUSH0 PUSH0 REVERT JUMPDEST POP PUSH2 0x194 PUSH1 0x4 DUP1 CALLDATASIZE SUB DUP2 ADD SWAP1 PUSH2 0x18F SWAP2 SWAP1 PUSH2 0x1B77 JUMP JUMPDEST PUSH2 0x495 JUMP JUMPDEST PUSH1 0x40 MLOAD PUSH2 0x1A2 SWAP3 SWAP2 SWAP1 PUSH2 0x1BD5 JUMP JUMPDEST PUSH1 0x40 MLOAD DUP1 SWAP2 SUB SWAP1 RETURN JUMPDEST CALLVALUE DUP1 ISZERO PUSH2 0x1B6 JUMPI PUSH0 PUSH0 REVERT JUMPDEST POP PUSH2 0x1D1 PUSH1 0x4 DUP1 CALLDATASIZE SUB DUP2 ADD SWAP1 PUSH2 0x1CC SWAP2 SWAP1 PUSH2 0x1B77 JUMP JUMPDEST PUSH2 0x4E6 JUMP JUMPDEST STOP JUMPDEST CALLVALUE DUP1 ISZERO PUSH2 0x1DE JUMPI PUSH0 PUSH0 REVERT JUMPDEST POP PUSH2 0x1F9 PUSH1 0x4 DUP1 CALLDATASIZE SUB DUP2 ADD SWAP1 PUSH2 0x1F4 SWAP2 SWAP1 PUSH2 0x1C80 JUMP JUMPDEST PUSH2 0x879 JUMP JUMPDEST PUSH1 0x40 MLOAD PUSH2 0x206 SWAP2 SWAP1 PUSH2 0x1B5E JUMP JUMPDEST PUSH1 0x40 MLOAD DUP1 SWAP2 SUB SWAP1 RETURN JUMPDEST CALLVALUE DUP1 ISZERO PUSH2 0x21A JUMPI PUSH0 PUSH0 REVERT JUMPDEST POP PUSH2 0x223 PUSH2 0xADF JUMP JUMPDEST PUSH1 0x40 MLOAD PUSH2 0x230 SWAP2 SWAP1 PUSH2 0x1B5E JUMP JUMPDEST PUSH1 0x40 MLOAD DUP1 SWAP2 SUB SWAP1 RETURN JUMPDEST CALLVALUE DUP1 ISZERO PUSH2 0x244 JUMPI PUSH0 PUSH0 REVERT JUMPDEST POP PUSH2 0x25F PUSH1 0x4 DUP1 CALLDATASIZE SUB DUP2 ADD SWAP1 PUSH2 0x25A SWAP2 SWAP1 PUSH2 0x1D13 JUMP JUMPDEST PUSH2 0xAE6 JUMP JUMPDEST STOP JUMPDEST CALLVALUE DUP1 ISZERO PUSH2 0x26C JUMPI PUSH0 PUSH0 REVERT JUMPDEST POP PUSH2 0x275 PUSH2 0xD18 JUMP JUMPDEST PUSH1 0x40 MLOAD PUSH2 0x282 SWAP2 SWAP1 PUSH2 0x1B5E JUMP JUMPDEST PUSH1 0x40 MLOAD DUP1 SWAP2 SUB SWAP1 RETURN JUMPDEST PUSH2 0x2A5 PUSH1 0x4 DUP1 CALLDATASIZE SUB DUP2 ADD SWAP1 PUSH2 0x2A0 SWAP2 SWAP1 PUSH2 0x1B77 JUMP JUMPDEST PUSH2 0xD20 JUMP JUMPDEST STOP JUMPDEST CALLVALUE DUP1 ISZERO PUSH2 0x2B2 JUMPI PUSH0 PUSH0 REVERT JUMPDEST POP PUSH2 0x2CD PUSH1 0x4 DUP1 CALLDATASIZE SUB DUP2 ADD SWAP1 PUSH2 0x2C8 SWAP2 SWAP1 PUSH2 0x1B11 JUMP JUMPDEST PUSH2 0x10B5 JUMP JUMPDEST PUSH1 0x40 MLOAD PUSH2 0x2DA SWAP2 SWAP1 PUSH2 0x1D60 JUMP JUMPDEST PUSH1 0x40 MLOAD DUP1 SWAP2 SUB SWAP1 RETURN JUMPDEST CALLVALUE DUP1 ISZERO PUSH2 0x2EE JUMPI PUSH0 PUSH0 REVERT JUMPDEST POP PUSH2 0x309 PUSH1 0x4 DUP1 CALLDATASIZE SUB DUP2 ADD SWAP1 PUSH2 0x304 SWAP2 SWAP1 PUSH2 0x1B77 JUMP JUMPDEST PUSH2 0x111A JUMP JUMPDEST PUSH1 0x40 MLOAD PUSH2 0x316 SWAP2 SWAP1 PUSH2 0x1E30 JUMP JUMPDEST PUSH1 0x40 MLOAD DUP1 SWAP2 SUB SWAP1 RETURN JUMPDEST CALLVALUE DUP1 ISZERO PUSH2 0x32A JUMPI PUSH0 PUSH0 REVERT JUMPDEST POP PUSH2 0x345 PUSH1 0x4 DUP1 CALLDATASIZE SUB DUP2 ADD SWAP1 PUSH2 0x340 SWAP2 SWAP1 PUSH2 0x1B77 JUMP JUMPDEST PUSH2 0x11B9 JUMP JUMPDEST PUSH1 0x40 MLOAD PUSH2 0x35A SWAP10 SWAP9 SWAP8 SWAP7 SWAP6 SWAP5 SWAP4 SWAP3 SWAP2 SWAP1 PUSH2 0x1F88 JUMP JUMPDEST PUSH1 0x40 MLOAD DUP1 SWAP2 SUB SWAP1 RETURN JUMPDEST CALLVALUE DUP1 ISZERO PUSH2 0x36E JUMPI PUSH0 PUSH0 REVERT JUMPDEST POP PUSH2 0x389 PUSH1 0x4 DUP1 CALLDATASIZE SUB DUP2 ADD SWAP1 PUSH2 0x384 SWAP2 SWAP1 PUSH2 0x1B77 JUMP JUMPDEST PUSH2 0x12CD JUMP JUMPDEST PUSH1 0x40 MLOAD PUSH2 0x39C SWAP8 SWAP7 SWAP6 SWAP5 SWAP4 SWAP3 SWAP2 SWAP1 PUSH2 0x201A JUMP JUMPDEST PUSH1 0x40 MLOAD DUP1 SWAP2 SUB SWAP1 RETURN JUMPDEST CALLVALUE DUP1 ISZERO PUSH2 0x3B0 JUMPI PUSH0 PUSH0 REVERT JUMPDEST POP PUSH2 0x3CB PUSH1 0x4 DUP1 CALLDATASIZE SUB DUP2 ADD SWAP1 PUSH2 0x3C6 SWAP2 SWAP1 PUSH2 0x1B77 JUMP JUMPDEST PUSH2 0x13F2 JUMP JUMPDEST STOP JUMPDEST CALLVALUE DUP1 ISZERO PUSH2 0x3D8 JUMPI PUSH0 PUSH0 REVERT JUMPDEST POP PUSH2 0x3E1 PUSH2 0x161C JUMP JUMPDEST PUSH1 0x40 MLOAD PUSH2 0x3EE SWAP2 SWAP1 PUSH2 0x1B5E JUMP JUMPDEST PUSH1 0x40 MLOAD DUP1 SWAP2 SUB SWAP1 RETURN JUMPDEST CALLVALUE DUP1 ISZERO PUSH2 0x402 JUMPI PUSH0 PUSH0 REVERT JUMPDEST POP PUSH2 0x41D PUSH1 0x4 DUP1 CALLDATASIZE SUB DUP2 ADD SWAP1 PUSH2 0x418 SWAP2 SWAP1 PUSH2 0x208E JUMP JUMPDEST PUSH2 0x1621 JUMP JUMPDEST STOP JUMPDEST PUSH0 PUSH1 0x1 PUSH0 DUP5 DUP2 MSTORE PUSH1 0x20 ADD SWAP1 DUP2 MSTORE PUSH1 0x20 ADD PUSH0 KECCAK256 PUSH1 0x6 ADD PUSH0 DUP4 PUSH20 0xFFFFFFFFFFFFFFFFFFFFFFFFFFFFFFFFFFFFFFFF AND PUSH20 0xFFFFFFFFFFFFFFFFFFFFFFFFFFFFFFFFFFFFFFFF AND DUP2 MSTORE PUSH1 0x20 ADD SWAP1 DUP2 MSTORE PUSH1 0x20 ADD PUSH0 KECCAK256 SLOAD SWAP1 POP SWAP3 SWAP2 POP POP JUMP JUMPDEST PUSH1 0x2 PUSH1 0x20 MSTORE DUP1 PUSH0 MSTORE PUSH1 0x40 PUSH0 KECCAK256 PUSH0 SWAP2 POP SLOAD SWAP1 PUSH2 0x100 EXP SWAP1 DIV PUSH1 0xFF AND DUP2 JUMP JUMPDEST PUSH0 PUSH0 PUSH0 PUSH1 0x1 PUSH0 DUP6 DUP2 MSTORE PUSH1 0x20 ADD SWAP1 DUP2 MSTORE PUSH1 0x20 ADD PUSH0 KECCAK256 SWAP1 POP PUSH0 DUP2 PUSH1 0xA ADD SLOAD SUB PUSH2 0x4C2 JUMPI PUSH0 PUSH0 SWAP3 POP SWAP3 POP POP PUSH2 0x4E1 JUMP JUMPDEST DUP1 PUSH1 0xA ADD SLOAD DUP2 PUSH1 0x9 ADD SLOAD PUSH2 0x4D6 SWAP2 SWAP1 PUSH2 0x2138 JUMP JUMPDEST DUP2 PUSH1 0xA ADD SLOAD SWAP3 POP SWAP3 POP POP JUMPDEST SWAP2 POP SWAP2 JUMP JUMPDEST DUP1 PUSH1 0x2 PUSH0 DUP3 DUP2 MSTORE PUSH1 0x20 ADD SWAP1 DUP2 MSTORE PUSH1 0x20 ADD PUSH0 KECCAK256 PUSH0 SWAP1 SLOAD SWAP1 PUSH2 0x100 EXP SWAP1 DIV PUSH1 0xFF AND PUSH2 0x544 JUMPI PUSH1 0x40 MLOAD PUSH32 0x8C379A000000000000000000000000000000000000000000000000000000000 DUP2 MSTORE PUSH1 0x4 ADD PUSH2 0x53B SWAP1 PUSH2 0x21B2 JUMP JUMPDEST PUSH1 0x40 MLOAD DUP1 SWAP2 SUB SWAP1 REVERT JUMPDEST CALLER PUSH20 0xFFFFFFFFFFFFFFFFFFFFFFFFFFFFFFFFFFFFFFFF AND PUSH1 0x1 PUSH0 DUP4 DUP2 MSTORE PUSH1 0x20 ADD SWAP1 DUP2 MSTORE PUSH1 0x20 ADD PUSH0 KECCAK256 PUSH0 ADD PUSH0 SWAP1 SLOAD SWAP1 PUSH2 0x100 EXP SWAP1 DIV PUSH20 0xFFFFFFFFFFFFFFFFFFFFFFFFFFFFFFFFFFFFFFFF AND PUSH20 0xFFFFFFFFFFFFFFFFFFFFFFFFFFFFFFFFFFFFFFFF AND EQ PUSH2 0x5E4 JUMPI PUSH1 0x40 MLOAD PUSH32 0x8C379A000000000000000000000000000000000000000000000000000000000 DUP2 MSTORE PUSH1 0x4 ADD PUSH2 0x5DB SWAP1 PUSH2 0x221A JUMP JUMPDEST PUSH1 0x40 MLOAD DUP1 SWAP2 SUB SWAP1 REVERT JUMPDEST PUSH0 PUSH1 0x1 PUSH0 DUP5 DUP2 MSTORE PUSH1 0x20 ADD SWAP1 DUP2 MSTORE PUSH1 0x20 ADD PUSH0 KECCAK256 SWAP1 POP PUSH1 0x1 PUSH1 0x3 DUP2 GT ISZERO PUSH2 0x60C JUMPI PUSH2 0x60B PUSH2 0x1ECF JUMP JUMPDEST JUMPDEST DUP2 PUSH1 0x5 ADD PUSH0 SWAP1 SLOAD SWAP1 PUSH2 0x100 EXP SWAP1 DIV PUSH1 0xFF AND PUSH1 0x3 DUP2 GT ISZERO PUSH2 0x62F JUMPI PUSH2 0x62E PUSH2 0x1ECF JUMP JUMPDEST JUMPDEST EQ DUP1 PUSH2 0x66F JUMPI POP PUSH1 0x2 PUSH1 0x3 DUP2 GT ISZERO PUSH2 0x64A JUMPI PUSH2 0x649 PUSH2 0x1ECF JUMP JUMPDEST JUMPDEST DUP2 PUSH1 0x5 ADD PUSH0 SWAP1 SLOAD SWAP1 PUSH2 0x100 EXP SWAP1 DIV PUSH1 0xFF AND PUSH1 0x3 DUP2 GT ISZERO PUSH2 0x66D JUMPI PUSH2 0x66C PUSH2 0x1ECF JUMP JUMPDEST JUMPDEST EQ JUMPDEST PUSH2 0x6AE JUMPI PUSH1 0x40 MLOAD PUSH32 0x8C379A000000000000000000000000000000000000000000000000000000000 DUP2 MSTORE PUSH1 0x4 ADD PUSH2 0x6A5 SWAP1 PUSH2 0x2282 JUMP JUMPDEST PUSH1 0x40 MLOAD DUP1 SWAP2 SUB SWAP1 REVERT JUMPDEST DUP1 PUSH1 0x5 ADD PUSH1 0x1 SWAP1 SLOAD SWAP1 PUSH2 0x100 EXP SWAP1 DIV PUSH1 0xFF AND ISZERO PUSH2 0x700 JUMPI PUSH1 0x40 MLOAD PUSH32 0x8C379A000000000000000000000000000000000000000000000000000000000 DUP2 MSTORE PUSH1 0x4 ADD PUSH2 0x6F7 SWAP1 PUSH2 0x22EA JUMP JUMPDEST PUSH1 0x40 MLOAD DUP1 SWAP2 SUB SWAP1 REVERT JUMPDEST PUSH0 DUP2 PUSH1 0x3 ADD SLOAD SWAP1 POP PUSH0 DUP2 GT PUSH2 0x74A JUMPI PUSH1 0x40 MLOAD PUSH32 0x8C379A000000000000000000000000000000000000000000000000000000000 DUP2 MSTORE PUSH1 0x4 ADD PUSH2 0x741 SWAP1 PUSH2 0x2352 JUMP JUMPDEST PUSH1 0x40 MLOAD DUP1 SWAP2 SUB SWAP1 REVERT JUMPDEST PUSH1 0x1 DUP3 PUSH1 0x5 ADD PUSH1 0x1 PUSH2 0x100 EXP DUP2 SLOAD DUP2 PUSH1 0xFF MUL NOT AND SWAP1 DUP4 ISZERO ISZERO MUL OR SWAP1 SSTORE POP PUSH0 DUP3 PUSH1 0x3 ADD DUP2 SWAP1 SSTORE POP PUSH1 0x3 DUP3 PUSH1 0x5 ADD PUSH0 PUSH2 0x100 EXP DUP2 SLOAD DUP2 PUSH1 0xFF MUL NOT AND SWAP1 DUP4 PUSH1 0x3 DUP2 GT ISZERO PUSH2 0x797 JUMPI PUSH2 0x796 PUSH2 0x1ECF JUMP JUMPDEST JUMPDEST MUL OR SWAP1 SSTORE POP DUP2 PUSH0 ADD PUSH0 SWAP1 SLOAD SWAP1 PUSH2 0x100 EXP SWAP1 DIV PUSH20 0xFFFFFFFFFFFFFFFFFFFFFFFFFFFFFFFFFFFFFFFF AND PUSH20 0xFFFFFFFFFFFFFFFFFFFFFFFFFFFFFFFFFFFFFFFF AND PUSH2 0x8FC DUP3 SWAP1 DUP2 ISZERO MUL SWAP1 PUSH1 0x40 MLOAD PUSH0 PUSH1 0x40 MLOAD DUP1 DUP4 SUB DUP2 DUP6 DUP9 DUP9 CALL SWAP4 POP POP POP POP ISZERO DUP1 ISZERO PUSH2 0x801 JUMPI RETURNDATASIZE PUSH0 PUSH0 RETURNDATACOPY RETURNDATASIZE PUSH0 REVERT JUMPDEST POP DUP2 PUSH0 ADD PUSH0 SWAP1 SLOAD SWAP1 PUSH2 0x100 EXP SWAP1 DIV PUSH20 0xFFFFFFFFFFFFFFFFFFFFFFFFFFFFFFFFFFFFFFFF AND PUSH20 0xFFFFFFFFFFFFFFFFFFFFFFFFFFFFFFFFFFFFFFFF AND DUP5 PUSH32 0xF440AEC6B52895984D061D622E6EDEBA6210F7C3E059BE920663140C084560D7 DUP4 PUSH1 0x40 MLOAD PUSH2 0x86B SWAP2 SWAP1 PUSH2 0x1B5E JUMP JUMPDEST PUSH1 0x40 MLOAD DUP1 SWAP2 SUB SWAP1 LOG3 POP POP POP POP JUMP JUMPDEST PUSH0 PUSH0 PUSH0 DUP2 SLOAD DUP1 SWAP3 SWAP2 SWAP1 PUSH2 0x88B SWAP1 PUSH2 0x2370 JUMP JUMPDEST SWAP2 SWAP1 POP SSTORE POP PUSH0 PUSH0 SLOAD SWAP1 POP PUSH0 PUSH1 0x1 PUSH0 DUP4 DUP2 MSTORE PUSH1 0x20 ADD SWAP1 DUP2 MSTORE PUSH1 0x20 ADD PUSH0 KECCAK256 SWAP1 POP CALLER DUP2 PUSH0 ADD PUSH0 PUSH2 0x100 EXP DUP2 SLOAD DUP2 PUSH20 0xFFFFFFFFFFFFFFFFFFFFFFFFFFFFFFFFFFFFFFFF MUL NOT AND SWAP1 DUP4 PUSH20 0xFFFFFFFFFFFFFFFFFFFFFFFFFFFFFFFFFFFFFFFF AND MUL OR SWAP1 SSTORE POP DUP6 DUP6 DUP3 PUSH1 0x1 ADD SWAP2 DUP3 PUSH2 0x8FD SWAP3 SWAP2 SWAP1 PUSH2 0x25EB JUMP JUMPDEST POP DUP4 DUP2 PUSH1 0x2 ADD PUSH0 PUSH2 0x100 EXP DUP2 SLOAD DUP2 PUSH1 0xFF MUL NOT AND SWAP1 DUP4 PUSH1 0x2 DUP2 GT ISZERO PUSH2 0x924 JUMPI PUSH2 0x923 PUSH2 0x1ECF JUMP JUMPDEST JUMPDEST MUL OR SWAP1 SSTORE POP PUSH0 DUP2 PUSH1 0x3 ADD DUP2 SWAP1 SSTORE POP PUSH0 DUP2 PUSH1 0x5 ADD PUSH1 0x1 PUSH2 0x100 EXP DUP2 SLOAD DUP2 PUSH1 0xFF MUL NOT AND SWAP1 DUP4 ISZERO ISZERO MUL OR SWAP1 SSTORE POP PUSH0 DUP2 PUSH1 0x5 ADD PUSH0 PUSH2 0x100 EXP DUP2 SLOAD DUP2 PUSH1 0xFF MUL NOT AND SWAP1 DUP4 PUSH1 0x3 DUP2 GT ISZERO PUSH2 0x974 JUMPI PUSH2 0x973 PUSH2 0x1ECF JUMP JUMPDEST JUMPDEST MUL OR SWAP1 SSTORE POP PUSH0 DUP2 PUSH1 0x9 ADD DUP2 SWAP1 SSTORE POP PUSH0 DUP2 PUSH1 0xA ADD DUP2 SWAP1 SSTORE POP PUSH0 PUSH1 0x2 DUP2 GT ISZERO PUSH2 0x99E JUMPI PUSH2 0x99D PUSH2 0x1ECF JUMP JUMPDEST JUMPDEST DUP5 PUSH1 0x2 DUP2 GT ISZERO PUSH2 0x9B1 JUMPI PUSH2 0x9B0 PUSH2 0x1ECF JUMP JUMPDEST JUMPDEST SUB PUSH2 0x9D6 JUMPI PUSH3 0x15180 PUSH4 0x686DB100 PUSH2 0x9C9 SWAP2 SWAP1 PUSH2 0x26B8 JUMP JUMPDEST DUP2 PUSH1 0x4 ADD DUP2 SWAP1 SSTORE POP PUSH2 0xA57 JUMP JUMPDEST PUSH1 0x1 PUSH1 0x2 DUP2 GT ISZERO PUSH2 0x9EA JUMPI PUSH2 0x9E9 PUSH2 0x1ECF JUMP JUMPDEST JUMPDEST DUP5 PUSH1 0x2 DUP2 GT ISZERO PUSH2 0x9FD JUMPI PUSH2 0x9FC PUSH2 0x1ECF JUMP JUMPDEST JUMPDEST SUB PUSH2 0xA2E JUMPI PUSH3 0x15180 PUSH1 0x2 PUSH2 0xA12 SWAP2 SWAP1 PUSH2 0x26EB JUMP JUMPDEST PUSH4 0x686DB100 PUSH2 0xA21 SWAP2 SWAP1 PUSH2 0x26B8 JUMP JUMPDEST DUP2 PUSH1 0x4 ADD DUP2 SWAP1 SSTORE POP PUSH2 0xA56 JUMP JUMPDEST PUSH3 0x15180 PUSH1 0x3 PUSH2 0xA3E SWAP2 SWAP1 PUSH2 0x26EB JUMP JUMPDEST PUSH4 0x686DB100 PUSH2 0xA4D SWAP2 SWAP1 PUSH2 0x26B8 JUMP JUMPDEST DUP2 PUSH1 0x4 ADD DUP2 SWAP1 SSTORE POP JUMPDEST JUMPDEST PUSH1 0x1 PUSH1 0x2 PUSH0 DUP5 DUP2 MSTORE PUSH1 0x20 ADD SWAP1 DUP2 MSTORE PUSH1 0x20 ADD PUSH0 KECCAK256 PUSH0 PUSH2 0x100 EXP DUP2 SLOAD DUP2 PUSH1 0xFF MUL NOT AND SWAP1 DUP4 ISZERO ISZERO MUL OR SWAP1 SSTORE POP CALLER PUSH20 0xFFFFFFFFFFFFFFFFFFFFFFFFFFFFFFFFFFFFFFFF AND DUP3 PUSH32 0x21B2DB1A1ADA48172B5B2612D06D7EBCE476CA96C837CED65A1E306D75921EDD DUP9 DUP9 DUP9 PUSH1 0x40 MLOAD PUSH2 0xACB SWAP4 SWAP3 SWAP2 SWAP1 PUSH2 0x2766 JUMP JUMPDEST PUSH1 0x40 MLOAD DUP1 SWAP2 SUB SWAP1 LOG3 DUP2 SWAP3 POP POP POP SWAP4 SWAP3 POP POP POP JUMP JUMPDEST PUSH3 0x15180 DUP2 JUMP JUMPDEST PUSH1 0x2 PUSH0 DUP4 DUP2 MSTORE PUSH1 0x20 ADD SWAP1 DUP2 MSTORE PUSH1 0x20 ADD PUSH0 KECCAK256 PUSH0 SWAP1 SLOAD SWAP1 PUSH2 0x100 EXP SWAP1 DIV PUSH1 0xFF AND PUSH2 0xB43 JUMPI PUSH1 0x40 MLOAD PUSH32 0x8C379A000000000000000000000000000000000000000000000000000000000 DUP2 MSTORE PUSH1 0x4 ADD PUSH2 0xB3A SWAP1 PUSH2 0x21B2 JUMP JUMPDEST PUSH1 0x40 MLOAD DUP1 SWAP2 SUB SWAP1 REVERT JUMPDEST PUSH1 0x1 DUP2 PUSH1 0xFF AND LT ISZERO DUP1 ISZERO PUSH2 0xB5B JUMPI POP PUSH1 0x5 DUP2 PUSH1 0xFF AND GT ISZERO JUMPDEST PUSH2 0xB9A JUMPI PUSH1 0x40 MLOAD PUSH32 0x8C379A000000000000000000000000000000000000000000000000000000000 DUP2 MSTORE PUSH1 0x4 ADD PUSH2 0xB91 SWAP1 PUSH2 0x27E0 JUMP JUMPDEST PUSH1 0x40 MLOAD DUP1 SWAP2 SUB SWAP1 REVERT JUMPDEST PUSH0 PUSH1 0x1 PUSH0 DUP5 DUP2 MSTORE PUSH1 0x20 ADD SWAP1 DUP2 MSTORE PUSH1 0x20 ADD PUSH0 KECCAK256 SWAP1 POP PUSH0 DUP2 PUSH1 0x8 ADD PUSH0 CALLER PUSH20 0xFFFFFFFFFFFFFFFFFFFFFFFFFFFFFFFFFFFFFFFF AND PUSH20 0xFFFFFFFFFFFFFFFFFFFFFFFFFFFFFFFFFFFFFFFF AND DUP2 MSTORE PUSH1 0x20 ADD SWAP1 DUP2 MSTORE PUSH1 0x20 ADD PUSH0 KECCAK256 PUSH0 SWAP1 SLOAD SWAP1 PUSH2 0x100 EXP SWAP1 DIV PUSH1 0xFF AND SWAP1 POP PUSH0 DUP2 PUSH1 0xFF AND SUB PUSH2 0xC42 JUMPI DUP2 PUSH1 0xA ADD PUSH0 DUP2 SLOAD DUP1 SWAP3 SWAP2 SWAP1 PUSH2 0xC1B SWAP1 PUSH2 0x2370 JUMP JUMPDEST SWAP2 SWAP1 POP SSTORE POP DUP3 PUSH1 0xFF AND DUP3 PUSH1 0x9 ADD PUSH0 DUP3 DUP3 SLOAD PUSH2 0xC36 SWAP2 SWAP1 PUSH2 0x26B8 JUMP JUMPDEST SWAP3 POP POP DUP2 SWAP1 SSTORE POP PUSH2 0xC6C JUMP JUMPDEST DUP3 PUSH1 0xFF AND DUP2 PUSH1 0xFF AND DUP4 PUSH1 0x9 ADD SLOAD PUSH2 0xC59 SWAP2 SWAP1 PUSH2 0x27FE JUMP JUMPDEST PUSH2 0xC63 SWAP2 SWAP1 PUSH2 0x26B8 JUMP JUMPDEST DUP3 PUSH1 0x9 ADD DUP2 SWAP1 SSTORE POP JUMPDEST DUP3 DUP3 PUSH1 0x8 ADD PUSH0 CALLER PUSH20 0xFFFFFFFFFFFFFFFFFFFFFFFFFFFFFFFFFFFFFFFF AND PUSH20 0xFFFFFFFFFFFFFFFFFFFFFFFFFFFFFFFFFFFFFFFF AND DUP2 MSTORE PUSH1 0x20 ADD SWAP1 DUP2 MSTORE PUSH1 0x20 ADD PUSH0 KECCAK256 PUSH0 PUSH2 0x100 EXP DUP2 SLOAD DUP2 PUSH1 0xFF MUL NOT AND SWAP1 DUP4 PUSH1 0xFF AND MUL OR SWAP1 SSTORE POP CALLER PUSH20 0xFFFFFFFFFFFFFFFFFFFFFFFFFFFFFFFFFFFFFFFF AND DUP5 PUSH32 0xB45D1F179FFC2D7F3406F141D275944E0D1517EBAD9F2FD087203B88EDAFACC2 DUP6 PUSH1 0x40 MLOAD PUSH2 0xD0A SWAP2 SWAP1 PUSH2 0x1D60 JUMP JUMPDEST PUSH1 0x40 MLOAD DUP1 SWAP2 SUB SWAP1 LOG3 POP POP POP POP JUMP JUMPDEST PUSH4 0x686DB100 DUP2 JUMP JUMPDEST DUP1 PUSH0 PUSH1 0x1 PUSH0 DUP4 DUP2 MSTORE PUSH1 0x20 ADD SWAP1 DUP2 MSTORE PUSH1 0x20 ADD PUSH0 KECCAK256 SWAP1 POP PUSH0 PUSH1 0x3 DUP2 GT ISZERO PUSH2 0xD48 JUMPI PUSH2 0xD47 PUSH2 0x1ECF JUMP JUMPDEST JUMPDEST DUP2 PUSH1 0x5 ADD PUSH0 SWAP1 SLOAD SWAP1 PUSH2 0x100 EXP SWAP1 DIV PUSH1 0xFF AND PUSH1 0x3 DUP2 GT ISZERO PUSH2 0xD6B JUMPI PUSH2 0xD6A PUSH2 0x1ECF JUMP JUMPDEST JUMPDEST EQ DUP1 ISZERO PUSH2 0xD7C JUMPI POP DUP1 PUSH1 0x4 ADD SLOAD TIMESTAMP LT ISZERO JUMPDEST ISZERO PUSH2 0xE1F JUMPI PUSH1 0x2 DUP2 PUSH1 0x5 ADD PUSH0 PUSH2 0x100 EXP DUP2 SLOAD DUP2 PUSH1 0xFF MUL NOT AND SWAP1 DUP4 PUSH1 0x3 DUP2 GT ISZERO PUSH2 0xDA8 JUMPI PUSH2 0xDA7 PUSH2 0x1ECF JUMP JUMPDEST JUMPDEST MUL OR SWAP1 SSTORE POP DUP1 PUSH0 ADD PUSH0 SWAP1 SLOAD SWAP1 PUSH2 0x100 EXP SWAP1 DIV PUSH20 0xFFFFFFFFFFFFFFFFFFFFFFFFFFFFFFFFFFFFFFFF AND PUSH20 0xFFFFFFFFFFFFFFFFFFFFFFFFFFFFFFFFFFFFFFFF AND DUP3 PUSH32 0x60D094B126B3B199BD9CD997BD0B8C7692AC53890C5FD278C4D1C74901C5B1B0 TIMESTAMP PUSH1 0x40 MLOAD PUSH2 0xE16 SWAP2 SWAP1 PUSH2 0x287B JUMP JUMPDEST PUSH1 0x40 MLOAD DUP1 SWAP2 SUB SWAP1 LOG3 JUMPDEST PUSH0 PUSH1 0x3 DUP2 GT ISZERO PUSH2 0xE32 JUMPI PUSH2 0xE31 PUSH2 0x1ECF JUMP JUMPDEST JUMPDEST DUP2 PUSH1 0x5 ADD PUSH0 SWAP1 SLOAD SWAP1 PUSH2 0x100 EXP SWAP1 DIV PUSH1 0xFF AND PUSH1 0x3 DUP2 GT ISZERO PUSH2 0xE55 JUMPI PUSH2 0xE54 PUSH2 0x1ECF JUMP JUMPDEST JUMPDEST EQ PUSH2 0xE95 JUMPI PUSH1 0x40 MLOAD PUSH32 0x8C379A000000000000000000000000000000000000000000000000000000000 DUP2 MSTORE PUSH1 0x4 ADD PUSH2 0xE8C SWAP1 PUSH2 0x28F1 JUMP JUMPDEST PUSH1 0x40 MLOAD DUP1 SWAP2 SUB SWAP1 REVERT JUMPDEST PUSH1 0x2 PUSH0 DUP5 DUP2 MSTORE PUSH1 0x20 ADD SWAP1 DUP2 MSTORE PUSH1 0x20 ADD PUSH0 KECCAK256 PUSH0 SWAP1 SLOAD SWAP1 PUSH2 0x100 EXP SWAP1 DIV PUSH1 0xFF AND PUSH2 0xEF2 JUMPI PUSH1 0x40 MLOAD PUSH32 0x8C379A000000000000000000000000000000000000000000000000000000000 DUP2 MSTORE PUSH1 0x4 ADD PUSH2 0xEE9 SWAP1 PUSH2 0x21B2 JUMP JUMPDEST PUSH1 0x40 MLOAD DUP1 SWAP2 SUB SWAP1 REVERT JUMPDEST PUSH0 CALLVALUE GT PUSH2 0xF34 JUMPI PUSH1 0x40 MLOAD PUSH32 0x8C379A000000000000000000000000000000000000000000000000000000000 DUP2 MSTORE PUSH1 0x4 ADD PUSH2 0xF2B SWAP1 PUSH2 0x2959 JUMP JUMPDEST PUSH1 0x40 MLOAD DUP1 SWAP2 SUB SWAP1 REVERT JUMPDEST PUSH0 PUSH1 0x1 PUSH0 DUP6 DUP2 MSTORE PUSH1 0x20 ADD SWAP1 DUP2 MSTORE PUSH1 0x20 ADD PUSH0 KECCAK256 SWAP1 POP PUSH0 DUP2 PUSH1 0x6 ADD PUSH0 CALLER PUSH20 0xFFFFFFFFFFFFFFFFFFFFFFFFFFFFFFFFFFFFFFFF AND PUSH20 0xFFFFFFFFFFFFFFFFFFFFFFFFFFFFFFFFFFFFFFFF AND DUP2 MSTORE PUSH1 0x20 ADD SWAP1 DUP2 MSTORE PUSH1 0x20 ADD PUSH0 KECCAK256 SLOAD SUB PUSH2 0xFF1 JUMPI DUP1 PUSH1 0x7 ADD CALLER SWAP1 DUP1 PUSH1 0x1 DUP2 SLOAD ADD DUP1 DUP3 SSTORE DUP1 SWAP2 POP POP PUSH1 0x1 SWAP1 SUB SWAP1 PUSH0 MSTORE PUSH1 0x20 PUSH0 KECCAK256 ADD PUSH0 SWAP1 SWAP2 SWAP1 SWAP2 SWAP1 SWAP2 PUSH2 0x100 EXP DUP2 SLOAD DUP2 PUSH20 0xFFFFFFFFFFFFFFFFFFFFFFFFFFFFFFFFFFFFFFFF MUL NOT AND SWAP1 DUP4 PUSH20 0xFFFFFFFFFFFFFFFFFFFFFFFFFFFFFFFFFFFFFFFF AND MUL OR SWAP1 SSTORE POP JUMPDEST CALLVALUE DUP2 PUSH1 0x6 ADD PUSH0 CALLER PUSH20 0xFFFFFFFFFFFFFFFFFFFFFFFFFFFFFFFFFFFFFFFF AND PUSH20 0xFFFFFFFFFFFFFFFFFFFFFFFFFFFFFFFFFFFFFFFF AND DUP2 MSTORE PUSH1 0x20 ADD SWAP1 DUP2 MSTORE PUSH1 0x20 ADD PUSH0 KECCAK256 PUSH0 DUP3 DUP3 SLOAD PUSH2 0x103F SWAP2 SWAP1 PUSH2 0x26B8 JUMP JUMPDEST SWAP3 POP POP DUP2 SWAP1 SSTORE POP CALLVALUE DUP2 PUSH1 0x3 ADD PUSH0 DUP3 DUP3 SLOAD PUSH2 0x1059 SWAP2 SWAP1 PUSH2 0x26B8 JUMP JUMPDEST SWAP3 POP POP DUP2 SWAP1 SSTORE POP CALLER PUSH20 0xFFFFFFFFFFFFFFFFFFFFFFFFFFFFFFFFFFFFFFFF AND DUP5 PUSH32 0x61AC8E9B735E72D1382CBF7D35F2FF3764DAE09D7FAF7D90787BF7F9AE76E4C8 CALLVALUE PUSH1 0x40 MLOAD PUSH2 0x10A7 SWAP2 SWAP1 PUSH2 0x1B5E JUMP JUMPDEST PUSH1 0x40 MLOAD DUP1 SWAP2 SUB SWAP1 LOG3 POP POP POP POP JUMP JUMPDEST PUSH0 PUSH1 0x1 PUSH0 DUP5 DUP2 MSTORE PUSH1 0x20 ADD SWAP1 DUP2 MSTORE PUSH1 0x20 ADD PUSH0 KECCAK256 PUSH1 0x8 ADD PUSH0 DUP4 PUSH20 0xFFFFFFFFFFFFFFFFFFFFFFFFFFFFFFFFFFFFFFFF AND PUSH20 0xFFFFFFFFFFFFFFFFFFFFFFFFFFFFFFFFFFFFFFFF AND DUP2 MSTORE PUSH1 0x20 ADD SWAP1 DUP2 MSTORE PUSH1 0x20 ADD PUSH0 KECCAK256 PUSH0 SWAP1 SLOAD SWAP1 PUSH2 0x100 EXP SWAP1 DIV PUSH1 0xFF AND SWAP1 POP SWAP3 SWAP2 POP POP JUMP JUMPDEST PUSH1 0x60 PUSH1 0x1 PUSH0 DUP4 DUP2 MSTORE PUSH1 0x20 ADD SWAP1 DUP2 MSTORE PUSH1 0x20 ADD PUSH0 KECCAK256 PUSH1 0x7 ADD DUP1 SLOAD DUP1 PUSH1 0x20 MUL PUSH1 0x20 ADD PUSH1 0x40 MLOAD SWAP1 DUP2 ADD PUSH1 0x40 MSTORE DUP1 SWAP3 SWAP2 SWAP1 DUP2 DUP2 MSTORE PUSH1 0x20 ADD DUP3 DUP1 SLOAD DUP1 ISZERO PUSH2 0x11AD JUMPI PUSH1 0x20 MUL DUP3 ADD SWAP2 SWAP1 PUSH0 MSTORE PUSH1 0x20 PUSH0 KECCAK256 SWAP1 JUMPDEST DUP2 PUSH0 SWAP1 SLOAD SWAP1 PUSH2 0x100 EXP SWAP1 DIV PUSH20 0xFFFFFFFFFFFFFFFFFFFFFFFFFFFFFFFFFFFFFFFF AND PUSH20 0xFFFFFFFFFFFFFFFFFFFFFFFFFFFFFFFFFFFFFFFF AND DUP2 MSTORE PUSH1 0x20 ADD SWAP1 PUSH1 0x1 ADD SWAP1 DUP1 DUP4 GT PUSH2 0x1164 JUMPI JUMPDEST POP POP POP POP POP SWAP1 POP SWAP2 SWAP1 POP JUMP JUMPDEST PUSH1 0x1 PUSH1 0x20 MSTORE DUP1 PUSH0 MSTORE PUSH1 0x40 PUSH0 KECCAK256 PUSH0 SWAP2 POP SWAP1 POP DUP1 PUSH0 ADD PUSH0 SWAP1 SLOAD SWAP1 PUSH2 0x100 EXP SWAP1 DIV PUSH20 0xFFFFFFFFFFFFFFFFFFFFFFFFFFFFFFFFFFFFFFFF AND SWAP1 DUP1 PUSH1 0x1 ADD DUP1 SLOAD PUSH2 0x11FD SWAP1 PUSH2 0x241B JUMP JUMPDEST DUP1 PUSH1 0x1F ADD PUSH1 0x20 DUP1 SWAP2 DIV MUL PUSH1 0x20 ADD PUSH1 0x40 MLOAD SWAP1 DUP2 ADD PUSH1 0x40 MSTORE DUP1 SWAP3 SWAP2 SWAP1 DUP2 DUP2 MSTORE PUSH1 0x20 ADD DUP3 DUP1 SLOAD PUSH2 0x1229 SWAP1 PUSH2 0x241B JUMP JUMPDEST DUP1 ISZERO PUSH2 0x1274 JUMPI DUP1 PUSH1 0x1F LT PUSH2 0x124B JUMPI PUSH2 0x100 DUP1 DUP4 SLOAD DIV MUL DUP4 MSTORE SWAP2 PUSH1 0x20 ADD SWAP2 PUSH2 0x1274 JUMP JUMPDEST DUP3 ADD SWAP2 SWAP1 PUSH0 MSTORE PUSH1 0x20 PUSH0 KECCAK256 SWAP1 JUMPDEST DUP2 SLOAD DUP2 MSTORE SWAP1 PUSH1 0x1 ADD SWAP1 PUSH1 0x20 ADD DUP1 DUP4 GT PUSH2 0x1257 JUMPI DUP3 SWAP1 SUB PUSH1 0x1F AND DUP3 ADD SWAP2 JUMPDEST POP POP POP POP POP SWAP1 DUP1 PUSH1 0x2 ADD PUSH0 SWAP1 SLOAD SWAP1 PUSH2 0x100 EXP SWAP1 DIV PUSH1 0xFF AND SWAP1 DUP1 PUSH1 0x3 ADD SLOAD SWAP1 DUP1 PUSH1 0x4 ADD SLOAD SWAP1 DUP1 PUSH1 0x5 ADD PUSH0 SWAP1 SLOAD SWAP1 PUSH2 0x100 EXP SWAP1 DIV PUSH1 0xFF AND SWAP1 DUP1 PUSH1 0x5 ADD PUSH1 0x1 SWAP1 SLOAD SWAP1 PUSH2 0x100 EXP SWAP1 DIV PUSH1 0xFF AND SWAP1 DUP1 PUSH1 0x9 ADD SLOAD SWAP1 DUP1 PUSH1 0xA ADD SLOAD SWAP1 POP DUP10 JUMP JUMPDEST PUSH0 PUSH1 0x60 PUSH0 PUSH0 PUSH0 PUSH0 PUSH0 PUSH0 PUSH1 0x1 PUSH0 DUP11 DUP2 MSTORE PUSH1 0x20 ADD SWAP1 DUP2 MSTORE PUSH1 0x20 ADD PUSH0 KECCAK256 SWAP1 POP DUP1 PUSH0 ADD PUSH0 SWAP1 SLOAD SWAP1 PUSH2 0x100 EXP SWAP1 DIV PUSH20 0xFFFFFFFFFFFFFFFFFFFFFFFFFFFFFFFFFFFFFFFF AND DUP2 PUSH1 0x1 ADD DUP3 PUSH1 0x2 ADD PUSH0 SWAP1 SLOAD SWAP1 PUSH2 0x100 EXP SWAP1 DIV PUSH1 0xFF AND DUP4 PUSH1 0x3 ADD SLOAD DUP5 PUSH1 0x4 ADD SLOAD DUP6 PUSH1 0x5 ADD PUSH0 SWAP1 SLOAD SWAP1 PUSH2 0x100 EXP SWAP1 DIV PUSH1 0xFF AND DUP7 PUSH1 0x5 ADD PUSH1 0x1 SWAP1 SLOAD SWAP1 PUSH2 0x100 EXP SWAP1 DIV PUSH1 0xFF AND DUP6 DUP1 SLOAD PUSH2 0x135A SWAP1 PUSH2 0x241B JUMP JUMPDEST DUP1 PUSH1 0x1F ADD PUSH1 0x20 DUP1 SWAP2 DIV MUL PUSH1 0x20 ADD PUSH1 0x40 MLOAD SWAP1 DUP2 ADD PUSH1 0x40 MSTORE DUP1 SWAP3 SWAP2 SWAP1 DUP2 DUP2 MSTORE PUSH1 0x20 ADD DUP3 DUP1 SLOAD PUSH2 0x1386 SWAP1 PUSH2 0x241B JUMP JUMPDEST DUP1 ISZERO PUSH2 0x13D1 JUMPI DUP1 PUSH1 0x1F LT PUSH2 0x13A8 JUMPI PUSH2 0x100 DUP1 DUP4 SLOAD DIV MUL DUP4 MSTORE SWAP2 PUSH1 0x20 ADD SWAP2 PUSH2 0x13D1 JUMP JUMPDEST DUP3 ADD SWAP2 SWAP1 PUSH0 MSTORE PUSH1 0x20 PUSH0 KECCAK256 SWAP1 JUMPDEST DUP2 SLOAD DUP2 MSTORE SWAP1 PUSH1 0x1 ADD SWAP1 PUSH1 0x20 ADD DUP1 DUP4 GT PUSH2 0x13B4 JUMPI DUP3 SWAP1 SUB PUSH1 0x1F AND DUP3 ADD SWAP2 JUMPDEST POP POP POP POP POP SWAP6 POP SWAP8 POP SWAP8 POP SWAP8 POP SWAP8 POP SWAP8 POP SWAP8 POP SWAP8 POP POP SWAP2 SWAP4 SWAP6 SWAP8 SWAP1 SWAP3 SWAP5 SWAP7 POP JUMP JUMPDEST DUP1 PUSH1 0x2 PUSH0 DUP3 DUP2 MSTORE PUSH1 0x20 ADD SWAP1 DUP2 MSTORE PUSH1 0x20 ADD PUSH0 KECCAK256 PUSH0 SWAP1 SLOAD SWAP1 PUSH2 0x100 EXP SWAP1 DIV PUSH1 0xFF AND PUSH2 0x1450 JUMPI PUSH1 0x40 MLOAD PUSH32 0x8C379A000000000000000000000000000000000000000000000000000000000 DUP2 MSTORE PUSH1 0x4 ADD PUSH2 0x1447 SWAP1 PUSH2 0x21B2 JUMP JUMPDEST PUSH1 0x40 MLOAD DUP1 SWAP2 SUB SWAP1 REVERT JUMPDEST CALLER PUSH20 0xFFFFFFFFFFFFFFFFFFFFFFFFFFFFFFFFFFFFFFFF AND PUSH1 0x1 PUSH0 DUP4 DUP2 MSTORE PUSH1 0x20 ADD SWAP1 DUP2 MSTORE PUSH1 0x20 ADD PUSH0 KECCAK256 PUSH0 ADD PUSH0 SWAP1 SLOAD SWAP1 PUSH2 0x100 EXP SWAP1 DIV PUSH20 0xFFFFFFFFFFFFFFFFFFFFFFFFFFFFFFFFFFFFFFFF AND PUSH20 0xFFFFFFFFFFFFFFFFFFFFFFFFFFFFFFFFFFFFFFFF AND EQ PUSH2 0x14F0 JUMPI PUSH1 0x40 MLOAD PUSH32 0x8C379A000000000000000000000000000000000000000000000000000000000 DUP2 MSTORE PUSH1 0x4 ADD PUSH2 0x14E7 SWAP1 PUSH2 0x221A JUMP JUMPDEST PUSH1 0x40 MLOAD DUP1 SWAP2 SUB SWAP1 REVERT JUMPDEST PUSH0 PUSH1 0x1 PUSH0 DUP5 DUP2 MSTORE PUSH1 0x20 ADD SWAP1 DUP2 MSTORE PUSH1 0x20 ADD PUSH0 KECCAK256 SWAP1 POP PUSH0 PUSH1 0x3 DUP2 GT ISZERO PUSH2 0x1517 JUMPI PUSH2 0x1516 PUSH2 0x1ECF JUMP JUMPDEST JUMPDEST DUP2 PUSH1 0x5 ADD PUSH0 SWAP1 SLOAD SWAP1 PUSH2 0x100 EXP SWAP1 DIV PUSH1 0xFF AND PUSH1 0x3 DUP2 GT ISZERO PUSH2 0x153A JUMPI PUSH2 0x1539 PUSH2 0x1ECF JUMP JUMPDEST JUMPDEST EQ PUSH2 0x157A JUMPI PUSH1 0x40 MLOAD PUSH32 0x8C379A000000000000000000000000000000000000000000000000000000000 DUP2 MSTORE PUSH1 0x4 ADD PUSH2 0x1571 SWAP1 PUSH2 0x29C1 JUMP JUMPDEST PUSH1 0x40 MLOAD DUP1 SWAP2 SUB SWAP1 REVERT JUMPDEST PUSH1 0x1 DUP2 PUSH1 0x5 ADD PUSH0 PUSH2 0x100 EXP DUP2 SLOAD DUP2 PUSH1 0xFF MUL NOT AND SWAP1 DUP4 PUSH1 0x3 DUP2 GT ISZERO PUSH2 0x15A1 JUMPI PUSH2 0x15A0 PUSH2 0x1ECF JUMP JUMPDEST JUMPDEST MUL OR SWAP1 SSTORE POP DUP1 PUSH0 ADD PUSH0 SWAP1 SLOAD SWAP1 PUSH2 0x100 EXP SWAP1 DIV PUSH20 0xFFFFFFFFFFFFFFFFFFFFFFFFFFFFFFFFFFFFFFFF AND PUSH20 0xFFFFFFFFFFFFFFFFFFFFFFFFFFFFFFFFFFFFFFFF AND DUP4 PUSH32 0x60D094B126B3B199BD9CD997BD0B8C7692AC53890C5FD278C4D1C74901C5B1B0 TIMESTAMP PUSH1 0x40 MLOAD PUSH2 0x160F SWAP2 SWAP1 PUSH2 0x2A29 JUMP JUMPDEST PUSH1 0x40 MLOAD DUP1 SWAP2 SUB SWAP1 LOG3 POP POP POP JUMP JUMPDEST PUSH0 SLOAD DUP2 JUMP JUMPDEST DUP3 PUSH1 0x2 PUSH0 DUP3 DUP2 MSTORE PUSH1 0x20 ADD SWAP1 DUP2 MSTORE PUSH1 0x20 ADD PUSH0 KECCAK256 PUSH0 SWAP1 SLOAD SWAP1 PUSH2 0x100 EXP SWAP1 DIV PUSH1 0xFF AND PUSH2 0x167F JUMPI PUSH1 0x40 MLOAD PUSH32 0x8C379A000000000000000000000000000000000000000000000000000000000 DUP2 MSTORE PUSH1 0x4 ADD PUSH2 0x1676 SWAP1 PUSH2 0x21B2 JUMP JUMPDEST PUSH1 0x40 MLOAD DUP1 SWAP2 SUB SWAP1 REVERT JUMPDEST CALLER PUSH20 0xFFFFFFFFFFFFFFFFFFFFFFFFFFFFFFFFFFFFFFFF AND PUSH1 0x1 PUSH0 DUP4 DUP2 MSTORE PUSH1 0x20 ADD SWAP1 DUP2 MSTORE PUSH1 0x20 ADD PUSH0 KECCAK256 PUSH0 ADD PUSH0 SWAP1 SLOAD SWAP1 PUSH2 0x100 EXP SWAP1 DIV PUSH20 0xFFFFFFFFFFFFFFFFFFFFFFFFFFFFFFFFFFFFFFFF AND PUSH20 0xFFFFFFFFFFFFFFFFFFFFFFFFFFFFFFFFFFFFFFFF AND EQ PUSH2 0x171F JUMPI PUSH1 0x40 MLOAD PUSH32 0x8C379A000000000000000000000000000000000000000000000000000000000 DUP2 MSTORE PUSH1 0x4 ADD PUSH2 0x1716 SWAP1 PUSH2 0x221A JUMP JUMPDEST PUSH1 0x40 MLOAD DUP1 SWAP2 SUB SWAP1 REVERT JUMPDEST DUP4 PUSH0 PUSH1 0x1 PUSH0 DUP4 DUP2 MSTORE PUSH1 0x20 ADD SWAP1 DUP2 MSTORE PUSH1 0x20 ADD PUSH0 KECCAK256 SWAP1 POP PUSH0 PUSH1 0x3 DUP2 GT ISZERO PUSH2 0x1747 JUMPI PUSH2 0x1746 PUSH2 0x1ECF JUMP JUMPDEST JUMPDEST DUP2 PUSH1 0x5 ADD PUSH0 SWAP1 SLOAD SWAP1 PUSH2 0x100 EXP SWAP1 DIV PUSH1 0xFF AND PUSH1 0x3 DUP2 GT ISZERO PUSH2 0x176A JUMPI PUSH2 0x1769 PUSH2 0x1ECF JUMP JUMPDEST JUMPDEST EQ DUP1 ISZERO PUSH2 0x177B JUMPI POP DUP1 PUSH1 0x4 ADD SLOAD TIMESTAMP LT ISZERO JUMPDEST ISZERO PUSH2 0x181E JUMPI PUSH1 0x2 DUP2 PUSH1 0x5 ADD PUSH0 PUSH2 0x100 EXP DUP2 SLOAD DUP2 PUSH1 0xFF MUL NOT AND SWAP1 DUP4 PUSH1 0x3 DUP2 GT ISZERO PUSH2 0x17A7 JUMPI PUSH2 0x17A6 PUSH2 0x1ECF JUMP JUMPDEST JUMPDEST MUL OR SWAP1 SSTORE POP DUP1 PUSH0 ADD PUSH0 SWAP1 SLOAD SWAP1 PUSH2 0x100 EXP SWAP1 DIV PUSH20 0xFFFFFFFFFFFFFFFFFFFFFFFFFFFFFFFFFFFFFFFF AND PUSH20 0xFFFFFFFFFFFFFFFFFFFFFFFFFFFFFFFFFFFFFFFF AND DUP3 PUSH32 0x60D094B126B3B199BD9CD997BD0B8C7692AC53890C5FD278C4D1C74901C5B1B0 TIMESTAMP PUSH1 0x40 MLOAD PUSH2 0x1815 SWAP2 SWAP1 PUSH2 0x287B JUMP JUMPDEST PUSH1 0x40 MLOAD DUP1 SWAP2 SUB SWAP1 LOG3 JUMPDEST PUSH0 PUSH1 0x3 DUP2 GT ISZERO PUSH2 0x1831 JUMPI PUSH2 0x1830 PUSH2 0x1ECF JUMP JUMPDEST JUMPDEST DUP2 PUSH1 0x5 ADD PUSH0 SWAP1 SLOAD SWAP1 PUSH2 0x100 EXP SWAP1 DIV PUSH1 0xFF AND PUSH1 0x3 DUP2 GT ISZERO PUSH2 0x1854 JUMPI PUSH2 0x1853 PUSH2 0x1ECF JUMP JUMPDEST JUMPDEST EQ PUSH2 0x1894 JUMPI PUSH1 0x40 MLOAD PUSH32 0x8C379A000000000000000000000000000000000000000000000000000000000 DUP2 MSTORE PUSH1 0x4 ADD PUSH2 0x188B SWAP1 PUSH2 0x28F1 JUMP JUMPDEST PUSH1 0x40 MLOAD DUP1 SWAP2 SUB SWAP1 REVERT JUMPDEST PUSH0 PUSH1 0x1 PUSH0 DUP9 DUP2 MSTORE PUSH1 0x20 ADD SWAP1 DUP2 MSTORE PUSH1 0x20 ADD PUSH0 KECCAK256 SWAP1 POP DUP5 DUP2 PUSH1 0x6 ADD PUSH0 DUP9 PUSH20 0xFFFFFFFFFFFFFFFFFFFFFFFFFFFFFFFFFFFFFFFF AND PUSH20 0xFFFFFFFFFFFFFFFFFFFFFFFFFFFFFFFFFFFFFFFF AND DUP2 MSTORE PUSH1 0x20 ADD SWAP1 DUP2 MSTORE PUSH1 0x20 ADD PUSH0 KECCAK256 SLOAD LT ISZERO PUSH2 0x192A JUMPI PUSH1 0x40 MLOAD PUSH32 0x8C379A000000000000000000000000000000000000000000000000000000000 DUP2 MSTORE PUSH1 0x4 ADD PUSH2 0x1921 SWAP1 PUSH2 0x2A9F JUMP JUMPDEST PUSH1 0x40 MLOAD DUP1 SWAP2 SUB SWAP1 REVERT JUMPDEST DUP5 DUP2 PUSH1 0x3 ADD SLOAD LT ISZERO PUSH2 0x1971 JUMPI PUSH1 0x40 MLOAD PUSH32 0x8C379A000000000000000000000000000000000000000000000000000000000 DUP2 MSTORE PUSH1 0x4 ADD PUSH2 0x1968 SWAP1 PUSH2 0x2B07 JUMP JUMPDEST PUSH1 0x40 MLOAD DUP1 SWAP2 SUB SWAP1 REVERT JUMPDEST DUP5 DUP2 PUSH1 0x6 ADD PUSH0 DUP9 PUSH20 0xFFFFFFFFFFFFFFFFFFFFFFFFFFFFFFFFFFFFFFFF AND PUSH20 0xFFFFFFFFFFFFFFFFFFFFFFFFFFFFFFFFFFFFFFFF AND DUP2 MSTORE PUSH1 0x20 ADD SWAP1 DUP2 MSTORE PUSH1 0x20 ADD PUSH0 KECCAK256 PUSH0 DUP3 DUP3 SLOAD PUSH2 0x19BF SWAP2 SWAP1 PUSH2 0x27FE JUMP JUMPDEST SWAP3 POP POP DUP2 SWAP1 SSTORE POP DUP5 DUP2 PUSH1 0x3 ADD PUSH0 DUP3 DUP3 SLOAD PUSH2 0x19D9 SWAP2 SWAP1 PUSH2 0x27FE JUMP JUMPDEST SWAP3 POP POP DUP2 SWAP1 SSTORE POP DUP6 PUSH20 0xFFFFFFFFFFFFFFFFFFFFFFFFFFFFFFFFFFFFFFFF AND PUSH2 0x8FC DUP7 SWAP1 DUP2 ISZERO MUL SWAP1 PUSH1 0x40 MLOAD PUSH0 PUSH1 0x40 MLOAD DUP1 DUP4 SUB DUP2 DUP6 DUP9 DUP9 CALL SWAP4 POP POP POP POP ISZERO DUP1 ISZERO PUSH2 0x1A23 JUMPI RETURNDATASIZE PUSH0 PUSH0 RETURNDATACOPY RETURNDATASIZE PUSH0 REVERT JUMPDEST POP DUP6 PUSH20 0xFFFFFFFFFFFFFFFFFFFFFFFFFFFFFFFFFFFFFFFF AND DUP8 PUSH32 0x7A482FDEB6BC9A1376F597068A214A7A39472BB2EFF1B8CAD21BA04F49DDCA1B DUP8 PUSH1 0x40 MLOAD PUSH2 0x1A6B SWAP2 SWAP1 PUSH2 0x1B5E JUMP JUMPDEST PUSH1 0x40 MLOAD DUP1 SWAP2 SUB SWAP1 LOG3 POP POP POP POP POP POP POP JUMP JUMPDEST PUSH0 PUSH0 REVERT JUMPDEST PUSH0 PUSH0 REVERT JUMPDEST PUSH0 DUP2 SWAP1 POP SWAP2 SWAP1 POP JUMP JUMPDEST PUSH2 0x1A96 DUP2 PUSH2 0x1A84 JUMP JUMPDEST DUP2 EQ PUSH2 0x1AA0 JUMPI PUSH0 PUSH0 REVERT JUMPDEST POP JUMP JUMPDEST PUSH0 DUP2 CALLDATALOAD SWAP1 POP PUSH2 0x1AB1 DUP2 PUSH2 0x1A8D JUMP JUMPDEST SWAP3 SWAP2 POP POP JUMP JUMPDEST PUSH0 PUSH20 0xFFFFFFFFFFFFFFFFFFFFFFFFFFFFFFFFFFFFFFFF DUP3 AND SWAP1 POP SWAP2 SWAP1 POP JUMP JUMPDEST PUSH0 PUSH2 0x1AE0 DUP3 PUSH2 0x1AB7 JUMP JUMPDEST SWAP1 POP SWAP2 SWAP1 POP JUMP JUMPDEST PUSH2 0x1AF0 DUP2 PUSH2 0x1AD6 JUMP JUMPDEST DUP2 EQ PUSH2 0x1AFA JUMPI PUSH0 PUSH0 REVERT JUMPDEST POP JUMP JUMPDEST PUSH0 DUP2 CALLDATALOAD SWAP1 POP PUSH2 0x1B0B DUP2 PUSH2 0x1AE7 JUMP JUMPDEST SWAP3 SWAP2 POP POP JUMP JUMPDEST PUSH0 PUSH0 PUSH1 0x40 DUP4 DUP6 SUB SLT ISZERO PUSH2 0x1B27 JUMPI PUSH2 0x1B26 PUSH2 0x1A7C JUMP JUMPDEST JUMPDEST PUSH0 PUSH2 0x1B34 DUP6 DUP3 DUP7 ADD PUSH2 0x1AA3 JUMP JUMPDEST SWAP3 POP POP PUSH1 0x20 PUSH2 0x1B45 DUP6 DUP3 DUP7 ADD PUSH2 0x1AFD JUMP JUMPDEST SWAP2 POP POP SWAP3 POP SWAP3 SWAP1 POP JUMP JUMPDEST PUSH2 0x1B58 DUP2 PUSH2 0x1A84 JUMP JUMPDEST DUP3 MSTORE POP POP JUMP JUMPDEST PUSH0 PUSH1 0x20 DUP3 ADD SWAP1 POP PUSH2 0x1B71 PUSH0 DUP4 ADD DUP5 PUSH2 0x1B4F JUMP JUMPDEST SWAP3 SWAP2 POP POP JUMP JUMPDEST PUSH0 PUSH1 0x20 DUP3 DUP5 SUB SLT ISZERO PUSH2 0x1B8C JUMPI PUSH2 0x1B8B PUSH2 0x1A7C JUMP JUMPDEST JUMPDEST PUSH0 PUSH2 0x1B99 DUP5 DUP3 DUP6 ADD PUSH2 0x1AA3 JUMP JUMPDEST SWAP2 POP POP SWAP3 SWAP2 POP POP JUMP JUMPDEST PUSH0 DUP2 ISZERO ISZERO SWAP1 POP SWAP2 SWAP1 POP JUMP JUMPDEST PUSH2 0x1BB6 DUP2 PUSH2 0x1BA2 JUMP JUMPDEST DUP3 MSTORE POP POP JUMP JUMPDEST PUSH0 PUSH1 0x20 DUP3 ADD SWAP1 POP PUSH2 0x1BCF PUSH0 DUP4 ADD DUP5 PUSH2 0x1BAD JUMP JUMPDEST SWAP3 SWAP2 POP POP JUMP JUMPDEST PUSH0 PUSH1 0x40 DUP3 ADD SWAP1 POP PUSH2 0x1BE8 PUSH0 DUP4 ADD DUP6 PUSH2 0x1B4F JUMP JUMPDEST PUSH2 0x1BF5 PUSH1 0x20 DUP4 ADD DUP5 PUSH2 0x1B4F JUMP JUMPDEST SWAP4 SWAP3 POP POP POP JUMP JUMPDEST PUSH0 PUSH0 REVERT JUMPDEST PUSH0 PUSH0 REVERT JUMPDEST PUSH0 PUSH0 REVERT JUMPDEST PUSH0 PUSH0 DUP4 PUSH1 0x1F DUP5 ADD SLT PUSH2 0x1C1D JUMPI PUSH2 0x1C1C PUSH2 0x1BFC JUMP JUMPDEST JUMPDEST DUP3 CALLDATALOAD SWAP1 POP PUSH8 0xFFFFFFFFFFFFFFFF DUP2 GT ISZERO PUSH2 0x1C3A JUMPI PUSH2 0x1C39 PUSH2 0x1C00 JUMP JUMPDEST JUMPDEST PUSH1 0x20 DUP4 ADD SWAP2 POP DUP4 PUSH1 0x1 DUP3 MUL DUP4 ADD GT ISZERO PUSH2 0x1C56 JUMPI PUSH2 0x1C55 PUSH2 0x1C04 JUMP JUMPDEST JUMPDEST SWAP3 POP SWAP3 SWAP1 POP JUMP JUMPDEST PUSH1 0x3 DUP2 LT PUSH2 0x1C69 JUMPI PUSH0 PUSH0 REVERT JUMPDEST POP JUMP JUMPDEST PUSH0 DUP2 CALLDATALOAD SWAP1 POP PUSH2 0x1C7A DUP2 PUSH2 0x1C5D JUMP JUMPDEST SWAP3 SWAP2 POP POP JUMP JUMPDEST PUSH0 PUSH0 PUSH0 PUSH1 0x40 DUP5 DUP7 SUB SLT ISZERO PUSH2 0x1C97 JUMPI PUSH2 0x1C96 PUSH2 0x1A7C JUMP JUMPDEST JUMPDEST PUSH0 DUP5 ADD CALLDATALOAD PUSH8 0xFFFFFFFFFFFFFFFF DUP2 GT ISZERO PUSH2 0x1CB4 JUMPI PUSH2 0x1CB3 PUSH2 0x1A80 JUMP JUMPDEST JUMPDEST PUSH2 0x1CC0 DUP7 DUP3 DUP8 ADD PUSH2 0x1C08 JUMP JUMPDEST SWAP4 POP SWAP4 POP POP PUSH1 0x20 PUSH2 0x1CD3 DUP7 DUP3 DUP8 ADD PUSH2 0x1C6C JUMP JUMPDEST SWAP2 POP POP SWAP3 POP SWAP3 POP SWAP3 JUMP JUMPDEST PUSH0 PUSH1 0xFF DUP3 AND SWAP1 POP SWAP2 SWAP1 POP JUMP JUMPDEST PUSH2 0x1CF2 DUP2 PUSH2 0x1CDD JUMP JUMPDEST DUP2 EQ PUSH2 0x1CFC JUMPI PUSH0 PUSH0 REVERT JUMPDEST POP JUMP JUMPDEST PUSH0 DUP2 CALLDATALOAD SWAP1 POP PUSH2 0x1D0D DUP2 PUSH2 0x1CE9 JUMP JUMPDEST SWAP3 SWAP2 POP POP JUMP JUMPDEST PUSH0 PUSH0 PUSH1 0x40 DUP4 DUP6 SUB SLT ISZERO PUSH2 0x1D29 JUMPI PUSH2 0x1D28 PUSH2 0x1A7C JUMP JUMPDEST JUMPDEST PUSH0 PUSH2 0x1D36 DUP6 DUP3 DUP7 ADD PUSH2 0x1AA3 JUMP JUMPDEST SWAP3 POP POP PUSH1 0x20 PUSH2 0x1D47 DUP6 DUP3 DUP7 ADD PUSH2 0x1CFF JUMP JUMPDEST SWAP2 POP POP SWAP3 POP SWAP3 SWAP1 POP JUMP JUMPDEST PUSH2 0x1D5A DUP2 PUSH2 0x1CDD JUMP JUMPDEST DUP3 MSTORE POP POP JUMP JUMPDEST PUSH0 PUSH1 0x20 DUP3 ADD SWAP1 POP PUSH2 0x1D73 PUSH0 DUP4 ADD DUP5 PUSH2 0x1D51 JUMP JUMPDEST SWAP3 SWAP2 POP POP JUMP JUMPDEST PUSH0 DUP2 MLOAD SWAP1 POP SWAP2 SWAP1 POP JUMP JUMPDEST PUSH0 DUP3 DUP3 MSTORE PUSH1 0x20 DUP3 ADD SWAP1 POP SWAP3 SWAP2 POP POP JUMP JUMPDEST PUSH0 DUP2 SWAP1 POP PUSH1 0x20 DUP3 ADD SWAP1 POP SWAP2 SWAP1 POP JUMP JUMPDEST PUSH2 0x1DAB DUP2 PUSH2 0x1AD6 JUMP JUMPDEST DUP3 MSTORE POP POP JUMP JUMPDEST PUSH0 PUSH2 0x1DBC DUP4 DUP4 PUSH2 0x1DA2 JUMP JUMPDEST PUSH1 0x20 DUP4 ADD SWAP1 POP SWAP3 SWAP2 POP POP JUMP JUMPDEST PUSH0 PUSH1 0x20 DUP3 ADD SWAP1 POP SWAP2 SWAP1 POP JUMP JUMPDEST PUSH0 PUSH2 0x1DDE DUP3 PUSH2 0x1D79 JUMP JUMPDEST PUSH2 0x1DE8 DUP2 DUP6 PUSH2 0x1D83 JUMP JUMPDEST SWAP4 POP PUSH2 0x1DF3 DUP4 PUSH2 0x1D93 JUMP JUMPDEST DUP1 PUSH0 JUMPDEST DUP4 DUP2 LT ISZERO PUSH2 0x1E23 JUMPI DUP2 MLOAD PUSH2 0x1E0A DUP9 DUP3 PUSH2 0x1DB1 JUMP JUMPDEST SWAP8 POP PUSH2 0x1E15 DUP4 PUSH2 0x1DC8 JUMP JUMPDEST SWAP3 POP POP PUSH1 0x1 DUP2 ADD SWAP1 POP PUSH2 0x1DF6 JUMP JUMPDEST POP DUP6 SWAP4 POP POP POP POP SWAP3 SWAP2 POP POP JUMP JUMPDEST PUSH0 PUSH1 0x20 DUP3 ADD SWAP1 POP DUP2 DUP2 SUB PUSH0 DUP4 ADD MSTORE PUSH2 0x1E48 DUP2 DUP5 PUSH2 0x1DD4 JUMP JUMPDEST SWAP1 POP SWAP3 SWAP2 POP POP JUMP JUMPDEST PUSH2 0x1E59 DUP2 PUSH2 0x1AD6 JUMP JUMPDEST DUP3 MSTORE POP POP JUMP JUMPDEST PUSH0 DUP2 MLOAD SWAP1 POP SWAP2 SWAP1 POP JUMP JUMPDEST PUSH0 DUP3 DUP3 MSTORE PUSH1 0x20 DUP3 ADD SWAP1 POP SWAP3 SWAP2 POP POP JUMP JUMPDEST DUP3 DUP2 DUP4 MCOPY PUSH0 DUP4 DUP4 ADD MSTORE POP POP POP JUMP JUMPDEST PUSH0 PUSH1 0x1F NOT PUSH1 0x1F DUP4 ADD AND SWAP1 POP SWAP2 SWAP1 POP JUMP JUMPDEST PUSH0 PUSH2 0x1EA1 DUP3 PUSH2 0x1E5F JUMP JUMPDEST PUSH2 0x1EAB DUP2 DUP6 PUSH2 0x1E69 JUMP JUMPDEST SWAP4 POP PUSH2 0x1EBB DUP2 DUP6 PUSH1 0x20 DUP7 ADD PUSH2 0x1E79 JUMP JUMPDEST PUSH2 0x1EC4 DUP2 PUSH2 0x1E87 JUMP JUMPDEST DUP5 ADD SWAP2 POP POP SWAP3 SWAP2 POP POP JUMP JUMPDEST PUSH32 0x4E487B7100000000000000000000000000000000000000000000000000000000 PUSH0 MSTORE PUSH1 0x21 PUSH1 0x4 MSTORE PUSH1 0x24 PUSH0 REVERT JUMPDEST PUSH1 0x3 DUP2 LT PUSH2 0x1F0D JUMPI PUSH2 0x1F0C PUSH2 0x1ECF JUMP JUMPDEST JUMPDEST POP JUMP JUMPDEST PUSH0 DUP2 SWAP1 POP PUSH2 0x1F1D DUP3 PUSH2 0x1EFC JUMP JUMPDEST SWAP2 SWAP1 POP JUMP JUMPDEST PUSH0 PUSH2 0x1F2C DUP3 PUSH2 0x1F10 JUMP JUMPDEST SWAP1 POP SWAP2 SWAP1 POP JUMP JUMPDEST PUSH2 0x1F3C DUP2 PUSH2 0x1F22 JUMP JUMPDEST DUP3 MSTORE POP POP JUMP JUMPDEST PUSH1 0x4 DUP2 LT PUSH2 0x1F53 JUMPI PUSH2 0x1F52 PUSH2 0x1ECF JUMP JUMPDEST JUMPDEST POP JUMP JUMPDEST PUSH0 DUP2 SWAP1 POP PUSH2 0x1F63 DUP3 PUSH2 0x1F42 JUMP JUMPDEST SWAP2 SWAP1 POP JUMP JUMPDEST PUSH0 PUSH2 0x1F72 DUP3 PUSH2 0x1F56 JUMP JUMPDEST SWAP1 POP SWAP2 SWAP1 POP JUMP JUMPDEST PUSH2 0x1F82 DUP2 PUSH2 0x1F68 JUMP JUMPDEST DUP3 MSTORE POP POP JUMP JUMPDEST PUSH0 PUSH2 0x120 DUP3 ADD SWAP1 POP PUSH2 0x1F9C PUSH0 DUP4 ADD DUP13 PUSH2 0x1E50 JUMP JUMPDEST DUP2 DUP2 SUB PUSH1 0x20 DUP4 ADD MSTORE PUSH2 0x1FAE DUP2 DUP12 PUSH2 0x1E97 JUMP JUMPDEST SWAP1 POP PUSH2 0x1FBD PUSH1 0x40 DUP4 ADD DUP11 PUSH2 0x1F33 JUMP JUMPDEST PUSH2 0x1FCA PUSH1 0x60 DUP4 ADD DUP10 PUSH2 0x1B4F JUMP JUMPDEST PUSH2 0x1FD7 PUSH1 0x80 DUP4 ADD DUP9 PUSH2 0x1B4F JUMP JUMPDEST PUSH2 0x1FE4 PUSH1 0xA0 DUP4 ADD DUP8 PUSH2 0x1F79 JUMP JUMPDEST PUSH2 0x1FF1 PUSH1 0xC0 DUP4 ADD DUP7 PUSH2 0x1BAD JUMP JUMPDEST PUSH2 0x1FFE PUSH1 0xE0 DUP4 ADD DUP6 PUSH2 0x1B4F JUMP JUMPDEST PUSH2 0x200C PUSH2 0x100 DUP4 ADD DUP5 PUSH2 0x1B4F JUMP JUMPDEST SWAP11 SWAP10 POP POP POP POP POP POP POP POP POP POP JUMP JUMPDEST PUSH0 PUSH1 0xE0 DUP3 ADD SWAP1 POP PUSH2 0x202D PUSH0 DUP4 ADD DUP11 PUSH2 0x1E50 JUMP JUMPDEST DUP2 DUP2 SUB PUSH1 0x20 DUP4 ADD MSTORE PUSH2 0x203F DUP2 DUP10 PUSH2 0x1E97 JUMP JUMPDEST SWAP1 POP PUSH2 0x204E PUSH1 0x40 DUP4 ADD DUP9 PUSH2 0x1F33 JUMP JUMPDEST PUSH2 0x205B PUSH1 0x60 DUP4 ADD DUP8 PUSH2 0x1B4F JUMP JUMPDEST PUSH2 0x2068 PUSH1 0x80 DUP4 ADD DUP7 PUSH2 0x1B4F JUMP JUMPDEST PUSH2 0x2075 PUSH1 0xA0 DUP4 ADD DUP6 PUSH2 0x1F79 JUMP JUMPDEST PUSH2 0x2082 PUSH1 0xC0 DUP4 ADD DUP5 PUSH2 0x1BAD JUMP JUMPDEST SWAP9 SWAP8 POP POP POP POP POP POP POP POP JUMP JUMPDEST PUSH0 PUSH0 PUSH0 PUSH1 0x60 DUP5 DUP7 SUB SLT ISZERO PUSH2 0x20A5 JUMPI PUSH2 0x20A4 PUSH2 0x1A7C JUMP JUMPDEST JUMPDEST PUSH0 PUSH2 0x20B2 DUP7 DUP3 DUP8 ADD PUSH2 0x1AA3 JUMP JUMPDEST SWAP4 POP POP PUSH1 0x20 PUSH2 0x20C3 DUP7 DUP3 DUP8 ADD PUSH2 0x1AFD JUMP JUMPDEST SWAP3 POP POP PUSH1 0x40 PUSH2 0x20D4 DUP7 DUP3 DUP8 ADD PUSH2 0x1AA3 JUMP JUMPDEST SWAP2 POP POP SWAP3 POP SWAP3 POP SWAP3 JUMP JUMPDEST PUSH32 0x4E487B7100000000000000000000000000000000000000000000000000000000 PUSH0 MSTORE PUSH1 0x12 PUSH1 0x4 MSTORE PUSH1 0x24 PUSH0 REVERT JUMPDEST PUSH32 0x4E487B7100000000000000000000000000000000000000000000000000000000 PUSH0 MSTORE PUSH1 0x11 PUSH1 0x4 MSTORE PUSH1 0x24 PUSH0 REVERT JUMPDEST PUSH0 PUSH2 0x2142 DUP3 PUSH2 0x1A84 JUMP JUMPDEST SWAP2 POP PUSH2 0x214D DUP4 PUSH2 0x1A84 JUMP JUMPDEST SWAP3 POP DUP3 PUSH2 0x215D JUMPI PUSH2 0x215C PUSH2 0x20DE JUMP JUMPDEST JUMPDEST DUP3 DUP3 DIV SWAP1 POP SWAP3 SWAP2 POP POP JUMP JUMPDEST PUSH32 0x5374616C6C20646F6573206E6F74206578697374000000000000000000000000 PUSH0 DUP3 ADD MSTORE POP JUMP JUMPDEST PUSH0 PUSH2 0x219C PUSH1 0x14 DUP4 PUSH2 0x1E69 JUMP JUMPDEST SWAP2 POP PUSH2 0x21A7 DUP3 PUSH2 0x2168 JUMP JUMPDEST PUSH1 0x20 DUP3 ADD SWAP1 POP SWAP2 SWAP1 POP JUMP JUMPDEST PUSH0 PUSH1 0x20 DUP3 ADD SWAP1 POP DUP2 DUP2 SUB PUSH0 DUP4 ADD MSTORE PUSH2 0x21C9 DUP2 PUSH2 0x2190 JUMP JUMPDEST SWAP1 POP SWAP2 SWAP1 POP JUMP JUMPDEST PUSH32 0x4E6F74207374616C6C206F776E65720000000000000000000000000000000000 PUSH0 DUP3 ADD MSTORE POP JUMP JUMPDEST PUSH0 PUSH2 0x2204 PUSH1 0xF DUP4 PUSH2 0x1E69 JUMP JUMPDEST SWAP2 POP PUSH2 0x220F DUP3 PUSH2 0x21D0 JUMP JUMPDEST PUSH1 0x20 DUP3 ADD SWAP1 POP SWAP2 SWAP1 POP JUMP JUMPDEST PUSH0 PUSH1 0x20 DUP3 ADD SWAP1 POP DUP2 DUP2 SUB PUSH0 DUP4 ADD MSTORE PUSH2 0x2231 DUP2 PUSH2 0x21F8 JUMP JUMPDEST SWAP1 POP SWAP2 SWAP1 POP JUMP JUMPDEST PUSH32 0x5374616C6C206D75737420626520636C6F736564000000000000000000000000 PUSH0 DUP3 ADD MSTORE POP JUMP JUMPDEST PUSH0 PUSH2 0x226C PUSH1 0x14 DUP4 PUSH2 0x1E69 JUMP JUMPDEST SWAP2 POP PUSH2 0x2277 DUP3 PUSH2 0x2238 JUMP JUMPDEST PUSH1 0x20 DUP3 ADD SWAP1 POP SWAP2 SWAP1 POP JUMP JUMPDEST PUSH0 PUSH1 0x20 DUP3 ADD SWAP1 POP DUP2 DUP2 SUB PUSH0 DUP4 ADD MSTORE PUSH2 0x2299 DUP2 PUSH2 0x2260 JUMP JUMPDEST SWAP1 POP SWAP2 SWAP1 POP JUMP JUMPDEST PUSH32 0x416C72656164792077697468647261776E000000000000000000000000000000 PUSH0 DUP3 ADD MSTORE POP JUMP JUMPDEST PUSH0 PUSH2 0x22D4 PUSH1 0x11 DUP4 PUSH2 0x1E69 JUMP JUMPDEST SWAP2 POP PUSH2 0x22DF DUP3 PUSH2 0x22A0 JUMP JUMPDEST PUSH1 0x20 DUP3 ADD SWAP1 POP SWAP2 SWAP1 POP JUMP JUMPDEST PUSH0 PUSH1 0x20 DUP3 ADD SWAP1 POP DUP2 DUP2 SUB PUSH0 DUP4 ADD MSTORE PUSH2 0x2301 DUP2 PUSH2 0x22C8 JUMP JUMPDEST SWAP1 POP SWAP2 SWAP1 POP JUMP JUMPDEST PUSH32 0x4E6F2066756E647320746F207769746864726177000000000000000000000000 PUSH0 DUP3 ADD MSTORE POP JUMP JUMPDEST PUSH0 PUSH2 0x233C PUSH1 0x14 DUP4 PUSH2 0x1E69 JUMP JUMPDEST SWAP2 POP PUSH2 0x2347 DUP3 PUSH2 0x2308 JUMP JUMPDEST PUSH1 0x20 DUP3 ADD SWAP1 POP SWAP2 SWAP1 POP JUMP JUMPDEST PUSH0 PUSH1 0x20 DUP3 ADD SWAP1 POP DUP2 DUP2 SUB PUSH0 DUP4 ADD MSTORE PUSH2 0x2369 DUP2 PUSH2 0x2330 JUMP JUMPDEST SWAP1 POP SWAP2 SWAP1 POP JUMP JUMPDEST PUSH0 PUSH2 0x237A DUP3 PUSH2 0x1A84 JUMP JUMPDEST SWAP2 POP PUSH32 0xFFFFFFFFFFFFFFFFFFFFFFFFFFFFFFFFFFFFFFFFFFFFFFFFFFFFFFFFFFFFFFFF DUP3 SUB PUSH2 0x23AC JUMPI PUSH2 0x23AB PUSH2 0x210B JUMP JUMPDEST JUMPDEST PUSH1 0x1 DUP3 ADD SWAP1 POP SWAP2 SWAP1 POP JUMP JUMPDEST PUSH0 DUP3 SWAP1 POP SWAP3 SWAP2 POP POP JUMP JUMPDEST PUSH32 0x4E487B7100000000000000000000000000000000000000000000000000000000 PUSH0 MSTORE PUSH1 0x41 PUSH1 0x4 MSTORE PUSH1 0x24 PUSH0 REVERT JUMPDEST PUSH32 0x4E487B7100000000000000000000000000000000000000000000000000000000 PUSH0 MSTORE PUSH1 0x22 PUSH1 0x4 MSTORE PUSH1 0x24 PUSH0 REVERT JUMPDEST PUSH0 PUSH1 0x2 DUP3 DIV SWAP1 POP PUSH1 0x1 DUP3 AND DUP1 PUSH2 0x2432 JUMPI PUSH1 0x7F DUP3 AND SWAP2 POP JUMPDEST PUSH1 0x20 DUP3 LT DUP2 SUB PUSH2 0x2445 JUMPI PUSH2 0x2444 PUSH2 0x23EE JUMP JUMPDEST JUMPDEST POP SWAP2 SWAP1 POP JUMP JUMPDEST PUSH0 DUP2 SWAP1 POP DUP2 PUSH0 MSTORE PUSH1 0x20 PUSH0 KECCAK256 SWAP1 POP SWAP2 SWAP1 POP JUMP JUMPDEST PUSH0 PUSH1 0x20 PUSH1 0x1F DUP4 ADD DIV SWAP1 POP SWAP2 SWAP1 POP JUMP JUMPDEST PUSH0 DUP3 DUP3 SHL SWAP1 POP SWAP3 SWAP2 POP POP JUMP JUMPDEST PUSH0 PUSH1 0x8 DUP4 MUL PUSH2 0x24A7 PUSH32 0xFFFFFFFFFFFFFFFFFFFFFFFFFFFFFFFFFFFFFFFFFFFFFFFFFFFFFFFFFFFFFFFF DUP3 PUSH2 0x246C JUMP JUMPDEST PUSH2 0x24B1 DUP7 DUP4 PUSH2 0x246C JUMP JUMPDEST SWAP6 POP DUP1 NOT DUP5 AND SWAP4 POP DUP1 DUP7 AND DUP5 OR SWAP3 POP POP POP SWAP4 SWAP3 POP POP POP JUMP JUMPDEST PUSH0 DUP2 SWAP1 POP SWAP2 SWAP1 POP JUMP JUMPDEST PUSH0 PUSH2 0x24EC PUSH2 0x24E7 PUSH2 0x24E2 DUP5 PUSH2 0x1A84 JUMP JUMPDEST PUSH2 0x24C9 JUMP JUMPDEST PUSH2 0x1A84 JUMP JUMPDEST SWAP1 POP SWAP2 SWAP1 POP JUMP JUMPDEST PUSH0 DUP2 SWAP1 POP SWAP2 SWAP1 POP JUMP JUMPDEST PUSH2 0x2505 DUP4 PUSH2 0x24D2 JUMP JUMPDEST PUSH2 0x2519 PUSH2 0x2511 DUP3 PUSH2 0x24F3 JUMP JUMPDEST DUP5 DUP5 SLOAD PUSH2 0x2478 JUMP JUMPDEST DUP3 SSTORE POP POP POP POP JUMP JUMPDEST PUSH0 PUSH0 SWAP1 POP SWAP1 JUMP JUMPDEST PUSH2 0x2530 PUSH2 0x2521 JUMP JUMPDEST PUSH2 0x253B DUP2 DUP5 DUP5 PUSH2 0x24FC JUMP JUMPDEST POP POP POP JUMP JUMPDEST JUMPDEST DUP2 DUP2 LT ISZERO PUSH2 0x255E JUMPI PUSH2 0x2553 PUSH0 DUP3 PUSH2 0x2528 JUMP JUMPDEST PUSH1 0x1 DUP2 ADD SWAP1 POP PUSH2 0x2541 JUMP JUMPDEST POP POP JUMP JUMPDEST PUSH1 0x1F DUP3 GT ISZERO PUSH2 0x25A3 JUMPI PUSH2 0x2574 DUP2 PUSH2 0x244B JUMP JUMPDEST PUSH2 0x257D DUP5 PUSH2 0x245D JUMP JUMPDEST DUP2 ADD PUSH1 0x20 DUP6 LT ISZERO PUSH2 0x258C JUMPI DUP2 SWAP1 POP JUMPDEST PUSH2 0x25A0 PUSH2 0x2598 DUP6 PUSH2 0x245D JUMP JUMPDEST DUP4 ADD DUP3 PUSH2 0x2540 JUMP JUMPDEST POP POP JUMPDEST POP POP POP JUMP JUMPDEST PUSH0 DUP3 DUP3 SHR SWAP1 POP SWAP3 SWAP2 POP POP JUMP JUMPDEST PUSH0 PUSH2 0x25C3 PUSH0 NOT DUP5 PUSH1 0x8 MUL PUSH2 0x25A8 JUMP JUMPDEST NOT DUP1 DUP4 AND SWAP2 POP POP SWAP3 SWAP2 POP POP JUMP JUMPDEST PUSH0 PUSH2 0x25DB DUP4 DUP4 PUSH2 0x25B4 JUMP JUMPDEST SWAP2 POP DUP3 PUSH1 0x2 MUL DUP3 OR SWAP1 POP SWAP3 SWAP2 POP POP JUMP JUMPDEST PUSH2 0x25F5 DUP4 DUP4 PUSH2 0x23B7 JUMP JUMPDEST PUSH8 0xFFFFFFFFFFFFFFFF DUP2 GT ISZERO PUSH2 0x260E JUMPI PUSH2 0x260D PUSH2 0x23C1 JUMP JUMPDEST JUMPDEST PUSH2 0x2618 DUP3 SLOAD PUSH2 0x241B JUMP JUMPDEST PUSH2 0x2623 DUP3 DUP3 DUP6 PUSH2 0x2562 JUMP JUMPDEST PUSH0 PUSH1 0x1F DUP4 GT PUSH1 0x1 DUP2 EQ PUSH2 0x2650 JUMPI PUSH0 DUP5 ISZERO PUSH2 0x263E JUMPI DUP3 DUP8 ADD CALLDATALOAD SWAP1 POP JUMPDEST PUSH2 0x2648 DUP6 DUP3 PUSH2 0x25D0 JUMP JUMPDEST DUP7 SSTORE POP PUSH2 0x26AF JUMP JUMPDEST PUSH1 0x1F NOT DUP5 AND PUSH2 0x265E DUP7 PUSH2 0x244B JUMP JUMPDEST PUSH0 JUMPDEST DUP3 DUP2 LT ISZERO PUSH2 0x2685 JUMPI DUP5 DUP10 ADD CALLDATALOAD DUP3 SSTORE PUSH1 0x1 DUP3 ADD SWAP2 POP PUSH1 0x20 DUP6 ADD SWAP5 POP PUSH1 0x20 DUP2 ADD SWAP1 POP PUSH2 0x2660 JUMP JUMPDEST DUP7 DUP4 LT ISZERO PUSH2 0x26A2 JUMPI DUP5 DUP10 ADD CALLDATALOAD PUSH2 0x269E PUSH1 0x1F DUP10 AND DUP3 PUSH2 0x25B4 JUMP JUMPDEST DUP4 SSTORE POP JUMPDEST PUSH1 0x1 PUSH1 0x2 DUP9 MUL ADD DUP9 SSTORE POP POP POP JUMPDEST POP POP POP POP POP POP POP JUMP JUMPDEST PUSH0 PUSH2 0x26C2 DUP3 PUSH2 0x1A84 JUMP JUMPDEST SWAP2 POP PUSH2 0x26CD DUP4 PUSH2 0x1A84 JUMP JUMPDEST SWAP3 POP DUP3 DUP3 ADD SWAP1 POP DUP1 DUP3 GT ISZERO PUSH2 0x26E5 JUMPI PUSH2 0x26E4 PUSH2 0x210B JUMP JUMPDEST JUMPDEST SWAP3 SWAP2 POP POP JUMP JUMPDEST PUSH0 PUSH2 0x26F5 DUP3 PUSH2 0x1A84 JUMP JUMPDEST SWAP2 POP PUSH2 0x2700 DUP4 PUSH2 0x1A84 JUMP JUMPDEST SWAP3 POP DUP3 DUP3 MUL PUSH2 0x270E DUP2 PUSH2 0x1A84 JUMP JUMPDEST SWAP2 POP DUP3 DUP3 DIV DUP5 EQ DUP4 ISZERO OR PUSH2 0x2725 JUMPI PUSH2 0x2724 PUSH2 0x210B JUMP JUMPDEST JUMPDEST POP SWAP3 SWAP2 POP POP JUMP JUMPDEST DUP3 DUP2 DUP4 CALLDATACOPY PUSH0 DUP4 DUP4 ADD MSTORE POP POP POP JUMP JUMPDEST PUSH0 PUSH2 0x2745 DUP4 DUP6 PUSH2 0x1E69 JUMP JUMPDEST SWAP4 POP PUSH2 0x2752 DUP4 DUP6 DUP5 PUSH2 0x272C JUMP JUMPDEST PUSH2 0x275B DUP4 PUSH2 0x1E87 JUMP JUMPDEST DUP5 ADD SWAP1 POP SWAP4 SWAP3 POP POP POP JUMP JUMPDEST PUSH0 PUSH1 0x40 DUP3 ADD SWAP1 POP DUP2 DUP2 SUB PUSH0 DUP4 ADD MSTORE PUSH2 0x277F DUP2 DUP6 DUP8 PUSH2 0x273A JUMP JUMPDEST SWAP1 POP PUSH2 0x278E PUSH1 0x20 DUP4 ADD DUP5 PUSH2 0x1F33 JUMP JUMPDEST SWAP5 SWAP4 POP POP POP POP JUMP JUMPDEST PUSH32 0x526174696E67206D75737420626520312D350000000000000000000000000000 PUSH0 DUP3 ADD MSTORE POP JUMP JUMPDEST PUSH0 PUSH2 0x27CA PUSH1 0x12 DUP4 PUSH2 0x1E69 JUMP JUMPDEST SWAP2 POP PUSH2 0x27D5 DUP3 PUSH2 0x2796 JUMP JUMPDEST PUSH1 0x20 DUP3 ADD SWAP1 POP SWAP2 SWAP1 POP JUMP JUMPDEST PUSH0 PUSH1 0x20 DUP3 ADD SWAP1 POP DUP2 DUP2 SUB PUSH0 DUP4 ADD MSTORE PUSH2 0x27F7 DUP2 PUSH2 0x27BE JUMP JUMPDEST SWAP1 POP SWAP2 SWAP1 POP JUMP JUMPDEST PUSH0 PUSH2 0x2808 DUP3 PUSH2 0x1A84 JUMP JUMPDEST SWAP2 POP PUSH2 0x2813 DUP4 PUSH2 0x1A84 JUMP JUMPDEST SWAP3 POP DUP3 DUP3 SUB SWAP1 POP DUP2 DUP2 GT ISZERO PUSH2 0x282B JUMPI PUSH2 0x282A PUSH2 0x210B JUMP JUMPDEST JUMPDEST SWAP3 SWAP2 POP POP JUMP JUMPDEST PUSH32 0x436C6F7365642064756520746F206475726174696F6E20656E64000000000000 PUSH0 DUP3 ADD MSTORE POP JUMP JUMPDEST PUSH0 PUSH2 0x2865 PUSH1 0x1A DUP4 PUSH2 0x1E69 JUMP JUMPDEST SWAP2 POP PUSH2 0x2870 DUP3 PUSH2 0x2831 JUMP JUMPDEST PUSH1 0x20 DUP3 ADD SWAP1 POP SWAP2 SWAP1 POP JUMP JUMPDEST PUSH0 PUSH1 0x40 DUP3 ADD SWAP1 POP PUSH2 0x288E PUSH0 DUP4 ADD DUP5 PUSH2 0x1B4F JUMP JUMPDEST DUP2 DUP2 SUB PUSH1 0x20 DUP4 ADD MSTORE PUSH2 0x289F DUP2 PUSH2 0x2859 JUMP JUMPDEST SWAP1 POP SWAP3 SWAP2 POP POP JUMP JUMPDEST PUSH32 0x5374616C6C206973206E6F74206F70656E000000000000000000000000000000 PUSH0 DUP3 ADD MSTORE POP JUMP JUMPDEST PUSH0 PUSH2 0x28DB PUSH1 0x11 DUP4 PUSH2 0x1E69 JUMP JUMPDEST SWAP2 POP PUSH2 0x28E6 DUP3 PUSH2 0x28A7 JUMP JUMPDEST PUSH1 0x20 DUP3 ADD SWAP1 POP SWAP2 SWAP1 POP JUMP JUMPDEST PUSH0 PUSH1 0x20 DUP3 ADD SWAP1 POP DUP2 DUP2 SUB PUSH0 DUP4 ADD MSTORE PUSH2 0x2908 DUP2 PUSH2 0x28CF JUMP JUMPDEST SWAP1 POP SWAP2 SWAP1 POP JUMP JUMPDEST PUSH32 0x5061796D656E74206D757374206265203E203000000000000000000000000000 PUSH0 DUP3 ADD MSTORE POP JUMP JUMPDEST PUSH0 PUSH2 0x2943 PUSH1 0x13 DUP4 PUSH2 0x1E69 JUMP JUMPDEST SWAP2 POP PUSH2 0x294E DUP3 PUSH2 0x290F JUMP JUMPDEST PUSH1 0x20 DUP3 ADD SWAP1 POP SWAP2 SWAP1 POP JUMP JUMPDEST PUSH0 PUSH1 0x20 DUP3 ADD SWAP1 POP DUP2 DUP2 SUB PUSH0 DUP4 ADD MSTORE PUSH2 0x2970 DUP2 PUSH2 0x2937 JUMP JUMPDEST SWAP1 POP SWAP2 SWAP1 POP JUMP JUMPDEST PUSH32 0x5374616C6C206E6F74206F70656E000000000000000000000000000000000000 PUSH0 DUP3 ADD MSTORE POP JUMP JUMPDEST PUSH0 PUSH2 0x29AB PUSH1 0xE DUP4 PUSH2 0x1E69 JUMP JUMPDEST SWAP2 POP PUSH2 0x29B6 DUP3 PUSH2 0x2977 JUMP JUMPDEST PUSH1 0x20 DUP3 ADD SWAP1 POP SWAP2 SWAP1 POP JUMP JUMPDEST PUSH0 PUSH1 0x20 DUP3 ADD SWAP1 POP DUP2 DUP2 SUB PUSH0 DUP4 ADD MSTORE PUSH2 0x29D8 DUP2 PUSH2 0x299F JUMP JUMPDEST SWAP1 POP SWAP2 SWAP1 POP JUMP JUMPDEST PUSH32 0x436C6F736564206279206F776E65720000000000000000000000000000000000 PUSH0 DUP3 ADD MSTORE POP JUMP JUMPDEST PUSH0 PUSH2 0x2A13 PUSH1 0xF DUP4 PUSH2 0x1E69 JUMP JUMPDEST SWAP2 POP PUSH2 0x2A1E DUP3 PUSH2 0x29DF JUMP JUMPDEST PUSH1 0x20 DUP3 ADD SWAP1 POP SWAP2 SWAP1 POP JUMP JUMPDEST PUSH0 PUSH1 0x40 DUP3 ADD SWAP1 POP PUSH2 0x2A3C PUSH0 DUP4 ADD DUP5 PUSH2 0x1B4F JUMP JUMPDEST DUP2 DUP2 SUB PUSH1 0x20 DUP4 ADD MSTORE PUSH2 0x2A4D DUP2 PUSH2 0x2A07 JUMP JUMPDEST SWAP1 POP SWAP3 SWAP2 POP POP JUMP JUMPDEST PUSH32 0x4E6F7420656E6F75676820706169642062792075736572000000000000000000 PUSH0 DUP3 ADD MSTORE POP JUMP JUMPDEST PUSH0 PUSH2 0x2A89 PUSH1 0x17 DUP4 PUSH2 0x1E69 JUMP JUMPDEST SWAP2 POP PUSH2 0x2A94 DUP3 PUSH2 0x2A55 JUMP JUMPDEST PUSH1 0x20 DUP3 ADD SWAP1 POP SWAP2 SWAP1 POP JUMP JUMPDEST PUSH0 PUSH1 0x20 DUP3 ADD SWAP1 POP DUP2 DUP2 SUB PUSH0 DUP4 ADD MSTORE PUSH2 0x2AB6 DUP2 PUSH2 0x2A7D JUMP JUMPDEST SWAP1 POP SWAP2 SWAP1 POP JUMP JUMPDEST PUSH32 0x4E6F7420656E6F7567682066756E647320696E207374616C6C00000000000000 PUSH0 DUP3 ADD MSTORE POP JUMP JUMPDEST PUSH0 PUSH2 0x2AF1 PUSH1 0x19 DUP4 PUSH2 0x1E69 JUMP JUMPDEST SWAP2 POP PUSH2 0x2AFC DUP3 PUSH2 0x2ABD JUMP JUMPDEST PUSH1 0x20 DUP3 ADD SWAP1 POP SWAP2 SWAP1 POP JUMP JUMPDEST PUSH0 PUSH1 0x20 DUP3 ADD SWAP1 POP DUP2 DUP2 SUB PUSH0 DUP4 ADD MSTORE PUSH2 0x2B1E DUP2 PUSH2 0x2AE5 JUMP JUMPDEST SWAP1 POP SWAP2 SWAP1 POP JUMP INVALID LOG2 PUSH5 0x6970667358 0x22 SLT KECCAK256 DUP4 SWAP9 PUSH4 0x8DB29C98 SWAP10 RETURNDATACOPY PUSH26 0x106E6AAF1FEB68D9970E7A76F8D63DCE11C546B4DA3464736F6C PUSH4 0x4300081E STOP CALLER "
				},
				"gasEstimates": {
					"creation": {
						"codeDepositCost": "2219800",
						"executionCost": "2366",
						"totalCost": "2222166"
					},
					"external": {
						"carnivalStart()": "414",
						"closeStall(uint256)": "infinite",
						"getAverageRating(uint256)": "infinite",
						"getPayers(uint256)": "infinite",
						"getPayment(uint256,address)": "infinite",
						"getRating(uint256,address)": "3167",
						"getStall(uint256)": "infinite",
						"oneDay()": "370",
						"payStall(uint256)": "infinite",
						"rateStall(uint256,uint8)": "infinite",
						"refund(uint256,address,uint256)": "infinite",
						"registerStall(string,uint8)": "infinite",
						"stallCount()": "2490",
						"stallExists(uint256)": "2831",
						"stalls(uint256)": "infinite",
						"withdraw(uint256)": "infinite"
					}
				},
				"methodIdentifiers": {
					"carnivalStart()": "55fa37d7",
					"closeStall(uint256)": "9649bf90",
					"getAverageRating(uint256)": "17b7e03e",
					"getPayers(uint256)": "68209707",
					"getPayment(uint256,address)": "0e376dea",
					"getRating(uint256,address)": "64fbc7cf",
					"getStall(uint256)": "764af2a9",
					"oneDay()": "4bd9351b",
					"payStall(uint256)": "5c8ed0f7",
					"rateStall(uint256,uint8)": "4ea4066b",
					"refund(uint256,address,uint256)": "e796a6eb",
					"registerStall(string,uint8)": "43b80d39",
					"stallCount()": "99cb043a",
					"stallExists(uint256)": "154d2b76",
					"stalls(uint256)": "6d0f9408",
					"withdraw(uint256)": "2e1a7d4d"
				}
			},
			"storageLayout": {
				"storage": [
					{
						"astId": 48,
						"contract": "CCNProjectV4.sol:CCNCarnival2025",
						"label": "stallCount",
						"offset": 0,
						"slot": "0",
						"type": "t_uint256"
					},
					{
						"astId": 53,
						"contract": "CCNProjectV4.sol:CCNCarnival2025",
						"label": "stalls",
						"offset": 0,
						"slot": "1",
						"type": "t_mapping(t_uint256,t_struct(Stall)46_storage)"
					},
					{
						"astId": 57,
						"contract": "CCNProjectV4.sol:CCNCarnival2025",
						"label": "stallExists",
						"offset": 0,
						"slot": "2",
						"type": "t_mapping(t_uint256,t_bool)"
					}
				],
				"types": {
					"t_address": {
						"encoding": "inplace",
						"label": "address",
						"numberOfBytes": "20"
					},
					"t_array(t_address)dyn_storage": {
						"base": "t_address",
						"encoding": "dynamic_array",
						"label": "address[]",
						"numberOfBytes": "32"
					},
					"t_bool": {
						"encoding": "inplace",
						"label": "bool",
						"numberOfBytes": "1"
					},
					"t_enum(Duration)5": {
						"encoding": "inplace",
						"label": "enum CCNCarnival2025.Duration",
						"numberOfBytes": "1"
					},
					"t_enum(Status)14": {
						"encoding": "inplace",
						"label": "enum CCNCarnival2025.Status",
						"numberOfBytes": "1"
					},
					"t_mapping(t_address,t_uint256)": {
						"encoding": "mapping",
						"key": "t_address",
						"label": "mapping(address => uint256)",
						"numberOfBytes": "32",
						"value": "t_uint256"
					},
					"t_mapping(t_address,t_uint8)": {
						"encoding": "mapping",
						"key": "t_address",
						"label": "mapping(address => uint8)",
						"numberOfBytes": "32",
						"value": "t_uint8"
					},
					"t_mapping(t_uint256,t_bool)": {
						"encoding": "mapping",
						"key": "t_uint256",
						"label": "mapping(uint256 => bool)",
						"numberOfBytes": "32",
						"value": "t_bool"
					},
					"t_mapping(t_uint256,t_struct(Stall)46_storage)": {
						"encoding": "mapping",
						"key": "t_uint256",
						"label": "mapping(uint256 => struct CCNCarnival2025.Stall)",
						"numberOfBytes": "32",
						"value": "t_struct(Stall)46_storage"
					},
					"t_string_storage": {
						"encoding": "bytes",
						"label": "string",
						"numberOfBytes": "32"
					},
					"t_struct(Stall)46_storage": {
						"encoding": "inplace",
						"label": "struct CCNCarnival2025.Stall",
						"members": [
							{
								"astId": 16,
								"contract": "CCNProjectV4.sol:CCNCarnival2025",
								"label": "owner",
								"offset": 0,
								"slot": "0",
								"type": "t_address"
							},
							{
								"astId": 18,
								"contract": "CCNProjectV4.sol:CCNCarnival2025",
								"label": "name",
								"offset": 0,
								"slot": "1",
								"type": "t_string_storage"
							},
							{
								"astId": 21,
								"contract": "CCNProjectV4.sol:CCNCarnival2025",
								"label": "duration",
								"offset": 0,
								"slot": "2",
								"type": "t_enum(Duration)5"
							},
							{
								"astId": 23,
								"contract": "CCNProjectV4.sol:CCNCarnival2025",
								"label": "totalFunds",
								"offset": 0,
								"slot": "3",
								"type": "t_uint256"
							},
							{
								"astId": 25,
								"contract": "CCNProjectV4.sol:CCNCarnival2025",
								"label": "withdrawTime",
								"offset": 0,
								"slot": "4",
								"type": "t_uint256"
							},
							{
								"astId": 28,
								"contract": "CCNProjectV4.sol:CCNCarnival2025",
								"label": "status",
								"offset": 0,
								"slot": "5",
								"type": "t_enum(Status)14"
							},
							{
								"astId": 30,
								"contract": "CCNProjectV4.sol:CCNCarnival2025",
								"label": "withdrawn",
								"offset": 1,
								"slot": "5",
								"type": "t_bool"
							},
							{
								"astId": 34,
								"contract": "CCNProjectV4.sol:CCNCarnival2025",
								"label": "payments",
								"offset": 0,
								"slot": "6",
								"type": "t_mapping(t_address,t_uint256)"
							},
							{
								"astId": 37,
								"contract": "CCNProjectV4.sol:CCNCarnival2025",
								"label": "payers",
								"offset": 0,
								"slot": "7",
								"type": "t_array(t_address)dyn_storage"
							},
							{
								"astId": 41,
								"contract": "CCNProjectV4.sol:CCNCarnival2025",
								"label": "ratings",
								"offset": 0,
								"slot": "8",
								"type": "t_mapping(t_address,t_uint8)"
							},
							{
								"astId": 43,
								"contract": "CCNProjectV4.sol:CCNCarnival2025",
								"label": "ratingsSum",
								"offset": 0,
								"slot": "9",
								"type": "t_uint256"
							},
							{
								"astId": 45,
								"contract": "CCNProjectV4.sol:CCNCarnival2025",
								"label": "ratingsCount",
								"offset": 0,
								"slot": "10",
								"type": "t_uint256"
							}
						],
						"numberOfBytes": "352"
					},
					"t_uint256": {
						"encoding": "inplace",
						"label": "uint256",
						"numberOfBytes": "32"
					},
					"t_uint8": {
						"encoding": "inplace",
						"label": "uint8",
						"numberOfBytes": "1"
					}
				}
			},
			"userdoc": {
				"kind": "user",
				"methods": {},
				"version": 1
			}
		}
	}
}