{
	"CCNProject.sol": {
		"CCNCarnival": {
			"abi": [
				{
					"anonymous": false,
					"inputs": [
						{
							"indexed": true,
							"internalType": "uint256",
							"name": "stallId",
							"type": "uint256"
						},
						{
							"indexed": true,
							"internalType": "address",
							"name": "payer",
							"type": "address"
						},
						{
							"indexed": false,
							"internalType": "uint256",
							"name": "amount",
							"type": "uint256"
						}
					],
					"name": "PaymentReceived",
					"type": "event"
				},
				{
					"anonymous": false,
					"inputs": [
						{
							"indexed": true,
							"internalType": "uint256",
							"name": "stallId",
							"type": "uint256"
						},
						{
							"indexed": true,
							"internalType": "address",
							"name": "to",
							"type": "address"
						},
						{
							"indexed": false,
							"internalType": "uint256",
							"name": "amount",
							"type": "uint256"
						}
					],
					"name": "RefundIssued",
					"type": "event"
				},
				{
					"anonymous": false,
					"inputs": [
						{
							"indexed": true,
							"internalType": "uint256",
							"name": "stallId",
							"type": "uint256"
						},
						{
							"indexed": true,
							"internalType": "address",
							"name": "owner",
							"type": "address"
						},
						{
							"indexed": false,
							"internalType": "enum CCNCarnival.StallDuration",
							"name": "duration",
							"type": "uint8"
						}
					],
					"name": "StallRegistered",
					"type": "event"
				},
				{
					"anonymous": false,
					"inputs": [
						{
							"indexed": true,
							"internalType": "uint256",
							"name": "stallId",
							"type": "uint256"
						},
						{
							"indexed": true,
							"internalType": "address",
							"name": "owner",
							"type": "address"
						},
						{
							"indexed": false,
							"internalType": "uint256",
							"name": "amount",
							"type": "uint256"
						}
					],
					"name": "Withdrawal",
					"type": "event"
				},
				{
					"inputs": [
						{
							"internalType": "uint256",
							"name": "stallId",
							"type": "uint256"
						}
					],
					"name": "closeStall",
					"outputs": [],
					"stateMutability": "nonpayable",
					"type": "function"
				},
				{
					"inputs": [
						{
							"internalType": "address",
							"name": "owner",
							"type": "address"
						}
					],
					"name": "getOwnerStalls",
					"outputs": [
						{
							"internalType": "uint256[]",
							"name": "",
							"type": "uint256[]"
						}
					],
					"stateMutability": "view",
					"type": "function"
				},
				{
					"inputs": [
						{
							"internalType": "uint256",
							"name": "stallId",
							"type": "uint256"
						}
					],
					"name": "getStall",
					"outputs": [
						{
							"internalType": "address",
							"name": "owner",
							"type": "address"
						},
						{
							"internalType": "enum CCNCarnival.StallDuration",
							"name": "duration",
							"type": "uint8"
						},
						{
							"internalType": "enum CCNCarnival.StallStatus",
							"name": "status",
							"type": "uint8"
						},
						{
							"internalType": "uint256",
							"name": "balance",
							"type": "uint256"
						}
					],
					"stateMutability": "view",
					"type": "function"
				},
				{
					"inputs": [
						{
							"internalType": "uint256",
							"name": "stallId",
							"type": "uint256"
						},
						{
							"internalType": "address",
							"name": "user",
							"type": "address"
						}
					],
					"name": "getUserPayment",
					"outputs": [
						{
							"internalType": "uint256",
							"name": "",
							"type": "uint256"
						}
					],
					"stateMutability": "view",
					"type": "function"
				},
				{
					"inputs": [
						{
							"internalType": "address",
							"name": "",
							"type": "address"
						},
						{
							"internalType": "uint256",
							"name": "",
							"type": "uint256"
						}
					],
					"name": "ownerStalls",
					"outputs": [
						{
							"internalType": "uint256",
							"name": "",
							"type": "uint256"
						}
					],
					"stateMutability": "view",
					"type": "function"
				},
				{
					"inputs": [
						{
							"internalType": "uint256",
							"name": "stallId",
							"type": "uint256"
						}
					],
					"name": "payToStall",
					"outputs": [],
					"stateMutability": "payable",
					"type": "function"
				},
				{
					"inputs": [
						{
							"internalType": "uint256",
							"name": "stallId",
							"type": "uint256"
						},
						{
							"internalType": "address payable",
							"name": "to",
							"type": "address"
						},
						{
							"internalType": "uint256",
							"name": "amount",
							"type": "uint256"
						}
					],
					"name": "refund",
					"outputs": [],
					"stateMutability": "nonpayable",
					"type": "function"
				},
				{
					"inputs": [
						{
							"internalType": "enum CCNCarnival.StallDuration",
							"name": "duration",
							"type": "uint8"
						}
					],
					"name": "registerStall",
					"outputs": [
						{
							"internalType": "uint256",
							"name": "",
							"type": "uint256"
						}
					],
					"stateMutability": "nonpayable",
					"type": "function"
				},
				{
					"inputs": [],
					"name": "stallCount",
					"outputs": [
						{
							"internalType": "uint256",
							"name": "",
							"type": "uint256"
						}
					],
					"stateMutability": "view",
					"type": "function"
				},
				{
					"inputs": [
						{
							"internalType": "uint256",
							"name": "stallId",
							"type": "uint256"
						}
					],
					"name": "withdraw",
					"outputs": [],
					"stateMutability": "nonpayable",
					"type": "function"
				}
			],
			"devdoc": {
				"kind": "dev",
				"methods": {},
				"version": 1
			},
			"evm": {
				"assembly": "    /* \"CCNProject.sol\":61:4211  contract CCNCarnival {... */\n  mstore(0x40, 0x80)\n  callvalue\n  dup1\n  iszero\n  tag_1\n  jumpi\n  revert(0x00, 0x00)\ntag_1:\n  pop\n  dataSize(sub_0)\n  dup1\n  dataOffset(sub_0)\n  0x00\n  codecopy\n  0x00\n  return\nstop\n\nsub_0: assembly {\n        /* \"CCNProject.sol\":61:4211  contract CCNCarnival {... */\n      mstore(0x40, 0x80)\n      jumpi(tag_1, lt(calldatasize, 0x04))\n      shr(0xe0, calldataload(0x00))\n      dup1\n      0x9649bf90\n      gt\n      tag_12\n      jumpi\n      dup1\n      0x9649bf90\n      eq\n      tag_7\n      jumpi\n      dup1\n      0x99cb043a\n      eq\n      tag_8\n      jumpi\n      dup1\n      0xc364a170\n      eq\n      tag_9\n      jumpi\n      dup1\n      0xd8f4ee5b\n      eq\n      tag_10\n      jumpi\n      dup1\n      0xe796a6eb\n      eq\n      tag_11\n      jumpi\n      jump(tag_1)\n    tag_12:\n      dup1\n      0x1b18b9ba\n      eq\n      tag_2\n      jumpi\n      dup1\n      0x2e1a7d4d\n      eq\n      tag_3\n      jumpi\n      dup1\n      0x417b48da\n      eq\n      tag_4\n      jumpi\n      dup1\n      0x5f593a61\n      eq\n      tag_5\n      jumpi\n      dup1\n      0x764af2a9\n      eq\n      tag_6\n      jumpi\n    tag_1:\n      revert(0x00, 0x00)\n        /* \"CCNProject.sol\":3933:4076  function getUserPayment(uint256 stallId, address user) external view returns (uint256) {... */\n    tag_2:\n      callvalue\n      dup1\n      iszero\n      tag_13\n      jumpi\n      revert(0x00, 0x00)\n    tag_13:\n      pop\n      tag_14\n      0x04\n      dup1\n      calldatasize\n      sub\n      dup2\n      add\n      swap1\n      tag_15\n      swap2\n      swap1\n      tag_16\n      jump\t// in\n    tag_15:\n      tag_17\n      jump\t// in\n    tag_14:\n      mload(0x40)\n      tag_18\n      swap2\n      swap1\n      tag_19\n      jump\t// in\n    tag_18:\n      mload(0x40)\n      dup1\n      swap2\n      sub\n      swap1\n      return\n        /* \"CCNProject.sol\":3049:3605  function withdraw(uint256 stallId) external onlyStallOwner(stallId) {... */\n    tag_3:\n      callvalue\n      dup1\n      iszero\n      tag_20\n      jumpi\n      revert(0x00, 0x00)\n    tag_20:\n      pop\n      tag_21\n      0x04\n      dup1\n      calldatasize\n      sub\n      dup2\n      add\n      swap1\n      tag_22\n      swap2\n      swap1\n      tag_23\n      jump\t// in\n    tag_22:\n      tag_24\n      jump\t// in\n    tag_21:\n      stop\n        /* \"CCNProject.sol\":4084:4208  function getOwnerStalls(address owner) external view returns (uint256[] memory) {... */\n    tag_4:\n      callvalue\n      dup1\n      iszero\n      tag_25\n      jumpi\n      revert(0x00, 0x00)\n    tag_25:\n      pop\n      tag_26\n      0x04\n      dup1\n      calldatasize\n      sub\n      dup2\n      add\n      swap1\n      tag_27\n      swap2\n      swap1\n      tag_28\n      jump\t// in\n    tag_27:\n      tag_29\n      jump\t// in\n    tag_26:\n      mload(0x40)\n      tag_30\n      swap2\n      swap1\n      tag_31\n      jump\t// in\n    tag_30:\n      mload(0x40)\n      dup1\n      swap2\n      sub\n      swap1\n      return\n        /* \"CCNProject.sol\":1601:2061  function payToStall(uint256 stallId) external payable {... */\n    tag_5:\n      tag_32\n      0x04\n      dup1\n      calldatasize\n      sub\n      dup2\n      add\n      swap1\n      tag_33\n      swap2\n      swap1\n      tag_23\n      jump\t// in\n    tag_33:\n      tag_34\n      jump\t// in\n    tag_32:\n      stop\n        /* \"CCNProject.sol\":3636:3925  function getStall(uint256 stallId) external view returns (... */\n    tag_6:\n      callvalue\n      dup1\n      iszero\n      tag_35\n      jumpi\n      revert(0x00, 0x00)\n    tag_35:\n      pop\n      tag_36\n      0x04\n      dup1\n      calldatasize\n      sub\n      dup2\n      add\n      swap1\n      tag_37\n      swap2\n      swap1\n      tag_23\n      jump\t// in\n    tag_37:\n      tag_38\n      jump\t// in\n    tag_36:\n      mload(0x40)\n      tag_39\n      swap5\n      swap4\n      swap3\n      swap2\n      swap1\n      tag_40\n      jump\t// in\n    tag_39:\n      mload(0x40)\n      dup1\n      swap2\n      sub\n      swap1\n      return\n        /* \"CCNProject.sol\":2742:2979  function closeStall(uint256 stallId) external onlyStallOwner(stallId) {... */\n    tag_7:\n      callvalue\n      dup1\n      iszero\n      tag_41\n      jumpi\n      revert(0x00, 0x00)\n    tag_41:\n      pop\n      tag_42\n      0x04\n      dup1\n      calldatasize\n      sub\n      dup2\n      add\n      swap1\n      tag_43\n      swap2\n      swap1\n      tag_23\n      jump\t// in\n    tag_43:\n      tag_44\n      jump\t// in\n    tag_42:\n      stop\n        /* \"CCNProject.sol\":408:433  uint256 public stallCount */\n    tag_8:\n      callvalue\n      dup1\n      iszero\n      tag_45\n      jumpi\n      revert(0x00, 0x00)\n    tag_45:\n      pop\n      tag_46\n      tag_47\n      jump\t// in\n    tag_46:\n      mload(0x40)\n      tag_48\n      swap2\n      swap1\n      tag_19\n      jump\t// in\n    tag_48:\n      mload(0x40)\n      dup1\n      swap2\n      sub\n      swap1\n      return\n        /* \"CCNProject.sol\":487:535  mapping(address => uint256[]) public ownerStalls */\n    tag_9:\n      callvalue\n      dup1\n      iszero\n      tag_49\n      jumpi\n      revert(0x00, 0x00)\n    tag_49:\n      pop\n      tag_50\n      0x04\n      dup1\n      calldatasize\n      sub\n      dup2\n      add\n      swap1\n      tag_51\n      swap2\n      swap1\n      tag_52\n      jump\t// in\n    tag_51:\n      tag_53\n      jump\t// in\n    tag_50:\n      mload(0x40)\n      tag_54\n      swap2\n      swap1\n      tag_19\n      jump\t// in\n    tag_54:\n      mload(0x40)\n      dup1\n      swap2\n      sub\n      swap1\n      return\n        /* \"CCNProject.sol\":1111:1547  function registerStall(StallDuration duration) external returns (uint256) {... */\n    tag_10:\n      callvalue\n      dup1\n      iszero\n      tag_55\n      jumpi\n      revert(0x00, 0x00)\n    tag_55:\n      pop\n      tag_56\n      0x04\n      dup1\n      calldatasize\n      sub\n      dup2\n      add\n      swap1\n      tag_57\n      swap2\n      swap1\n      tag_58\n      jump\t// in\n    tag_57:\n      tag_59\n      jump\t// in\n    tag_56:\n      mload(0x40)\n      tag_60\n      swap2\n      swap1\n      tag_19\n      jump\t// in\n    tag_60:\n      mload(0x40)\n      dup1\n      swap2\n      sub\n      swap1\n      return\n        /* \"CCNProject.sol\":2122:2644  function refund(uint256 stallId, address payable to, uint256 amount) external onlyStallOwner(stallId) {... */\n    tag_11:\n      callvalue\n      dup1\n      iszero\n      tag_61\n      jumpi\n      revert(0x00, 0x00)\n    tag_61:\n      pop\n      tag_62\n      0x04\n      dup1\n      calldatasize\n      sub\n      dup2\n      add\n      swap1\n      tag_63\n      swap2\n      swap1\n      tag_64\n      jump\t// in\n    tag_63:\n      tag_65\n      jump\t// in\n    tag_62:\n      stop\n        /* \"CCNProject.sol\":3933:4076  function getUserPayment(uint256 stallId, address user) external view returns (uint256) {... */\n    tag_17:\n        /* \"CCNProject.sol\":4011:4018  uint256 */\n      0x00\n        /* \"CCNProject.sol\":4038:4044  stalls */\n      0x01\n        /* \"CCNProject.sol\":4038:4053  stalls[stallId] */\n      0x00\n        /* \"CCNProject.sol\":4045:4052  stallId */\n      dup5\n        /* \"CCNProject.sol\":4038:4053  stalls[stallId] */\n      dup2\n      mstore\n      0x20\n      add\n      swap1\n      dup2\n      mstore\n      0x20\n      add\n      0x00\n      keccak256\n        /* \"CCNProject.sol\":4038:4062  stalls[stallId].payments */\n      0x02\n      add\n        /* \"CCNProject.sol\":4038:4068  stalls[stallId].payments[user] */\n      0x00\n        /* \"CCNProject.sol\":4063:4067  user */\n      dup4\n        /* \"CCNProject.sol\":4038:4068  stalls[stallId].payments[user] */\n      0xffffffffffffffffffffffffffffffffffffffff\n      and\n      0xffffffffffffffffffffffffffffffffffffffff\n      and\n      dup2\n      mstore\n      0x20\n      add\n      swap1\n      dup2\n      mstore\n      0x20\n      add\n      0x00\n      keccak256\n      sload\n        /* \"CCNProject.sol\":4031:4068  return stalls[stallId].payments[user] */\n      swap1\n      pop\n        /* \"CCNProject.sol\":3933:4076  function getUserPayment(uint256 stallId, address user) external view returns (uint256) {... */\n      swap3\n      swap2\n      pop\n      pop\n      jump\t// out\n        /* \"CCNProject.sol\":3049:3605  function withdraw(uint256 stallId) external onlyStallOwner(stallId) {... */\n    tag_24:\n        /* \"CCNProject.sol\":3108:3115  stallId */\n      dup1\n        /* \"CCNProject.sol\":996:1006  msg.sender */\n      caller\n        /* \"CCNProject.sol\":971:1006  stalls[stallId].owner == msg.sender */\n      0xffffffffffffffffffffffffffffffffffffffff\n      and\n        /* \"CCNProject.sol\":971:977  stalls */\n      0x01\n        /* \"CCNProject.sol\":971:986  stalls[stallId] */\n      0x00\n        /* \"CCNProject.sol\":978:985  stallId */\n      dup4\n        /* \"CCNProject.sol\":971:986  stalls[stallId] */\n      dup2\n      mstore\n      0x20\n      add\n      swap1\n      dup2\n      mstore\n      0x20\n      add\n      0x00\n      keccak256\n        /* \"CCNProject.sol\":971:992  stalls[stallId].owner */\n      0x00\n      add\n      0x00\n      swap1\n      sload\n      swap1\n      0x0100\n      exp\n      swap1\n      div\n      0xffffffffffffffffffffffffffffffffffffffff\n      and\n        /* \"CCNProject.sol\":971:1006  stalls[stallId].owner == msg.sender */\n      0xffffffffffffffffffffffffffffffffffffffff\n      and\n      eq\n        /* \"CCNProject.sol\":963:1026  require(stalls[stallId].owner == msg.sender, \"Not stall owner\") */\n      tag_68\n      jumpi\n      mload(0x40)\n      0x08c379a000000000000000000000000000000000000000000000000000000000\n      dup2\n      mstore\n      0x04\n      add\n      tag_69\n      swap1\n      tag_70\n      jump\t// in\n    tag_69:\n      mload(0x40)\n      dup1\n      swap2\n      sub\n      swap1\n      revert\n    tag_68:\n        /* \"CCNProject.sol\":3162:3180  StallStatus.Closed */\n      0x01\n        /* \"CCNProject.sol\":3136:3180  stalls[stallId].status == StallStatus.Closed */\n      0x02\n      dup2\n      gt\n      iszero\n      tag_72\n      jumpi\n      tag_73\n      tag_74\n      jump\t// in\n    tag_73:\n    tag_72:\n        /* \"CCNProject.sol\":3136:3142  stalls */\n      0x01\n        /* \"CCNProject.sol\":3136:3151  stalls[stallId] */\n      0x00\n        /* \"CCNProject.sol\":3143:3150  stallId */\n      dup5\n        /* \"CCNProject.sol\":3136:3151  stalls[stallId] */\n      dup2\n      mstore\n      0x20\n      add\n      swap1\n      dup2\n      mstore\n      0x20\n      add\n      0x00\n      keccak256\n        /* \"CCNProject.sol\":3136:3158  stalls[stallId].status */\n      0x00\n      add\n      0x15\n      swap1\n      sload\n      swap1\n      0x0100\n      exp\n      swap1\n      div\n      0xff\n      and\n        /* \"CCNProject.sol\":3136:3180  stalls[stallId].status == StallStatus.Closed */\n      0x02\n      dup2\n      gt\n      iszero\n      tag_75\n      jumpi\n      tag_76\n      tag_74\n      jump\t// in\n    tag_76:\n    tag_75:\n      eq\n        /* \"CCNProject.sol\":3128:3205  require(stalls[stallId].status == StallStatus.Closed, \"Stall not closed yet\") */\n      tag_77\n      jumpi\n      mload(0x40)\n      0x08c379a000000000000000000000000000000000000000000000000000000000\n      dup2\n      mstore\n      0x04\n      add\n      tag_78\n      swap1\n      tag_79\n      jump\t// in\n    tag_78:\n      mload(0x40)\n      dup1\n      swap2\n      sub\n      swap1\n      revert\n    tag_77:\n        /* \"CCNProject.sol\":3250:3251  0 */\n      0x00\n        /* \"CCNProject.sol\":3224:3230  stalls */\n      0x01\n        /* \"CCNProject.sol\":3224:3239  stalls[stallId] */\n      0x00\n        /* \"CCNProject.sol\":3231:3238  stallId */\n      dup5\n        /* \"CCNProject.sol\":3224:3239  stalls[stallId] */\n      dup2\n      mstore\n      0x20\n      add\n      swap1\n      dup2\n      mstore\n      0x20\n      add\n      0x00\n      keccak256\n        /* \"CCNProject.sol\":3224:3247  stalls[stallId].balance */\n      0x01\n      add\n      sload\n        /* \"CCNProject.sol\":3224:3251  stalls[stallId].balance > 0 */\n      gt\n        /* \"CCNProject.sol\":3216:3275  require(stalls[stallId].balance > 0, \"Nothing to withdraw\") */\n      tag_80\n      jumpi\n      mload(0x40)\n      0x08c379a000000000000000000000000000000000000000000000000000000000\n      dup2\n      mstore\n      0x04\n      add\n      tag_81\n      swap1\n      tag_82\n      jump\t// in\n    tag_81:\n      mload(0x40)\n      dup1\n      swap2\n      sub\n      swap1\n      revert\n    tag_80:\n        /* \"CCNProject.sol\":3288:3302  uint256 amount */\n      0x00\n        /* \"CCNProject.sol\":3305:3311  stalls */\n      0x01\n        /* \"CCNProject.sol\":3305:3320  stalls[stallId] */\n      0x00\n        /* \"CCNProject.sol\":3312:3319  stallId */\n      dup5\n        /* \"CCNProject.sol\":3305:3320  stalls[stallId] */\n      dup2\n      mstore\n      0x20\n      add\n      swap1\n      dup2\n      mstore\n      0x20\n      add\n      0x00\n      keccak256\n        /* \"CCNProject.sol\":3305:3328  stalls[stallId].balance */\n      0x01\n      add\n      sload\n        /* \"CCNProject.sol\":3288:3328  uint256 amount = stalls[stallId].balance */\n      swap1\n      pop\n        /* \"CCNProject.sol\":3365:3366  0 */\n      0x00\n        /* \"CCNProject.sol\":3339:3345  stalls */\n      0x01\n        /* \"CCNProject.sol\":3339:3354  stalls[stallId] */\n      0x00\n        /* \"CCNProject.sol\":3346:3353  stallId */\n      dup6\n        /* \"CCNProject.sol\":3339:3354  stalls[stallId] */\n      dup2\n      mstore\n      0x20\n      add\n      swap1\n      dup2\n      mstore\n      0x20\n      add\n      0x00\n      keccak256\n        /* \"CCNProject.sol\":3339:3362  stalls[stallId].balance */\n      0x01\n      add\n        /* \"CCNProject.sol\":3339:3366  stalls[stallId].balance = 0 */\n      dup2\n      swap1\n      sstore\n      pop\n        /* \"CCNProject.sol\":3402:3423  StallStatus.Withdrawn */\n      0x02\n        /* \"CCNProject.sol\":3377:3383  stalls */\n      0x01\n        /* \"CCNProject.sol\":3377:3392  stalls[stallId] */\n      0x00\n        /* \"CCNProject.sol\":3384:3391  stallId */\n      dup6\n        /* \"CCNProject.sol\":3377:3392  stalls[stallId] */\n      dup2\n      mstore\n      0x20\n      add\n      swap1\n      dup2\n      mstore\n      0x20\n      add\n      0x00\n      keccak256\n        /* \"CCNProject.sol\":3377:3399  stalls[stallId].status */\n      0x00\n      add\n      0x15\n        /* \"CCNProject.sol\":3377:3423  stalls[stallId].status = StallStatus.Withdrawn */\n      0x0100\n      exp\n      dup2\n      sload\n      dup2\n      0xff\n      mul\n      not\n      and\n      swap1\n      dup4\n      0x02\n      dup2\n      gt\n      iszero\n      tag_83\n      jumpi\n      tag_84\n      tag_74\n      jump\t// in\n    tag_84:\n    tag_83:\n      mul\n      or\n      swap1\n      sstore\n      pop\n        /* \"CCNProject.sol\":3437:3446  bool sent */\n      0x00\n        /* \"CCNProject.sol\":3460:3470  msg.sender */\n      caller\n        /* \"CCNProject.sol\":3452:3476  payable(msg.sender).call */\n      0xffffffffffffffffffffffffffffffffffffffff\n      and\n        /* \"CCNProject.sol\":3484:3490  amount */\n      dup3\n        /* \"CCNProject.sol\":3452:3495  payable(msg.sender).call{value: amount}(\"\") */\n      mload(0x40)\n      tag_85\n      swap1\n      tag_86\n      jump\t// in\n    tag_85:\n      0x00\n      mload(0x40)\n      dup1\n      dup4\n      sub\n      dup2\n      dup6\n      dup8\n      gas\n      call\n      swap3\n      pop\n      pop\n      pop\n      returndatasize\n      dup1\n      0x00\n      dup2\n      eq\n      tag_89\n      jumpi\n      mload(0x40)\n      swap2\n      pop\n      and(add(returndatasize, 0x3f), not(0x1f))\n      dup3\n      add\n      0x40\n      mstore\n      returndatasize\n      dup3\n      mstore\n      returndatasize\n      0x00\n      0x20\n      dup5\n      add\n      returndatacopy\n      jump(tag_88)\n    tag_89:\n      0x60\n      swap2\n      pop\n    tag_88:\n      pop\n        /* \"CCNProject.sol\":3436:3495  (bool sent, ) = payable(msg.sender).call{value: amount}(\"\") */\n      pop\n      swap1\n      pop\n        /* \"CCNProject.sol\":3514:3518  sent */\n      dup1\n        /* \"CCNProject.sol\":3506:3540  require(sent, \"Withdrawal failed\") */\n      tag_90\n      jumpi\n      mload(0x40)\n      0x08c379a000000000000000000000000000000000000000000000000000000000\n      dup2\n      mstore\n      0x04\n      add\n      tag_91\n      swap1\n      tag_92\n      jump\t// in\n    tag_91:\n      mload(0x40)\n      dup1\n      swap2\n      sub\n      swap1\n      revert\n    tag_90:\n        /* \"CCNProject.sol\":3578:3588  msg.sender */\n      caller\n        /* \"CCNProject.sol\":3558:3597  Withdrawal(stallId, msg.sender, amount) */\n      0xffffffffffffffffffffffffffffffffffffffff\n      and\n        /* \"CCNProject.sol\":3569:3576  stallId */\n      dup5\n        /* \"CCNProject.sol\":3558:3597  Withdrawal(stallId, msg.sender, amount) */\n      0x37e8063b72a944a76de602f32b82fd8c2a1c6f99564c727ffaf913c7762cd420\n        /* \"CCNProject.sol\":3590:3596  amount */\n      dup5\n        /* \"CCNProject.sol\":3558:3597  Withdrawal(stallId, msg.sender, amount) */\n      mload(0x40)\n      tag_93\n      swap2\n      swap1\n      tag_19\n      jump\t// in\n    tag_93:\n      mload(0x40)\n      dup1\n      swap2\n      sub\n      swap1\n      log3\n        /* \"CCNProject.sol\":3117:3605  {... */\n      pop\n      pop\n        /* \"CCNProject.sol\":3049:3605  function withdraw(uint256 stallId) external onlyStallOwner(stallId) {... */\n      pop\n      pop\n      jump\t// out\n        /* \"CCNProject.sol\":4084:4208  function getOwnerStalls(address owner) external view returns (uint256[] memory) {... */\n    tag_29:\n        /* \"CCNProject.sol\":4146:4162  uint256[] memory */\n      0x60\n        /* \"CCNProject.sol\":4182:4193  ownerStalls */\n      0x02\n        /* \"CCNProject.sol\":4182:4200  ownerStalls[owner] */\n      0x00\n        /* \"CCNProject.sol\":4194:4199  owner */\n      dup4\n        /* \"CCNProject.sol\":4182:4200  ownerStalls[owner] */\n      0xffffffffffffffffffffffffffffffffffffffff\n      and\n      0xffffffffffffffffffffffffffffffffffffffff\n      and\n      dup2\n      mstore\n      0x20\n      add\n      swap1\n      dup2\n      mstore\n      0x20\n      add\n      0x00\n      keccak256\n        /* \"CCNProject.sol\":4175:4200  return ownerStalls[owner] */\n      dup1\n      sload\n      dup1\n      0x20\n      mul\n      0x20\n      add\n      mload(0x40)\n      swap1\n      dup2\n      add\n      0x40\n      mstore\n      dup1\n      swap3\n      swap2\n      swap1\n      dup2\n      dup2\n      mstore\n      0x20\n      add\n      dup3\n      dup1\n      sload\n      dup1\n      iszero\n      tag_95\n      jumpi\n      0x20\n      mul\n      dup3\n      add\n      swap2\n      swap1\n      0x00\n      mstore\n      keccak256(0x00, 0x20)\n      swap1\n    tag_96:\n      dup2\n      sload\n      dup2\n      mstore\n      0x20\n      add\n      swap1\n      0x01\n      add\n      swap1\n      dup1\n      dup4\n      gt\n      tag_96\n      jumpi\n    tag_95:\n      pop\n      pop\n      pop\n      pop\n      pop\n      swap1\n      pop\n        /* \"CCNProject.sol\":4084:4208  function getOwnerStalls(address owner) external view returns (uint256[] memory) {... */\n      swap2\n      swap1\n      pop\n      jump\t// out\n        /* \"CCNProject.sol\":1601:2061  function payToStall(uint256 stallId) external payable {... */\n    tag_34:\n        /* \"CCNProject.sol\":1707:1708  0 */\n      0x00\n        /* \"CCNProject.sol\":1674:1709  stalls[stallId].owner != address(0) */\n      0xffffffffffffffffffffffffffffffffffffffff\n      and\n        /* \"CCNProject.sol\":1674:1680  stalls */\n      0x01\n        /* \"CCNProject.sol\":1674:1689  stalls[stallId] */\n      0x00\n        /* \"CCNProject.sol\":1681:1688  stallId */\n      dup4\n        /* \"CCNProject.sol\":1674:1689  stalls[stallId] */\n      dup2\n      mstore\n      0x20\n      add\n      swap1\n      dup2\n      mstore\n      0x20\n      add\n      0x00\n      keccak256\n        /* \"CCNProject.sol\":1674:1695  stalls[stallId].owner */\n      0x00\n      add\n      0x00\n      swap1\n      sload\n      swap1\n      0x0100\n      exp\n      swap1\n      div\n      0xffffffffffffffffffffffffffffffffffffffff\n      and\n        /* \"CCNProject.sol\":1674:1709  stalls[stallId].owner != address(0) */\n      0xffffffffffffffffffffffffffffffffffffffff\n      and\n      sub\n        /* \"CCNProject.sol\":1666:1727  require(stalls[stallId].owner != address(0), \"Invalid stall\") */\n      tag_98\n      jumpi\n      mload(0x40)\n      0x08c379a000000000000000000000000000000000000000000000000000000000\n      dup2\n      mstore\n      0x04\n      add\n      tag_99\n      swap1\n      tag_100\n      jump\t// in\n    tag_99:\n      mload(0x40)\n      dup1\n      swap2\n      sub\n      swap1\n      revert\n    tag_98:\n        /* \"CCNProject.sol\":1772:1794  StallStatus.Registered */\n      0x00\n        /* \"CCNProject.sol\":1746:1794  stalls[stallId].status == StallStatus.Registered */\n      0x02\n      dup2\n      gt\n      iszero\n      tag_101\n      jumpi\n      tag_102\n      tag_74\n      jump\t// in\n    tag_102:\n    tag_101:\n        /* \"CCNProject.sol\":1746:1752  stalls */\n      0x01\n        /* \"CCNProject.sol\":1746:1761  stalls[stallId] */\n      0x00\n        /* \"CCNProject.sol\":1753:1760  stallId */\n      dup4\n        /* \"CCNProject.sol\":1746:1761  stalls[stallId] */\n      dup2\n      mstore\n      0x20\n      add\n      swap1\n      dup2\n      mstore\n      0x20\n      add\n      0x00\n      keccak256\n        /* \"CCNProject.sol\":1746:1768  stalls[stallId].status */\n      0x00\n      add\n      0x15\n      swap1\n      sload\n      swap1\n      0x0100\n      exp\n      swap1\n      div\n      0xff\n      and\n        /* \"CCNProject.sol\":1746:1794  stalls[stallId].status == StallStatus.Registered */\n      0x02\n      dup2\n      gt\n      iszero\n      tag_103\n      jumpi\n      tag_104\n      tag_74\n      jump\t// in\n    tag_104:\n    tag_103:\n      eq\n        /* \"CCNProject.sol\":1738:1827  require(stalls[stallId].status == StallStatus.Registered, \"Stall not accepting payments\") */\n      tag_105\n      jumpi\n      mload(0x40)\n      0x08c379a000000000000000000000000000000000000000000000000000000000\n      dup2\n      mstore\n      0x04\n      add\n      tag_106\n      swap1\n      tag_107\n      jump\t// in\n    tag_106:\n      mload(0x40)\n      dup1\n      swap2\n      sub\n      swap1\n      revert\n    tag_105:\n        /* \"CCNProject.sol\":1858:1859  0 */\n      0x00\n        /* \"CCNProject.sol\":1846:1855  msg.value */\n      callvalue\n        /* \"CCNProject.sol\":1846:1859  msg.value > 0 */\n      gt\n        /* \"CCNProject.sol\":1838:1879  require(msg.value > 0, \"No payment sent\") */\n      tag_108\n      jumpi\n      mload(0x40)\n      0x08c379a000000000000000000000000000000000000000000000000000000000\n      dup2\n      mstore\n      0x04\n      add\n      tag_109\n      swap1\n      tag_110\n      jump\t// in\n    tag_109:\n      mload(0x40)\n      dup1\n      swap2\n      sub\n      swap1\n      revert\n    tag_108:\n        /* \"CCNProject.sol\":1919:1928  msg.value */\n      callvalue\n        /* \"CCNProject.sol\":1892:1898  stalls */\n      0x01\n        /* \"CCNProject.sol\":1892:1907  stalls[stallId] */\n      0x00\n        /* \"CCNProject.sol\":1899:1906  stallId */\n      dup4\n        /* \"CCNProject.sol\":1892:1907  stalls[stallId] */\n      dup2\n      mstore\n      0x20\n      add\n      swap1\n      dup2\n      mstore\n      0x20\n      add\n      0x00\n      keccak256\n        /* \"CCNProject.sol\":1892:1915  stalls[stallId].balance */\n      0x01\n      add\n      0x00\n        /* \"CCNProject.sol\":1892:1928  stalls[stallId].balance += msg.value */\n      dup3\n      dup3\n      sload\n      tag_111\n      swap2\n      swap1\n      tag_112\n      jump\t// in\n    tag_111:\n      swap3\n      pop\n      pop\n      dup2\n      swap1\n      sstore\n      pop\n        /* \"CCNProject.sol\":1979:1988  msg.value */\n      callvalue\n        /* \"CCNProject.sol\":1939:1945  stalls */\n      0x01\n        /* \"CCNProject.sol\":1939:1954  stalls[stallId] */\n      0x00\n        /* \"CCNProject.sol\":1946:1953  stallId */\n      dup4\n        /* \"CCNProject.sol\":1939:1954  stalls[stallId] */\n      dup2\n      mstore\n      0x20\n      add\n      swap1\n      dup2\n      mstore\n      0x20\n      add\n      0x00\n      keccak256\n        /* \"CCNProject.sol\":1939:1963  stalls[stallId].payments */\n      0x02\n      add\n        /* \"CCNProject.sol\":1939:1975  stalls[stallId].payments[msg.sender] */\n      0x00\n        /* \"CCNProject.sol\":1964:1974  msg.sender */\n      caller\n        /* \"CCNProject.sol\":1939:1975  stalls[stallId].payments[msg.sender] */\n      0xffffffffffffffffffffffffffffffffffffffff\n      and\n      0xffffffffffffffffffffffffffffffffffffffff\n      and\n      dup2\n      mstore\n      0x20\n      add\n      swap1\n      dup2\n      mstore\n      0x20\n      add\n      0x00\n      keccak256\n      0x00\n        /* \"CCNProject.sol\":1939:1988  stalls[stallId].payments[msg.sender] += msg.value */\n      dup3\n      dup3\n      sload\n      tag_113\n      swap2\n      swap1\n      tag_112\n      jump\t// in\n    tag_113:\n      swap3\n      pop\n      pop\n      dup2\n      swap1\n      sstore\n      pop\n        /* \"CCNProject.sol\":2031:2041  msg.sender */\n      caller\n        /* \"CCNProject.sol\":2006:2053  PaymentReceived(stallId, msg.sender, msg.value) */\n      0xffffffffffffffffffffffffffffffffffffffff\n      and\n        /* \"CCNProject.sol\":2022:2029  stallId */\n      dup2\n        /* \"CCNProject.sol\":2006:2053  PaymentReceived(stallId, msg.sender, msg.value) */\n      0x4d3f6d68b42e1e039d6e7323b2b8bdeaf223f453882ce17a5984f4d6aabbdb33\n        /* \"CCNProject.sol\":2043:2052  msg.value */\n      callvalue\n        /* \"CCNProject.sol\":2006:2053  PaymentReceived(stallId, msg.sender, msg.value) */\n      mload(0x40)\n      tag_114\n      swap2\n      swap1\n      tag_19\n      jump\t// in\n    tag_114:\n      mload(0x40)\n      dup1\n      swap2\n      sub\n      swap1\n      log3\n        /* \"CCNProject.sol\":1601:2061  function payToStall(uint256 stallId) external payable {... */\n      pop\n      jump\t// out\n        /* \"CCNProject.sol\":3636:3925  function getStall(uint256 stallId) external view returns (... */\n    tag_38:\n        /* \"CCNProject.sol\":3704:3717  address owner */\n      0x00\n        /* \"CCNProject.sol\":3728:3750  StallDuration duration */\n      0x00\n        /* \"CCNProject.sol\":3761:3779  StallStatus status */\n      0x00\n        /* \"CCNProject.sol\":3790:3805  uint256 balance */\n      0x00\n        /* \"CCNProject.sol\":3824:3839  Stall storage s */\n      0x00\n        /* \"CCNProject.sol\":3842:3848  stalls */\n      0x01\n        /* \"CCNProject.sol\":3842:3857  stalls[stallId] */\n      0x00\n        /* \"CCNProject.sol\":3849:3856  stallId */\n      dup8\n        /* \"CCNProject.sol\":3842:3857  stalls[stallId] */\n      dup2\n      mstore\n      0x20\n      add\n      swap1\n      dup2\n      mstore\n      0x20\n      add\n      0x00\n      keccak256\n        /* \"CCNProject.sol\":3824:3857  Stall storage s = stalls[stallId] */\n      swap1\n      pop\n        /* \"CCNProject.sol\":3876:3877  s */\n      dup1\n        /* \"CCNProject.sol\":3876:3883  s.owner */\n      0x00\n      add\n      0x00\n      swap1\n      sload\n      swap1\n      0x0100\n      exp\n      swap1\n      div\n      0xffffffffffffffffffffffffffffffffffffffff\n      and\n        /* \"CCNProject.sol\":3885:3886  s */\n      dup2\n        /* \"CCNProject.sol\":3885:3895  s.duration */\n      0x00\n      add\n      0x14\n      swap1\n      sload\n      swap1\n      0x0100\n      exp\n      swap1\n      div\n      0xff\n      and\n        /* \"CCNProject.sol\":3897:3898  s */\n      dup3\n        /* \"CCNProject.sol\":3897:3905  s.status */\n      0x00\n      add\n      0x15\n      swap1\n      sload\n      swap1\n      0x0100\n      exp\n      swap1\n      div\n      0xff\n      and\n        /* \"CCNProject.sol\":3907:3908  s */\n      dup4\n        /* \"CCNProject.sol\":3907:3916  s.balance */\n      0x01\n      add\n      sload\n        /* \"CCNProject.sol\":3868:3917  return (s.owner, s.duration, s.status, s.balance) */\n      swap5\n      pop\n      swap5\n      pop\n      swap5\n      pop\n      swap5\n      pop\n      pop\n        /* \"CCNProject.sol\":3636:3925  function getStall(uint256 stallId) external view returns (... */\n      swap2\n      swap4\n      pop\n      swap2\n      swap4\n      jump\t// out\n        /* \"CCNProject.sol\":2742:2979  function closeStall(uint256 stallId) external onlyStallOwner(stallId) {... */\n    tag_44:\n        /* \"CCNProject.sol\":2803:2810  stallId */\n      dup1\n        /* \"CCNProject.sol\":996:1006  msg.sender */\n      caller\n        /* \"CCNProject.sol\":971:1006  stalls[stallId].owner == msg.sender */\n      0xffffffffffffffffffffffffffffffffffffffff\n      and\n        /* \"CCNProject.sol\":971:977  stalls */\n      0x01\n        /* \"CCNProject.sol\":971:986  stalls[stallId] */\n      0x00\n        /* \"CCNProject.sol\":978:985  stallId */\n      dup4\n        /* \"CCNProject.sol\":971:986  stalls[stallId] */\n      dup2\n      mstore\n      0x20\n      add\n      swap1\n      dup2\n      mstore\n      0x20\n      add\n      0x00\n      keccak256\n        /* \"CCNProject.sol\":971:992  stalls[stallId].owner */\n      0x00\n      add\n      0x00\n      swap1\n      sload\n      swap1\n      0x0100\n      exp\n      swap1\n      div\n      0xffffffffffffffffffffffffffffffffffffffff\n      and\n        /* \"CCNProject.sol\":971:1006  stalls[stallId].owner == msg.sender */\n      0xffffffffffffffffffffffffffffffffffffffff\n      and\n      eq\n        /* \"CCNProject.sol\":963:1026  require(stalls[stallId].owner == msg.sender, \"Not stall owner\") */\n      tag_117\n      jumpi\n      mload(0x40)\n      0x08c379a000000000000000000000000000000000000000000000000000000000\n      dup2\n      mstore\n      0x04\n      add\n      tag_118\n      swap1\n      tag_70\n      jump\t// in\n    tag_118:\n      mload(0x40)\n      dup1\n      swap2\n      sub\n      swap1\n      revert\n    tag_117:\n        /* \"CCNProject.sol\":2857:2879  StallStatus.Registered */\n      0x00\n        /* \"CCNProject.sol\":2831:2879  stalls[stallId].status == StallStatus.Registered */\n      0x02\n      dup2\n      gt\n      iszero\n      tag_120\n      jumpi\n      tag_121\n      tag_74\n      jump\t// in\n    tag_121:\n    tag_120:\n        /* \"CCNProject.sol\":2831:2837  stalls */\n      0x01\n        /* \"CCNProject.sol\":2831:2846  stalls[stallId] */\n      0x00\n        /* \"CCNProject.sol\":2838:2845  stallId */\n      dup5\n        /* \"CCNProject.sol\":2831:2846  stalls[stallId] */\n      dup2\n      mstore\n      0x20\n      add\n      swap1\n      dup2\n      mstore\n      0x20\n      add\n      0x00\n      keccak256\n        /* \"CCNProject.sol\":2831:2853  stalls[stallId].status */\n      0x00\n      add\n      0x15\n      swap1\n      sload\n      swap1\n      0x0100\n      exp\n      swap1\n      div\n      0xff\n      and\n        /* \"CCNProject.sol\":2831:2879  stalls[stallId].status == StallStatus.Registered */\n      0x02\n      dup2\n      gt\n      iszero\n      tag_122\n      jumpi\n      tag_123\n      tag_74\n      jump\t// in\n    tag_123:\n    tag_122:\n      eq\n        /* \"CCNProject.sol\":2823:2917  require(stalls[stallId].status == StallStatus.Registered, \"Stall already closed or withdrawn\") */\n      tag_124\n      jumpi\n      mload(0x40)\n      0x08c379a000000000000000000000000000000000000000000000000000000000\n      dup2\n      mstore\n      0x04\n      add\n      tag_125\n      swap1\n      tag_126\n      jump\t// in\n    tag_125:\n      mload(0x40)\n      dup1\n      swap2\n      sub\n      swap1\n      revert\n    tag_124:\n        /* \"CCNProject.sol\":2953:2971  StallStatus.Closed */\n      0x01\n        /* \"CCNProject.sol\":2928:2934  stalls */\n      dup1\n        /* \"CCNProject.sol\":2928:2943  stalls[stallId] */\n      0x00\n        /* \"CCNProject.sol\":2935:2942  stallId */\n      dup5\n        /* \"CCNProject.sol\":2928:2943  stalls[stallId] */\n      dup2\n      mstore\n      0x20\n      add\n      swap1\n      dup2\n      mstore\n      0x20\n      add\n      0x00\n      keccak256\n        /* \"CCNProject.sol\":2928:2950  stalls[stallId].status */\n      0x00\n      add\n      0x15\n        /* \"CCNProject.sol\":2928:2971  stalls[stallId].status = StallStatus.Closed */\n      0x0100\n      exp\n      dup2\n      sload\n      dup2\n      0xff\n      mul\n      not\n      and\n      swap1\n      dup4\n      0x02\n      dup2\n      gt\n      iszero\n      tag_127\n      jumpi\n      tag_128\n      tag_74\n      jump\t// in\n    tag_128:\n    tag_127:\n      mul\n      or\n      swap1\n      sstore\n      pop\n        /* \"CCNProject.sol\":2742:2979  function closeStall(uint256 stallId) external onlyStallOwner(stallId) {... */\n      pop\n      pop\n      jump\t// out\n        /* \"CCNProject.sol\":408:433  uint256 public stallCount */\n    tag_47:\n      sload(0x00)\n      dup2\n      jump\t// out\n        /* \"CCNProject.sol\":487:535  mapping(address => uint256[]) public ownerStalls */\n    tag_53:\n      mstore(0x20, 0x02)\n      dup2\n      0x00\n      mstore\n      keccak256(0x00, 0x40)\n      dup2\n      dup2\n      sload\n      dup2\n      lt\n      tag_129\n      jumpi\n      0x00\n      dup1\n      revert\n    tag_129:\n      swap1\n      0x00\n      mstore\n      keccak256(0x00, 0x20)\n      add\n      0x00\n      swap2\n      pop\n      swap2\n      pop\n      pop\n      sload\n      dup2\n      jump\t// out\n        /* \"CCNProject.sol\":1111:1547  function registerStall(StallDuration duration) external returns (uint256) {... */\n    tag_59:\n        /* \"CCNProject.sol\":1176:1183  uint256 */\n      0x00\n        /* \"CCNProject.sol\":1196:1206  stallCount */\n      0x00\n      0x00\n        /* \"CCNProject.sol\":1196:1208  stallCount++ */\n      dup2\n      sload\n      dup1\n      swap3\n      swap2\n      swap1\n      tag_132\n      swap1\n      tag_133\n      jump\t// in\n    tag_132:\n      swap2\n      swap1\n      pop\n      sstore\n      pop\n        /* \"CCNProject.sol\":1219:1234  uint256 stallId */\n      0x00\n        /* \"CCNProject.sol\":1237:1247  stallCount */\n      sload(0x00)\n        /* \"CCNProject.sol\":1219:1247  uint256 stallId = stallCount */\n      swap1\n      pop\n        /* \"CCNProject.sol\":1260:1275  Stall storage s */\n      0x00\n        /* \"CCNProject.sol\":1278:1284  stalls */\n      0x01\n        /* \"CCNProject.sol\":1278:1293  stalls[stallId] */\n      0x00\n        /* \"CCNProject.sol\":1285:1292  stallId */\n      dup4\n        /* \"CCNProject.sol\":1278:1293  stalls[stallId] */\n      dup2\n      mstore\n      0x20\n      add\n      swap1\n      dup2\n      mstore\n      0x20\n      add\n      0x00\n      keccak256\n        /* \"CCNProject.sol\":1260:1293  Stall storage s = stalls[stallId] */\n      swap1\n      pop\n        /* \"CCNProject.sol\":1314:1324  msg.sender */\n      caller\n        /* \"CCNProject.sol\":1304:1305  s */\n      dup2\n        /* \"CCNProject.sol\":1304:1311  s.owner */\n      0x00\n      add\n      0x00\n        /* \"CCNProject.sol\":1304:1324  s.owner = msg.sender */\n      0x0100\n      exp\n      dup2\n      sload\n      dup2\n      0xffffffffffffffffffffffffffffffffffffffff\n      mul\n      not\n      and\n      swap1\n      dup4\n      0xffffffffffffffffffffffffffffffffffffffff\n      and\n      mul\n      or\n      swap1\n      sstore\n      pop\n        /* \"CCNProject.sol\":1348:1356  duration */\n      dup4\n        /* \"CCNProject.sol\":1335:1336  s */\n      dup2\n        /* \"CCNProject.sol\":1335:1345  s.duration */\n      0x00\n      add\n      0x14\n        /* \"CCNProject.sol\":1335:1356  s.duration = duration */\n      0x0100\n      exp\n      dup2\n      sload\n      dup2\n      0xff\n      mul\n      not\n      and\n      swap1\n      dup4\n      0x02\n      dup2\n      gt\n      iszero\n      tag_134\n      jumpi\n      tag_135\n      tag_74\n      jump\t// in\n    tag_135:\n    tag_134:\n      mul\n      or\n      swap1\n      sstore\n      pop\n        /* \"CCNProject.sol\":1378:1400  StallStatus.Registered */\n      0x00\n        /* \"CCNProject.sol\":1367:1368  s */\n      dup2\n        /* \"CCNProject.sol\":1367:1375  s.status */\n      0x00\n      add\n      0x15\n        /* \"CCNProject.sol\":1367:1400  s.status = StallStatus.Registered */\n      0x0100\n      exp\n      dup2\n      sload\n      dup2\n      0xff\n      mul\n      not\n      and\n      swap1\n      dup4\n      0x02\n      dup2\n      gt\n      iszero\n      tag_136\n      jumpi\n      tag_137\n      tag_74\n      jump\t// in\n    tag_137:\n    tag_136:\n      mul\n      or\n      swap1\n      sstore\n      pop\n        /* \"CCNProject.sol\":1413:1424  ownerStalls */\n      0x02\n        /* \"CCNProject.sol\":1413:1436  ownerStalls[msg.sender] */\n      0x00\n        /* \"CCNProject.sol\":1425:1435  msg.sender */\n      caller\n        /* \"CCNProject.sol\":1413:1436  ownerStalls[msg.sender] */\n      0xffffffffffffffffffffffffffffffffffffffff\n      and\n      0xffffffffffffffffffffffffffffffffffffffff\n      and\n      dup2\n      mstore\n      0x20\n      add\n      swap1\n      dup2\n      mstore\n      0x20\n      add\n      0x00\n      keccak256\n        /* \"CCNProject.sol\":1442:1449  stallId */\n      dup3\n        /* \"CCNProject.sol\":1413:1450  ownerStalls[msg.sender].push(stallId) */\n      swap1\n      dup1\n      0x01\n      dup2\n      sload\n      add\n      dup1\n      dup3\n      sstore\n      dup1\n      swap2\n      pop\n      pop\n      0x01\n      swap1\n      sub\n      swap1\n      0x00\n      mstore\n      keccak256(0x00, 0x20)\n      add\n      0x00\n      swap1\n      swap2\n      swap1\n      swap2\n      swap1\n      swap2\n      pop\n      sstore\n        /* \"CCNProject.sol\":1493:1503  msg.sender */\n      caller\n        /* \"CCNProject.sol\":1468:1514  StallRegistered(stallId, msg.sender, duration) */\n      0xffffffffffffffffffffffffffffffffffffffff\n      and\n        /* \"CCNProject.sol\":1484:1491  stallId */\n      dup3\n        /* \"CCNProject.sol\":1468:1514  StallRegistered(stallId, msg.sender, duration) */\n      0xc4afec621b00a8476c4eaa76d731dbaf984e16bd432f57543ac5e43615da1a98\n        /* \"CCNProject.sol\":1505:1513  duration */\n      dup7\n        /* \"CCNProject.sol\":1468:1514  StallRegistered(stallId, msg.sender, duration) */\n      mload(0x40)\n      tag_139\n      swap2\n      swap1\n      tag_140\n      jump\t// in\n    tag_139:\n      mload(0x40)\n      dup1\n      swap2\n      sub\n      swap1\n      log3\n        /* \"CCNProject.sol\":1532:1539  stallId */\n      dup2\n        /* \"CCNProject.sol\":1525:1539  return stallId */\n      swap3\n      pop\n      pop\n      pop\n        /* \"CCNProject.sol\":1111:1547  function registerStall(StallDuration duration) external returns (uint256) {... */\n      swap2\n      swap1\n      pop\n      jump\t// out\n        /* \"CCNProject.sol\":2122:2644  function refund(uint256 stallId, address payable to, uint256 amount) external onlyStallOwner(stallId) {... */\n    tag_65:\n        /* \"CCNProject.sol\":2215:2222  stallId */\n      dup3\n        /* \"CCNProject.sol\":996:1006  msg.sender */\n      caller\n        /* \"CCNProject.sol\":971:1006  stalls[stallId].owner == msg.sender */\n      0xffffffffffffffffffffffffffffffffffffffff\n      and\n        /* \"CCNProject.sol\":971:977  stalls */\n      0x01\n        /* \"CCNProject.sol\":971:986  stalls[stallId] */\n      0x00\n        /* \"CCNProject.sol\":978:985  stallId */\n      dup4\n        /* \"CCNProject.sol\":971:986  stalls[stallId] */\n      dup2\n      mstore\n      0x20\n      add\n      swap1\n      dup2\n      mstore\n      0x20\n      add\n      0x00\n      keccak256\n        /* \"CCNProject.sol\":971:992  stalls[stallId].owner */\n      0x00\n      add\n      0x00\n      swap1\n      sload\n      swap1\n      0x0100\n      exp\n      swap1\n      div\n      0xffffffffffffffffffffffffffffffffffffffff\n      and\n        /* \"CCNProject.sol\":971:1006  stalls[stallId].owner == msg.sender */\n      0xffffffffffffffffffffffffffffffffffffffff\n      and\n      eq\n        /* \"CCNProject.sol\":963:1026  require(stalls[stallId].owner == msg.sender, \"Not stall owner\") */\n      tag_142\n      jumpi\n      mload(0x40)\n      0x08c379a000000000000000000000000000000000000000000000000000000000\n      dup2\n      mstore\n      0x04\n      add\n      tag_143\n      swap1\n      tag_70\n      jump\t// in\n    tag_143:\n      mload(0x40)\n      dup1\n      swap2\n      sub\n      swap1\n      revert\n    tag_142:\n        /* \"CCNProject.sol\":2275:2281  amount */\n      dup2\n        /* \"CCNProject.sol\":2243:2249  stalls */\n      0x01\n        /* \"CCNProject.sol\":2243:2258  stalls[stallId] */\n      0x00\n        /* \"CCNProject.sol\":2250:2257  stallId */\n      dup7\n        /* \"CCNProject.sol\":2243:2258  stalls[stallId] */\n      dup2\n      mstore\n      0x20\n      add\n      swap1\n      dup2\n      mstore\n      0x20\n      add\n      0x00\n      keccak256\n        /* \"CCNProject.sol\":2243:2267  stalls[stallId].payments */\n      0x02\n      add\n        /* \"CCNProject.sol\":2243:2271  stalls[stallId].payments[to] */\n      0x00\n        /* \"CCNProject.sol\":2268:2270  to */\n      dup6\n        /* \"CCNProject.sol\":2243:2271  stalls[stallId].payments[to] */\n      0xffffffffffffffffffffffffffffffffffffffff\n      and\n      0xffffffffffffffffffffffffffffffffffffffff\n      and\n      dup2\n      mstore\n      0x20\n      add\n      swap1\n      dup2\n      mstore\n      0x20\n      add\n      0x00\n      keccak256\n      sload\n        /* \"CCNProject.sol\":2243:2281  stalls[stallId].payments[to] >= amount */\n      lt\n      iszero\n        /* \"CCNProject.sol\":2235:2308  require(stalls[stallId].payments[to] >= amount, \"Refund exceeds payment\") */\n      tag_145\n      jumpi\n      mload(0x40)\n      0x08c379a000000000000000000000000000000000000000000000000000000000\n      dup2\n      mstore\n      0x04\n      add\n      tag_146\n      swap1\n      tag_147\n      jump\t// in\n    tag_146:\n      mload(0x40)\n      dup1\n      swap2\n      sub\n      swap1\n      revert\n    tag_145:\n        /* \"CCNProject.sol\":2354:2360  amount */\n      dup2\n        /* \"CCNProject.sol\":2327:2333  stalls */\n      0x01\n        /* \"CCNProject.sol\":2327:2342  stalls[stallId] */\n      0x00\n        /* \"CCNProject.sol\":2334:2341  stallId */\n      dup7\n        /* \"CCNProject.sol\":2327:2342  stalls[stallId] */\n      dup2\n      mstore\n      0x20\n      add\n      swap1\n      dup2\n      mstore\n      0x20\n      add\n      0x00\n      keccak256\n        /* \"CCNProject.sol\":2327:2350  stalls[stallId].balance */\n      0x01\n      add\n      sload\n        /* \"CCNProject.sol\":2327:2360  stalls[stallId].balance >= amount */\n      lt\n      iszero\n        /* \"CCNProject.sol\":2319:2394  require(stalls[stallId].balance >= amount, \"Insufficient balance in stall\") */\n      tag_148\n      jumpi\n      mload(0x40)\n      0x08c379a000000000000000000000000000000000000000000000000000000000\n      dup2\n      mstore\n      0x04\n      add\n      tag_149\n      swap1\n      tag_150\n      jump\t// in\n    tag_149:\n      mload(0x40)\n      dup1\n      swap2\n      sub\n      swap1\n      revert\n    tag_148:\n        /* \"CCNProject.sol\":2439:2445  amount */\n      dup2\n        /* \"CCNProject.sol\":2407:2413  stalls */\n      0x01\n        /* \"CCNProject.sol\":2407:2422  stalls[stallId] */\n      0x00\n        /* \"CCNProject.sol\":2414:2421  stallId */\n      dup7\n        /* \"CCNProject.sol\":2407:2422  stalls[stallId] */\n      dup2\n      mstore\n      0x20\n      add\n      swap1\n      dup2\n      mstore\n      0x20\n      add\n      0x00\n      keccak256\n        /* \"CCNProject.sol\":2407:2431  stalls[stallId].payments */\n      0x02\n      add\n        /* \"CCNProject.sol\":2407:2435  stalls[stallId].payments[to] */\n      0x00\n        /* \"CCNProject.sol\":2432:2434  to */\n      dup6\n        /* \"CCNProject.sol\":2407:2435  stalls[stallId].payments[to] */\n      0xffffffffffffffffffffffffffffffffffffffff\n      and\n      0xffffffffffffffffffffffffffffffffffffffff\n      and\n      dup2\n      mstore\n      0x20\n      add\n      swap1\n      dup2\n      mstore\n      0x20\n      add\n      0x00\n      keccak256\n      0x00\n        /* \"CCNProject.sol\":2407:2445  stalls[stallId].payments[to] -= amount */\n      dup3\n      dup3\n      sload\n      tag_151\n      swap2\n      swap1\n      tag_152\n      jump\t// in\n    tag_151:\n      swap3\n      pop\n      pop\n      dup2\n      swap1\n      sstore\n      pop\n        /* \"CCNProject.sol\":2483:2489  amount */\n      dup2\n        /* \"CCNProject.sol\":2456:2462  stalls */\n      0x01\n        /* \"CCNProject.sol\":2456:2471  stalls[stallId] */\n      0x00\n        /* \"CCNProject.sol\":2463:2470  stallId */\n      dup7\n        /* \"CCNProject.sol\":2456:2471  stalls[stallId] */\n      dup2\n      mstore\n      0x20\n      add\n      swap1\n      dup2\n      mstore\n      0x20\n      add\n      0x00\n      keccak256\n        /* \"CCNProject.sol\":2456:2479  stalls[stallId].balance */\n      0x01\n      add\n      0x00\n        /* \"CCNProject.sol\":2456:2489  stalls[stallId].balance -= amount */\n      dup3\n      dup3\n      sload\n      tag_153\n      swap2\n      swap1\n      tag_152\n      jump\t// in\n    tag_153:\n      swap3\n      pop\n      pop\n      dup2\n      swap1\n      sstore\n      pop\n        /* \"CCNProject.sol\":2503:2512  bool sent */\n      0x00\n        /* \"CCNProject.sol\":2518:2520  to */\n      dup4\n        /* \"CCNProject.sol\":2518:2525  to.call */\n      0xffffffffffffffffffffffffffffffffffffffff\n      and\n        /* \"CCNProject.sol\":2533:2539  amount */\n      dup4\n        /* \"CCNProject.sol\":2518:2544  to.call{value: amount}(\"\") */\n      mload(0x40)\n      tag_154\n      swap1\n      tag_86\n      jump\t// in\n    tag_154:\n      0x00\n      mload(0x40)\n      dup1\n      dup4\n      sub\n      dup2\n      dup6\n      dup8\n      gas\n      call\n      swap3\n      pop\n      pop\n      pop\n      returndatasize\n      dup1\n      0x00\n      dup2\n      eq\n      tag_157\n      jumpi\n      mload(0x40)\n      swap2\n      pop\n      and(add(returndatasize, 0x3f), not(0x1f))\n      dup3\n      add\n      0x40\n      mstore\n      returndatasize\n      dup3\n      mstore\n      returndatasize\n      0x00\n      0x20\n      dup5\n      add\n      returndatacopy\n      jump(tag_156)\n    tag_157:\n      0x60\n      swap2\n      pop\n    tag_156:\n      pop\n        /* \"CCNProject.sol\":2502:2544  (bool sent, ) = to.call{value: amount}(\"\") */\n      pop\n      swap1\n      pop\n        /* \"CCNProject.sol\":2563:2567  sent */\n      dup1\n        /* \"CCNProject.sol\":2555:2585  require(sent, \"Refund failed\") */\n      tag_158\n      jumpi\n      mload(0x40)\n      0x08c379a000000000000000000000000000000000000000000000000000000000\n      dup2\n      mstore\n      0x04\n      add\n      tag_159\n      swap1\n      tag_160\n      jump\t// in\n    tag_159:\n      mload(0x40)\n      dup1\n      swap2\n      sub\n      swap1\n      revert\n    tag_158:\n        /* \"CCNProject.sol\":2625:2627  to */\n      dup4\n        /* \"CCNProject.sol\":2603:2636  RefundIssued(stallId, to, amount) */\n      0xffffffffffffffffffffffffffffffffffffffff\n      and\n        /* \"CCNProject.sol\":2616:2623  stallId */\n      dup6\n        /* \"CCNProject.sol\":2603:2636  RefundIssued(stallId, to, amount) */\n      0x7a482fdeb6bc9a1376f597068a214a7a39472bb2eff1b8cad21ba04f49ddca1b\n        /* \"CCNProject.sol\":2629:2635  amount */\n      dup6\n        /* \"CCNProject.sol\":2603:2636  RefundIssued(stallId, to, amount) */\n      mload(0x40)\n      tag_161\n      swap2\n      swap1\n      tag_19\n      jump\t// in\n    tag_161:\n      mload(0x40)\n      dup1\n      swap2\n      sub\n      swap1\n      log3\n        /* \"CCNProject.sol\":2224:2644  {... */\n      pop\n        /* \"CCNProject.sol\":2122:2644  function refund(uint256 stallId, address payable to, uint256 amount) external onlyStallOwner(stallId) {... */\n      pop\n      pop\n      pop\n      pop\n      jump\t// out\n        /* \"#utility.yul\":88:205   */\n    tag_163:\n        /* \"#utility.yul\":197:198   */\n      0x00\n        /* \"#utility.yul\":194:195   */\n      0x00\n        /* \"#utility.yul\":187:199   */\n      revert\n        /* \"#utility.yul\":334:411   */\n    tag_165:\n        /* \"#utility.yul\":371:378   */\n      0x00\n        /* \"#utility.yul\":400:405   */\n      dup2\n        /* \"#utility.yul\":389:405   */\n      swap1\n      pop\n        /* \"#utility.yul\":334:411   */\n      swap2\n      swap1\n      pop\n      jump\t// out\n        /* \"#utility.yul\":417:539   */\n    tag_166:\n        /* \"#utility.yul\":490:514   */\n      tag_227\n        /* \"#utility.yul\":508:513   */\n      dup2\n        /* \"#utility.yul\":490:514   */\n      tag_165\n      jump\t// in\n    tag_227:\n        /* \"#utility.yul\":483:488   */\n      dup2\n        /* \"#utility.yul\":480:515   */\n      eq\n        /* \"#utility.yul\":470:533   */\n      tag_228\n      jumpi\n        /* \"#utility.yul\":529:530   */\n      0x00\n        /* \"#utility.yul\":526:527   */\n      0x00\n        /* \"#utility.yul\":519:531   */\n      revert\n        /* \"#utility.yul\":470:533   */\n    tag_228:\n        /* \"#utility.yul\":417:539   */\n      pop\n      jump\t// out\n        /* \"#utility.yul\":545:684   */\n    tag_167:\n        /* \"#utility.yul\":591:596   */\n      0x00\n        /* \"#utility.yul\":629:635   */\n      dup2\n        /* \"#utility.yul\":616:636   */\n      calldataload\n        /* \"#utility.yul\":607:636   */\n      swap1\n      pop\n        /* \"#utility.yul\":645:678   */\n      tag_230\n        /* \"#utility.yul\":672:677   */\n      dup2\n        /* \"#utility.yul\":645:678   */\n      tag_166\n      jump\t// in\n    tag_230:\n        /* \"#utility.yul\":545:684   */\n      swap3\n      swap2\n      pop\n      pop\n      jump\t// out\n        /* \"#utility.yul\":690:816   */\n    tag_168:\n        /* \"#utility.yul\":727:734   */\n      0x00\n        /* \"#utility.yul\":767:809   */\n      0xffffffffffffffffffffffffffffffffffffffff\n        /* \"#utility.yul\":760:765   */\n      dup3\n        /* \"#utility.yul\":756:810   */\n      and\n        /* \"#utility.yul\":745:810   */\n      swap1\n      pop\n        /* \"#utility.yul\":690:816   */\n      swap2\n      swap1\n      pop\n      jump\t// out\n        /* \"#utility.yul\":822:918   */\n    tag_169:\n        /* \"#utility.yul\":859:866   */\n      0x00\n        /* \"#utility.yul\":888:912   */\n      tag_233\n        /* \"#utility.yul\":906:911   */\n      dup3\n        /* \"#utility.yul\":888:912   */\n      tag_168\n      jump\t// in\n    tag_233:\n        /* \"#utility.yul\":877:912   */\n      swap1\n      pop\n        /* \"#utility.yul\":822:918   */\n      swap2\n      swap1\n      pop\n      jump\t// out\n        /* \"#utility.yul\":924:1046   */\n    tag_170:\n        /* \"#utility.yul\":997:1021   */\n      tag_235\n        /* \"#utility.yul\":1015:1020   */\n      dup2\n        /* \"#utility.yul\":997:1021   */\n      tag_169\n      jump\t// in\n    tag_235:\n        /* \"#utility.yul\":990:995   */\n      dup2\n        /* \"#utility.yul\":987:1022   */\n      eq\n        /* \"#utility.yul\":977:1040   */\n      tag_236\n      jumpi\n        /* \"#utility.yul\":1036:1037   */\n      0x00\n        /* \"#utility.yul\":1033:1034   */\n      0x00\n        /* \"#utility.yul\":1026:1038   */\n      revert\n        /* \"#utility.yul\":977:1040   */\n    tag_236:\n        /* \"#utility.yul\":924:1046   */\n      pop\n      jump\t// out\n        /* \"#utility.yul\":1052:1191   */\n    tag_171:\n        /* \"#utility.yul\":1098:1103   */\n      0x00\n        /* \"#utility.yul\":1136:1142   */\n      dup2\n        /* \"#utility.yul\":1123:1143   */\n      calldataload\n        /* \"#utility.yul\":1114:1143   */\n      swap1\n      pop\n        /* \"#utility.yul\":1152:1185   */\n      tag_238\n        /* \"#utility.yul\":1179:1184   */\n      dup2\n        /* \"#utility.yul\":1152:1185   */\n      tag_170\n      jump\t// in\n    tag_238:\n        /* \"#utility.yul\":1052:1191   */\n      swap3\n      swap2\n      pop\n      pop\n      jump\t// out\n        /* \"#utility.yul\":1197:1671   */\n    tag_16:\n        /* \"#utility.yul\":1265:1271   */\n      0x00\n        /* \"#utility.yul\":1273:1279   */\n      0x00\n        /* \"#utility.yul\":1322:1324   */\n      0x40\n        /* \"#utility.yul\":1310:1319   */\n      dup4\n        /* \"#utility.yul\":1301:1308   */\n      dup6\n        /* \"#utility.yul\":1297:1320   */\n      sub\n        /* \"#utility.yul\":1293:1325   */\n      slt\n        /* \"#utility.yul\":1290:1409   */\n      iszero\n      tag_240\n      jumpi\n        /* \"#utility.yul\":1328:1407   */\n      tag_241\n      tag_163\n      jump\t// in\n    tag_241:\n        /* \"#utility.yul\":1290:1409   */\n    tag_240:\n        /* \"#utility.yul\":1448:1449   */\n      0x00\n        /* \"#utility.yul\":1473:1526   */\n      tag_242\n        /* \"#utility.yul\":1518:1525   */\n      dup6\n        /* \"#utility.yul\":1509:1515   */\n      dup3\n        /* \"#utility.yul\":1498:1507   */\n      dup7\n        /* \"#utility.yul\":1494:1516   */\n      add\n        /* \"#utility.yul\":1473:1526   */\n      tag_167\n      jump\t// in\n    tag_242:\n        /* \"#utility.yul\":1463:1526   */\n      swap3\n      pop\n        /* \"#utility.yul\":1419:1536   */\n      pop\n        /* \"#utility.yul\":1575:1577   */\n      0x20\n        /* \"#utility.yul\":1601:1654   */\n      tag_243\n        /* \"#utility.yul\":1646:1653   */\n      dup6\n        /* \"#utility.yul\":1637:1643   */\n      dup3\n        /* \"#utility.yul\":1626:1635   */\n      dup7\n        /* \"#utility.yul\":1622:1644   */\n      add\n        /* \"#utility.yul\":1601:1654   */\n      tag_171\n      jump\t// in\n    tag_243:\n        /* \"#utility.yul\":1591:1654   */\n      swap2\n      pop\n        /* \"#utility.yul\":1546:1664   */\n      pop\n        /* \"#utility.yul\":1197:1671   */\n      swap3\n      pop\n      swap3\n      swap1\n      pop\n      jump\t// out\n        /* \"#utility.yul\":1677:1795   */\n    tag_172:\n        /* \"#utility.yul\":1764:1788   */\n      tag_245\n        /* \"#utility.yul\":1782:1787   */\n      dup2\n        /* \"#utility.yul\":1764:1788   */\n      tag_165\n      jump\t// in\n    tag_245:\n        /* \"#utility.yul\":1759:1762   */\n      dup3\n        /* \"#utility.yul\":1752:1789   */\n      mstore\n        /* \"#utility.yul\":1677:1795   */\n      pop\n      pop\n      jump\t// out\n        /* \"#utility.yul\":1801:2023   */\n    tag_19:\n        /* \"#utility.yul\":1894:1898   */\n      0x00\n        /* \"#utility.yul\":1932:1934   */\n      0x20\n        /* \"#utility.yul\":1921:1930   */\n      dup3\n        /* \"#utility.yul\":1917:1935   */\n      add\n        /* \"#utility.yul\":1909:1935   */\n      swap1\n      pop\n        /* \"#utility.yul\":1945:2016   */\n      tag_247\n        /* \"#utility.yul\":2013:2014   */\n      0x00\n        /* \"#utility.yul\":2002:2011   */\n      dup4\n        /* \"#utility.yul\":1998:2015   */\n      add\n        /* \"#utility.yul\":1989:1995   */\n      dup5\n        /* \"#utility.yul\":1945:2016   */\n      tag_172\n      jump\t// in\n    tag_247:\n        /* \"#utility.yul\":1801:2023   */\n      swap3\n      swap2\n      pop\n      pop\n      jump\t// out\n        /* \"#utility.yul\":2029:2358   */\n    tag_23:\n        /* \"#utility.yul\":2088:2094   */\n      0x00\n        /* \"#utility.yul\":2137:2139   */\n      0x20\n        /* \"#utility.yul\":2125:2134   */\n      dup3\n        /* \"#utility.yul\":2116:2123   */\n      dup5\n        /* \"#utility.yul\":2112:2135   */\n      sub\n        /* \"#utility.yul\":2108:2140   */\n      slt\n        /* \"#utility.yul\":2105:2224   */\n      iszero\n      tag_249\n      jumpi\n        /* \"#utility.yul\":2143:2222   */\n      tag_250\n      tag_163\n      jump\t// in\n    tag_250:\n        /* \"#utility.yul\":2105:2224   */\n    tag_249:\n        /* \"#utility.yul\":2263:2264   */\n      0x00\n        /* \"#utility.yul\":2288:2341   */\n      tag_251\n        /* \"#utility.yul\":2333:2340   */\n      dup5\n        /* \"#utility.yul\":2324:2330   */\n      dup3\n        /* \"#utility.yul\":2313:2322   */\n      dup6\n        /* \"#utility.yul\":2309:2331   */\n      add\n        /* \"#utility.yul\":2288:2341   */\n      tag_167\n      jump\t// in\n    tag_251:\n        /* \"#utility.yul\":2278:2341   */\n      swap2\n      pop\n        /* \"#utility.yul\":2234:2351   */\n      pop\n        /* \"#utility.yul\":2029:2358   */\n      swap3\n      swap2\n      pop\n      pop\n      jump\t// out\n        /* \"#utility.yul\":2364:2693   */\n    tag_28:\n        /* \"#utility.yul\":2423:2429   */\n      0x00\n        /* \"#utility.yul\":2472:2474   */\n      0x20\n        /* \"#utility.yul\":2460:2469   */\n      dup3\n        /* \"#utility.yul\":2451:2458   */\n      dup5\n        /* \"#utility.yul\":2447:2470   */\n      sub\n        /* \"#utility.yul\":2443:2475   */\n      slt\n        /* \"#utility.yul\":2440:2559   */\n      iszero\n      tag_253\n      jumpi\n        /* \"#utility.yul\":2478:2557   */\n      tag_254\n      tag_163\n      jump\t// in\n    tag_254:\n        /* \"#utility.yul\":2440:2559   */\n    tag_253:\n        /* \"#utility.yul\":2598:2599   */\n      0x00\n        /* \"#utility.yul\":2623:2676   */\n      tag_255\n        /* \"#utility.yul\":2668:2675   */\n      dup5\n        /* \"#utility.yul\":2659:2665   */\n      dup3\n        /* \"#utility.yul\":2648:2657   */\n      dup6\n        /* \"#utility.yul\":2644:2666   */\n      add\n        /* \"#utility.yul\":2623:2676   */\n      tag_171\n      jump\t// in\n    tag_255:\n        /* \"#utility.yul\":2613:2676   */\n      swap2\n      pop\n        /* \"#utility.yul\":2569:2686   */\n      pop\n        /* \"#utility.yul\":2364:2693   */\n      swap3\n      swap2\n      pop\n      pop\n      jump\t// out\n        /* \"#utility.yul\":2699:2813   */\n    tag_173:\n        /* \"#utility.yul\":2766:2772   */\n      0x00\n        /* \"#utility.yul\":2800:2805   */\n      dup2\n        /* \"#utility.yul\":2794:2806   */\n      mload\n        /* \"#utility.yul\":2784:2806   */\n      swap1\n      pop\n        /* \"#utility.yul\":2699:2813   */\n      swap2\n      swap1\n      pop\n      jump\t// out\n        /* \"#utility.yul\":2819:3003   */\n    tag_174:\n        /* \"#utility.yul\":2918:2929   */\n      0x00\n        /* \"#utility.yul\":2952:2958   */\n      dup3\n        /* \"#utility.yul\":2947:2950   */\n      dup3\n        /* \"#utility.yul\":2940:2959   */\n      mstore\n        /* \"#utility.yul\":2992:2996   */\n      0x20\n        /* \"#utility.yul\":2987:2990   */\n      dup3\n        /* \"#utility.yul\":2983:2997   */\n      add\n        /* \"#utility.yul\":2968:2997   */\n      swap1\n      pop\n        /* \"#utility.yul\":2819:3003   */\n      swap3\n      swap2\n      pop\n      pop\n      jump\t// out\n        /* \"#utility.yul\":3009:3141   */\n    tag_175:\n        /* \"#utility.yul\":3076:3080   */\n      0x00\n        /* \"#utility.yul\":3099:3102   */\n      dup2\n        /* \"#utility.yul\":3091:3102   */\n      swap1\n      pop\n        /* \"#utility.yul\":3129:3133   */\n      0x20\n        /* \"#utility.yul\":3124:3127   */\n      dup3\n        /* \"#utility.yul\":3120:3134   */\n      add\n        /* \"#utility.yul\":3112:3134   */\n      swap1\n      pop\n        /* \"#utility.yul\":3009:3141   */\n      swap2\n      swap1\n      pop\n      jump\t// out\n        /* \"#utility.yul\":3147:3255   */\n    tag_176:\n        /* \"#utility.yul\":3224:3248   */\n      tag_260\n        /* \"#utility.yul\":3242:3247   */\n      dup2\n        /* \"#utility.yul\":3224:3248   */\n      tag_165\n      jump\t// in\n    tag_260:\n        /* \"#utility.yul\":3219:3222   */\n      dup3\n        /* \"#utility.yul\":3212:3249   */\n      mstore\n        /* \"#utility.yul\":3147:3255   */\n      pop\n      pop\n      jump\t// out\n        /* \"#utility.yul\":3261:3440   */\n    tag_177:\n        /* \"#utility.yul\":3330:3340   */\n      0x00\n        /* \"#utility.yul\":3351:3397   */\n      tag_262\n        /* \"#utility.yul\":3393:3396   */\n      dup4\n        /* \"#utility.yul\":3385:3391   */\n      dup4\n        /* \"#utility.yul\":3351:3397   */\n      tag_176\n      jump\t// in\n    tag_262:\n        /* \"#utility.yul\":3429:3433   */\n      0x20\n        /* \"#utility.yul\":3424:3427   */\n      dup4\n        /* \"#utility.yul\":3420:3434   */\n      add\n        /* \"#utility.yul\":3406:3434   */\n      swap1\n      pop\n        /* \"#utility.yul\":3261:3440   */\n      swap3\n      swap2\n      pop\n      pop\n      jump\t// out\n        /* \"#utility.yul\":3446:3559   */\n    tag_178:\n        /* \"#utility.yul\":3516:3520   */\n      0x00\n        /* \"#utility.yul\":3548:3552   */\n      0x20\n        /* \"#utility.yul\":3543:3546   */\n      dup3\n        /* \"#utility.yul\":3539:3553   */\n      add\n        /* \"#utility.yul\":3531:3553   */\n      swap1\n      pop\n        /* \"#utility.yul\":3446:3559   */\n      swap2\n      swap1\n      pop\n      jump\t// out\n        /* \"#utility.yul\":3595:4327   */\n    tag_179:\n        /* \"#utility.yul\":3714:3717   */\n      0x00\n        /* \"#utility.yul\":3743:3797   */\n      tag_265\n        /* \"#utility.yul\":3791:3796   */\n      dup3\n        /* \"#utility.yul\":3743:3797   */\n      tag_173\n      jump\t// in\n    tag_265:\n        /* \"#utility.yul\":3813:3899   */\n      tag_266\n        /* \"#utility.yul\":3892:3898   */\n      dup2\n        /* \"#utility.yul\":3887:3890   */\n      dup6\n        /* \"#utility.yul\":3813:3899   */\n      tag_174\n      jump\t// in\n    tag_266:\n        /* \"#utility.yul\":3806:3899   */\n      swap4\n      pop\n        /* \"#utility.yul\":3923:3979   */\n      tag_267\n        /* \"#utility.yul\":3973:3978   */\n      dup4\n        /* \"#utility.yul\":3923:3979   */\n      tag_175\n      jump\t// in\n    tag_267:\n        /* \"#utility.yul\":4002:4009   */\n      dup1\n        /* \"#utility.yul\":4033:4034   */\n      0x00\n        /* \"#utility.yul\":4018:4302   */\n    tag_268:\n        /* \"#utility.yul\":4043:4049   */\n      dup4\n        /* \"#utility.yul\":4040:4041   */\n      dup2\n        /* \"#utility.yul\":4037:4050   */\n      lt\n        /* \"#utility.yul\":4018:4302   */\n      iszero\n      tag_270\n      jumpi\n        /* \"#utility.yul\":4119:4125   */\n      dup2\n        /* \"#utility.yul\":4113:4126   */\n      mload\n        /* \"#utility.yul\":4146:4209   */\n      tag_271\n        /* \"#utility.yul\":4205:4208   */\n      dup9\n        /* \"#utility.yul\":4190:4203   */\n      dup3\n        /* \"#utility.yul\":4146:4209   */\n      tag_177\n      jump\t// in\n    tag_271:\n        /* \"#utility.yul\":4139:4209   */\n      swap8\n      pop\n        /* \"#utility.yul\":4232:4292   */\n      tag_272\n        /* \"#utility.yul\":4285:4291   */\n      dup4\n        /* \"#utility.yul\":4232:4292   */\n      tag_178\n      jump\t// in\n    tag_272:\n        /* \"#utility.yul\":4222:4292   */\n      swap3\n      pop\n        /* \"#utility.yul\":4078:4302   */\n      pop\n        /* \"#utility.yul\":4065:4066   */\n      0x01\n        /* \"#utility.yul\":4062:4063   */\n      dup2\n        /* \"#utility.yul\":4058:4067   */\n      add\n        /* \"#utility.yul\":4053:4067   */\n      swap1\n      pop\n        /* \"#utility.yul\":4018:4302   */\n      jump(tag_268)\n    tag_270:\n        /* \"#utility.yul\":4022:4036   */\n      pop\n        /* \"#utility.yul\":4318:4321   */\n      dup6\n        /* \"#utility.yul\":4311:4321   */\n      swap4\n      pop\n        /* \"#utility.yul\":3719:4327   */\n      pop\n      pop\n      pop\n        /* \"#utility.yul\":3595:4327   */\n      swap3\n      swap2\n      pop\n      pop\n      jump\t// out\n        /* \"#utility.yul\":4333:4706   */\n    tag_31:\n        /* \"#utility.yul\":4476:4480   */\n      0x00\n        /* \"#utility.yul\":4514:4516   */\n      0x20\n        /* \"#utility.yul\":4503:4512   */\n      dup3\n        /* \"#utility.yul\":4499:4517   */\n      add\n        /* \"#utility.yul\":4491:4517   */\n      swap1\n      pop\n        /* \"#utility.yul\":4563:4572   */\n      dup2\n        /* \"#utility.yul\":4557:4561   */\n      dup2\n        /* \"#utility.yul\":4553:4573   */\n      sub\n        /* \"#utility.yul\":4549:4550   */\n      0x00\n        /* \"#utility.yul\":4538:4547   */\n      dup4\n        /* \"#utility.yul\":4534:4551   */\n      add\n        /* \"#utility.yul\":4527:4574   */\n      mstore\n        /* \"#utility.yul\":4591:4699   */\n      tag_274\n        /* \"#utility.yul\":4694:4698   */\n      dup2\n        /* \"#utility.yul\":4685:4691   */\n      dup5\n        /* \"#utility.yul\":4591:4699   */\n      tag_179\n      jump\t// in\n    tag_274:\n        /* \"#utility.yul\":4583:4699   */\n      swap1\n      pop\n        /* \"#utility.yul\":4333:4706   */\n      swap3\n      swap2\n      pop\n      pop\n      jump\t// out\n        /* \"#utility.yul\":4712:4830   */\n    tag_180:\n        /* \"#utility.yul\":4799:4823   */\n      tag_276\n        /* \"#utility.yul\":4817:4822   */\n      dup2\n        /* \"#utility.yul\":4799:4823   */\n      tag_169\n      jump\t// in\n    tag_276:\n        /* \"#utility.yul\":4794:4797   */\n      dup3\n        /* \"#utility.yul\":4787:4824   */\n      mstore\n        /* \"#utility.yul\":4712:4830   */\n      pop\n      pop\n      jump\t// out\n        /* \"#utility.yul\":4836:5016   */\n    tag_74:\n        /* \"#utility.yul\":4884:4961   */\n      0x4e487b7100000000000000000000000000000000000000000000000000000000\n        /* \"#utility.yul\":4881:4882   */\n      0x00\n        /* \"#utility.yul\":4874:4962   */\n      mstore\n        /* \"#utility.yul\":4981:4985   */\n      0x21\n        /* \"#utility.yul\":4978:4979   */\n      0x04\n        /* \"#utility.yul\":4971:4986   */\n      mstore\n        /* \"#utility.yul\":5005:5009   */\n      0x24\n        /* \"#utility.yul\":5002:5003   */\n      0x00\n        /* \"#utility.yul\":4995:5010   */\n      revert\n        /* \"#utility.yul\":5022:5142   */\n    tag_181:\n        /* \"#utility.yul\":5110:5111   */\n      0x03\n        /* \"#utility.yul\":5103:5108   */\n      dup2\n        /* \"#utility.yul\":5100:5112   */\n      lt\n        /* \"#utility.yul\":5090:5136   */\n      tag_279\n      jumpi\n        /* \"#utility.yul\":5116:5134   */\n      tag_280\n      tag_74\n      jump\t// in\n    tag_280:\n        /* \"#utility.yul\":5090:5136   */\n    tag_279:\n        /* \"#utility.yul\":5022:5142   */\n      pop\n      jump\t// out\n        /* \"#utility.yul\":5148:5289   */\n    tag_182:\n        /* \"#utility.yul\":5200:5207   */\n      0x00\n        /* \"#utility.yul\":5229:5234   */\n      dup2\n        /* \"#utility.yul\":5218:5234   */\n      swap1\n      pop\n        /* \"#utility.yul\":5235:5283   */\n      tag_282\n        /* \"#utility.yul\":5277:5282   */\n      dup3\n        /* \"#utility.yul\":5235:5283   */\n      tag_181\n      jump\t// in\n    tag_282:\n        /* \"#utility.yul\":5148:5289   */\n      swap2\n      swap1\n      pop\n      jump\t// out\n        /* \"#utility.yul\":5295:5436   */\n    tag_183:\n        /* \"#utility.yul\":5358:5367   */\n      0x00\n        /* \"#utility.yul\":5391:5430   */\n      tag_284\n        /* \"#utility.yul\":5424:5429   */\n      dup3\n        /* \"#utility.yul\":5391:5430   */\n      tag_182\n      jump\t// in\n    tag_284:\n        /* \"#utility.yul\":5378:5430   */\n      swap1\n      pop\n        /* \"#utility.yul\":5295:5436   */\n      swap2\n      swap1\n      pop\n      jump\t// out\n        /* \"#utility.yul\":5442:5599   */\n    tag_184:\n        /* \"#utility.yul\":5542:5592   */\n      tag_286\n        /* \"#utility.yul\":5586:5591   */\n      dup2\n        /* \"#utility.yul\":5542:5592   */\n      tag_183\n      jump\t// in\n    tag_286:\n        /* \"#utility.yul\":5537:5540   */\n      dup3\n        /* \"#utility.yul\":5530:5593   */\n      mstore\n        /* \"#utility.yul\":5442:5599   */\n      pop\n      pop\n      jump\t// out\n        /* \"#utility.yul\":5605:5723   */\n    tag_185:\n        /* \"#utility.yul\":5691:5692   */\n      0x03\n        /* \"#utility.yul\":5684:5689   */\n      dup2\n        /* \"#utility.yul\":5681:5693   */\n      lt\n        /* \"#utility.yul\":5671:5717   */\n      tag_288\n      jumpi\n        /* \"#utility.yul\":5697:5715   */\n      tag_289\n      tag_74\n      jump\t// in\n    tag_289:\n        /* \"#utility.yul\":5671:5717   */\n    tag_288:\n        /* \"#utility.yul\":5605:5723   */\n      pop\n      jump\t// out\n        /* \"#utility.yul\":5729:5866   */\n    tag_186:\n        /* \"#utility.yul\":5779:5786   */\n      0x00\n        /* \"#utility.yul\":5808:5813   */\n      dup2\n        /* \"#utility.yul\":5797:5813   */\n      swap1\n      pop\n        /* \"#utility.yul\":5814:5860   */\n      tag_291\n        /* \"#utility.yul\":5854:5859   */\n      dup3\n        /* \"#utility.yul\":5814:5860   */\n      tag_185\n      jump\t// in\n    tag_291:\n        /* \"#utility.yul\":5729:5866   */\n      swap2\n      swap1\n      pop\n      jump\t// out\n        /* \"#utility.yul\":5872:6009   */\n    tag_187:\n        /* \"#utility.yul\":5933:5942   */\n      0x00\n        /* \"#utility.yul\":5966:6003   */\n      tag_293\n        /* \"#utility.yul\":5997:6002   */\n      dup3\n        /* \"#utility.yul\":5966:6003   */\n      tag_186\n      jump\t// in\n    tag_293:\n        /* \"#utility.yul\":5953:6003   */\n      swap1\n      pop\n        /* \"#utility.yul\":5872:6009   */\n      swap2\n      swap1\n      pop\n      jump\t// out\n        /* \"#utility.yul\":6015:6168   */\n    tag_188:\n        /* \"#utility.yul\":6113:6161   */\n      tag_295\n        /* \"#utility.yul\":6155:6160   */\n      dup2\n        /* \"#utility.yul\":6113:6161   */\n      tag_187\n      jump\t// in\n    tag_295:\n        /* \"#utility.yul\":6108:6111   */\n      dup3\n        /* \"#utility.yul\":6101:6162   */\n      mstore\n        /* \"#utility.yul\":6015:6168   */\n      pop\n      pop\n      jump\t// out\n        /* \"#utility.yul\":6174:6775   */\n    tag_40:\n        /* \"#utility.yul\":6375:6379   */\n      0x00\n        /* \"#utility.yul\":6413:6416   */\n      0x80\n        /* \"#utility.yul\":6402:6411   */\n      dup3\n        /* \"#utility.yul\":6398:6417   */\n      add\n        /* \"#utility.yul\":6390:6417   */\n      swap1\n      pop\n        /* \"#utility.yul\":6427:6498   */\n      tag_297\n        /* \"#utility.yul\":6495:6496   */\n      0x00\n        /* \"#utility.yul\":6484:6493   */\n      dup4\n        /* \"#utility.yul\":6480:6497   */\n      add\n        /* \"#utility.yul\":6471:6477   */\n      dup8\n        /* \"#utility.yul\":6427:6498   */\n      tag_180\n      jump\t// in\n    tag_297:\n        /* \"#utility.yul\":6508:6593   */\n      tag_298\n        /* \"#utility.yul\":6589:6591   */\n      0x20\n        /* \"#utility.yul\":6578:6587   */\n      dup4\n        /* \"#utility.yul\":6574:6592   */\n      add\n        /* \"#utility.yul\":6565:6571   */\n      dup7\n        /* \"#utility.yul\":6508:6593   */\n      tag_184\n      jump\t// in\n    tag_298:\n        /* \"#utility.yul\":6603:6686   */\n      tag_299\n        /* \"#utility.yul\":6682:6684   */\n      0x40\n        /* \"#utility.yul\":6671:6680   */\n      dup4\n        /* \"#utility.yul\":6667:6685   */\n      add\n        /* \"#utility.yul\":6658:6664   */\n      dup6\n        /* \"#utility.yul\":6603:6686   */\n      tag_188\n      jump\t// in\n    tag_299:\n        /* \"#utility.yul\":6696:6768   */\n      tag_300\n        /* \"#utility.yul\":6764:6766   */\n      0x60\n        /* \"#utility.yul\":6753:6762   */\n      dup4\n        /* \"#utility.yul\":6749:6767   */\n      add\n        /* \"#utility.yul\":6740:6746   */\n      dup5\n        /* \"#utility.yul\":6696:6768   */\n      tag_172\n      jump\t// in\n    tag_300:\n        /* \"#utility.yul\":6174:6775   */\n      swap6\n      swap5\n      pop\n      pop\n      pop\n      pop\n      pop\n      jump\t// out\n        /* \"#utility.yul\":6781:7255   */\n    tag_52:\n        /* \"#utility.yul\":6849:6855   */\n      0x00\n        /* \"#utility.yul\":6857:6863   */\n      0x00\n        /* \"#utility.yul\":6906:6908   */\n      0x40\n        /* \"#utility.yul\":6894:6903   */\n      dup4\n        /* \"#utility.yul\":6885:6892   */\n      dup6\n        /* \"#utility.yul\":6881:6904   */\n      sub\n        /* \"#utility.yul\":6877:6909   */\n      slt\n        /* \"#utility.yul\":6874:6993   */\n      iszero\n      tag_302\n      jumpi\n        /* \"#utility.yul\":6912:6991   */\n      tag_303\n      tag_163\n      jump\t// in\n    tag_303:\n        /* \"#utility.yul\":6874:6993   */\n    tag_302:\n        /* \"#utility.yul\":7032:7033   */\n      0x00\n        /* \"#utility.yul\":7057:7110   */\n      tag_304\n        /* \"#utility.yul\":7102:7109   */\n      dup6\n        /* \"#utility.yul\":7093:7099   */\n      dup3\n        /* \"#utility.yul\":7082:7091   */\n      dup7\n        /* \"#utility.yul\":7078:7100   */\n      add\n        /* \"#utility.yul\":7057:7110   */\n      tag_171\n      jump\t// in\n    tag_304:\n        /* \"#utility.yul\":7047:7110   */\n      swap3\n      pop\n        /* \"#utility.yul\":7003:7120   */\n      pop\n        /* \"#utility.yul\":7159:7161   */\n      0x20\n        /* \"#utility.yul\":7185:7238   */\n      tag_305\n        /* \"#utility.yul\":7230:7237   */\n      dup6\n        /* \"#utility.yul\":7221:7227   */\n      dup3\n        /* \"#utility.yul\":7210:7219   */\n      dup7\n        /* \"#utility.yul\":7206:7228   */\n      add\n        /* \"#utility.yul\":7185:7238   */\n      tag_167\n      jump\t// in\n    tag_305:\n        /* \"#utility.yul\":7175:7238   */\n      swap2\n      pop\n        /* \"#utility.yul\":7130:7248   */\n      pop\n        /* \"#utility.yul\":6781:7255   */\n      swap3\n      pop\n      swap3\n      swap1\n      pop\n      jump\t// out\n        /* \"#utility.yul\":7261:7375   */\n    tag_189:\n        /* \"#utility.yul\":7349:7350   */\n      0x03\n        /* \"#utility.yul\":7342:7347   */\n      dup2\n        /* \"#utility.yul\":7339:7351   */\n      lt\n        /* \"#utility.yul\":7329:7369   */\n      tag_307\n      jumpi\n        /* \"#utility.yul\":7365:7366   */\n      0x00\n        /* \"#utility.yul\":7362:7363   */\n      0x00\n        /* \"#utility.yul\":7355:7367   */\n      revert\n        /* \"#utility.yul\":7329:7369   */\n    tag_307:\n        /* \"#utility.yul\":7261:7375   */\n      pop\n      jump\t// out\n        /* \"#utility.yul\":7381:7550   */\n    tag_190:\n        /* \"#utility.yul\":7442:7447   */\n      0x00\n        /* \"#utility.yul\":7480:7486   */\n      dup2\n        /* \"#utility.yul\":7467:7487   */\n      calldataload\n        /* \"#utility.yul\":7458:7487   */\n      swap1\n      pop\n        /* \"#utility.yul\":7496:7544   */\n      tag_309\n        /* \"#utility.yul\":7538:7543   */\n      dup2\n        /* \"#utility.yul\":7496:7544   */\n      tag_189\n      jump\t// in\n    tag_309:\n        /* \"#utility.yul\":7381:7550   */\n      swap3\n      swap2\n      pop\n      pop\n      jump\t// out\n        /* \"#utility.yul\":7556:7915   */\n    tag_58:\n        /* \"#utility.yul\":7630:7636   */\n      0x00\n        /* \"#utility.yul\":7679:7681   */\n      0x20\n        /* \"#utility.yul\":7667:7676   */\n      dup3\n        /* \"#utility.yul\":7658:7665   */\n      dup5\n        /* \"#utility.yul\":7654:7677   */\n      sub\n        /* \"#utility.yul\":7650:7682   */\n      slt\n        /* \"#utility.yul\":7647:7766   */\n      iszero\n      tag_311\n      jumpi\n        /* \"#utility.yul\":7685:7764   */\n      tag_312\n      tag_163\n      jump\t// in\n    tag_312:\n        /* \"#utility.yul\":7647:7766   */\n    tag_311:\n        /* \"#utility.yul\":7805:7806   */\n      0x00\n        /* \"#utility.yul\":7830:7898   */\n      tag_313\n        /* \"#utility.yul\":7890:7897   */\n      dup5\n        /* \"#utility.yul\":7881:7887   */\n      dup3\n        /* \"#utility.yul\":7870:7879   */\n      dup6\n        /* \"#utility.yul\":7866:7888   */\n      add\n        /* \"#utility.yul\":7830:7898   */\n      tag_190\n      jump\t// in\n    tag_313:\n        /* \"#utility.yul\":7820:7898   */\n      swap2\n      pop\n        /* \"#utility.yul\":7776:7908   */\n      pop\n        /* \"#utility.yul\":7556:7915   */\n      swap3\n      swap2\n      pop\n      pop\n      jump\t// out\n        /* \"#utility.yul\":7921:8025   */\n    tag_191:\n        /* \"#utility.yul\":7966:7973   */\n      0x00\n        /* \"#utility.yul\":7995:8019   */\n      tag_315\n        /* \"#utility.yul\":8013:8018   */\n      dup3\n        /* \"#utility.yul\":7995:8019   */\n      tag_168\n      jump\t// in\n    tag_315:\n        /* \"#utility.yul\":7984:8019   */\n      swap1\n      pop\n        /* \"#utility.yul\":7921:8025   */\n      swap2\n      swap1\n      pop\n      jump\t// out\n        /* \"#utility.yul\":8031:8169   */\n    tag_192:\n        /* \"#utility.yul\":8112:8144   */\n      tag_317\n        /* \"#utility.yul\":8138:8143   */\n      dup2\n        /* \"#utility.yul\":8112:8144   */\n      tag_191\n      jump\t// in\n    tag_317:\n        /* \"#utility.yul\":8105:8110   */\n      dup2\n        /* \"#utility.yul\":8102:8145   */\n      eq\n        /* \"#utility.yul\":8092:8163   */\n      tag_318\n      jumpi\n        /* \"#utility.yul\":8159:8160   */\n      0x00\n        /* \"#utility.yul\":8156:8157   */\n      0x00\n        /* \"#utility.yul\":8149:8161   */\n      revert\n        /* \"#utility.yul\":8092:8163   */\n    tag_318:\n        /* \"#utility.yul\":8031:8169   */\n      pop\n      jump\t// out\n        /* \"#utility.yul\":8175:8330   */\n    tag_193:\n        /* \"#utility.yul\":8229:8234   */\n      0x00\n        /* \"#utility.yul\":8267:8273   */\n      dup2\n        /* \"#utility.yul\":8254:8274   */\n      calldataload\n        /* \"#utility.yul\":8245:8274   */\n      swap1\n      pop\n        /* \"#utility.yul\":8283:8324   */\n      tag_320\n        /* \"#utility.yul\":8318:8323   */\n      dup2\n        /* \"#utility.yul\":8283:8324   */\n      tag_192\n      jump\t// in\n    tag_320:\n        /* \"#utility.yul\":8175:8330   */\n      swap3\n      swap2\n      pop\n      pop\n      jump\t// out\n        /* \"#utility.yul\":8336:8971   */\n    tag_64:\n        /* \"#utility.yul\":8421:8427   */\n      0x00\n        /* \"#utility.yul\":8429:8435   */\n      0x00\n        /* \"#utility.yul\":8437:8443   */\n      0x00\n        /* \"#utility.yul\":8486:8488   */\n      0x60\n        /* \"#utility.yul\":8474:8483   */\n      dup5\n        /* \"#utility.yul\":8465:8472   */\n      dup7\n        /* \"#utility.yul\":8461:8484   */\n      sub\n        /* \"#utility.yul\":8457:8489   */\n      slt\n        /* \"#utility.yul\":8454:8573   */\n      iszero\n      tag_322\n      jumpi\n        /* \"#utility.yul\":8492:8571   */\n      tag_323\n      tag_163\n      jump\t// in\n    tag_323:\n        /* \"#utility.yul\":8454:8573   */\n    tag_322:\n        /* \"#utility.yul\":8612:8613   */\n      0x00\n        /* \"#utility.yul\":8637:8690   */\n      tag_324\n        /* \"#utility.yul\":8682:8689   */\n      dup7\n        /* \"#utility.yul\":8673:8679   */\n      dup3\n        /* \"#utility.yul\":8662:8671   */\n      dup8\n        /* \"#utility.yul\":8658:8680   */\n      add\n        /* \"#utility.yul\":8637:8690   */\n      tag_167\n      jump\t// in\n    tag_324:\n        /* \"#utility.yul\":8627:8690   */\n      swap4\n      pop\n        /* \"#utility.yul\":8583:8700   */\n      pop\n        /* \"#utility.yul\":8739:8741   */\n      0x20\n        /* \"#utility.yul\":8765:8826   */\n      tag_325\n        /* \"#utility.yul\":8818:8825   */\n      dup7\n        /* \"#utility.yul\":8809:8815   */\n      dup3\n        /* \"#utility.yul\":8798:8807   */\n      dup8\n        /* \"#utility.yul\":8794:8816   */\n      add\n        /* \"#utility.yul\":8765:8826   */\n      tag_193\n      jump\t// in\n    tag_325:\n        /* \"#utility.yul\":8755:8826   */\n      swap3\n      pop\n        /* \"#utility.yul\":8710:8836   */\n      pop\n        /* \"#utility.yul\":8875:8877   */\n      0x40\n        /* \"#utility.yul\":8901:8954   */\n      tag_326\n        /* \"#utility.yul\":8946:8953   */\n      dup7\n        /* \"#utility.yul\":8937:8943   */\n      dup3\n        /* \"#utility.yul\":8926:8935   */\n      dup8\n        /* \"#utility.yul\":8922:8944   */\n      add\n        /* \"#utility.yul\":8901:8954   */\n      tag_167\n      jump\t// in\n    tag_326:\n        /* \"#utility.yul\":8891:8954   */\n      swap2\n      pop\n        /* \"#utility.yul\":8846:8964   */\n      pop\n        /* \"#utility.yul\":8336:8971   */\n      swap3\n      pop\n      swap3\n      pop\n      swap3\n      jump\t// out\n        /* \"#utility.yul\":8977:9146   */\n    tag_194:\n        /* \"#utility.yul\":9061:9072   */\n      0x00\n        /* \"#utility.yul\":9095:9101   */\n      dup3\n        /* \"#utility.yul\":9090:9093   */\n      dup3\n        /* \"#utility.yul\":9083:9102   */\n      mstore\n        /* \"#utility.yul\":9135:9139   */\n      0x20\n        /* \"#utility.yul\":9130:9133   */\n      dup3\n        /* \"#utility.yul\":9126:9140   */\n      add\n        /* \"#utility.yul\":9111:9140   */\n      swap1\n      pop\n        /* \"#utility.yul\":8977:9146   */\n      swap3\n      swap2\n      pop\n      pop\n      jump\t// out\n        /* \"#utility.yul\":9152:9317   */\n    tag_195:\n        /* \"#utility.yul\":9292:9309   */\n      0x4e6f74207374616c6c206f776e65720000000000000000000000000000000000\n        /* \"#utility.yul\":9288:9289   */\n      0x00\n        /* \"#utility.yul\":9280:9286   */\n      dup3\n        /* \"#utility.yul\":9276:9290   */\n      add\n        /* \"#utility.yul\":9269:9310   */\n      mstore\n        /* \"#utility.yul\":9152:9317   */\n      pop\n      jump\t// out\n        /* \"#utility.yul\":9323:9689   */\n    tag_196:\n        /* \"#utility.yul\":9465:9468   */\n      0x00\n        /* \"#utility.yul\":9486:9553   */\n      tag_330\n        /* \"#utility.yul\":9550:9552   */\n      0x0f\n        /* \"#utility.yul\":9545:9548   */\n      dup4\n        /* \"#utility.yul\":9486:9553   */\n      tag_194\n      jump\t// in\n    tag_330:\n        /* \"#utility.yul\":9479:9553   */\n      swap2\n      pop\n        /* \"#utility.yul\":9562:9655   */\n      tag_331\n        /* \"#utility.yul\":9651:9654   */\n      dup3\n        /* \"#utility.yul\":9562:9655   */\n      tag_195\n      jump\t// in\n    tag_331:\n        /* \"#utility.yul\":9680:9682   */\n      0x20\n        /* \"#utility.yul\":9675:9678   */\n      dup3\n        /* \"#utility.yul\":9671:9683   */\n      add\n        /* \"#utility.yul\":9664:9683   */\n      swap1\n      pop\n        /* \"#utility.yul\":9323:9689   */\n      swap2\n      swap1\n      pop\n      jump\t// out\n        /* \"#utility.yul\":9695:10114   */\n    tag_70:\n        /* \"#utility.yul\":9861:9865   */\n      0x00\n        /* \"#utility.yul\":9899:9901   */\n      0x20\n        /* \"#utility.yul\":9888:9897   */\n      dup3\n        /* \"#utility.yul\":9884:9902   */\n      add\n        /* \"#utility.yul\":9876:9902   */\n      swap1\n      pop\n        /* \"#utility.yul\":9948:9957   */\n      dup2\n        /* \"#utility.yul\":9942:9946   */\n      dup2\n        /* \"#utility.yul\":9938:9958   */\n      sub\n        /* \"#utility.yul\":9934:9935   */\n      0x00\n        /* \"#utility.yul\":9923:9932   */\n      dup4\n        /* \"#utility.yul\":9919:9936   */\n      add\n        /* \"#utility.yul\":9912:9959   */\n      mstore\n        /* \"#utility.yul\":9976:10107   */\n      tag_333\n        /* \"#utility.yul\":10102:10106   */\n      dup2\n        /* \"#utility.yul\":9976:10107   */\n      tag_196\n      jump\t// in\n    tag_333:\n        /* \"#utility.yul\":9968:10107   */\n      swap1\n      pop\n        /* \"#utility.yul\":9695:10114   */\n      swap2\n      swap1\n      pop\n      jump\t// out\n        /* \"#utility.yul\":10120:10290   */\n    tag_197:\n        /* \"#utility.yul\":10260:10282   */\n      0x5374616c6c206e6f7420636c6f73656420796574000000000000000000000000\n        /* \"#utility.yul\":10256:10257   */\n      0x00\n        /* \"#utility.yul\":10248:10254   */\n      dup3\n        /* \"#utility.yul\":10244:10258   */\n      add\n        /* \"#utility.yul\":10237:10283   */\n      mstore\n        /* \"#utility.yul\":10120:10290   */\n      pop\n      jump\t// out\n        /* \"#utility.yul\":10296:10662   */\n    tag_198:\n        /* \"#utility.yul\":10438:10441   */\n      0x00\n        /* \"#utility.yul\":10459:10526   */\n      tag_336\n        /* \"#utility.yul\":10523:10525   */\n      0x14\n        /* \"#utility.yul\":10518:10521   */\n      dup4\n        /* \"#utility.yul\":10459:10526   */\n      tag_194\n      jump\t// in\n    tag_336:\n        /* \"#utility.yul\":10452:10526   */\n      swap2\n      pop\n        /* \"#utility.yul\":10535:10628   */\n      tag_337\n        /* \"#utility.yul\":10624:10627   */\n      dup3\n        /* \"#utility.yul\":10535:10628   */\n      tag_197\n      jump\t// in\n    tag_337:\n        /* \"#utility.yul\":10653:10655   */\n      0x20\n        /* \"#utility.yul\":10648:10651   */\n      dup3\n        /* \"#utility.yul\":10644:10656   */\n      add\n        /* \"#utility.yul\":10637:10656   */\n      swap1\n      pop\n        /* \"#utility.yul\":10296:10662   */\n      swap2\n      swap1\n      pop\n      jump\t// out\n        /* \"#utility.yul\":10668:11087   */\n    tag_79:\n        /* \"#utility.yul\":10834:10838   */\n      0x00\n        /* \"#utility.yul\":10872:10874   */\n      0x20\n        /* \"#utility.yul\":10861:10870   */\n      dup3\n        /* \"#utility.yul\":10857:10875   */\n      add\n        /* \"#utility.yul\":10849:10875   */\n      swap1\n      pop\n        /* \"#utility.yul\":10921:10930   */\n      dup2\n        /* \"#utility.yul\":10915:10919   */\n      dup2\n        /* \"#utility.yul\":10911:10931   */\n      sub\n        /* \"#utility.yul\":10907:10908   */\n      0x00\n        /* \"#utility.yul\":10896:10905   */\n      dup4\n        /* \"#utility.yul\":10892:10909   */\n      add\n        /* \"#utility.yul\":10885:10932   */\n      mstore\n        /* \"#utility.yul\":10949:11080   */\n      tag_339\n        /* \"#utility.yul\":11075:11079   */\n      dup2\n        /* \"#utility.yul\":10949:11080   */\n      tag_198\n      jump\t// in\n    tag_339:\n        /* \"#utility.yul\":10941:11080   */\n      swap1\n      pop\n        /* \"#utility.yul\":10668:11087   */\n      swap2\n      swap1\n      pop\n      jump\t// out\n        /* \"#utility.yul\":11093:11262   */\n    tag_199:\n        /* \"#utility.yul\":11233:11254   */\n      0x4e6f7468696e6720746f20776974686472617700000000000000000000000000\n        /* \"#utility.yul\":11229:11230   */\n      0x00\n        /* \"#utility.yul\":11221:11227   */\n      dup3\n        /* \"#utility.yul\":11217:11231   */\n      add\n        /* \"#utility.yul\":11210:11255   */\n      mstore\n        /* \"#utility.yul\":11093:11262   */\n      pop\n      jump\t// out\n        /* \"#utility.yul\":11268:11634   */\n    tag_200:\n        /* \"#utility.yul\":11410:11413   */\n      0x00\n        /* \"#utility.yul\":11431:11498   */\n      tag_342\n        /* \"#utility.yul\":11495:11497   */\n      0x13\n        /* \"#utility.yul\":11490:11493   */\n      dup4\n        /* \"#utility.yul\":11431:11498   */\n      tag_194\n      jump\t// in\n    tag_342:\n        /* \"#utility.yul\":11424:11498   */\n      swap2\n      pop\n        /* \"#utility.yul\":11507:11600   */\n      tag_343\n        /* \"#utility.yul\":11596:11599   */\n      dup3\n        /* \"#utility.yul\":11507:11600   */\n      tag_199\n      jump\t// in\n    tag_343:\n        /* \"#utility.yul\":11625:11627   */\n      0x20\n        /* \"#utility.yul\":11620:11623   */\n      dup3\n        /* \"#utility.yul\":11616:11628   */\n      add\n        /* \"#utility.yul\":11609:11628   */\n      swap1\n      pop\n        /* \"#utility.yul\":11268:11634   */\n      swap2\n      swap1\n      pop\n      jump\t// out\n        /* \"#utility.yul\":11640:12059   */\n    tag_82:\n        /* \"#utility.yul\":11806:11810   */\n      0x00\n        /* \"#utility.yul\":11844:11846   */\n      0x20\n        /* \"#utility.yul\":11833:11842   */\n      dup3\n        /* \"#utility.yul\":11829:11847   */\n      add\n        /* \"#utility.yul\":11821:11847   */\n      swap1\n      pop\n        /* \"#utility.yul\":11893:11902   */\n      dup2\n        /* \"#utility.yul\":11887:11891   */\n      dup2\n        /* \"#utility.yul\":11883:11903   */\n      sub\n        /* \"#utility.yul\":11879:11880   */\n      0x00\n        /* \"#utility.yul\":11868:11877   */\n      dup4\n        /* \"#utility.yul\":11864:11881   */\n      add\n        /* \"#utility.yul\":11857:11904   */\n      mstore\n        /* \"#utility.yul\":11921:12052   */\n      tag_345\n        /* \"#utility.yul\":12047:12051   */\n      dup2\n        /* \"#utility.yul\":11921:12052   */\n      tag_200\n      jump\t// in\n    tag_345:\n        /* \"#utility.yul\":11913:12052   */\n      swap1\n      pop\n        /* \"#utility.yul\":11640:12059   */\n      swap2\n      swap1\n      pop\n      jump\t// out\n        /* \"#utility.yul\":12065:12212   */\n    tag_201:\n        /* \"#utility.yul\":12166:12177   */\n      0x00\n        /* \"#utility.yul\":12203:12206   */\n      dup2\n        /* \"#utility.yul\":12188:12206   */\n      swap1\n      pop\n        /* \"#utility.yul\":12065:12212   */\n      swap3\n      swap2\n      pop\n      pop\n      jump\t// out\n        /* \"#utility.yul\":12218:12332   */\n    tag_202:\n      pop\n      jump\t// out\n        /* \"#utility.yul\":12338:12736   */\n    tag_203:\n        /* \"#utility.yul\":12497:12500   */\n      0x00\n        /* \"#utility.yul\":12518:12601   */\n      tag_349\n        /* \"#utility.yul\":12599:12600   */\n      0x00\n        /* \"#utility.yul\":12594:12597   */\n      dup4\n        /* \"#utility.yul\":12518:12601   */\n      tag_201\n      jump\t// in\n    tag_349:\n        /* \"#utility.yul\":12511:12601   */\n      swap2\n      pop\n        /* \"#utility.yul\":12610:12703   */\n      tag_350\n        /* \"#utility.yul\":12699:12702   */\n      dup3\n        /* \"#utility.yul\":12610:12703   */\n      tag_202\n      jump\t// in\n    tag_350:\n        /* \"#utility.yul\":12728:12729   */\n      0x00\n        /* \"#utility.yul\":12723:12726   */\n      dup3\n        /* \"#utility.yul\":12719:12730   */\n      add\n        /* \"#utility.yul\":12712:12730   */\n      swap1\n      pop\n        /* \"#utility.yul\":12338:12736   */\n      swap2\n      swap1\n      pop\n      jump\t// out\n        /* \"#utility.yul\":12742:13121   */\n    tag_86:\n        /* \"#utility.yul\":12926:12929   */\n      0x00\n        /* \"#utility.yul\":12948:13095   */\n      tag_352\n        /* \"#utility.yul\":13091:13094   */\n      dup3\n        /* \"#utility.yul\":12948:13095   */\n      tag_203\n      jump\t// in\n    tag_352:\n        /* \"#utility.yul\":12941:13095   */\n      swap2\n      pop\n        /* \"#utility.yul\":13112:13115   */\n      dup2\n        /* \"#utility.yul\":13105:13115   */\n      swap1\n      pop\n        /* \"#utility.yul\":12742:13121   */\n      swap2\n      swap1\n      pop\n      jump\t// out\n        /* \"#utility.yul\":13127:13294   */\n    tag_204:\n        /* \"#utility.yul\":13267:13286   */\n      0x5769746864726177616c206661696c6564000000000000000000000000000000\n        /* \"#utility.yul\":13263:13264   */\n      0x00\n        /* \"#utility.yul\":13255:13261   */\n      dup3\n        /* \"#utility.yul\":13251:13265   */\n      add\n        /* \"#utility.yul\":13244:13287   */\n      mstore\n        /* \"#utility.yul\":13127:13294   */\n      pop\n      jump\t// out\n        /* \"#utility.yul\":13300:13666   */\n    tag_205:\n        /* \"#utility.yul\":13442:13445   */\n      0x00\n        /* \"#utility.yul\":13463:13530   */\n      tag_355\n        /* \"#utility.yul\":13527:13529   */\n      0x11\n        /* \"#utility.yul\":13522:13525   */\n      dup4\n        /* \"#utility.yul\":13463:13530   */\n      tag_194\n      jump\t// in\n    tag_355:\n        /* \"#utility.yul\":13456:13530   */\n      swap2\n      pop\n        /* \"#utility.yul\":13539:13632   */\n      tag_356\n        /* \"#utility.yul\":13628:13631   */\n      dup3\n        /* \"#utility.yul\":13539:13632   */\n      tag_204\n      jump\t// in\n    tag_356:\n        /* \"#utility.yul\":13657:13659   */\n      0x20\n        /* \"#utility.yul\":13652:13655   */\n      dup3\n        /* \"#utility.yul\":13648:13660   */\n      add\n        /* \"#utility.yul\":13641:13660   */\n      swap1\n      pop\n        /* \"#utility.yul\":13300:13666   */\n      swap2\n      swap1\n      pop\n      jump\t// out\n        /* \"#utility.yul\":13672:14091   */\n    tag_92:\n        /* \"#utility.yul\":13838:13842   */\n      0x00\n        /* \"#utility.yul\":13876:13878   */\n      0x20\n        /* \"#utility.yul\":13865:13874   */\n      dup3\n        /* \"#utility.yul\":13861:13879   */\n      add\n        /* \"#utility.yul\":13853:13879   */\n      swap1\n      pop\n        /* \"#utility.yul\":13925:13934   */\n      dup2\n        /* \"#utility.yul\":13919:13923   */\n      dup2\n        /* \"#utility.yul\":13915:13935   */\n      sub\n        /* \"#utility.yul\":13911:13912   */\n      0x00\n        /* \"#utility.yul\":13900:13909   */\n      dup4\n        /* \"#utility.yul\":13896:13913   */\n      add\n        /* \"#utility.yul\":13889:13936   */\n      mstore\n        /* \"#utility.yul\":13953:14084   */\n      tag_358\n        /* \"#utility.yul\":14079:14083   */\n      dup2\n        /* \"#utility.yul\":13953:14084   */\n      tag_205\n      jump\t// in\n    tag_358:\n        /* \"#utility.yul\":13945:14084   */\n      swap1\n      pop\n        /* \"#utility.yul\":13672:14091   */\n      swap2\n      swap1\n      pop\n      jump\t// out\n        /* \"#utility.yul\":14097:14260   */\n    tag_206:\n        /* \"#utility.yul\":14237:14252   */\n      0x496e76616c6964207374616c6c00000000000000000000000000000000000000\n        /* \"#utility.yul\":14233:14234   */\n      0x00\n        /* \"#utility.yul\":14225:14231   */\n      dup3\n        /* \"#utility.yul\":14221:14235   */\n      add\n        /* \"#utility.yul\":14214:14253   */\n      mstore\n        /* \"#utility.yul\":14097:14260   */\n      pop\n      jump\t// out\n        /* \"#utility.yul\":14266:14632   */\n    tag_207:\n        /* \"#utility.yul\":14408:14411   */\n      0x00\n        /* \"#utility.yul\":14429:14496   */\n      tag_361\n        /* \"#utility.yul\":14493:14495   */\n      0x0d\n        /* \"#utility.yul\":14488:14491   */\n      dup4\n        /* \"#utility.yul\":14429:14496   */\n      tag_194\n      jump\t// in\n    tag_361:\n        /* \"#utility.yul\":14422:14496   */\n      swap2\n      pop\n        /* \"#utility.yul\":14505:14598   */\n      tag_362\n        /* \"#utility.yul\":14594:14597   */\n      dup3\n        /* \"#utility.yul\":14505:14598   */\n      tag_206\n      jump\t// in\n    tag_362:\n        /* \"#utility.yul\":14623:14625   */\n      0x20\n        /* \"#utility.yul\":14618:14621   */\n      dup3\n        /* \"#utility.yul\":14614:14626   */\n      add\n        /* \"#utility.yul\":14607:14626   */\n      swap1\n      pop\n        /* \"#utility.yul\":14266:14632   */\n      swap2\n      swap1\n      pop\n      jump\t// out\n        /* \"#utility.yul\":14638:15057   */\n    tag_100:\n        /* \"#utility.yul\":14804:14808   */\n      0x00\n        /* \"#utility.yul\":14842:14844   */\n      0x20\n        /* \"#utility.yul\":14831:14840   */\n      dup3\n        /* \"#utility.yul\":14827:14845   */\n      add\n        /* \"#utility.yul\":14819:14845   */\n      swap1\n      pop\n        /* \"#utility.yul\":14891:14900   */\n      dup2\n        /* \"#utility.yul\":14885:14889   */\n      dup2\n        /* \"#utility.yul\":14881:14901   */\n      sub\n        /* \"#utility.yul\":14877:14878   */\n      0x00\n        /* \"#utility.yul\":14866:14875   */\n      dup4\n        /* \"#utility.yul\":14862:14879   */\n      add\n        /* \"#utility.yul\":14855:14902   */\n      mstore\n        /* \"#utility.yul\":14919:15050   */\n      tag_364\n        /* \"#utility.yul\":15045:15049   */\n      dup2\n        /* \"#utility.yul\":14919:15050   */\n      tag_207\n      jump\t// in\n    tag_364:\n        /* \"#utility.yul\":14911:15050   */\n      swap1\n      pop\n        /* \"#utility.yul\":14638:15057   */\n      swap2\n      swap1\n      pop\n      jump\t// out\n        /* \"#utility.yul\":15063:15241   */\n    tag_208:\n        /* \"#utility.yul\":15203:15233   */\n      0x5374616c6c206e6f7420616363657074696e67207061796d656e747300000000\n        /* \"#utility.yul\":15199:15200   */\n      0x00\n        /* \"#utility.yul\":15191:15197   */\n      dup3\n        /* \"#utility.yul\":15187:15201   */\n      add\n        /* \"#utility.yul\":15180:15234   */\n      mstore\n        /* \"#utility.yul\":15063:15241   */\n      pop\n      jump\t// out\n        /* \"#utility.yul\":15247:15613   */\n    tag_209:\n        /* \"#utility.yul\":15389:15392   */\n      0x00\n        /* \"#utility.yul\":15410:15477   */\n      tag_367\n        /* \"#utility.yul\":15474:15476   */\n      0x1c\n        /* \"#utility.yul\":15469:15472   */\n      dup4\n        /* \"#utility.yul\":15410:15477   */\n      tag_194\n      jump\t// in\n    tag_367:\n        /* \"#utility.yul\":15403:15477   */\n      swap2\n      pop\n        /* \"#utility.yul\":15486:15579   */\n      tag_368\n        /* \"#utility.yul\":15575:15578   */\n      dup3\n        /* \"#utility.yul\":15486:15579   */\n      tag_208\n      jump\t// in\n    tag_368:\n        /* \"#utility.yul\":15604:15606   */\n      0x20\n        /* \"#utility.yul\":15599:15602   */\n      dup3\n        /* \"#utility.yul\":15595:15607   */\n      add\n        /* \"#utility.yul\":15588:15607   */\n      swap1\n      pop\n        /* \"#utility.yul\":15247:15613   */\n      swap2\n      swap1\n      pop\n      jump\t// out\n        /* \"#utility.yul\":15619:16038   */\n    tag_107:\n        /* \"#utility.yul\":15785:15789   */\n      0x00\n        /* \"#utility.yul\":15823:15825   */\n      0x20\n        /* \"#utility.yul\":15812:15821   */\n      dup3\n        /* \"#utility.yul\":15808:15826   */\n      add\n        /* \"#utility.yul\":15800:15826   */\n      swap1\n      pop\n        /* \"#utility.yul\":15872:15881   */\n      dup2\n        /* \"#utility.yul\":15866:15870   */\n      dup2\n        /* \"#utility.yul\":15862:15882   */\n      sub\n        /* \"#utility.yul\":15858:15859   */\n      0x00\n        /* \"#utility.yul\":15847:15856   */\n      dup4\n        /* \"#utility.yul\":15843:15860   */\n      add\n        /* \"#utility.yul\":15836:15883   */\n      mstore\n        /* \"#utility.yul\":15900:16031   */\n      tag_370\n        /* \"#utility.yul\":16026:16030   */\n      dup2\n        /* \"#utility.yul\":15900:16031   */\n      tag_209\n      jump\t// in\n    tag_370:\n        /* \"#utility.yul\":15892:16031   */\n      swap1\n      pop\n        /* \"#utility.yul\":15619:16038   */\n      swap2\n      swap1\n      pop\n      jump\t// out\n        /* \"#utility.yul\":16044:16209   */\n    tag_210:\n        /* \"#utility.yul\":16184:16201   */\n      0x4e6f207061796d656e742073656e740000000000000000000000000000000000\n        /* \"#utility.yul\":16180:16181   */\n      0x00\n        /* \"#utility.yul\":16172:16178   */\n      dup3\n        /* \"#utility.yul\":16168:16182   */\n      add\n        /* \"#utility.yul\":16161:16202   */\n      mstore\n        /* \"#utility.yul\":16044:16209   */\n      pop\n      jump\t// out\n        /* \"#utility.yul\":16215:16581   */\n    tag_211:\n        /* \"#utility.yul\":16357:16360   */\n      0x00\n        /* \"#utility.yul\":16378:16445   */\n      tag_373\n        /* \"#utility.yul\":16442:16444   */\n      0x0f\n        /* \"#utility.yul\":16437:16440   */\n      dup4\n        /* \"#utility.yul\":16378:16445   */\n      tag_194\n      jump\t// in\n    tag_373:\n        /* \"#utility.yul\":16371:16445   */\n      swap2\n      pop\n        /* \"#utility.yul\":16454:16547   */\n      tag_374\n        /* \"#utility.yul\":16543:16546   */\n      dup3\n        /* \"#utility.yul\":16454:16547   */\n      tag_210\n      jump\t// in\n    tag_374:\n        /* \"#utility.yul\":16572:16574   */\n      0x20\n        /* \"#utility.yul\":16567:16570   */\n      dup3\n        /* \"#utility.yul\":16563:16575   */\n      add\n        /* \"#utility.yul\":16556:16575   */\n      swap1\n      pop\n        /* \"#utility.yul\":16215:16581   */\n      swap2\n      swap1\n      pop\n      jump\t// out\n        /* \"#utility.yul\":16587:17006   */\n    tag_110:\n        /* \"#utility.yul\":16753:16757   */\n      0x00\n        /* \"#utility.yul\":16791:16793   */\n      0x20\n        /* \"#utility.yul\":16780:16789   */\n      dup3\n        /* \"#utility.yul\":16776:16794   */\n      add\n        /* \"#utility.yul\":16768:16794   */\n      swap1\n      pop\n        /* \"#utility.yul\":16840:16849   */\n      dup2\n        /* \"#utility.yul\":16834:16838   */\n      dup2\n        /* \"#utility.yul\":16830:16850   */\n      sub\n        /* \"#utility.yul\":16826:16827   */\n      0x00\n        /* \"#utility.yul\":16815:16824   */\n      dup4\n        /* \"#utility.yul\":16811:16828   */\n      add\n        /* \"#utility.yul\":16804:16851   */\n      mstore\n        /* \"#utility.yul\":16868:16999   */\n      tag_376\n        /* \"#utility.yul\":16994:16998   */\n      dup2\n        /* \"#utility.yul\":16868:16999   */\n      tag_211\n      jump\t// in\n    tag_376:\n        /* \"#utility.yul\":16860:16999   */\n      swap1\n      pop\n        /* \"#utility.yul\":16587:17006   */\n      swap2\n      swap1\n      pop\n      jump\t// out\n        /* \"#utility.yul\":17012:17192   */\n    tag_212:\n        /* \"#utility.yul\":17060:17137   */\n      0x4e487b7100000000000000000000000000000000000000000000000000000000\n        /* \"#utility.yul\":17057:17058   */\n      0x00\n        /* \"#utility.yul\":17050:17138   */\n      mstore\n        /* \"#utility.yul\":17157:17161   */\n      0x11\n        /* \"#utility.yul\":17154:17155   */\n      0x04\n        /* \"#utility.yul\":17147:17162   */\n      mstore\n        /* \"#utility.yul\":17181:17185   */\n      0x24\n        /* \"#utility.yul\":17178:17179   */\n      0x00\n        /* \"#utility.yul\":17171:17186   */\n      revert\n        /* \"#utility.yul\":17198:17389   */\n    tag_112:\n        /* \"#utility.yul\":17238:17241   */\n      0x00\n        /* \"#utility.yul\":17257:17277   */\n      tag_379\n        /* \"#utility.yul\":17275:17276   */\n      dup3\n        /* \"#utility.yul\":17257:17277   */\n      tag_165\n      jump\t// in\n    tag_379:\n        /* \"#utility.yul\":17252:17277   */\n      swap2\n      pop\n        /* \"#utility.yul\":17291:17311   */\n      tag_380\n        /* \"#utility.yul\":17309:17310   */\n      dup4\n        /* \"#utility.yul\":17291:17311   */\n      tag_165\n      jump\t// in\n    tag_380:\n        /* \"#utility.yul\":17286:17311   */\n      swap3\n      pop\n        /* \"#utility.yul\":17334:17335   */\n      dup3\n        /* \"#utility.yul\":17331:17332   */\n      dup3\n        /* \"#utility.yul\":17327:17336   */\n      add\n        /* \"#utility.yul\":17320:17336   */\n      swap1\n      pop\n        /* \"#utility.yul\":17355:17358   */\n      dup1\n        /* \"#utility.yul\":17352:17353   */\n      dup3\n        /* \"#utility.yul\":17349:17359   */\n      gt\n        /* \"#utility.yul\":17346:17382   */\n      iszero\n      tag_381\n      jumpi\n        /* \"#utility.yul\":17362:17380   */\n      tag_382\n      tag_212\n      jump\t// in\n    tag_382:\n        /* \"#utility.yul\":17346:17382   */\n    tag_381:\n        /* \"#utility.yul\":17198:17389   */\n      swap3\n      swap2\n      pop\n      pop\n      jump\t// out\n        /* \"#utility.yul\":17395:17615   */\n    tag_213:\n        /* \"#utility.yul\":17535:17569   */\n      0x5374616c6c20616c726561647920636c6f736564206f72207769746864726177\n        /* \"#utility.yul\":17531:17532   */\n      0x00\n        /* \"#utility.yul\":17523:17529   */\n      dup3\n        /* \"#utility.yul\":17519:17533   */\n      add\n        /* \"#utility.yul\":17512:17570   */\n      mstore\n        /* \"#utility.yul\":17604:17607   */\n      0x6e00000000000000000000000000000000000000000000000000000000000000\n        /* \"#utility.yul\":17599:17601   */\n      0x20\n        /* \"#utility.yul\":17591:17597   */\n      dup3\n        /* \"#utility.yul\":17587:17602   */\n      add\n        /* \"#utility.yul\":17580:17608   */\n      mstore\n        /* \"#utility.yul\":17395:17615   */\n      pop\n      jump\t// out\n        /* \"#utility.yul\":17621:17987   */\n    tag_214:\n        /* \"#utility.yul\":17763:17766   */\n      0x00\n        /* \"#utility.yul\":17784:17851   */\n      tag_385\n        /* \"#utility.yul\":17848:17850   */\n      0x21\n        /* \"#utility.yul\":17843:17846   */\n      dup4\n        /* \"#utility.yul\":17784:17851   */\n      tag_194\n      jump\t// in\n    tag_385:\n        /* \"#utility.yul\":17777:17851   */\n      swap2\n      pop\n        /* \"#utility.yul\":17860:17953   */\n      tag_386\n        /* \"#utility.yul\":17949:17952   */\n      dup3\n        /* \"#utility.yul\":17860:17953   */\n      tag_213\n      jump\t// in\n    tag_386:\n        /* \"#utility.yul\":17978:17980   */\n      0x40\n        /* \"#utility.yul\":17973:17976   */\n      dup3\n        /* \"#utility.yul\":17969:17981   */\n      add\n        /* \"#utility.yul\":17962:17981   */\n      swap1\n      pop\n        /* \"#utility.yul\":17621:17987   */\n      swap2\n      swap1\n      pop\n      jump\t// out\n        /* \"#utility.yul\":17993:18412   */\n    tag_126:\n        /* \"#utility.yul\":18159:18163   */\n      0x00\n        /* \"#utility.yul\":18197:18199   */\n      0x20\n        /* \"#utility.yul\":18186:18195   */\n      dup3\n        /* \"#utility.yul\":18182:18200   */\n      add\n        /* \"#utility.yul\":18174:18200   */\n      swap1\n      pop\n        /* \"#utility.yul\":18246:18255   */\n      dup2\n        /* \"#utility.yul\":18240:18244   */\n      dup2\n        /* \"#utility.yul\":18236:18256   */\n      sub\n        /* \"#utility.yul\":18232:18233   */\n      0x00\n        /* \"#utility.yul\":18221:18230   */\n      dup4\n        /* \"#utility.yul\":18217:18234   */\n      add\n        /* \"#utility.yul\":18210:18257   */\n      mstore\n        /* \"#utility.yul\":18274:18405   */\n      tag_388\n        /* \"#utility.yul\":18400:18404   */\n      dup2\n        /* \"#utility.yul\":18274:18405   */\n      tag_214\n      jump\t// in\n    tag_388:\n        /* \"#utility.yul\":18266:18405   */\n      swap1\n      pop\n        /* \"#utility.yul\":17993:18412   */\n      swap2\n      swap1\n      pop\n      jump\t// out\n        /* \"#utility.yul\":18418:18651   */\n    tag_133:\n        /* \"#utility.yul\":18457:18460   */\n      0x00\n        /* \"#utility.yul\":18480:18504   */\n      tag_390\n        /* \"#utility.yul\":18498:18503   */\n      dup3\n        /* \"#utility.yul\":18480:18504   */\n      tag_165\n      jump\t// in\n    tag_390:\n        /* \"#utility.yul\":18471:18504   */\n      swap2\n      pop\n        /* \"#utility.yul\":18526:18592   */\n      0xffffffffffffffffffffffffffffffffffffffffffffffffffffffffffffffff\n        /* \"#utility.yul\":18519:18524   */\n      dup3\n        /* \"#utility.yul\":18516:18593   */\n      sub\n        /* \"#utility.yul\":18513:18616   */\n      tag_391\n      jumpi\n        /* \"#utility.yul\":18596:18614   */\n      tag_392\n      tag_212\n      jump\t// in\n    tag_392:\n        /* \"#utility.yul\":18513:18616   */\n    tag_391:\n        /* \"#utility.yul\":18643:18644   */\n      0x01\n        /* \"#utility.yul\":18636:18641   */\n      dup3\n        /* \"#utility.yul\":18632:18645   */\n      add\n        /* \"#utility.yul\":18625:18645   */\n      swap1\n      pop\n        /* \"#utility.yul\":18418:18651   */\n      swap2\n      swap1\n      pop\n      jump\t// out\n        /* \"#utility.yul\":18657:18905   */\n    tag_140:\n        /* \"#utility.yul\":18763:18767   */\n      0x00\n        /* \"#utility.yul\":18801:18803   */\n      0x20\n        /* \"#utility.yul\":18790:18799   */\n      dup3\n        /* \"#utility.yul\":18786:18804   */\n      add\n        /* \"#utility.yul\":18778:18804   */\n      swap1\n      pop\n        /* \"#utility.yul\":18814:18898   */\n      tag_394\n        /* \"#utility.yul\":18895:18896   */\n      0x00\n        /* \"#utility.yul\":18884:18893   */\n      dup4\n        /* \"#utility.yul\":18880:18897   */\n      add\n        /* \"#utility.yul\":18871:18877   */\n      dup5\n        /* \"#utility.yul\":18814:18898   */\n      tag_184\n      jump\t// in\n    tag_394:\n        /* \"#utility.yul\":18657:18905   */\n      swap3\n      swap2\n      pop\n      pop\n      jump\t// out\n        /* \"#utility.yul\":18911:19083   */\n    tag_215:\n        /* \"#utility.yul\":19051:19075   */\n      0x526566756e642065786365656473207061796d656e7400000000000000000000\n        /* \"#utility.yul\":19047:19048   */\n      0x00\n        /* \"#utility.yul\":19039:19045   */\n      dup3\n        /* \"#utility.yul\":19035:19049   */\n      add\n        /* \"#utility.yul\":19028:19076   */\n      mstore\n        /* \"#utility.yul\":18911:19083   */\n      pop\n      jump\t// out\n        /* \"#utility.yul\":19089:19455   */\n    tag_216:\n        /* \"#utility.yul\":19231:19234   */\n      0x00\n        /* \"#utility.yul\":19252:19319   */\n      tag_397\n        /* \"#utility.yul\":19316:19318   */\n      0x16\n        /* \"#utility.yul\":19311:19314   */\n      dup4\n        /* \"#utility.yul\":19252:19319   */\n      tag_194\n      jump\t// in\n    tag_397:\n        /* \"#utility.yul\":19245:19319   */\n      swap2\n      pop\n        /* \"#utility.yul\":19328:19421   */\n      tag_398\n        /* \"#utility.yul\":19417:19420   */\n      dup3\n        /* \"#utility.yul\":19328:19421   */\n      tag_215\n      jump\t// in\n    tag_398:\n        /* \"#utility.yul\":19446:19448   */\n      0x20\n        /* \"#utility.yul\":19441:19444   */\n      dup3\n        /* \"#utility.yul\":19437:19449   */\n      add\n        /* \"#utility.yul\":19430:19449   */\n      swap1\n      pop\n        /* \"#utility.yul\":19089:19455   */\n      swap2\n      swap1\n      pop\n      jump\t// out\n        /* \"#utility.yul\":19461:19880   */\n    tag_147:\n        /* \"#utility.yul\":19627:19631   */\n      0x00\n        /* \"#utility.yul\":19665:19667   */\n      0x20\n        /* \"#utility.yul\":19654:19663   */\n      dup3\n        /* \"#utility.yul\":19650:19668   */\n      add\n        /* \"#utility.yul\":19642:19668   */\n      swap1\n      pop\n        /* \"#utility.yul\":19714:19723   */\n      dup2\n        /* \"#utility.yul\":19708:19712   */\n      dup2\n        /* \"#utility.yul\":19704:19724   */\n      sub\n        /* \"#utility.yul\":19700:19701   */\n      0x00\n        /* \"#utility.yul\":19689:19698   */\n      dup4\n        /* \"#utility.yul\":19685:19702   */\n      add\n        /* \"#utility.yul\":19678:19725   */\n      mstore\n        /* \"#utility.yul\":19742:19873   */\n      tag_400\n        /* \"#utility.yul\":19868:19872   */\n      dup2\n        /* \"#utility.yul\":19742:19873   */\n      tag_216\n      jump\t// in\n    tag_400:\n        /* \"#utility.yul\":19734:19873   */\n      swap1\n      pop\n        /* \"#utility.yul\":19461:19880   */\n      swap2\n      swap1\n      pop\n      jump\t// out\n        /* \"#utility.yul\":19886:20065   */\n    tag_217:\n        /* \"#utility.yul\":20026:20057   */\n      0x496e73756666696369656e742062616c616e636520696e207374616c6c000000\n        /* \"#utility.yul\":20022:20023   */\n      0x00\n        /* \"#utility.yul\":20014:20020   */\n      dup3\n        /* \"#utility.yul\":20010:20024   */\n      add\n        /* \"#utility.yul\":20003:20058   */\n      mstore\n        /* \"#utility.yul\":19886:20065   */\n      pop\n      jump\t// out\n        /* \"#utility.yul\":20071:20437   */\n    tag_218:\n        /* \"#utility.yul\":20213:20216   */\n      0x00\n        /* \"#utility.yul\":20234:20301   */\n      tag_403\n        /* \"#utility.yul\":20298:20300   */\n      0x1d\n        /* \"#utility.yul\":20293:20296   */\n      dup4\n        /* \"#utility.yul\":20234:20301   */\n      tag_194\n      jump\t// in\n    tag_403:\n        /* \"#utility.yul\":20227:20301   */\n      swap2\n      pop\n        /* \"#utility.yul\":20310:20403   */\n      tag_404\n        /* \"#utility.yul\":20399:20402   */\n      dup3\n        /* \"#utility.yul\":20310:20403   */\n      tag_217\n      jump\t// in\n    tag_404:\n        /* \"#utility.yul\":20428:20430   */\n      0x20\n        /* \"#utility.yul\":20423:20426   */\n      dup3\n        /* \"#utility.yul\":20419:20431   */\n      add\n        /* \"#utility.yul\":20412:20431   */\n      swap1\n      pop\n        /* \"#utility.yul\":20071:20437   */\n      swap2\n      swap1\n      pop\n      jump\t// out\n        /* \"#utility.yul\":20443:20862   */\n    tag_150:\n        /* \"#utility.yul\":20609:20613   */\n      0x00\n        /* \"#utility.yul\":20647:20649   */\n      0x20\n        /* \"#utility.yul\":20636:20645   */\n      dup3\n        /* \"#utility.yul\":20632:20650   */\n      add\n        /* \"#utility.yul\":20624:20650   */\n      swap1\n      pop\n        /* \"#utility.yul\":20696:20705   */\n      dup2\n        /* \"#utility.yul\":20690:20694   */\n      dup2\n        /* \"#utility.yul\":20686:20706   */\n      sub\n        /* \"#utility.yul\":20682:20683   */\n      0x00\n        /* \"#utility.yul\":20671:20680   */\n      dup4\n        /* \"#utility.yul\":20667:20684   */\n      add\n        /* \"#utility.yul\":20660:20707   */\n      mstore\n        /* \"#utility.yul\":20724:20855   */\n      tag_406\n        /* \"#utility.yul\":20850:20854   */\n      dup2\n        /* \"#utility.yul\":20724:20855   */\n      tag_218\n      jump\t// in\n    tag_406:\n        /* \"#utility.yul\":20716:20855   */\n      swap1\n      pop\n        /* \"#utility.yul\":20443:20862   */\n      swap2\n      swap1\n      pop\n      jump\t// out\n        /* \"#utility.yul\":20868:21062   */\n    tag_152:\n        /* \"#utility.yul\":20908:20912   */\n      0x00\n        /* \"#utility.yul\":20928:20948   */\n      tag_408\n        /* \"#utility.yul\":20946:20947   */\n      dup3\n        /* \"#utility.yul\":20928:20948   */\n      tag_165\n      jump\t// in\n    tag_408:\n        /* \"#utility.yul\":20923:20948   */\n      swap2\n      pop\n        /* \"#utility.yul\":20962:20982   */\n      tag_409\n        /* \"#utility.yul\":20980:20981   */\n      dup4\n        /* \"#utility.yul\":20962:20982   */\n      tag_165\n      jump\t// in\n    tag_409:\n        /* \"#utility.yul\":20957:20982   */\n      swap3\n      pop\n        /* \"#utility.yul\":21006:21007   */\n      dup3\n        /* \"#utility.yul\":21003:21004   */\n      dup3\n        /* \"#utility.yul\":20999:21008   */\n      sub\n        /* \"#utility.yul\":20991:21008   */\n      swap1\n      pop\n        /* \"#utility.yul\":21030:21031   */\n      dup2\n        /* \"#utility.yul\":21024:21028   */\n      dup2\n        /* \"#utility.yul\":21021:21032   */\n      gt\n        /* \"#utility.yul\":21018:21055   */\n      iszero\n      tag_410\n      jumpi\n        /* \"#utility.yul\":21035:21053   */\n      tag_411\n      tag_212\n      jump\t// in\n    tag_411:\n        /* \"#utility.yul\":21018:21055   */\n    tag_410:\n        /* \"#utility.yul\":20868:21062   */\n      swap3\n      swap2\n      pop\n      pop\n      jump\t// out\n        /* \"#utility.yul\":21068:21231   */\n    tag_219:\n        /* \"#utility.yul\":21208:21223   */\n      0x526566756e64206661696c656400000000000000000000000000000000000000\n        /* \"#utility.yul\":21204:21205   */\n      0x00\n        /* \"#utility.yul\":21196:21202   */\n      dup3\n        /* \"#utility.yul\":21192:21206   */\n      add\n        /* \"#utility.yul\":21185:21224   */\n      mstore\n        /* \"#utility.yul\":21068:21231   */\n      pop\n      jump\t// out\n        /* \"#utility.yul\":21237:21603   */\n    tag_220:\n        /* \"#utility.yul\":21379:21382   */\n      0x00\n        /* \"#utility.yul\":21400:21467   */\n      tag_414\n        /* \"#utility.yul\":21464:21466   */\n      0x0d\n        /* \"#utility.yul\":21459:21462   */\n      dup4\n        /* \"#utility.yul\":21400:21467   */\n      tag_194\n      jump\t// in\n    tag_414:\n        /* \"#utility.yul\":21393:21467   */\n      swap2\n      pop\n        /* \"#utility.yul\":21476:21569   */\n      tag_415\n        /* \"#utility.yul\":21565:21568   */\n      dup3\n        /* \"#utility.yul\":21476:21569   */\n      tag_219\n      jump\t// in\n    tag_415:\n        /* \"#utility.yul\":21594:21596   */\n      0x20\n        /* \"#utility.yul\":21589:21592   */\n      dup3\n        /* \"#utility.yul\":21585:21597   */\n      add\n        /* \"#utility.yul\":21578:21597   */\n      swap1\n      pop\n        /* \"#utility.yul\":21237:21603   */\n      swap2\n      swap1\n      pop\n      jump\t// out\n        /* \"#utility.yul\":21609:22028   */\n    tag_160:\n        /* \"#utility.yul\":21775:21779   */\n      0x00\n        /* \"#utility.yul\":21813:21815   */\n      0x20\n        /* \"#utility.yul\":21802:21811   */\n      dup3\n        /* \"#utility.yul\":21798:21816   */\n      add\n        /* \"#utility.yul\":21790:21816   */\n      swap1\n      pop\n        /* \"#utility.yul\":21862:21871   */\n      dup2\n        /* \"#utility.yul\":21856:21860   */\n      dup2\n        /* \"#utility.yul\":21852:21872   */\n      sub\n        /* \"#utility.yul\":21848:21849   */\n      0x00\n        /* \"#utility.yul\":21837:21846   */\n      dup4\n        /* \"#utility.yul\":21833:21850   */\n      add\n        /* \"#utility.yul\":21826:21873   */\n      mstore\n        /* \"#utility.yul\":21890:22021   */\n      tag_417\n        /* \"#utility.yul\":22016:22020   */\n      dup2\n        /* \"#utility.yul\":21890:22021   */\n      tag_220\n      jump\t// in\n    tag_417:\n        /* \"#utility.yul\":21882:22021   */\n      swap1\n      pop\n        /* \"#utility.yul\":21609:22028   */\n      swap2\n      swap1\n      pop\n      jump\t// out\n\n    auxdata: 0xa26469706673582212206c08cf0abb7106d489bde0673843eaca34dc5eb914b1e8f2aab9c82621d385ef64736f6c634300081e0033\n}\n",
				"bytecode": {
					"linkReferences": {},
					"object": "6080604052348015600e575f5ffd5b5061199c8061001c5f395ff3fe608060405260043610610090575f3560e01c80639649bf90116100585780639649bf901461018f57806399cb043a146101b7578063c364a170146101e1578063d8f4ee5b1461021d578063e796a6eb1461025957610090565b80631b18b9ba146100945780632e1a7d4d146100d0578063417b48da146100f85780635f593a6114610134578063764af2a914610150575b5f5ffd5b34801561009f575f5ffd5b506100ba60048036038101906100b59190610fcf565b610281565b6040516100c7919061101c565b60405180910390f35b3480156100db575f5ffd5b506100f660048036038101906100f19190611035565b6102da565b005b348015610103575f5ffd5b5061011e60048036038101906101199190611060565b6105c2565b60405161012b9190611142565b60405180910390f35b61014e60048036038101906101499190611035565b610655565b005b34801561015b575f5ffd5b5061017660048036038101906101719190611035565b61089e565b604051610186949392919061122a565b60405180910390f35b34801561019a575f5ffd5b506101b560048036038101906101b09190611035565b610910565b005b3480156101c2575f5ffd5b506101cb610a76565b6040516101d8919061101c565b60405180910390f35b3480156101ec575f5ffd5b506102076004803603810190610202919061126d565b610a7b565b604051610214919061101c565b60405180910390f35b348015610228575f5ffd5b50610243600480360381019061023e91906112ce565b610aa6565b604051610250919061101c565b60405180910390f35b348015610264575f5ffd5b5061027f600480360381019061027a9190611334565b610c27565b005b5f60015f8481526020019081526020015f206002015f8373ffffffffffffffffffffffffffffffffffffffff1673ffffffffffffffffffffffffffffffffffffffff1681526020019081526020015f2054905092915050565b803373ffffffffffffffffffffffffffffffffffffffff1660015f8381526020019081526020015f205f015f9054906101000a900473ffffffffffffffffffffffffffffffffffffffff1673ffffffffffffffffffffffffffffffffffffffff161461037b576040517f08c379a0000000000000000000000000000000000000000000000000000000008152600401610372906113de565b60405180910390fd5b6001600281111561038f5761038e611171565b5b60015f8481526020019081526020015f205f0160159054906101000a900460ff1660028111156103c2576103c1611171565b5b14610402576040517f08c379a00000000000000000000000000000000000000000000000000000000081526004016103f990611446565b60405180910390fd5b5f60015f8481526020019081526020015f206001015411610458576040517f08c379a000000000000000000000000000000000000000000000000000000000815260040161044f906114ae565b60405180910390fd5b5f60015f8481526020019081526020015f206001015490505f60015f8581526020019081526020015f2060010181905550600260015f8581526020019081526020015f205f0160156101000a81548160ff021916908360028111156104c0576104bf611171565b5b02179055505f3373ffffffffffffffffffffffffffffffffffffffff16826040516104ea906114f9565b5f6040518083038185875af1925050503d805f8114610524576040519150601f19603f3d011682016040523d82523d5f602084013e610529565b606091505b505090508061056d576040517f08c379a000000000000000000000000000000000000000000000000000000000815260040161056490611557565b60405180910390fd5b3373ffffffffffffffffffffffffffffffffffffffff16847f37e8063b72a944a76de602f32b82fd8c2a1c6f99564c727ffaf913c7762cd420846040516105b4919061101c565b60405180910390a350505050565b606060025f8373ffffffffffffffffffffffffffffffffffffffff1673ffffffffffffffffffffffffffffffffffffffff1681526020019081526020015f2080548060200260200160405190810160405280929190818152602001828054801561064957602002820191905f5260205f20905b815481526020019060010190808311610635575b50505050509050919050565b5f73ffffffffffffffffffffffffffffffffffffffff1660015f8381526020019081526020015f205f015f9054906101000a900473ffffffffffffffffffffffffffffffffffffffff1673ffffffffffffffffffffffffffffffffffffffff16036106f5576040517f08c379a00000000000000000000000000000000000000000000000000000000081526004016106ec906115bf565b60405180910390fd5b5f600281111561070857610707611171565b5b60015f8381526020019081526020015f205f0160159054906101000a900460ff16600281111561073b5761073a611171565b5b1461077b576040517f08c379a000000000000000000000000000000000000000000000000000000000815260040161077290611627565b60405180910390fd5b5f34116107bd576040517f08c379a00000000000000000000000000000000000000000000000000000000081526004016107b49061168f565b60405180910390fd5b3460015f8381526020019081526020015f206001015f8282546107e091906116da565b925050819055503460015f8381526020019081526020015f206002015f3373ffffffffffffffffffffffffffffffffffffffff1673ffffffffffffffffffffffffffffffffffffffff1681526020019081526020015f205f82825461084591906116da565b925050819055503373ffffffffffffffffffffffffffffffffffffffff16817f4d3f6d68b42e1e039d6e7323b2b8bdeaf223f453882ce17a5984f4d6aabbdb3334604051610893919061101c565b60405180910390a350565b5f5f5f5f5f60015f8781526020019081526020015f209050805f015f9054906101000a900473ffffffffffffffffffffffffffffffffffffffff16815f0160149054906101000a900460ff16825f0160159054906101000a900460ff1683600101549450945094509450509193509193565b803373ffffffffffffffffffffffffffffffffffffffff1660015f8381526020019081526020015f205f015f9054906101000a900473ffffffffffffffffffffffffffffffffffffffff1673ffffffffffffffffffffffffffffffffffffffff16146109b1576040517f08c379a00000000000000000000000000000000000000000000000000000000081526004016109a8906113de565b60405180910390fd5b5f60028111156109c4576109c3611171565b5b60015f8481526020019081526020015f205f0160159054906101000a900460ff1660028111156109f7576109f6611171565b5b14610a37576040517f08c379a0000000000000000000000000000000000000000000000000000000008152600401610a2e9061177d565b60405180910390fd5b6001805f8481526020019081526020015f205f0160156101000a81548160ff02191690836002811115610a6d57610a6c611171565b5b02179055505050565b5f5481565b6002602052815f5260405f208181548110610a94575f80fd5b905f5260205f20015f91509150505481565b5f5f5f815480929190610ab89061179b565b91905055505f5f5490505f60015f8381526020019081526020015f20905033815f015f6101000a81548173ffffffffffffffffffffffffffffffffffffffff021916908373ffffffffffffffffffffffffffffffffffffffff16021790555083815f0160146101000a81548160ff02191690836002811115610b3d57610b3c611171565b5b02179055505f815f0160156101000a81548160ff02191690836002811115610b6857610b67611171565b5b021790555060025f3373ffffffffffffffffffffffffffffffffffffffff1673ffffffffffffffffffffffffffffffffffffffff1681526020019081526020015f2082908060018154018082558091505060019003905f5260205f20015f90919091909150553373ffffffffffffffffffffffffffffffffffffffff16827fc4afec621b00a8476c4eaa76d731dbaf984e16bd432f57543ac5e43615da1a9886604051610c1591906117e2565b60405180910390a38192505050919050565b823373ffffffffffffffffffffffffffffffffffffffff1660015f8381526020019081526020015f205f015f9054906101000a900473ffffffffffffffffffffffffffffffffffffffff1673ffffffffffffffffffffffffffffffffffffffff1614610cc8576040517f08c379a0000000000000000000000000000000000000000000000000000000008152600401610cbf906113de565b60405180910390fd5b8160015f8681526020019081526020015f206002015f8573ffffffffffffffffffffffffffffffffffffffff1673ffffffffffffffffffffffffffffffffffffffff1681526020019081526020015f20541015610d5a576040517f08c379a0000000000000000000000000000000000000000000000000000000008152600401610d5190611845565b60405180910390fd5b8160015f8681526020019081526020015f20600101541015610db1576040517f08c379a0000000000000000000000000000000000000000000000000000000008152600401610da8906118ad565b60405180910390fd5b8160015f8681526020019081526020015f206002015f8573ffffffffffffffffffffffffffffffffffffffff1673ffffffffffffffffffffffffffffffffffffffff1681526020019081526020015f205f828254610e0f91906118cb565b925050819055508160015f8681526020019081526020015f206001015f828254610e3991906118cb565b925050819055505f8373ffffffffffffffffffffffffffffffffffffffff1683604051610e65906114f9565b5f6040518083038185875af1925050503d805f8114610e9f576040519150601f19603f3d011682016040523d82523d5f602084013e610ea4565b606091505b5050905080610ee8576040517f08c379a0000000000000000000000000000000000000000000000000000000008152600401610edf90611948565b60405180910390fd5b8373ffffffffffffffffffffffffffffffffffffffff16857f7a482fdeb6bc9a1376f597068a214a7a39472bb2eff1b8cad21ba04f49ddca1b85604051610f2f919061101c565b60405180910390a35050505050565b5f5ffd5b5f819050919050565b610f5481610f42565b8114610f5e575f5ffd5b50565b5f81359050610f6f81610f4b565b92915050565b5f73ffffffffffffffffffffffffffffffffffffffff82169050919050565b5f610f9e82610f75565b9050919050565b610fae81610f94565b8114610fb8575f5ffd5b50565b5f81359050610fc981610fa5565b92915050565b5f5f60408385031215610fe557610fe4610f3e565b5b5f610ff285828601610f61565b925050602061100385828601610fbb565b9150509250929050565b61101681610f42565b82525050565b5f60208201905061102f5f83018461100d565b92915050565b5f6020828403121561104a57611049610f3e565b5b5f61105784828501610f61565b91505092915050565b5f6020828403121561107557611074610f3e565b5b5f61108284828501610fbb565b91505092915050565b5f81519050919050565b5f82825260208201905092915050565b5f819050602082019050919050565b6110bd81610f42565b82525050565b5f6110ce83836110b4565b60208301905092915050565b5f602082019050919050565b5f6110f08261108b565b6110fa8185611095565b9350611105836110a5565b805f5b8381101561113557815161111c88826110c3565b9750611127836110da565b925050600181019050611108565b5085935050505092915050565b5f6020820190508181035f83015261115a81846110e6565b905092915050565b61116b81610f94565b82525050565b7f4e487b71000000000000000000000000000000000000000000000000000000005f52602160045260245ffd5b600381106111af576111ae611171565b5b50565b5f8190506111bf8261119e565b919050565b5f6111ce826111b2565b9050919050565b6111de816111c4565b82525050565b600381106111f5576111f4611171565b5b50565b5f819050611205826111e4565b919050565b5f611214826111f8565b9050919050565b6112248161120a565b82525050565b5f60808201905061123d5f830187611162565b61124a60208301866111d5565b611257604083018561121b565b611264606083018461100d565b95945050505050565b5f5f6040838503121561128357611282610f3e565b5b5f61129085828601610fbb565b92505060206112a185828601610f61565b9150509250929050565b600381106112b7575f5ffd5b50565b5f813590506112c8816112ab565b92915050565b5f602082840312156112e3576112e2610f3e565b5b5f6112f0848285016112ba565b91505092915050565b5f61130382610f75565b9050919050565b611313816112f9565b811461131d575f5ffd5b50565b5f8135905061132e8161130a565b92915050565b5f5f5f6060848603121561134b5761134a610f3e565b5b5f61135886828701610f61565b935050602061136986828701611320565b925050604061137a86828701610f61565b9150509250925092565b5f82825260208201905092915050565b7f4e6f74207374616c6c206f776e657200000000000000000000000000000000005f82015250565b5f6113c8600f83611384565b91506113d382611394565b602082019050919050565b5f6020820190508181035f8301526113f5816113bc565b9050919050565b7f5374616c6c206e6f7420636c6f736564207965740000000000000000000000005f82015250565b5f611430601483611384565b915061143b826113fc565b602082019050919050565b5f6020820190508181035f83015261145d81611424565b9050919050565b7f4e6f7468696e6720746f207769746864726177000000000000000000000000005f82015250565b5f611498601383611384565b91506114a382611464565b602082019050919050565b5f6020820190508181035f8301526114c58161148c565b9050919050565b5f81905092915050565b50565b5f6114e45f836114cc565b91506114ef826114d6565b5f82019050919050565b5f611503826114d9565b9150819050919050565b7f5769746864726177616c206661696c65640000000000000000000000000000005f82015250565b5f611541601183611384565b915061154c8261150d565b602082019050919050565b5f6020820190508181035f83015261156e81611535565b9050919050565b7f496e76616c6964207374616c6c000000000000000000000000000000000000005f82015250565b5f6115a9600d83611384565b91506115b482611575565b602082019050919050565b5f6020820190508181035f8301526115d68161159d565b9050919050565b7f5374616c6c206e6f7420616363657074696e67207061796d656e7473000000005f82015250565b5f611611601c83611384565b915061161c826115dd565b602082019050919050565b5f6020820190508181035f83015261163e81611605565b9050919050565b7f4e6f207061796d656e742073656e7400000000000000000000000000000000005f82015250565b5f611679600f83611384565b915061168482611645565b602082019050919050565b5f6020820190508181035f8301526116a68161166d565b9050919050565b7f4e487b71000000000000000000000000000000000000000000000000000000005f52601160045260245ffd5b5f6116e482610f42565b91506116ef83610f42565b9250828201905080821115611707576117066116ad565b5b92915050565b7f5374616c6c20616c726561647920636c6f736564206f722077697468647261775f8201527f6e00000000000000000000000000000000000000000000000000000000000000602082015250565b5f611767602183611384565b91506117728261170d565b604082019050919050565b5f6020820190508181035f8301526117948161175b565b9050919050565b5f6117a582610f42565b91507fffffffffffffffffffffffffffffffffffffffffffffffffffffffffffffffff82036117d7576117d66116ad565b5b600182019050919050565b5f6020820190506117f55f8301846111d5565b92915050565b7f526566756e642065786365656473207061796d656e74000000000000000000005f82015250565b5f61182f601683611384565b915061183a826117fb565b602082019050919050565b5f6020820190508181035f83015261185c81611823565b9050919050565b7f496e73756666696369656e742062616c616e636520696e207374616c6c0000005f82015250565b5f611897601d83611384565b91506118a282611863565b602082019050919050565b5f6020820190508181035f8301526118c48161188b565b9050919050565b5f6118d582610f42565b91506118e083610f42565b92508282039050818111156118f8576118f76116ad565b5b92915050565b7f526566756e64206661696c6564000000000000000000000000000000000000005f82015250565b5f611932600d83611384565b915061193d826118fe565b602082019050919050565b5f6020820190508181035f83015261195f81611926565b905091905056fea26469706673582212206c08cf0abb7106d489bde0673843eaca34dc5eb914b1e8f2aab9c82621d385ef64736f6c634300081e0033",
					"opcodes": "PUSH1 0x80 PUSH1 0x40 MSTORE CALLVALUE DUP1 ISZERO PUSH1 0xE JUMPI PUSH0 PUSH0 REVERT JUMPDEST POP PUSH2 0x199C DUP1 PUSH2 0x1C PUSH0 CODECOPY PUSH0 RETURN INVALID PUSH1 0x80 PUSH1 0x40 MSTORE PUSH1 0x4 CALLDATASIZE LT PUSH2 0x90 JUMPI PUSH0 CALLDATALOAD PUSH1 0xE0 SHR DUP1 PUSH4 0x9649BF90 GT PUSH2 0x58 JUMPI DUP1 PUSH4 0x9649BF90 EQ PUSH2 0x18F JUMPI DUP1 PUSH4 0x99CB043A EQ PUSH2 0x1B7 JUMPI DUP1 PUSH4 0xC364A170 EQ PUSH2 0x1E1 JUMPI DUP1 PUSH4 0xD8F4EE5B EQ PUSH2 0x21D JUMPI DUP1 PUSH4 0xE796A6EB EQ PUSH2 0x259 JUMPI PUSH2 0x90 JUMP JUMPDEST DUP1 PUSH4 0x1B18B9BA EQ PUSH2 0x94 JUMPI DUP1 PUSH4 0x2E1A7D4D EQ PUSH2 0xD0 JUMPI DUP1 PUSH4 0x417B48DA EQ PUSH2 0xF8 JUMPI DUP1 PUSH4 0x5F593A61 EQ PUSH2 0x134 JUMPI DUP1 PUSH4 0x764AF2A9 EQ PUSH2 0x150 JUMPI JUMPDEST PUSH0 PUSH0 REVERT JUMPDEST CALLVALUE DUP1 ISZERO PUSH2 0x9F JUMPI PUSH0 PUSH0 REVERT JUMPDEST POP PUSH2 0xBA PUSH1 0x4 DUP1 CALLDATASIZE SUB DUP2 ADD SWAP1 PUSH2 0xB5 SWAP2 SWAP1 PUSH2 0xFCF JUMP JUMPDEST PUSH2 0x281 JUMP JUMPDEST PUSH1 0x40 MLOAD PUSH2 0xC7 SWAP2 SWAP1 PUSH2 0x101C JUMP JUMPDEST PUSH1 0x40 MLOAD DUP1 SWAP2 SUB SWAP1 RETURN JUMPDEST CALLVALUE DUP1 ISZERO PUSH2 0xDB JUMPI PUSH0 PUSH0 REVERT JUMPDEST POP PUSH2 0xF6 PUSH1 0x4 DUP1 CALLDATASIZE SUB DUP2 ADD SWAP1 PUSH2 0xF1 SWAP2 SWAP1 PUSH2 0x1035 JUMP JUMPDEST PUSH2 0x2DA JUMP JUMPDEST STOP JUMPDEST CALLVALUE DUP1 ISZERO PUSH2 0x103 JUMPI PUSH0 PUSH0 REVERT JUMPDEST POP PUSH2 0x11E PUSH1 0x4 DUP1 CALLDATASIZE SUB DUP2 ADD SWAP1 PUSH2 0x119 SWAP2 SWAP1 PUSH2 0x1060 JUMP JUMPDEST PUSH2 0x5C2 JUMP JUMPDEST PUSH1 0x40 MLOAD PUSH2 0x12B SWAP2 SWAP1 PUSH2 0x1142 JUMP JUMPDEST PUSH1 0x40 MLOAD DUP1 SWAP2 SUB SWAP1 RETURN JUMPDEST PUSH2 0x14E PUSH1 0x4 DUP1 CALLDATASIZE SUB DUP2 ADD SWAP1 PUSH2 0x149 SWAP2 SWAP1 PUSH2 0x1035 JUMP JUMPDEST PUSH2 0x655 JUMP JUMPDEST STOP JUMPDEST CALLVALUE DUP1 ISZERO PUSH2 0x15B JUMPI PUSH0 PUSH0 REVERT JUMPDEST POP PUSH2 0x176 PUSH1 0x4 DUP1 CALLDATASIZE SUB DUP2 ADD SWAP1 PUSH2 0x171 SWAP2 SWAP1 PUSH2 0x1035 JUMP JUMPDEST PUSH2 0x89E JUMP JUMPDEST PUSH1 0x40 MLOAD PUSH2 0x186 SWAP5 SWAP4 SWAP3 SWAP2 SWAP1 PUSH2 0x122A JUMP JUMPDEST PUSH1 0x40 MLOAD DUP1 SWAP2 SUB SWAP1 RETURN JUMPDEST CALLVALUE DUP1 ISZERO PUSH2 0x19A JUMPI PUSH0 PUSH0 REVERT JUMPDEST POP PUSH2 0x1B5 PUSH1 0x4 DUP1 CALLDATASIZE SUB DUP2 ADD SWAP1 PUSH2 0x1B0 SWAP2 SWAP1 PUSH2 0x1035 JUMP JUMPDEST PUSH2 0x910 JUMP JUMPDEST STOP JUMPDEST CALLVALUE DUP1 ISZERO PUSH2 0x1C2 JUMPI PUSH0 PUSH0 REVERT JUMPDEST POP PUSH2 0x1CB PUSH2 0xA76 JUMP JUMPDEST PUSH1 0x40 MLOAD PUSH2 0x1D8 SWAP2 SWAP1 PUSH2 0x101C JUMP JUMPDEST PUSH1 0x40 MLOAD DUP1 SWAP2 SUB SWAP1 RETURN JUMPDEST CALLVALUE DUP1 ISZERO PUSH2 0x1EC JUMPI PUSH0 PUSH0 REVERT JUMPDEST POP PUSH2 0x207 PUSH1 0x4 DUP1 CALLDATASIZE SUB DUP2 ADD SWAP1 PUSH2 0x202 SWAP2 SWAP1 PUSH2 0x126D JUMP JUMPDEST PUSH2 0xA7B JUMP JUMPDEST PUSH1 0x40 MLOAD PUSH2 0x214 SWAP2 SWAP1 PUSH2 0x101C JUMP JUMPDEST PUSH1 0x40 MLOAD DUP1 SWAP2 SUB SWAP1 RETURN JUMPDEST CALLVALUE DUP1 ISZERO PUSH2 0x228 JUMPI PUSH0 PUSH0 REVERT JUMPDEST POP PUSH2 0x243 PUSH1 0x4 DUP1 CALLDATASIZE SUB DUP2 ADD SWAP1 PUSH2 0x23E SWAP2 SWAP1 PUSH2 0x12CE JUMP JUMPDEST PUSH2 0xAA6 JUMP JUMPDEST PUSH1 0x40 MLOAD PUSH2 0x250 SWAP2 SWAP1 PUSH2 0x101C JUMP JUMPDEST PUSH1 0x40 MLOAD DUP1 SWAP2 SUB SWAP1 RETURN JUMPDEST CALLVALUE DUP1 ISZERO PUSH2 0x264 JUMPI PUSH0 PUSH0 REVERT JUMPDEST POP PUSH2 0x27F PUSH1 0x4 DUP1 CALLDATASIZE SUB DUP2 ADD SWAP1 PUSH2 0x27A SWAP2 SWAP1 PUSH2 0x1334 JUMP JUMPDEST PUSH2 0xC27 JUMP JUMPDEST STOP JUMPDEST PUSH0 PUSH1 0x1 PUSH0 DUP5 DUP2 MSTORE PUSH1 0x20 ADD SWAP1 DUP2 MSTORE PUSH1 0x20 ADD PUSH0 KECCAK256 PUSH1 0x2 ADD PUSH0 DUP4 PUSH20 0xFFFFFFFFFFFFFFFFFFFFFFFFFFFFFFFFFFFFFFFF AND PUSH20 0xFFFFFFFFFFFFFFFFFFFFFFFFFFFFFFFFFFFFFFFF AND DUP2 MSTORE PUSH1 0x20 ADD SWAP1 DUP2 MSTORE PUSH1 0x20 ADD PUSH0 KECCAK256 SLOAD SWAP1 POP SWAP3 SWAP2 POP POP JUMP JUMPDEST DUP1 CALLER PUSH20 0xFFFFFFFFFFFFFFFFFFFFFFFFFFFFFFFFFFFFFFFF AND PUSH1 0x1 PUSH0 DUP4 DUP2 MSTORE PUSH1 0x20 ADD SWAP1 DUP2 MSTORE PUSH1 0x20 ADD PUSH0 KECCAK256 PUSH0 ADD PUSH0 SWAP1 SLOAD SWAP1 PUSH2 0x100 EXP SWAP1 DIV PUSH20 0xFFFFFFFFFFFFFFFFFFFFFFFFFFFFFFFFFFFFFFFF AND PUSH20 0xFFFFFFFFFFFFFFFFFFFFFFFFFFFFFFFFFFFFFFFF AND EQ PUSH2 0x37B JUMPI PUSH1 0x40 MLOAD PUSH32 0x8C379A000000000000000000000000000000000000000000000000000000000 DUP2 MSTORE PUSH1 0x4 ADD PUSH2 0x372 SWAP1 PUSH2 0x13DE JUMP JUMPDEST PUSH1 0x40 MLOAD DUP1 SWAP2 SUB SWAP1 REVERT JUMPDEST PUSH1 0x1 PUSH1 0x2 DUP2 GT ISZERO PUSH2 0x38F JUMPI PUSH2 0x38E PUSH2 0x1171 JUMP JUMPDEST JUMPDEST PUSH1 0x1 PUSH0 DUP5 DUP2 MSTORE PUSH1 0x20 ADD SWAP1 DUP2 MSTORE PUSH1 0x20 ADD PUSH0 KECCAK256 PUSH0 ADD PUSH1 0x15 SWAP1 SLOAD SWAP1 PUSH2 0x100 EXP SWAP1 DIV PUSH1 0xFF AND PUSH1 0x2 DUP2 GT ISZERO PUSH2 0x3C2 JUMPI PUSH2 0x3C1 PUSH2 0x1171 JUMP JUMPDEST JUMPDEST EQ PUSH2 0x402 JUMPI PUSH1 0x40 MLOAD PUSH32 0x8C379A000000000000000000000000000000000000000000000000000000000 DUP2 MSTORE PUSH1 0x4 ADD PUSH2 0x3F9 SWAP1 PUSH2 0x1446 JUMP JUMPDEST PUSH1 0x40 MLOAD DUP1 SWAP2 SUB SWAP1 REVERT JUMPDEST PUSH0 PUSH1 0x1 PUSH0 DUP5 DUP2 MSTORE PUSH1 0x20 ADD SWAP1 DUP2 MSTORE PUSH1 0x20 ADD PUSH0 KECCAK256 PUSH1 0x1 ADD SLOAD GT PUSH2 0x458 JUMPI PUSH1 0x40 MLOAD PUSH32 0x8C379A000000000000000000000000000000000000000000000000000000000 DUP2 MSTORE PUSH1 0x4 ADD PUSH2 0x44F SWAP1 PUSH2 0x14AE JUMP JUMPDEST PUSH1 0x40 MLOAD DUP1 SWAP2 SUB SWAP1 REVERT JUMPDEST PUSH0 PUSH1 0x1 PUSH0 DUP5 DUP2 MSTORE PUSH1 0x20 ADD SWAP1 DUP2 MSTORE PUSH1 0x20 ADD PUSH0 KECCAK256 PUSH1 0x1 ADD SLOAD SWAP1 POP PUSH0 PUSH1 0x1 PUSH0 DUP6 DUP2 MSTORE PUSH1 0x20 ADD SWAP1 DUP2 MSTORE PUSH1 0x20 ADD PUSH0 KECCAK256 PUSH1 0x1 ADD DUP2 SWAP1 SSTORE POP PUSH1 0x2 PUSH1 0x1 PUSH0 DUP6 DUP2 MSTORE PUSH1 0x20 ADD SWAP1 DUP2 MSTORE PUSH1 0x20 ADD PUSH0 KECCAK256 PUSH0 ADD PUSH1 0x15 PUSH2 0x100 EXP DUP2 SLOAD DUP2 PUSH1 0xFF MUL NOT AND SWAP1 DUP4 PUSH1 0x2 DUP2 GT ISZERO PUSH2 0x4C0 JUMPI PUSH2 0x4BF PUSH2 0x1171 JUMP JUMPDEST JUMPDEST MUL OR SWAP1 SSTORE POP PUSH0 CALLER PUSH20 0xFFFFFFFFFFFFFFFFFFFFFFFFFFFFFFFFFFFFFFFF AND DUP3 PUSH1 0x40 MLOAD PUSH2 0x4EA SWAP1 PUSH2 0x14F9 JUMP JUMPDEST PUSH0 PUSH1 0x40 MLOAD DUP1 DUP4 SUB DUP2 DUP6 DUP8 GAS CALL SWAP3 POP POP POP RETURNDATASIZE DUP1 PUSH0 DUP2 EQ PUSH2 0x524 JUMPI PUSH1 0x40 MLOAD SWAP2 POP PUSH1 0x1F NOT PUSH1 0x3F RETURNDATASIZE ADD AND DUP3 ADD PUSH1 0x40 MSTORE RETURNDATASIZE DUP3 MSTORE RETURNDATASIZE PUSH0 PUSH1 0x20 DUP5 ADD RETURNDATACOPY PUSH2 0x529 JUMP JUMPDEST PUSH1 0x60 SWAP2 POP JUMPDEST POP POP SWAP1 POP DUP1 PUSH2 0x56D JUMPI PUSH1 0x40 MLOAD PUSH32 0x8C379A000000000000000000000000000000000000000000000000000000000 DUP2 MSTORE PUSH1 0x4 ADD PUSH2 0x564 SWAP1 PUSH2 0x1557 JUMP JUMPDEST PUSH1 0x40 MLOAD DUP1 SWAP2 SUB SWAP1 REVERT JUMPDEST CALLER PUSH20 0xFFFFFFFFFFFFFFFFFFFFFFFFFFFFFFFFFFFFFFFF AND DUP5 PUSH32 0x37E8063B72A944A76DE602F32B82FD8C2A1C6F99564C727FFAF913C7762CD420 DUP5 PUSH1 0x40 MLOAD PUSH2 0x5B4 SWAP2 SWAP1 PUSH2 0x101C JUMP JUMPDEST PUSH1 0x40 MLOAD DUP1 SWAP2 SUB SWAP1 LOG3 POP POP POP POP JUMP JUMPDEST PUSH1 0x60 PUSH1 0x2 PUSH0 DUP4 PUSH20 0xFFFFFFFFFFFFFFFFFFFFFFFFFFFFFFFFFFFFFFFF AND PUSH20 0xFFFFFFFFFFFFFFFFFFFFFFFFFFFFFFFFFFFFFFFF AND DUP2 MSTORE PUSH1 0x20 ADD SWAP1 DUP2 MSTORE PUSH1 0x20 ADD PUSH0 KECCAK256 DUP1 SLOAD DUP1 PUSH1 0x20 MUL PUSH1 0x20 ADD PUSH1 0x40 MLOAD SWAP1 DUP2 ADD PUSH1 0x40 MSTORE DUP1 SWAP3 SWAP2 SWAP1 DUP2 DUP2 MSTORE PUSH1 0x20 ADD DUP3 DUP1 SLOAD DUP1 ISZERO PUSH2 0x649 JUMPI PUSH1 0x20 MUL DUP3 ADD SWAP2 SWAP1 PUSH0 MSTORE PUSH1 0x20 PUSH0 KECCAK256 SWAP1 JUMPDEST DUP2 SLOAD DUP2 MSTORE PUSH1 0x20 ADD SWAP1 PUSH1 0x1 ADD SWAP1 DUP1 DUP4 GT PUSH2 0x635 JUMPI JUMPDEST POP POP POP POP POP SWAP1 POP SWAP2 SWAP1 POP JUMP JUMPDEST PUSH0 PUSH20 0xFFFFFFFFFFFFFFFFFFFFFFFFFFFFFFFFFFFFFFFF AND PUSH1 0x1 PUSH0 DUP4 DUP2 MSTORE PUSH1 0x20 ADD SWAP1 DUP2 MSTORE PUSH1 0x20 ADD PUSH0 KECCAK256 PUSH0 ADD PUSH0 SWAP1 SLOAD SWAP1 PUSH2 0x100 EXP SWAP1 DIV PUSH20 0xFFFFFFFFFFFFFFFFFFFFFFFFFFFFFFFFFFFFFFFF AND PUSH20 0xFFFFFFFFFFFFFFFFFFFFFFFFFFFFFFFFFFFFFFFF AND SUB PUSH2 0x6F5 JUMPI PUSH1 0x40 MLOAD PUSH32 0x8C379A000000000000000000000000000000000000000000000000000000000 DUP2 MSTORE PUSH1 0x4 ADD PUSH2 0x6EC SWAP1 PUSH2 0x15BF JUMP JUMPDEST PUSH1 0x40 MLOAD DUP1 SWAP2 SUB SWAP1 REVERT JUMPDEST PUSH0 PUSH1 0x2 DUP2 GT ISZERO PUSH2 0x708 JUMPI PUSH2 0x707 PUSH2 0x1171 JUMP JUMPDEST JUMPDEST PUSH1 0x1 PUSH0 DUP4 DUP2 MSTORE PUSH1 0x20 ADD SWAP1 DUP2 MSTORE PUSH1 0x20 ADD PUSH0 KECCAK256 PUSH0 ADD PUSH1 0x15 SWAP1 SLOAD SWAP1 PUSH2 0x100 EXP SWAP1 DIV PUSH1 0xFF AND PUSH1 0x2 DUP2 GT ISZERO PUSH2 0x73B JUMPI PUSH2 0x73A PUSH2 0x1171 JUMP JUMPDEST JUMPDEST EQ PUSH2 0x77B JUMPI PUSH1 0x40 MLOAD PUSH32 0x8C379A000000000000000000000000000000000000000000000000000000000 DUP2 MSTORE PUSH1 0x4 ADD PUSH2 0x772 SWAP1 PUSH2 0x1627 JUMP JUMPDEST PUSH1 0x40 MLOAD DUP1 SWAP2 SUB SWAP1 REVERT JUMPDEST PUSH0 CALLVALUE GT PUSH2 0x7BD JUMPI PUSH1 0x40 MLOAD PUSH32 0x8C379A000000000000000000000000000000000000000000000000000000000 DUP2 MSTORE PUSH1 0x4 ADD PUSH2 0x7B4 SWAP1 PUSH2 0x168F JUMP JUMPDEST PUSH1 0x40 MLOAD DUP1 SWAP2 SUB SWAP1 REVERT JUMPDEST CALLVALUE PUSH1 0x1 PUSH0 DUP4 DUP2 MSTORE PUSH1 0x20 ADD SWAP1 DUP2 MSTORE PUSH1 0x20 ADD PUSH0 KECCAK256 PUSH1 0x1 ADD PUSH0 DUP3 DUP3 SLOAD PUSH2 0x7E0 SWAP2 SWAP1 PUSH2 0x16DA JUMP JUMPDEST SWAP3 POP POP DUP2 SWAP1 SSTORE POP CALLVALUE PUSH1 0x1 PUSH0 DUP4 DUP2 MSTORE PUSH1 0x20 ADD SWAP1 DUP2 MSTORE PUSH1 0x20 ADD PUSH0 KECCAK256 PUSH1 0x2 ADD PUSH0 CALLER PUSH20 0xFFFFFFFFFFFFFFFFFFFFFFFFFFFFFFFFFFFFFFFF AND PUSH20 0xFFFFFFFFFFFFFFFFFFFFFFFFFFFFFFFFFFFFFFFF AND DUP2 MSTORE PUSH1 0x20 ADD SWAP1 DUP2 MSTORE PUSH1 0x20 ADD PUSH0 KECCAK256 PUSH0 DUP3 DUP3 SLOAD PUSH2 0x845 SWAP2 SWAP1 PUSH2 0x16DA JUMP JUMPDEST SWAP3 POP POP DUP2 SWAP1 SSTORE POP CALLER PUSH20 0xFFFFFFFFFFFFFFFFFFFFFFFFFFFFFFFFFFFFFFFF AND DUP2 PUSH32 0x4D3F6D68B42E1E039D6E7323B2B8BDEAF223F453882CE17A5984F4D6AABBDB33 CALLVALUE PUSH1 0x40 MLOAD PUSH2 0x893 SWAP2 SWAP1 PUSH2 0x101C JUMP JUMPDEST PUSH1 0x40 MLOAD DUP1 SWAP2 SUB SWAP1 LOG3 POP JUMP JUMPDEST PUSH0 PUSH0 PUSH0 PUSH0 PUSH0 PUSH1 0x1 PUSH0 DUP8 DUP2 MSTORE PUSH1 0x20 ADD SWAP1 DUP2 MSTORE PUSH1 0x20 ADD PUSH0 KECCAK256 SWAP1 POP DUP1 PUSH0 ADD PUSH0 SWAP1 SLOAD SWAP1 PUSH2 0x100 EXP SWAP1 DIV PUSH20 0xFFFFFFFFFFFFFFFFFFFFFFFFFFFFFFFFFFFFFFFF AND DUP2 PUSH0 ADD PUSH1 0x14 SWAP1 SLOAD SWAP1 PUSH2 0x100 EXP SWAP1 DIV PUSH1 0xFF AND DUP3 PUSH0 ADD PUSH1 0x15 SWAP1 SLOAD SWAP1 PUSH2 0x100 EXP SWAP1 DIV PUSH1 0xFF AND DUP4 PUSH1 0x1 ADD SLOAD SWAP5 POP SWAP5 POP SWAP5 POP SWAP5 POP POP SWAP2 SWAP4 POP SWAP2 SWAP4 JUMP JUMPDEST DUP1 CALLER PUSH20 0xFFFFFFFFFFFFFFFFFFFFFFFFFFFFFFFFFFFFFFFF AND PUSH1 0x1 PUSH0 DUP4 DUP2 MSTORE PUSH1 0x20 ADD SWAP1 DUP2 MSTORE PUSH1 0x20 ADD PUSH0 KECCAK256 PUSH0 ADD PUSH0 SWAP1 SLOAD SWAP1 PUSH2 0x100 EXP SWAP1 DIV PUSH20 0xFFFFFFFFFFFFFFFFFFFFFFFFFFFFFFFFFFFFFFFF AND PUSH20 0xFFFFFFFFFFFFFFFFFFFFFFFFFFFFFFFFFFFFFFFF AND EQ PUSH2 0x9B1 JUMPI PUSH1 0x40 MLOAD PUSH32 0x8C379A000000000000000000000000000000000000000000000000000000000 DUP2 MSTORE PUSH1 0x4 ADD PUSH2 0x9A8 SWAP1 PUSH2 0x13DE JUMP JUMPDEST PUSH1 0x40 MLOAD DUP1 SWAP2 SUB SWAP1 REVERT JUMPDEST PUSH0 PUSH1 0x2 DUP2 GT ISZERO PUSH2 0x9C4 JUMPI PUSH2 0x9C3 PUSH2 0x1171 JUMP JUMPDEST JUMPDEST PUSH1 0x1 PUSH0 DUP5 DUP2 MSTORE PUSH1 0x20 ADD SWAP1 DUP2 MSTORE PUSH1 0x20 ADD PUSH0 KECCAK256 PUSH0 ADD PUSH1 0x15 SWAP1 SLOAD SWAP1 PUSH2 0x100 EXP SWAP1 DIV PUSH1 0xFF AND PUSH1 0x2 DUP2 GT ISZERO PUSH2 0x9F7 JUMPI PUSH2 0x9F6 PUSH2 0x1171 JUMP JUMPDEST JUMPDEST EQ PUSH2 0xA37 JUMPI PUSH1 0x40 MLOAD PUSH32 0x8C379A000000000000000000000000000000000000000000000000000000000 DUP2 MSTORE PUSH1 0x4 ADD PUSH2 0xA2E SWAP1 PUSH2 0x177D JUMP JUMPDEST PUSH1 0x40 MLOAD DUP1 SWAP2 SUB SWAP1 REVERT JUMPDEST PUSH1 0x1 DUP1 PUSH0 DUP5 DUP2 MSTORE PUSH1 0x20 ADD SWAP1 DUP2 MSTORE PUSH1 0x20 ADD PUSH0 KECCAK256 PUSH0 ADD PUSH1 0x15 PUSH2 0x100 EXP DUP2 SLOAD DUP2 PUSH1 0xFF MUL NOT AND SWAP1 DUP4 PUSH1 0x2 DUP2 GT ISZERO PUSH2 0xA6D JUMPI PUSH2 0xA6C PUSH2 0x1171 JUMP JUMPDEST JUMPDEST MUL OR SWAP1 SSTORE POP POP POP JUMP JUMPDEST PUSH0 SLOAD DUP2 JUMP JUMPDEST PUSH1 0x2 PUSH1 0x20 MSTORE DUP2 PUSH0 MSTORE PUSH1 0x40 PUSH0 KECCAK256 DUP2 DUP2 SLOAD DUP2 LT PUSH2 0xA94 JUMPI PUSH0 DUP1 REVERT JUMPDEST SWAP1 PUSH0 MSTORE PUSH1 0x20 PUSH0 KECCAK256 ADD PUSH0 SWAP2 POP SWAP2 POP POP SLOAD DUP2 JUMP JUMPDEST PUSH0 PUSH0 PUSH0 DUP2 SLOAD DUP1 SWAP3 SWAP2 SWAP1 PUSH2 0xAB8 SWAP1 PUSH2 0x179B JUMP JUMPDEST SWAP2 SWAP1 POP SSTORE POP PUSH0 PUSH0 SLOAD SWAP1 POP PUSH0 PUSH1 0x1 PUSH0 DUP4 DUP2 MSTORE PUSH1 0x20 ADD SWAP1 DUP2 MSTORE PUSH1 0x20 ADD PUSH0 KECCAK256 SWAP1 POP CALLER DUP2 PUSH0 ADD PUSH0 PUSH2 0x100 EXP DUP2 SLOAD DUP2 PUSH20 0xFFFFFFFFFFFFFFFFFFFFFFFFFFFFFFFFFFFFFFFF MUL NOT AND SWAP1 DUP4 PUSH20 0xFFFFFFFFFFFFFFFFFFFFFFFFFFFFFFFFFFFFFFFF AND MUL OR SWAP1 SSTORE POP DUP4 DUP2 PUSH0 ADD PUSH1 0x14 PUSH2 0x100 EXP DUP2 SLOAD DUP2 PUSH1 0xFF MUL NOT AND SWAP1 DUP4 PUSH1 0x2 DUP2 GT ISZERO PUSH2 0xB3D JUMPI PUSH2 0xB3C PUSH2 0x1171 JUMP JUMPDEST JUMPDEST MUL OR SWAP1 SSTORE POP PUSH0 DUP2 PUSH0 ADD PUSH1 0x15 PUSH2 0x100 EXP DUP2 SLOAD DUP2 PUSH1 0xFF MUL NOT AND SWAP1 DUP4 PUSH1 0x2 DUP2 GT ISZERO PUSH2 0xB68 JUMPI PUSH2 0xB67 PUSH2 0x1171 JUMP JUMPDEST JUMPDEST MUL OR SWAP1 SSTORE POP PUSH1 0x2 PUSH0 CALLER PUSH20 0xFFFFFFFFFFFFFFFFFFFFFFFFFFFFFFFFFFFFFFFF AND PUSH20 0xFFFFFFFFFFFFFFFFFFFFFFFFFFFFFFFFFFFFFFFF AND DUP2 MSTORE PUSH1 0x20 ADD SWAP1 DUP2 MSTORE PUSH1 0x20 ADD PUSH0 KECCAK256 DUP3 SWAP1 DUP1 PUSH1 0x1 DUP2 SLOAD ADD DUP1 DUP3 SSTORE DUP1 SWAP2 POP POP PUSH1 0x1 SWAP1 SUB SWAP1 PUSH0 MSTORE PUSH1 0x20 PUSH0 KECCAK256 ADD PUSH0 SWAP1 SWAP2 SWAP1 SWAP2 SWAP1 SWAP2 POP SSTORE CALLER PUSH20 0xFFFFFFFFFFFFFFFFFFFFFFFFFFFFFFFFFFFFFFFF AND DUP3 PUSH32 0xC4AFEC621B00A8476C4EAA76D731DBAF984E16BD432F57543AC5E43615DA1A98 DUP7 PUSH1 0x40 MLOAD PUSH2 0xC15 SWAP2 SWAP1 PUSH2 0x17E2 JUMP JUMPDEST PUSH1 0x40 MLOAD DUP1 SWAP2 SUB SWAP1 LOG3 DUP2 SWAP3 POP POP POP SWAP2 SWAP1 POP JUMP JUMPDEST DUP3 CALLER PUSH20 0xFFFFFFFFFFFFFFFFFFFFFFFFFFFFFFFFFFFFFFFF AND PUSH1 0x1 PUSH0 DUP4 DUP2 MSTORE PUSH1 0x20 ADD SWAP1 DUP2 MSTORE PUSH1 0x20 ADD PUSH0 KECCAK256 PUSH0 ADD PUSH0 SWAP1 SLOAD SWAP1 PUSH2 0x100 EXP SWAP1 DIV PUSH20 0xFFFFFFFFFFFFFFFFFFFFFFFFFFFFFFFFFFFFFFFF AND PUSH20 0xFFFFFFFFFFFFFFFFFFFFFFFFFFFFFFFFFFFFFFFF AND EQ PUSH2 0xCC8 JUMPI PUSH1 0x40 MLOAD PUSH32 0x8C379A000000000000000000000000000000000000000000000000000000000 DUP2 MSTORE PUSH1 0x4 ADD PUSH2 0xCBF SWAP1 PUSH2 0x13DE JUMP JUMPDEST PUSH1 0x40 MLOAD DUP1 SWAP2 SUB SWAP1 REVERT JUMPDEST DUP2 PUSH1 0x1 PUSH0 DUP7 DUP2 MSTORE PUSH1 0x20 ADD SWAP1 DUP2 MSTORE PUSH1 0x20 ADD PUSH0 KECCAK256 PUSH1 0x2 ADD PUSH0 DUP6 PUSH20 0xFFFFFFFFFFFFFFFFFFFFFFFFFFFFFFFFFFFFFFFF AND PUSH20 0xFFFFFFFFFFFFFFFFFFFFFFFFFFFFFFFFFFFFFFFF AND DUP2 MSTORE PUSH1 0x20 ADD SWAP1 DUP2 MSTORE PUSH1 0x20 ADD PUSH0 KECCAK256 SLOAD LT ISZERO PUSH2 0xD5A JUMPI PUSH1 0x40 MLOAD PUSH32 0x8C379A000000000000000000000000000000000000000000000000000000000 DUP2 MSTORE PUSH1 0x4 ADD PUSH2 0xD51 SWAP1 PUSH2 0x1845 JUMP JUMPDEST PUSH1 0x40 MLOAD DUP1 SWAP2 SUB SWAP1 REVERT JUMPDEST DUP2 PUSH1 0x1 PUSH0 DUP7 DUP2 MSTORE PUSH1 0x20 ADD SWAP1 DUP2 MSTORE PUSH1 0x20 ADD PUSH0 KECCAK256 PUSH1 0x1 ADD SLOAD LT ISZERO PUSH2 0xDB1 JUMPI PUSH1 0x40 MLOAD PUSH32 0x8C379A000000000000000000000000000000000000000000000000000000000 DUP2 MSTORE PUSH1 0x4 ADD PUSH2 0xDA8 SWAP1 PUSH2 0x18AD JUMP JUMPDEST PUSH1 0x40 MLOAD DUP1 SWAP2 SUB SWAP1 REVERT JUMPDEST DUP2 PUSH1 0x1 PUSH0 DUP7 DUP2 MSTORE PUSH1 0x20 ADD SWAP1 DUP2 MSTORE PUSH1 0x20 ADD PUSH0 KECCAK256 PUSH1 0x2 ADD PUSH0 DUP6 PUSH20 0xFFFFFFFFFFFFFFFFFFFFFFFFFFFFFFFFFFFFFFFF AND PUSH20 0xFFFFFFFFFFFFFFFFFFFFFFFFFFFFFFFFFFFFFFFF AND DUP2 MSTORE PUSH1 0x20 ADD SWAP1 DUP2 MSTORE PUSH1 0x20 ADD PUSH0 KECCAK256 PUSH0 DUP3 DUP3 SLOAD PUSH2 0xE0F SWAP2 SWAP1 PUSH2 0x18CB JUMP JUMPDEST SWAP3 POP POP DUP2 SWAP1 SSTORE POP DUP2 PUSH1 0x1 PUSH0 DUP7 DUP2 MSTORE PUSH1 0x20 ADD SWAP1 DUP2 MSTORE PUSH1 0x20 ADD PUSH0 KECCAK256 PUSH1 0x1 ADD PUSH0 DUP3 DUP3 SLOAD PUSH2 0xE39 SWAP2 SWAP1 PUSH2 0x18CB JUMP JUMPDEST SWAP3 POP POP DUP2 SWAP1 SSTORE POP PUSH0 DUP4 PUSH20 0xFFFFFFFFFFFFFFFFFFFFFFFFFFFFFFFFFFFFFFFF AND DUP4 PUSH1 0x40 MLOAD PUSH2 0xE65 SWAP1 PUSH2 0x14F9 JUMP JUMPDEST PUSH0 PUSH1 0x40 MLOAD DUP1 DUP4 SUB DUP2 DUP6 DUP8 GAS CALL SWAP3 POP POP POP RETURNDATASIZE DUP1 PUSH0 DUP2 EQ PUSH2 0xE9F JUMPI PUSH1 0x40 MLOAD SWAP2 POP PUSH1 0x1F NOT PUSH1 0x3F RETURNDATASIZE ADD AND DUP3 ADD PUSH1 0x40 MSTORE RETURNDATASIZE DUP3 MSTORE RETURNDATASIZE PUSH0 PUSH1 0x20 DUP5 ADD RETURNDATACOPY PUSH2 0xEA4 JUMP JUMPDEST PUSH1 0x60 SWAP2 POP JUMPDEST POP POP SWAP1 POP DUP1 PUSH2 0xEE8 JUMPI PUSH1 0x40 MLOAD PUSH32 0x8C379A000000000000000000000000000000000000000000000000000000000 DUP2 MSTORE PUSH1 0x4 ADD PUSH2 0xEDF SWAP1 PUSH2 0x1948 JUMP JUMPDEST PUSH1 0x40 MLOAD DUP1 SWAP2 SUB SWAP1 REVERT JUMPDEST DUP4 PUSH20 0xFFFFFFFFFFFFFFFFFFFFFFFFFFFFFFFFFFFFFFFF AND DUP6 PUSH32 0x7A482FDEB6BC9A1376F597068A214A7A39472BB2EFF1B8CAD21BA04F49DDCA1B DUP6 PUSH1 0x40 MLOAD PUSH2 0xF2F SWAP2 SWAP1 PUSH2 0x101C JUMP JUMPDEST PUSH1 0x40 MLOAD DUP1 SWAP2 SUB SWAP1 LOG3 POP POP POP POP POP JUMP JUMPDEST PUSH0 PUSH0 REVERT JUMPDEST PUSH0 DUP2 SWAP1 POP SWAP2 SWAP1 POP JUMP JUMPDEST PUSH2 0xF54 DUP2 PUSH2 0xF42 JUMP JUMPDEST DUP2 EQ PUSH2 0xF5E JUMPI PUSH0 PUSH0 REVERT JUMPDEST POP JUMP JUMPDEST PUSH0 DUP2 CALLDATALOAD SWAP1 POP PUSH2 0xF6F DUP2 PUSH2 0xF4B JUMP JUMPDEST SWAP3 SWAP2 POP POP JUMP JUMPDEST PUSH0 PUSH20 0xFFFFFFFFFFFFFFFFFFFFFFFFFFFFFFFFFFFFFFFF DUP3 AND SWAP1 POP SWAP2 SWAP1 POP JUMP JUMPDEST PUSH0 PUSH2 0xF9E DUP3 PUSH2 0xF75 JUMP JUMPDEST SWAP1 POP SWAP2 SWAP1 POP JUMP JUMPDEST PUSH2 0xFAE DUP2 PUSH2 0xF94 JUMP JUMPDEST DUP2 EQ PUSH2 0xFB8 JUMPI PUSH0 PUSH0 REVERT JUMPDEST POP JUMP JUMPDEST PUSH0 DUP2 CALLDATALOAD SWAP1 POP PUSH2 0xFC9 DUP2 PUSH2 0xFA5 JUMP JUMPDEST SWAP3 SWAP2 POP POP JUMP JUMPDEST PUSH0 PUSH0 PUSH1 0x40 DUP4 DUP6 SUB SLT ISZERO PUSH2 0xFE5 JUMPI PUSH2 0xFE4 PUSH2 0xF3E JUMP JUMPDEST JUMPDEST PUSH0 PUSH2 0xFF2 DUP6 DUP3 DUP7 ADD PUSH2 0xF61 JUMP JUMPDEST SWAP3 POP POP PUSH1 0x20 PUSH2 0x1003 DUP6 DUP3 DUP7 ADD PUSH2 0xFBB JUMP JUMPDEST SWAP2 POP POP SWAP3 POP SWAP3 SWAP1 POP JUMP JUMPDEST PUSH2 0x1016 DUP2 PUSH2 0xF42 JUMP JUMPDEST DUP3 MSTORE POP POP JUMP JUMPDEST PUSH0 PUSH1 0x20 DUP3 ADD SWAP1 POP PUSH2 0x102F PUSH0 DUP4 ADD DUP5 PUSH2 0x100D JUMP JUMPDEST SWAP3 SWAP2 POP POP JUMP JUMPDEST PUSH0 PUSH1 0x20 DUP3 DUP5 SUB SLT ISZERO PUSH2 0x104A JUMPI PUSH2 0x1049 PUSH2 0xF3E JUMP JUMPDEST JUMPDEST PUSH0 PUSH2 0x1057 DUP5 DUP3 DUP6 ADD PUSH2 0xF61 JUMP JUMPDEST SWAP2 POP POP SWAP3 SWAP2 POP POP JUMP JUMPDEST PUSH0 PUSH1 0x20 DUP3 DUP5 SUB SLT ISZERO PUSH2 0x1075 JUMPI PUSH2 0x1074 PUSH2 0xF3E JUMP JUMPDEST JUMPDEST PUSH0 PUSH2 0x1082 DUP5 DUP3 DUP6 ADD PUSH2 0xFBB JUMP JUMPDEST SWAP2 POP POP SWAP3 SWAP2 POP POP JUMP JUMPDEST PUSH0 DUP2 MLOAD SWAP1 POP SWAP2 SWAP1 POP JUMP JUMPDEST PUSH0 DUP3 DUP3 MSTORE PUSH1 0x20 DUP3 ADD SWAP1 POP SWAP3 SWAP2 POP POP JUMP JUMPDEST PUSH0 DUP2 SWAP1 POP PUSH1 0x20 DUP3 ADD SWAP1 POP SWAP2 SWAP1 POP JUMP JUMPDEST PUSH2 0x10BD DUP2 PUSH2 0xF42 JUMP JUMPDEST DUP3 MSTORE POP POP JUMP JUMPDEST PUSH0 PUSH2 0x10CE DUP4 DUP4 PUSH2 0x10B4 JUMP JUMPDEST PUSH1 0x20 DUP4 ADD SWAP1 POP SWAP3 SWAP2 POP POP JUMP JUMPDEST PUSH0 PUSH1 0x20 DUP3 ADD SWAP1 POP SWAP2 SWAP1 POP JUMP JUMPDEST PUSH0 PUSH2 0x10F0 DUP3 PUSH2 0x108B JUMP JUMPDEST PUSH2 0x10FA DUP2 DUP6 PUSH2 0x1095 JUMP JUMPDEST SWAP4 POP PUSH2 0x1105 DUP4 PUSH2 0x10A5 JUMP JUMPDEST DUP1 PUSH0 JUMPDEST DUP4 DUP2 LT ISZERO PUSH2 0x1135 JUMPI DUP2 MLOAD PUSH2 0x111C DUP9 DUP3 PUSH2 0x10C3 JUMP JUMPDEST SWAP8 POP PUSH2 0x1127 DUP4 PUSH2 0x10DA JUMP JUMPDEST SWAP3 POP POP PUSH1 0x1 DUP2 ADD SWAP1 POP PUSH2 0x1108 JUMP JUMPDEST POP DUP6 SWAP4 POP POP POP POP SWAP3 SWAP2 POP POP JUMP JUMPDEST PUSH0 PUSH1 0x20 DUP3 ADD SWAP1 POP DUP2 DUP2 SUB PUSH0 DUP4 ADD MSTORE PUSH2 0x115A DUP2 DUP5 PUSH2 0x10E6 JUMP JUMPDEST SWAP1 POP SWAP3 SWAP2 POP POP JUMP JUMPDEST PUSH2 0x116B DUP2 PUSH2 0xF94 JUMP JUMPDEST DUP3 MSTORE POP POP JUMP JUMPDEST PUSH32 0x4E487B7100000000000000000000000000000000000000000000000000000000 PUSH0 MSTORE PUSH1 0x21 PUSH1 0x4 MSTORE PUSH1 0x24 PUSH0 REVERT JUMPDEST PUSH1 0x3 DUP2 LT PUSH2 0x11AF JUMPI PUSH2 0x11AE PUSH2 0x1171 JUMP JUMPDEST JUMPDEST POP JUMP JUMPDEST PUSH0 DUP2 SWAP1 POP PUSH2 0x11BF DUP3 PUSH2 0x119E JUMP JUMPDEST SWAP2 SWAP1 POP JUMP JUMPDEST PUSH0 PUSH2 0x11CE DUP3 PUSH2 0x11B2 JUMP JUMPDEST SWAP1 POP SWAP2 SWAP1 POP JUMP JUMPDEST PUSH2 0x11DE DUP2 PUSH2 0x11C4 JUMP JUMPDEST DUP3 MSTORE POP POP JUMP JUMPDEST PUSH1 0x3 DUP2 LT PUSH2 0x11F5 JUMPI PUSH2 0x11F4 PUSH2 0x1171 JUMP JUMPDEST JUMPDEST POP JUMP JUMPDEST PUSH0 DUP2 SWAP1 POP PUSH2 0x1205 DUP3 PUSH2 0x11E4 JUMP JUMPDEST SWAP2 SWAP1 POP JUMP JUMPDEST PUSH0 PUSH2 0x1214 DUP3 PUSH2 0x11F8 JUMP JUMPDEST SWAP1 POP SWAP2 SWAP1 POP JUMP JUMPDEST PUSH2 0x1224 DUP2 PUSH2 0x120A JUMP JUMPDEST DUP3 MSTORE POP POP JUMP JUMPDEST PUSH0 PUSH1 0x80 DUP3 ADD SWAP1 POP PUSH2 0x123D PUSH0 DUP4 ADD DUP8 PUSH2 0x1162 JUMP JUMPDEST PUSH2 0x124A PUSH1 0x20 DUP4 ADD DUP7 PUSH2 0x11D5 JUMP JUMPDEST PUSH2 0x1257 PUSH1 0x40 DUP4 ADD DUP6 PUSH2 0x121B JUMP JUMPDEST PUSH2 0x1264 PUSH1 0x60 DUP4 ADD DUP5 PUSH2 0x100D JUMP JUMPDEST SWAP6 SWAP5 POP POP POP POP POP JUMP JUMPDEST PUSH0 PUSH0 PUSH1 0x40 DUP4 DUP6 SUB SLT ISZERO PUSH2 0x1283 JUMPI PUSH2 0x1282 PUSH2 0xF3E JUMP JUMPDEST JUMPDEST PUSH0 PUSH2 0x1290 DUP6 DUP3 DUP7 ADD PUSH2 0xFBB JUMP JUMPDEST SWAP3 POP POP PUSH1 0x20 PUSH2 0x12A1 DUP6 DUP3 DUP7 ADD PUSH2 0xF61 JUMP JUMPDEST SWAP2 POP POP SWAP3 POP SWAP3 SWAP1 POP JUMP JUMPDEST PUSH1 0x3 DUP2 LT PUSH2 0x12B7 JUMPI PUSH0 PUSH0 REVERT JUMPDEST POP JUMP JUMPDEST PUSH0 DUP2 CALLDATALOAD SWAP1 POP PUSH2 0x12C8 DUP2 PUSH2 0x12AB JUMP JUMPDEST SWAP3 SWAP2 POP POP JUMP JUMPDEST PUSH0 PUSH1 0x20 DUP3 DUP5 SUB SLT ISZERO PUSH2 0x12E3 JUMPI PUSH2 0x12E2 PUSH2 0xF3E JUMP JUMPDEST JUMPDEST PUSH0 PUSH2 0x12F0 DUP5 DUP3 DUP6 ADD PUSH2 0x12BA JUMP JUMPDEST SWAP2 POP POP SWAP3 SWAP2 POP POP JUMP JUMPDEST PUSH0 PUSH2 0x1303 DUP3 PUSH2 0xF75 JUMP JUMPDEST SWAP1 POP SWAP2 SWAP1 POP JUMP JUMPDEST PUSH2 0x1313 DUP2 PUSH2 0x12F9 JUMP JUMPDEST DUP2 EQ PUSH2 0x131D JUMPI PUSH0 PUSH0 REVERT JUMPDEST POP JUMP JUMPDEST PUSH0 DUP2 CALLDATALOAD SWAP1 POP PUSH2 0x132E DUP2 PUSH2 0x130A JUMP JUMPDEST SWAP3 SWAP2 POP POP JUMP JUMPDEST PUSH0 PUSH0 PUSH0 PUSH1 0x60 DUP5 DUP7 SUB SLT ISZERO PUSH2 0x134B JUMPI PUSH2 0x134A PUSH2 0xF3E JUMP JUMPDEST JUMPDEST PUSH0 PUSH2 0x1358 DUP7 DUP3 DUP8 ADD PUSH2 0xF61 JUMP JUMPDEST SWAP4 POP POP PUSH1 0x20 PUSH2 0x1369 DUP7 DUP3 DUP8 ADD PUSH2 0x1320 JUMP JUMPDEST SWAP3 POP POP PUSH1 0x40 PUSH2 0x137A DUP7 DUP3 DUP8 ADD PUSH2 0xF61 JUMP JUMPDEST SWAP2 POP POP SWAP3 POP SWAP3 POP SWAP3 JUMP JUMPDEST PUSH0 DUP3 DUP3 MSTORE PUSH1 0x20 DUP3 ADD SWAP1 POP SWAP3 SWAP2 POP POP JUMP JUMPDEST PUSH32 0x4E6F74207374616C6C206F776E65720000000000000000000000000000000000 PUSH0 DUP3 ADD MSTORE POP JUMP JUMPDEST PUSH0 PUSH2 0x13C8 PUSH1 0xF DUP4 PUSH2 0x1384 JUMP JUMPDEST SWAP2 POP PUSH2 0x13D3 DUP3 PUSH2 0x1394 JUMP JUMPDEST PUSH1 0x20 DUP3 ADD SWAP1 POP SWAP2 SWAP1 POP JUMP JUMPDEST PUSH0 PUSH1 0x20 DUP3 ADD SWAP1 POP DUP2 DUP2 SUB PUSH0 DUP4 ADD MSTORE PUSH2 0x13F5 DUP2 PUSH2 0x13BC JUMP JUMPDEST SWAP1 POP SWAP2 SWAP1 POP JUMP JUMPDEST PUSH32 0x5374616C6C206E6F7420636C6F73656420796574000000000000000000000000 PUSH0 DUP3 ADD MSTORE POP JUMP JUMPDEST PUSH0 PUSH2 0x1430 PUSH1 0x14 DUP4 PUSH2 0x1384 JUMP JUMPDEST SWAP2 POP PUSH2 0x143B DUP3 PUSH2 0x13FC JUMP JUMPDEST PUSH1 0x20 DUP3 ADD SWAP1 POP SWAP2 SWAP1 POP JUMP JUMPDEST PUSH0 PUSH1 0x20 DUP3 ADD SWAP1 POP DUP2 DUP2 SUB PUSH0 DUP4 ADD MSTORE PUSH2 0x145D DUP2 PUSH2 0x1424 JUMP JUMPDEST SWAP1 POP SWAP2 SWAP1 POP JUMP JUMPDEST PUSH32 0x4E6F7468696E6720746F20776974686472617700000000000000000000000000 PUSH0 DUP3 ADD MSTORE POP JUMP JUMPDEST PUSH0 PUSH2 0x1498 PUSH1 0x13 DUP4 PUSH2 0x1384 JUMP JUMPDEST SWAP2 POP PUSH2 0x14A3 DUP3 PUSH2 0x1464 JUMP JUMPDEST PUSH1 0x20 DUP3 ADD SWAP1 POP SWAP2 SWAP1 POP JUMP JUMPDEST PUSH0 PUSH1 0x20 DUP3 ADD SWAP1 POP DUP2 DUP2 SUB PUSH0 DUP4 ADD MSTORE PUSH2 0x14C5 DUP2 PUSH2 0x148C JUMP JUMPDEST SWAP1 POP SWAP2 SWAP1 POP JUMP JUMPDEST PUSH0 DUP2 SWAP1 POP SWAP3 SWAP2 POP POP JUMP JUMPDEST POP JUMP JUMPDEST PUSH0 PUSH2 0x14E4 PUSH0 DUP4 PUSH2 0x14CC JUMP JUMPDEST SWAP2 POP PUSH2 0x14EF DUP3 PUSH2 0x14D6 JUMP JUMPDEST PUSH0 DUP3 ADD SWAP1 POP SWAP2 SWAP1 POP JUMP JUMPDEST PUSH0 PUSH2 0x1503 DUP3 PUSH2 0x14D9 JUMP JUMPDEST SWAP2 POP DUP2 SWAP1 POP SWAP2 SWAP1 POP JUMP JUMPDEST PUSH32 0x5769746864726177616C206661696C6564000000000000000000000000000000 PUSH0 DUP3 ADD MSTORE POP JUMP JUMPDEST PUSH0 PUSH2 0x1541 PUSH1 0x11 DUP4 PUSH2 0x1384 JUMP JUMPDEST SWAP2 POP PUSH2 0x154C DUP3 PUSH2 0x150D JUMP JUMPDEST PUSH1 0x20 DUP3 ADD SWAP1 POP SWAP2 SWAP1 POP JUMP JUMPDEST PUSH0 PUSH1 0x20 DUP3 ADD SWAP1 POP DUP2 DUP2 SUB PUSH0 DUP4 ADD MSTORE PUSH2 0x156E DUP2 PUSH2 0x1535 JUMP JUMPDEST SWAP1 POP SWAP2 SWAP1 POP JUMP JUMPDEST PUSH32 0x496E76616C6964207374616C6C00000000000000000000000000000000000000 PUSH0 DUP3 ADD MSTORE POP JUMP JUMPDEST PUSH0 PUSH2 0x15A9 PUSH1 0xD DUP4 PUSH2 0x1384 JUMP JUMPDEST SWAP2 POP PUSH2 0x15B4 DUP3 PUSH2 0x1575 JUMP JUMPDEST PUSH1 0x20 DUP3 ADD SWAP1 POP SWAP2 SWAP1 POP JUMP JUMPDEST PUSH0 PUSH1 0x20 DUP3 ADD SWAP1 POP DUP2 DUP2 SUB PUSH0 DUP4 ADD MSTORE PUSH2 0x15D6 DUP2 PUSH2 0x159D JUMP JUMPDEST SWAP1 POP SWAP2 SWAP1 POP JUMP JUMPDEST PUSH32 0x5374616C6C206E6F7420616363657074696E67207061796D656E747300000000 PUSH0 DUP3 ADD MSTORE POP JUMP JUMPDEST PUSH0 PUSH2 0x1611 PUSH1 0x1C DUP4 PUSH2 0x1384 JUMP JUMPDEST SWAP2 POP PUSH2 0x161C DUP3 PUSH2 0x15DD JUMP JUMPDEST PUSH1 0x20 DUP3 ADD SWAP1 POP SWAP2 SWAP1 POP JUMP JUMPDEST PUSH0 PUSH1 0x20 DUP3 ADD SWAP1 POP DUP2 DUP2 SUB PUSH0 DUP4 ADD MSTORE PUSH2 0x163E DUP2 PUSH2 0x1605 JUMP JUMPDEST SWAP1 POP SWAP2 SWAP1 POP JUMP JUMPDEST PUSH32 0x4E6F207061796D656E742073656E740000000000000000000000000000000000 PUSH0 DUP3 ADD MSTORE POP JUMP JUMPDEST PUSH0 PUSH2 0x1679 PUSH1 0xF DUP4 PUSH2 0x1384 JUMP JUMPDEST SWAP2 POP PUSH2 0x1684 DUP3 PUSH2 0x1645 JUMP JUMPDEST PUSH1 0x20 DUP3 ADD SWAP1 POP SWAP2 SWAP1 POP JUMP JUMPDEST PUSH0 PUSH1 0x20 DUP3 ADD SWAP1 POP DUP2 DUP2 SUB PUSH0 DUP4 ADD MSTORE PUSH2 0x16A6 DUP2 PUSH2 0x166D JUMP JUMPDEST SWAP1 POP SWAP2 SWAP1 POP JUMP JUMPDEST PUSH32 0x4E487B7100000000000000000000000000000000000000000000000000000000 PUSH0 MSTORE PUSH1 0x11 PUSH1 0x4 MSTORE PUSH1 0x24 PUSH0 REVERT JUMPDEST PUSH0 PUSH2 0x16E4 DUP3 PUSH2 0xF42 JUMP JUMPDEST SWAP2 POP PUSH2 0x16EF DUP4 PUSH2 0xF42 JUMP JUMPDEST SWAP3 POP DUP3 DUP3 ADD SWAP1 POP DUP1 DUP3 GT ISZERO PUSH2 0x1707 JUMPI PUSH2 0x1706 PUSH2 0x16AD JUMP JUMPDEST JUMPDEST SWAP3 SWAP2 POP POP JUMP JUMPDEST PUSH32 0x5374616C6C20616C726561647920636C6F736564206F72207769746864726177 PUSH0 DUP3 ADD MSTORE PUSH32 0x6E00000000000000000000000000000000000000000000000000000000000000 PUSH1 0x20 DUP3 ADD MSTORE POP JUMP JUMPDEST PUSH0 PUSH2 0x1767 PUSH1 0x21 DUP4 PUSH2 0x1384 JUMP JUMPDEST SWAP2 POP PUSH2 0x1772 DUP3 PUSH2 0x170D JUMP JUMPDEST PUSH1 0x40 DUP3 ADD SWAP1 POP SWAP2 SWAP1 POP JUMP JUMPDEST PUSH0 PUSH1 0x20 DUP3 ADD SWAP1 POP DUP2 DUP2 SUB PUSH0 DUP4 ADD MSTORE PUSH2 0x1794 DUP2 PUSH2 0x175B JUMP JUMPDEST SWAP1 POP SWAP2 SWAP1 POP JUMP JUMPDEST PUSH0 PUSH2 0x17A5 DUP3 PUSH2 0xF42 JUMP JUMPDEST SWAP2 POP PUSH32 0xFFFFFFFFFFFFFFFFFFFFFFFFFFFFFFFFFFFFFFFFFFFFFFFFFFFFFFFFFFFFFFFF DUP3 SUB PUSH2 0x17D7 JUMPI PUSH2 0x17D6 PUSH2 0x16AD JUMP JUMPDEST JUMPDEST PUSH1 0x1 DUP3 ADD SWAP1 POP SWAP2 SWAP1 POP JUMP JUMPDEST PUSH0 PUSH1 0x20 DUP3 ADD SWAP1 POP PUSH2 0x17F5 PUSH0 DUP4 ADD DUP5 PUSH2 0x11D5 JUMP JUMPDEST SWAP3 SWAP2 POP POP JUMP JUMPDEST PUSH32 0x526566756E642065786365656473207061796D656E7400000000000000000000 PUSH0 DUP3 ADD MSTORE POP JUMP JUMPDEST PUSH0 PUSH2 0x182F PUSH1 0x16 DUP4 PUSH2 0x1384 JUMP JUMPDEST SWAP2 POP PUSH2 0x183A DUP3 PUSH2 0x17FB JUMP JUMPDEST PUSH1 0x20 DUP3 ADD SWAP1 POP SWAP2 SWAP1 POP JUMP JUMPDEST PUSH0 PUSH1 0x20 DUP3 ADD SWAP1 POP DUP2 DUP2 SUB PUSH0 DUP4 ADD MSTORE PUSH2 0x185C DUP2 PUSH2 0x1823 JUMP JUMPDEST SWAP1 POP SWAP2 SWAP1 POP JUMP JUMPDEST PUSH32 0x496E73756666696369656E742062616C616E636520696E207374616C6C000000 PUSH0 DUP3 ADD MSTORE POP JUMP JUMPDEST PUSH0 PUSH2 0x1897 PUSH1 0x1D DUP4 PUSH2 0x1384 JUMP JUMPDEST SWAP2 POP PUSH2 0x18A2 DUP3 PUSH2 0x1863 JUMP JUMPDEST PUSH1 0x20 DUP3 ADD SWAP1 POP SWAP2 SWAP1 POP JUMP JUMPDEST PUSH0 PUSH1 0x20 DUP3 ADD SWAP1 POP DUP2 DUP2 SUB PUSH0 DUP4 ADD MSTORE PUSH2 0x18C4 DUP2 PUSH2 0x188B JUMP JUMPDEST SWAP1 POP SWAP2 SWAP1 POP JUMP JUMPDEST PUSH0 PUSH2 0x18D5 DUP3 PUSH2 0xF42 JUMP JUMPDEST SWAP2 POP PUSH2 0x18E0 DUP4 PUSH2 0xF42 JUMP JUMPDEST SWAP3 POP DUP3 DUP3 SUB SWAP1 POP DUP2 DUP2 GT ISZERO PUSH2 0x18F8 JUMPI PUSH2 0x18F7 PUSH2 0x16AD JUMP JUMPDEST JUMPDEST SWAP3 SWAP2 POP POP JUMP JUMPDEST PUSH32 0x526566756E64206661696C656400000000000000000000000000000000000000 PUSH0 DUP3 ADD MSTORE POP JUMP JUMPDEST PUSH0 PUSH2 0x1932 PUSH1 0xD DUP4 PUSH2 0x1384 JUMP JUMPDEST SWAP2 POP PUSH2 0x193D DUP3 PUSH2 0x18FE JUMP JUMPDEST PUSH1 0x20 DUP3 ADD SWAP1 POP SWAP2 SWAP1 POP JUMP JUMPDEST PUSH0 PUSH1 0x20 DUP3 ADD SWAP1 POP DUP2 DUP2 SUB PUSH0 DUP4 ADD MSTORE PUSH2 0x195F DUP2 PUSH2 0x1926 JUMP JUMPDEST SWAP1 POP SWAP2 SWAP1 POP JUMP INVALID LOG2 PUSH5 0x6970667358 0x22 SLT KECCAK256 PUSH13 0x8CF0ABB7106D489BDE0673843 0xEA 0xCA CALLVALUE 0xDC MCOPY 0xB9 EQ 0xB1 0xE8 CALLCODE 0xAA 0xB9 0xC8 0x26 0x21 0xD3 DUP6 0xEF PUSH5 0x736F6C6343 STOP ADDMOD 0x1E STOP CALLER "
				},
				"gasEstimates": {
					"creation": {
						"codeDepositCost": "1311200",
						"executionCost": "1361",
						"totalCost": "1312561"
					},
					"external": {
						"closeStall(uint256)": "29415",
						"getOwnerStalls(address)": "infinite",
						"getStall(uint256)": "infinite",
						"getUserPayment(uint256,address)": "infinite",
						"ownerStalls(address,uint256)": "infinite",
						"payToStall(uint256)": "infinite",
						"refund(uint256,address,uint256)": "infinite",
						"registerStall(uint8)": "infinite",
						"stallCount()": "2446",
						"withdraw(uint256)": "infinite"
					}
				},
				"methodIdentifiers": {
					"closeStall(uint256)": "9649bf90",
					"getOwnerStalls(address)": "417b48da",
					"getStall(uint256)": "764af2a9",
					"getUserPayment(uint256,address)": "1b18b9ba",
					"ownerStalls(address,uint256)": "c364a170",
					"payToStall(uint256)": "5f593a61",
					"refund(uint256,address,uint256)": "e796a6eb",
					"registerStall(uint8)": "d8f4ee5b",
					"stallCount()": "99cb043a",
					"withdraw(uint256)": "2e1a7d4d"
				}
			},
			"storageLayout": {
				"storage": [
					{
						"astId": 26,
						"contract": "CCNProject.sol:CCNCarnival",
						"label": "stallCount",
						"offset": 0,
						"slot": "0",
						"type": "t_uint256"
					},
					{
						"astId": 31,
						"contract": "CCNProject.sol:CCNCarnival",
						"label": "stalls",
						"offset": 0,
						"slot": "1",
						"type": "t_mapping(t_uint256,t_struct(Stall)24_storage)"
					},
					{
						"astId": 36,
						"contract": "CCNProject.sol:CCNCarnival",
						"label": "ownerStalls",
						"offset": 0,
						"slot": "2",
						"type": "t_mapping(t_address,t_array(t_uint256)dyn_storage)"
					}
				],
				"types": {
					"t_address": {
						"encoding": "inplace",
						"label": "address",
						"numberOfBytes": "20"
					},
					"t_array(t_uint256)dyn_storage": {
						"base": "t_uint256",
						"encoding": "dynamic_array",
						"label": "uint256[]",
						"numberOfBytes": "32"
					},
					"t_enum(StallDuration)5": {
						"encoding": "inplace",
						"label": "enum CCNCarnival.StallDuration",
						"numberOfBytes": "1"
					},
					"t_enum(StallStatus)9": {
						"encoding": "inplace",
						"label": "enum CCNCarnival.StallStatus",
						"numberOfBytes": "1"
					},
					"t_mapping(t_address,t_array(t_uint256)dyn_storage)": {
						"encoding": "mapping",
						"key": "t_address",
						"label": "mapping(address => uint256[])",
						"numberOfBytes": "32",
						"value": "t_array(t_uint256)dyn_storage"
					},
					"t_mapping(t_address,t_uint256)": {
						"encoding": "mapping",
						"key": "t_address",
						"label": "mapping(address => uint256)",
						"numberOfBytes": "32",
						"value": "t_uint256"
					},
					"t_mapping(t_uint256,t_struct(Stall)24_storage)": {
						"encoding": "mapping",
						"key": "t_uint256",
						"label": "mapping(uint256 => struct CCNCarnival.Stall)",
						"numberOfBytes": "32",
						"value": "t_struct(Stall)24_storage"
					},
					"t_struct(Stall)24_storage": {
						"encoding": "inplace",
						"label": "struct CCNCarnival.Stall",
						"members": [
							{
								"astId": 11,
								"contract": "CCNProject.sol:CCNCarnival",
								"label": "owner",
								"offset": 0,
								"slot": "0",
								"type": "t_address"
							},
							{
								"astId": 14,
								"contract": "CCNProject.sol:CCNCarnival",
								"label": "duration",
								"offset": 20,
								"slot": "0",
								"type": "t_enum(StallDuration)5"
							},
							{
								"astId": 17,
								"contract": "CCNProject.sol:CCNCarnival",
								"label": "status",
								"offset": 21,
								"slot": "0",
								"type": "t_enum(StallStatus)9"
							},
							{
								"astId": 19,
								"contract": "CCNProject.sol:CCNCarnival",
								"label": "balance",
								"offset": 0,
								"slot": "1",
								"type": "t_uint256"
							},
							{
								"astId": 23,
								"contract": "CCNProject.sol:CCNCarnival",
								"label": "payments",
								"offset": 0,
								"slot": "2",
								"type": "t_mapping(t_address,t_uint256)"
							}
						],
						"numberOfBytes": "96"
					},
					"t_uint256": {
						"encoding": "inplace",
						"label": "uint256",
						"numberOfBytes": "32"
					}
				}
			},
			"userdoc": {
				"kind": "user",
				"methods": {},
				"version": 1
			}
		}
	}
}